:107E000001C0E1C01F92CDB7DEB7112484B788232B
:107E100061F0982F9A70923041F081FF02C097EF85
:107E200094BF282E80E0BAD0EBC085E0809381001B
:107E300082E08093C00088E18093C10086E0809357
:107E4000C20087E68093C4008EE0A8D0549A84E0F4
:107E500028E13EEF91E0309385002093840096BBAB
:107E6000B09BFECF4C9AA8954091C00047FD02C040
:107E7000815089F7DD24D39495E0C92E21E1B22EFB
:107E80007FD0813469F47CD089838ED08981823817
:107E9000E9F0813811F488E001C083E06AD066C05F
:107EA000823411F484E103C0853419F485E084D070
:107EB0005DC0853539F464D0882E62D0982E880C48
:107EC000991C53C0863521F484E076D080E0E6CF5B
:107ED000843609F02EC054D053D0F82E51D0E82E5D
:107EE00000E011E04DD0F80181938F01FE12FACF2E
:107EF0005BD0F5E4EF1201C0FFCF83E0F40187BF50
:107F0000E89507B600FCFDCFF401A0E0B1E08D914B
:107F10009D910C01D7BEE89511243296FA12F7CF45
:107F2000F401C7BEE89507B600FCFDCFB7BEE895E3
:107F30001DC0843769F424D023D0182F21D034D029
:107F40007401F70185917F0114D01150D1F70EC053
:107F5000853739F429D08EE10CD085E90AD08FE03D
:107F60009DCF813511F488E019D01ED080E101D079
:107F700087CF9091C00095FFFCCF8093C6000895F5
:107F80004C9A8091C00087FFFCCF8091C00084FD97
:107F900001C0A8958091C6004C9A0895E0E6F0E0F3
:107FA00098E1908380830895EBDF803219F088E0B8
:107FB000F5DFFFCF84E1DDCFCF93C82FE1DFC150E4
:107FC000E9F7CF91F1CFFC010A0167BFE8951124D1
:107FD00007B600FCFDCF667029F0452B19F481E14E
:067FE00087BFE89508953B
:027FFE00000879
:0400000300007E007B
:00000001FF
