:100000000C94D1040C94DF0B0C940C0C0C94F9049C
:100010000C94F40B0C94F9040C94910B0C94F904CB
:100020000C94F9040C94F9040C94F9040C94F9045C
:100030000C94F9040C94F9040C94F9040C94F9044C
:100040000C94881B0C94F9040C94EE0F0C94C80FBC
:100050000C94F9040C94360C0C94F9040C94F904E7
:100060000C94E1070C94F9040C94F9040C94F90431
:100070000C94F9040C94F9040C94F9040C94F9040C
:100080000C94F9040C94F9040C94F9040C94F904FC
:100090000C94F9040C94F9040C94F9040C94F904EC
:1000A0000C94F9040C94F9040C94F9040C94F904DC
:1000B0000C94F904C622C922CC22CF22E222EC22DF
:1000C000EF22022308230E2316231C232423862336
:1000D0008D23922395239A239F23A423A923B1231D
:1000E0005319561949194D19771977195A195E1963
:1000F0006419681977196E197219524F4B3A0053E7
:100100004F4B3A000A436F6E666967757261746996
:100110006F6E206D6F6465000A496E76616C69646C
:1001200020636F6D6D616E6400426F726F73526514
:100130006564323420636F6E66696720636F6E7327
:100140006F6C65205B424D3C32344D3E56335D2032
:1001500054797065202768656C702720746F207350
:10016000686F7720636F6D6D616E6473005B747090
:100170006C5D5061796C6F61642074656D706C6149
:1001800074653A005B6368615D4368616E6E656CBF
:100190003A005B726174655D4461746120726174E0
:1001A000653A005B7478705D547820706F77657283
:1001B0003A005B6D666F725D4D65736820666F72A5
:1001C00063652072656E65773A005B6D6473745D7C
:1001D0004D65736820446573742E206E6F646520CE
:1001E00049643A005B6D6669645D4D6573682066BD
:1001F00072616D6520747970653A005B6D6E69643B
:100200005D4D657368206E6F6465202049643A0017
:100210005B726574645D52657472792064656C61AB
:10022000793A005B726574725D526574727920432D
:100230006F756E743A005B6372635D4372633A007C
:100240005B61636B5D4175746F41636B3A005B6426
:10025000737A5D5061796C6F61642073697A653A75
:10026000005B706970655D52656D6F7465207069C3
:1002700070653A005B70737A5D41646472207369E3
:100280007A653A005B6D6F645D5266204D6F646500
:100290003A005B6163635D41636375726163793AE0
:1002A000005B7265706F5D5265706F7274286D755A
:1002B0006C293A005B69645D44657669636549440D
:1002C0003A005B65696E745D45496E7420656E61C8
:1002D000626C65643A005B6C65645D4C65643A0011
:1002E0005B696E765D496E762E20726565643A00B4
:1002F0005265626F6F7421000A5B4552524F525D26
:100300000A000A5B4F4B5D0A002D2D2D434F4D4DCA
:10031000414E44532D2D2D3A0A4D6973633A0A3DDF
:100320003D3D3D3D0A68656C70202D2073686F77F8
:10033000732074686973206D73670A766572202074
:100340002D2073686F77732076657273696F6E20E6
:1003500062616E6E65720A73686F77202D20736814
:100360006F77732063757272656E7420636F6E664B
:10037000696775726174696F6E0A73656E20202DEE
:100380002073686F77732073656E736F7273207359
:1003900074617475730A7265626F202D20726562D4
:1003A0006F6F74206465766963650A6661632020F7
:1003B0002D206F7665727269646520636F6E666961
:1003C00067207769746820666163746F727920644E
:1003D000656661756C74730A47656E6572616C3A27
:1003E0000A3D3D3D3D3D3D3D3D0A696E76203C3137
:1003F0002F303E2020202D20696E76657274207289
:100400006565642073656E736F72207265616469DF
:100410006E670A6C6564203C312F303E2020202D11
:1004200020626C696E6B206C6564206F6E206E6F4D
:1004300074696669636174696F6E0A65696E7420B8
:100440003C312F303E20202D20656E61626C65208E
:1004500065787465726E616C20696E746572727510
:1004600070740A6964203C6E756D6265723E202D61
:100470002073657420313662697420696E74656713
:1004800065722049440A7265706F203C6D756C3E40
:1004900020202D2073657420706572696F64696314
:1004A000207265706F7274203D20382A6D756C2043
:1004B0007365636F6E64732E28303D646973616287
:1004C0006C6564290A616363203C6E3E2020202015
:1004D000202D2073657420616363757261637920D8
:1004E000627974650A2074706C20203C74656D70AC
:1004F0006C6174653E202D20736574207061796C89
:100500006F61642074656D706C6174650A6D6F64F1
:1005100065203C302D333E202D20736574207261A0
:1005200064696F206D6F646520303D706C61696E29
:100530002C313D6D6573682C323D6C6F7261776153
:100540006E0A526164696F3A0A3D3D3D3D3D3D0A88
:1005500074787020203C302D343E2020202D2073D4
:10056000657420545820706F776572206C657665CD
:100570006C0A63686120203C312D3132363E202DDB
:100580002073657420726164696F206368616E6EA8
:10059000656C0A72617465203C302F312F323E2029
:1005A0002D2073657420726164696F2064617461C9
:1005B000207261746520303D314D4250532C313DE5
:1005C000324D4250532C333D3235304B4250530A5A
:1005D000506C61696E206D6F64653A0A3D3D3D3D2A
:1005E0003D3D3D3D3D3D3D0A70737A20203C332F1B
:1005F000342F353E202D207365742070697065207E
:10060000616464726573732073697A650A706970D6
:1006100065203C6865783E2020202D20736574207D
:10062000686578206465737469616E74696F6E20A3
:100630007069706520284C5342290A64737A20201F
:100640003C302D33323E20202D20736574206461B0
:1006500074612F7061796C6F61642073697A650AC7
:1006600063726320203C302F312F323E202D2073C7
:1006700065742063726320303D64697361626C65E8
:10068000642C313D386269742C323D3136626974B4
:100690000A61636B20203C302F313E2020202D202A
:1006A000557365206175746F61636B0A726574724E
:1006B000203C302D31353E20202D20736574206E76
:1006C000756D626572206F66207478207265747231
:1006D0006965730A72657464203C302D31353E20A3
:1006E000202D2073657420726574726965732064AF
:1006F000656C617920286E2B31292A32353075736B
:100700000A4D657368206D6F64653A0A3D3D3D3D55
:100710003D3D3D3D3D3D0A6D6E6964203C312D32CD
:1007200035353E202D20736574206D657368206E0D
:100730006F64652049440A6D666964203C302D323F
:1007400035353E202D20736574206D6573682066F5
:1007500072616D6520747970650A6D647374203CF4
:10076000302D3235353E202D20736574206D657334
:1007700068206E6F64652064657374696E61746966
:100780006F6E2069640A6D666F72203C302F313EB7
:100790002020202D20666F726365206D65736820B0
:1007A00072656E657720636F6E6E656374696F6ED8
:1007B000004D6F6465206368616E6765640053482F
:1007C0005443335B48554D5D286325293A0053480F
:1007D0005443335B54454D505D286343293A005BD5
:1007E0005643435D286D56293A005B564241545D9D
:1007F000286D56293A00CAAB000000010000000035
:100800002549642C2552642C2542642C2541422C18
:1008100025566400000000000000000000000000F9
:1008200000000000000000000000000000000000C8
:1008300000000000000000000000000000000000B8
:1008400000000000000000000000000000000000A8
:100850000000000000000000000000000000000098
:100860000000000000000000000000000000000088
:100870000000000000000000000000000000000078
:1008800000000000024C0005314E6F64652002013B
:1008900008060A44000000010203040511121314A3
:1008A00015160A0B0C0D0E0F68656C70000076654E
:1008B0007200000073686F77000073656E000000BF
:1008C0007265626F0000666163000000696E760009
:1008D00000006C656400000065696E740000696466
:1008E000000000007265706F00006163630000002B
:1008F00074706C0000006D6F6465000074787000A7
:10090000000063686100000072617465000070732C
:100910007A00000070697065000064737A0000005E
:1009200063726300000061636B00000072657472A3
:1009300000007265746400006D6E696400006D668D
:10094000696400006D64737400006D666F7200006E
:10095000000000080002010000030407000000007E
:100960000000000000000000250028002B0000000F
:100970000000240027002A000404040404040404E2
:10098000020202020202030303030303010204083A
:1009900010204080010204081020010204081020E9
:1009A000132511241FBECFEFD8E0DEBFCDBF11E06D
:1009B000A0E0B1E0E4E9F6E502C005900D92AE34A6
:1009C000B107D9F725E0AEE4B1E001C01D92A13531
:1009D000B207E1F714E0C1EDD4E004C02197FE01B5
:1009E0000E944B29C03DD107C9F70E94D21B0C942D
:1009F000482B0C94000085ED8093BC008091BC00D6
:100A000084FDFCCF1092EC01089540917E01262FC9
:100A100030E0240F311D21323105DCF42091EC014E
:100A20002430C9F4FC0180E090E0861758F430913E
:100A30007E012191DC01A25ABE4FA30FB11D2C9360
:100A40000196F3CF80917E01680F60937E0180E074
:100A5000089581E0089582E0089508950895089525
:100A6000E091A5018091A401E81730F4F0E0EA5587
:100A7000FE4F808190E008958FEF9FEF0895909151
:100A8000A5018091A401981750F4E92FF0E0EA55F0
:100A9000FE4F208130E09F5F9093A50102C02FEFB1
:100AA0003FEFC90108958091A40190E02091A50134
:100AB000821B91090895CF92DF92EF92FF920F93DC
:100AC0001F93CF93DF937C01CB018A0120910F020A
:100AD000222389F0EB016B01C40ED51ECC15DD0578
:100AE00069F06991D701ED91FC910190F081E02DC1
:100AF000C7010995F3CF642F0E940505C801DF9156
:100B0000CF911F910F91FF90EF90DF90CF900895BC
:100B1000CF93DF931F92CDB7DEB7698320910F0289
:100B20002223D1F020910D02203240F021E030E06C
:100B3000FC013383228380E090E015C080910E0297
:100B4000E82FF0E0E351FE4F998190838F5F80930F
:100B50000E0280930D0205C061E0CE0101960E9455
:100B6000050581E090E00F90DF91CF910895089501
:100B700080E090E00895CF93DF93EC018CB58F7DFA
:100B80008CBD8CB5837F8CBD8CB58C7F8CBD8DB5B9
:100B900081608DBD8A810E942C198C899D89DF918D
:100BA000CF910C948C1961E00C94BB0560E00C941F
:100BB000BB05FC012081318182819381281739078F
:100BC00019F0822F0C942C1908958EBD00000DB4DD
:100BD00007FEFDCF8EB508951F93CF93DF93EC01F1
:100BE000162F0E94D605812F0E94E505182FCE01F1
:100BF0000E94D305812FDF91CF911F91089561EE5F
:100C00000C94EC05BF92CF92DF92EF92FF920F937C
:100C10001F93CF93DF938C01B62EC72EF22EFC01CB
:100C2000C781DC2F4C1708F4D42FF801808581117F
:100C300002C0CD1B01C0C0E0C8010E94D6058F2DA7
:100C40000E94E505D82EEB2CFC2CDD2339F0F701B2
:100C500081917F010E94E505D150F7CFCC2329F087
:100C600080E00E94E505C150F9CFC8010E94D3057C
:100C70008D2DDF91CF911F910F91FF90EF90DF901D
:100C8000CF90BF9008950F931F93CF93DF938C0164
:100C9000C62FD42F0E94D6058C2F8F7180620E94A0
:100CA000E505C82F8D2F0E94E505C8010E94D305D8
:100CB0008C2FDF91CF911F910F910895CF92DF92EA
:100CC000EF92FF920F931F93CF93DF937C01162F28
:100CD0006A01C22F0E94D605812F8F7180620E9407
:100CE000E505D82F8601CC2339F0F80181918F01D9
:100CF0000E94E505C150F7CFC7010E94D3058D2F93
:100D0000DF91CF911F910F91FF90EF90DF90CF90E7
:100D100008951F93CF93DF93EC01162F0E94D60501
:100D2000812F8F710E94E5058FEF0E94E505182F36
:100D3000CE010E94D305812FDF91CF911F9108959D
:100D4000CF93DF93EC0160E00E94890681FD0EC025
:100D5000482F426060E0CE010E94430665E070E0EB
:100D600080E090E0DF91CF910C949719DF91CF91C3
:100D70000895CF93DF93EC0160E00E94D905888944
:100D800099890E948C196DE1CE010E94890681FF2C
:100D900007C0888999890E948C19CE010E94FF059D
:100DA00060E0CE010E948906482F4E7F60E0CE01B0
:100DB0000E94430662E0CE010E948906E6E9F8E05F
:100DC000E49141E050E001C0440FEA95EAF7482B76
:100DD00062E0CE01DF91CF910C944306CF93DF9375
:100DE000EC010E94A00660E0CE010E948906482F17
:100DF000416060E0CE010E94430640E767E0CE011B
:100E00000E94430661E0CE010E94D90589858823AE
:100E100049F02E85AE01475F5F4F6AE0CE010E9428
:100E20005E0614C062E0CE010E948906E6E9F8E0A1
:100E3000E49121E030E001C0220FEA95EAF7209525
:100E4000422F482362E0CE010E9443066DE1CE01AD
:100E50000E94890681FF05C0CE01DF91CF910C94DD
:100E6000FF05DF91CF9108951F93CF93DF93EC019E
:100E7000888199812A813B818217930711F00E9412
:100E80000D198A819B81288139812817390711F032
:100E90000E940D191FB7F8948091A101811124C0FF
:100EA000E2E8F9E08491E6E9F9E09491E82FF0E0D6
:100EB000EE0FFF1FE259F64FA591B491EC91E92393
:100EC00021F461E08AE00E942C198AE00E940D1949
:100ED0008CB580618CBD8CB580648CBD8DE00E942A
:100EE0000D198BE00E940D198091A1018F5F8093F5
:100EF000A1011FBF60E0CE010E94D90561E0CE01D3
:100F00000E94BB0565E070E080E090E00E949719C8
:100F10004CE060E0CE010E9443064FE564E0CE0164
:100F20000E94430662E0CE010E94BC14882311F0A7
:100F300081E08E8366E0CE010E948906182F60E072
:100F4000CE010E94BC14CE010E94D60580E50E940D
:100F5000E50583E70E94E505CE010E94D30540E048
:100F60006DE1CE010E94430640E06CE1CE010E949B
:100F70004306188640E767E0CE010E9443064CE432
:100F800065E0CE010E94430662EECE010E94EC05B0
:100F9000CE010E94FF05CE010E94A00660E0CE01B6
:100FA0000E948906482F4E7F60E0CE010E944306D2
:100FB000115081E01E3F08F080E0DF91CF911F913A
:100FC00008951F920F920FB60F9211242F933F9303
:100FD0004F935F936F937F938F939F93AF93BF9341
:100FE000EF93FF938091B900887F803609F49CC00D
:100FF00068F5883209F45BC090F4803109F454C07C
:1010000038F4882309F4F6C0883009F44DC0F6C0DE
:10101000883109F44CC0803209F45DC0EFC08034DF
:1010200009F468C048F4803309F455C0883309F0E6
:10103000E5C08093EA01D8C0803509F44FC08835F7
:1010400009F45DC0883409F0D9C0D6C0883909F4E4
:10105000C7C0A8F4883709F467C038F4883609F4A3
:1010600063C0803709F460C0C9C0883809F4B8C0CB
:10107000803909F45FC0803809F0C0C05BC0803B94
:1010800009F486C038F4803A09F466C0883A09F455
:101090007FC0B4C0803C09F4A7C0883C09F4A4C058
:1010A000883B09F48AC0AAC08091C70110C0909102
:1010B000E9018091E801981770F5E091E90181E07C
:1010C0008E0F8093E901F0E0E853FE4F808180931A
:1010D000BB0085EC86C08093EA018EC0E091E901F7
:1010E00081E08E0F8093E9018091BB00F0E0E8532E
:1010F000FE4F80839091E9018091E8016EC0E091FC
:10110000E90181E08E0F8093E9018091BB00F0E05E
:10111000E853FE4F80838091EB0181116DC081E027
:101120008093C60184EA61C083E08093EC01109251
:10113000A001CFCF8091A001803208F051C0E09192
:10114000A00181E08E0F8093A0018091BB00F0E0B0
:10115000E058FE4F8083BDCF85EC8093BC00109299
:10116000EC018091A001803230F4E091A001F0E028
:10117000E058FE4F10826091A00170E0E0914E01B6
:10118000F0914F0180E891E009951092A00136C0DE
:1011900084E08093EC0110927F0110927E01E09137
:1011A0005001F0915101099580917E01811105C096
:1011B00081E080937E0110925E01E0917F0181E0E9
:1011C0008E0F80937F01F0E0E25AFE4F8081809382
:1011D000BB0090917F0180917E01981708F479CF30
:1011E00085E88093BC000AC085EC8093BC00109217
:1011F000EC0104C01092EA010E94FB04FF91EF9100
:10120000BF91AF919F918F917F916F915F914F911E
:101210003F912F910F900FBE0F901F901895CF9276
:10122000DF92EF92FF920F931F93CF93DF93EB0127
:101230007B01E40EF51E182FCE15DF0571F0099124
:10124000C12ED12CC6010E948928081721F0602FD9
:10125000C6010E9491281F5FEFCFDF91CF911F91B0
:101260000F91FF90EF90DF90CF900895EF92FF9253
:101270001F93CF93DF93EB017B01E40EF51E182F34
:10128000CE15DF0539F0812F90E00E9489288993DF
:101290001F5FF6CFDF91CF911F91FF90EF900895E0
:1012A000CF93DF9300D0CDB7DEB71A82198242E028
:1012B00050E0BE016F5F7F4F0E94360989819A819D
:1012C0000F900F90DF91CF910895CF92DF92EF9220
:1012D000FF920F931F93CF93DF9300D000D000D0E5
:1012E000CDB7DEB7082F419865E070E080E090E070
:1012F0000E94971960EC86E00E9406176091A20197
:101300007091A30180E090E00E94FC292EEC3DE862
:101310004BE450E40E948A2A20E030E040E05FE3A2
:101320000E9461290E94CD297093A3016093A201BC
:101330008091A2019091A3019093800380937F03F9
:10134000002371F08AEE97E00E94641580917F037C
:10135000909180030E949C1580E192E00E94E20D32
:10136000419A60E48EE00E9406172091A20130911C
:10137000A30140E050E064EB7BE281E190E00E9459
:101380002C293093820320938103002351F08FEDA9
:1013900097E00E94641580918103909182030E94DE
:1013A0009C1580918903811105C068E5E62E64E6ED
:1013B000F62E04C052EAE52E5CE7F52E61E087E1E7
:1013C00095E30E94DF15882309F462C046E0BE0160
:1013D0006F5F7F4FC7010E948316182F882381F00B
:1013E000CE0101960E946E169B81891308C0CE0122
:1013F00004960E946E169E81891709F450C010E071
:1014000061E088E990EB0E94DF15112309F440C0E8
:101410002091BB023091BC02AFE4B8E60E94512992
:1014200040EAC42E46E8D42EEE24E394F12CA70122
:1014300096010E940A292459314130938403209354
:1014400083032091BD023091BE02ABE9BBE30E9451
:101450005129A70196010E940A29309386032093FF
:101460008503002399F18EEC97E00E94641580912A
:101470008303909184030E94B1158EEB97E00E9444
:10148000641580918503909186030E949C1502C08B
:101490000023E1F080E192E00E94E20D17C0898113
:1014A00090E0982F88272A81820F911D9093BC028B
:1014B0008093BB028C8190E0982F88272D81820F2A
:1014C000911D9093BE028093BD029ACF26960FB6CF
:1014D000F894DEBF0FBECDBFDF91CF911F910F916A
:1014E000FF90EF90DF90CF900895EF92FF920F93CF
:1014F0001F93CF93DF93CDB7DEB728970FB6F8943D
:10150000DEBF0FBECDBF8091F602811105C087ED11
:1015100092E00E94FF055CC08130E9F480917D0378
:10152000811114C084E0F82E92E8E92EFA94FF208D
:1015300039F08091BF029091C0028432994069F4E1
:101540008091C5029091C6020E94B9060E94DD19E1
:1015500021E0892BF1F520E03CC08091C7029091F9
:10156000C8020E94161167E18091C5029091C602DF
:101570000E94890681FD2CC08091C7029091C8020B
:10158000FC0122A520FD24C01C821B8220910001A9
:1015900030910101A9014F5F5F4F509301014093CA
:1015A00000013E832D83EF8208E310E020E030E06D
:1015B00040E050E0BE016F5F7F4F0E94D113811168
:1015C00007C067E670E080E090E00E949719AECF18
:1015D00021E0822F28960FB6F894DEBF0FBECDBF54
:1015E000DF91CF911F910F91FF90EF90089520917F
:1015F00053019F938F93822F90E021E430E0281BCA
:10160000390B3F932F9386579C4F9F938F930E9444
:10161000182BE09153018E0F809353010F900F9080
:101620000F900F900F900F90823438F081E48093E8
:1016300053011092CB0380E00895E82FF0E0E657C5
:10164000FC4F108281E008950FB6F894A895909110
:101650006000986190936000109260000FBE8A3025
:10166000A9F083FD02C098E001C098E28770892B41
:1016700098E10FB6F894A895909360000FBE809300
:1016800060008091600080648093600083B7817FF8
:10169000682B63BFF89483B7816083BF85B780668A
:1016A00085BF8F7D85BF7894889583B78E7F83BFF4
:1016B000789408950FB6F894A89590916000986179
:1016C00090936000109260000FBE8A3049F191E063
:1016D00090935D0183FD02C098E001C098E287709D
:1016E000892B98E10FB6F894A895909360000FBEEF
:1016F000809360008091600080648093600083B775
:10170000817F83BFF89483B7816083BF7894889585
:1017100083B78E7F83BF789480915D018111EFCF75
:1017200008951F920F920FB60F9211248F930FB648
:10173000F894A89580916000886180936000109271
:1017400060000FBE10925D018F910F900FBE0F9041
:101750001F901895F8949BE088E10FB6F894A8952F
:10176000809360000FBE90936000FFCF811102C094
:1017700089E001C08AE01092520190915C019923A6
:1017800011F0E99A01C0E9989091680092609093F5
:10179000680090916C00996090936C0064E00E94E6
:1017A000240B80915201E998909168009D7F90935D
:1017B000680090916C00967F90936C0008951F9242
:1017C0000F920FB60F9211248F93F89483B78E7FE8
:1017D00083BFE89884E08093520178948F910F90B2
:1017E0000FBE0F901F9018951F920F920FB60F9279
:1017F00011248F93F89483B78E7F83BF309B02C0F0
:1018000082E001C081E08093520178948F910F9023
:101810000FBE0F901F9018951F920F920FB60F9248
:1018200011248F93F89483B78E7F83BFE99883E068
:101830008093520178948F910F900FBE0F901F905C
:101840001895882311F05C9A08955C980895109279
:10185000A3011092A20180935B0162E08AE00E94E2
:10186000240B80915B018111F8CF08951F920F9294
:101870000FB60F9211242F933F934F938F939F9303
:1018800090917800409179002091A2013091A301BC
:10189000892F90E0942B820F931F9093A301809344
:1018A000A20180915B01882329F080915B01815026
:1018B00080935B019F918F914F913F912F910F905A
:1018C0000FBE0F901F901895CF93DF931F92CDB747
:1018D000DEB7198241E050E0BE016F5F7F4F0E948A
:1018E000360989810F90DF91CF9108951F93CF938F
:1018F000DF93C82F80E00E945009C1115EC08A3C6E
:101900009B4A09F05AC082E00E94640C91E0811168
:1019100001C090E09093EF0283E00E94640C91E09C
:10192000811101C090E09093F00284E00E94640C69
:1019300091E0811101C090E09093F10285E00E9456
:1019400050099093F3028093F20287E00E945009BD
:101950009093F5028093F40289E00E94640C8093D6
:10196000890342E850E067EF72E08AE00E9436099E
:101970008DE80E94640C8093F60289E90E94640C51
:1019800091E0811101C090E090937A038DE90E946B
:10199000640C80937B038EE90E94640C80937C032B
:1019A0008FE90E94640C91E0811101C090E0909356
:1019B0007D03DF91CF911F910895C0E0D0E0FE013B
:1019C000EA50F84F1491CE010E948928181721F08F
:1019D000612FCE010E9491282196C03AD10579F756
:1019E00092CFCF93DF931F92CDB7DEB7698341E0EB
:1019F00050E0BE016F5F7F4F0E940F090F90DF9193
:101A0000CF910895CF92DF92EF92FF920F931F93A1
:101A1000CF93DF936C017A018B01C0E0D0E0CE154B
:101A2000DF0581F0D8016D918D01D601ED91FC911A
:101A30000190F081E02DC6010995892B11F02196C6
:101A4000EECF7E01C701DF91CF911F910F91FF90E3
:101A5000EF90DF90CF900895FC01538D448D252F9A
:101A600030E0842F90E0821B930B541710F0CF9638
:101A7000089501970895FC01918D828D981761F06A
:101A8000828DDF01A80FB11D5D968C91928D9F5FB5
:101A90009F73928F90E008958FEF9FEF0895FC0160
:101AA000918D828D981731F0828DE80FF11D858D13
:101AB00090E008958FEF9FEF0895FC01918D228DA6
:101AC000892F90E0805C9F4F821B91098F7399272B
:101AD000089580E192E00E945D0D21E0892B09F4D8
:101AE00020E0822F0895FC01848DDF01A80FB11D35
:101AF000A35ABF4F2C91848D90E001968F73992744
:101B0000848FA689B7892C93A089B1898C91837021
:101B100080648C93938D848D981306C00288F3891A
:101B2000E02D80818F7D80830895EF92FF920F9347
:101B30001F93CF93DF93EC0181E0888F9B8D8C8D79
:101B4000981305C0E889F989808185FD26C0F62EA5
:101B50000B8D10E00F5F1F4F0F731127E02E8C8D40
:101B6000E8120CC00FB607FCFACFE889F98980812A
:101B700085FFF5CFCE010E94730DF1CF8B8DFE0155
:101B8000E80FF11DE35AFF4FF0829FB7F8940B8FD7
:101B9000EA89FB89808180620AC09FB7F894EE8948
:101BA000FF896083E889F9898081837080648083FC
:101BB0009FBF81E090E0DF91CF911F910F91FF9047
:101BC000EF900895CF93DF93EC01888D8823C9F0BF
:101BD000EA89FB89808185FD05C0A889B9898C9136
:101BE00086FD0FC00FB607FCF5CF808185FFF2CFD1
:101BF000A889B9898C9185FFEDCFCE010E94730D24
:101C0000E7CFDF91CF91089580E090E0892B21F01C
:101C10000E94690D81110DC080E090E0892B71F068
:101C200080E090E0892B51F00E940000811104C0F7
:101C300008950E940000F0CF0C9400000895CF9307
:101C4000DF93FB01228150814181223030F0252F2A
:101C5000342F81E0838380E02EC0252F342FDC01D8
:101C6000A059BE4F4D915C91D901A423B523EC013D
:101C70006AA97BA9A617B70749F0DC01A359BE4F93
:101C80002D913C91119712968C9115C0CA018095A7
:101C9000909563E0880F991F6A95E1F7822393235B
:101CA000892B41F083E0440F551F8A95E1F7476087
:101CB0002423352385E031832083828381E0DF91F3
:101CC000CF9108950E94F72A8F929F92AF92BF9270
:101CD000CF92DF92EF92FF920F931F93CF93DF93F8
:101CE000EC017B01CCA8D12C860108501109DB0145
:101CF00016969C918CE6890F833020F0983C09F071
:101D0000CFC003C0943909F4E4C08BE6890F823058
:101D100018F0983C09F08EC06E0159EDC50ED11C2B
:101D2000D6012D913C91A801420F531F4139510515
:101D300020F0C852DF4F1882B1C05E01B8EDAB0E83
:101D4000B11CF5018081882309F415C1963929F069
:101D5000D70117969C918913A1C0FE01EB52FF4F4A
:101D600040815181F701848195814817590709F015
:101D700095C04E01FBED8F0E911CD4018D919C916D
:101D8000A801BE01615F7F4F820F931F0E94042B49
:101D9000F60180819181080F191F11830083D701FB
:101DA00016968C91863929F0F501808181508083C7
:101DB00073C0D5011C92F7018781FE01E952FF4FE4
:101DC0008083833809F483C07E01FFECEF0EF11CA1
:101DD000F701A081B181CE018A1B9B0B8B539F4FD2
:101DE00080179107F8F032968AE001900D928A955B
:101DF000E1F7D7018D919C91F40160817181D60149
:101E00004D915C910A960E94042BF601808191818C
:101E10000A96D7012D913C911197820F931F8D93B4
:101E20009C933AC08FA598A90E94B9068AA58160A3
:101E30008AA734C07E01BFECEB0EF11CF701A08134
:101E4000B181CE01C5969D01281B390BC901800FB8
:101E5000911F8B39910510F5E85CF10988E001903C
:101E60000D928A95E1F7D701ED91FC9111971187B9
:101E700000878D919C91BE01615F7F4FA8010A96FA
:101E80000E94042BB2E0CB0ED11CF701808191811E
:101E9000C80ED91ED182C08281E06DC080E06BC0C7
:101EA000933841F6DE01AF52BF4FFE01379688E00E
:101EB00001900D928A95E1F7FE01E552FF4FCE01A8
:101EC0000F9691838083C752DF4F1983088382E086
:101ED00052C0F7018781873008F02BCFFE01EB520B
:101EE000FF4F40815181D70114962D913C91159758
:101EF00034976F014217530739F4408151812D9176
:101F00003C914217530741F2F8E18F9FC001112421
:101F1000FE01E153FF4F20813181AE01421B530B83
:101F20009A012B533F4F281739073CF48AA581604B
:101F30008AA78FA598A90E94B906FE01379688E066
:101F4000D60101900D928A95E1F7FE01E552FF4F0F
:101F5000BE01615F7F4FA801808191810E94042BA7
:101F6000FE01E752FF4F11830083C852DF4F888183
:101F70008150888391CFDF91CF911F910F91FF9076
:101F8000EF90DF90CF90BF90AF909F908F9008958B
:101F90001F920F920FB60F9211242F933F934F93DE
:101FA0005F936F937F938F939F93AF93BF93EF93C1
:101FB000FF9380E192E00E94730DFF91EF91BF913A
:101FC000AF919F918F917F916F915F914F913F91D1
:101FD0002F910F900FBE0F901F9018951F920F9288
:101FE0000FB60F9211242F938F939F93EF93FF932C
:101FF000E0912002F09121028081E0912602F0918F
:10200000270282FD12C09081809129028F5F8F7319
:1020100020912A02821751F0E0912902F0E0E05F5E
:10202000FD4F958F8093290201C08081FF91EF9130
:102030009F918F912F910F900FBE0F901F90189529
:10204000CF93DF93CDB7DEB728970FB6F894DEBFF6
:102050000FBECDBFAC019CEC99839A839B839C837C
:102060009D831E821F8218869A01E1E021153105A9
:10207000C9F0611103C04115510569F4D901A77078
:10208000BB27A85FBE4F8C91A1E0B0E0AC0FBD1F95
:10209000AE0FB11D8C9383E0369527958A95E1F7B5
:1020A000EF5FE4CF611102C0452B39F4E62FF0E079
:1020B000E85FFE4F8081898305C0F0E0E95FFE4F55
:1020C00080818A8329813A814B815C816D817E8107
:1020D0008F81988528960FB6F894DEBF0FBECDBFCE
:1020E000DF91CF9108956F927F928F929F92AF92DE
:1020F000BF92CF92DF92EF92FF920F931F93CF93F5
:10210000DF93CDB7DEB728970FB6F894DEBF0FBECA
:10211000CDBF8C01CB01F22E642F0E94201039011B
:102120004A015B016C01F80182A582FD04C087A50C
:1021300090A90E94B906F80187A590A9FF2011F087
:1021400060E001C061E00E944617F801E7A4F0A832
:1021500069827A828B829C82AD82BE82CF82D8864F
:10216000F7012685AE014F5F5F4F6AE0C7010E940D
:102170005E06F7012685AE014F5F5F4F60E1C70144
:102180000E945E06F701478161E1C7010E94430694
:10219000F801D4A8E7A4F0A86FEFC7010E94EC05EE
:1021A00080FF0DC06FEFC7010E94EC0584FFF4CFE4
:1021B00040E167E0C7010E944306F12C0EC020EA0F
:1021C0004D2DB801695F7F4FC7010E94020661E093
:1021D000C7010E94D905FF24F394F80182A582FD6E
:1021E0000FC0418152816381748187A590A90E94AB
:1021F0007118F82E60E0F80187A590A90E94461793
:102200008F2D28960FB6F894DEBF0FBECDBFDF919D
:10221000CF911F910F91FF90EF90DF90CF90BF90E3
:10222000AF909F908F907F906F9008952F923F92E4
:102230004F925F926F927F928F929F92AF92BF92D6
:10224000CF92DF92EF92FF920F931F93CF93DF9382
:1022500000D01F92CDB7DEB79B838A83FC0192A585
:10226000892F827091FD19C0E153FF4F4A815B8134
:102270004B5C5F4F90FD07C020813181241B350BE3
:102280002937310554F0208131814217530708F472
:1022900077C19E7FEA81FB8192A7712CEA80FB8047
:1022A000F7E0EF0EF11CF8E52F2EF2E03F2E44246C
:1022B0004394512CCA80DB8021E9C21A2EEFD20A46
:1022C000B4E2AB2EB9E0BB2EEA81FB8107A510A9D1
:1022D000F801808191818F3F910509F450C182817D
:1022E00093818F3F910509F44AC167E1C8010E94BB
:1022F0008906F82FF1709F2E80FD41C16FEFC80154
:102300000E94EC05EA81FB8107A510A9C8010E9483
:10231000D60580E60E94E5058FEF0E94E505882E30
:10232000C8010E94D305F0E2F81558F462EEC80126
:102330000E94EC0562E070E080E090E00E94971956
:1023400001C0982CEA81FB8194AAF7E0F91538F0D6
:102350006AE070E080E090E00E949719B5CFEA81D2
:10236000FB8107A510A9F8018781682E981608F44B
:10237000692CF8019085911103C08619898301C0E9
:102380001982C8010E94D60581E60E94E505470131
:102390006A94FFEF6F1202C0998007C08FEF0E940E
:1023A000E505F40181934F01F3CF992029F08FEFD8
:1023B0000E94E5059A94F9CFC8010E94D30540E731
:1023C00067E0C8010E944306EA81FB81618572854E
:1023D000CB01009759F0282F2770263008F074CFD2
:1023E000E3E096958795EA95E1F7F3CFEA81FB81E3
:1023F000758482A993A96817790709F048C0F2E8A3
:102400007F1609F461CF20E8721212C0643279405D
:10241000F9F0EA81FB81B286A18642E064E279E0CC
:10242000CF010E94D6126AE070E080E090E04DC0DB
:10243000F3EC7F120DC06115710551F0EA81FB814B
:10244000708767831286118640E060E070E044C0C8
:10245000EA81FB8181A5882319F077FE0EC003C0B5
:10246000F1EC7F120AC08CE6870D833030F028EC47
:10247000721619F033E8731282C0B7018A819B810A
:102480000E94640E823009F01FCF83E879C0603467
:10249000710509F06EC0E2EC7E1220C0EA81FB817A
:1024A00022A523FD11CF8432F9E09F0709F40CCF58
:1024B000EA81FB8127813085328721879087878356
:1024C000F601608170E080E090E00E949719EA8157
:1024D000FB816185728542E0CF014EC0B7018A81E0
:1024E0009B810E94640E182FEA81FB8180818823E2
:1024F000E1F182A993A953E0969587955A95E1F762
:10250000892B21F080E699E00E948C19EA81FB81F9
:1025100082A993A9837099279C01229DC001239DC4
:10252000900D329D900D11240E948C19EA81FB813F
:1025300081A9882371F090E001979C01220F331F3D
:10254000820F931FB20102C0660F771F8A95E2F7D0
:1025500002C060E070E083E0660F771F8A95E1F7C4
:1025600044E08A819B810E94D612123009F0ACCEE1
:102570008CCF41E08A819B810E94D612A5CE872D07
:102580000F900F900F90DF91CF911F910F91FF90BF
:10259000EF90DF90CF90BF90AF909F908F907F9003
:1025A0006F905F904F903F902F900895CF92DF9261
:1025B000EF92FF920F931F93CF93DF9300D000D041
:1025C0001F92CDB7DEB79B012115310561F0522F67
:1025D0005770563030F453E0369527955A95E1F709
:1025E000F3CF80E097C0F42E6B018C01FC01858550
:1025F00081548D8319821A821B821C827A8369839B
:102600004B83BE016F5F7F4FC8010E941F0E69811F
:102610007A812C814B81C8010E947310F1E0FF1276
:1026200028C0811102C0F12C32C089819A81C8165C
:10263000D90609F58D818F37F0F481ECF801858793
:1026400087819085928781879A838983FB821C8208
:10265000BE016F5F7F4FC8010E941F0E88E0F80126
:1026600084AB69817A812C814B81C8010E947310EF
:1026700002C08823C1F289819A81C816D90629F03F
:10268000FF2079F0F3E0FF1661F0FF24F394F801E6
:1026900082A582FD04C087A590A90E94EE068F2D19
:1026A00039C08D818F3788F7F80182A582FF11C06C
:1026B000418152816381748187A590A90E9471181C
:1026C000F80182A58B7F82A760E087A590A90E9470
:1026D0004617F80187A590A90E94EE060E94D1191D
:1026E0006B017C01C8010E941611813C71F20E94AD
:1026F000D119AB01BC014C195D096E097F09F801C4
:1027000085819681A0E0B0E084179507A607B707FA
:1027100048F789CF0F900F900F900F900F90DF9197
:10272000CF911F910F91FF90EF90DF90CF90089580
:10273000EF92FF920F931F93CF93DF93EC017B01F6
:10274000BA018AA99BA9F70191838083DE011796BC
:1027500088E001900D928A95E1F72115310529F065
:10276000A901CE010F960E94042BF70162817381AB
:102770000833110561F06034710511F444E001C0C3
:1027800043E00617170709F442E0B80101C040E032
:10279000CE01DF91CF911F910F91FF90EF900C949C
:1027A000D6122F923F924F925F926F927F928F92AA
:1027B0009F92AF92BF92CF92DF92EF92FF920F93D0
:1027C0001F93CF93DF93EC017B015A01690148010C
:1027D0000E94D1194BA45CA46DA47EA4DC01CB01A2
:1027E00084199509A609B7094997A105B10548F0CB
:1027F00088EC90E00E948C1989E1C816D104E8F4B5
:1028000006C0CE010E94161187FFE2CFF1CF88E00B
:102810008C0D8CAB84019601A501B701CE010E94FD
:102820009813182F882311F011E092C00E94D1193B
:102830006BA77CA78DA79EA78BC0E1E9CE16D1041C
:1028400008F085C0C60168E170E00E94E22821E03E
:10285000892B09F420E0C60168E170E00E94E228BB
:10286000722E760EF701828193818034910539F0C2
:102870008AA584608AA78FA598A90E94B906F70146
:102880004680512C612C84E9282E96E9392EF701D7
:102890007782F1E07F1204C0F7013682478208C0D8
:1028A000611003C0F701268203C085E9F701868322
:1028B000E8E16E9EA00111249601241B350B2931FD
:1028C000310510F028E130E088E0820F8CAB4A0D32
:1028D0005B1D8401B701CE010E949813182F81114E
:1028E0000BC062E070E080E090E00E949719539482
:1028F000F2E0F51560F606C07A946394772011F043
:10290000512CC5CFF70146828AA582FF12C04981AA
:102910005A816B817C818FA598A90E947118182F0C
:102920008FA598A90E94EE0660E08FA598A90E9445
:1029300046178AA58B7F8AA7112349F0772009F4CF
:1029400073CF0E94D1196BA77CA78DA79EA710E01B
:10295000812FDF91CF911F910F91FF90EF90DF902A
:10296000CF90BF90AF909F908F907F906F905F902F
:102970004F903F902F9008950F931F93CF93DF9325
:102980008C01D62F66E00E948906C82FC77DD23001
:1029900031F4C0628BE990E0A0E0B0E00CC0D1302F
:1029A00029F085E590E0A0E0B0E005C0C86081E4D2
:1029B00090E0A0E0B0E0F801808B918BA28BB38B0C
:1029C0004C2F66E0C8010E94430666E0C8010E94E1
:1029D000890691E0C81390E0892FDF91CF911F9174
:1029E0000F910895CF93DF93EC016DE10E9489066A
:1029F000482F44606DE1CE010E9443066CE1CE0198
:102A00000E948906482F4F636CE1CE010E94430665
:102A100081E08887DF91CF910895009769F0FC01EC
:102A200001900020E9F73197AF01481B590BBC0119
:102A300080E192E00C94020D80E090E008958F9286
:102A40009F92AF92BF920F931F93CF93DF93CDB717
:102A5000DEB7A1970FB6F894DEBF0FBECDBF19A2A7
:102A6000423008F44AE08E010F5D1F4F842E912CF6
:102A7000A12CB12CA50194010E940A29E62FB901CD
:102A8000CA0101501109EA3014F4E05D01C0E95CAB
:102A9000D801EC93232B242B252B61F7C8010E942E
:102AA0000D15A1960FB6F894DEBF0FBECDBFDF9116
:102AB000CF911F910F91BF90AF909F908F900895ED
:102AC0008BE491E00C940D150F931F93CF93DF933C
:102AD0008C01C0E0D0E0F801EC0FFD1F649166238B
:102AE00041F080E192E00E94950D892B11F0219632
:102AF000F2CFCE01DF91CF911F910F910895CF9327
:102B0000DF930E946415EC010E9460158C0F9D1FDD
:102B1000DF91CF910895CF93DF93682F70E080E02D
:102B200090E04AE00E941F15EC010E9460158C0F96
:102B30009D1FDF91CF910895CF93DF93BC0180E07B
:102B400090E04AE00E941F15EC010E9460158C0F76
:102B50009D1FDF91CF910895682F80E192E00C9442
:102B6000950DCF92DF92EF92FF92CF93DF936C019E
:102B7000990FEE08FF08F7FE11C08DE20E94AC1518
:102B8000EC0166277727CB016C197D098E099F0917
:102B90004AE00E941F15C80FD91F06C04AE0C701AE
:102BA000B6010E941F15EC010E9460158C0F9D1F3D
:102BB000DF91CF91FF90EF90DF90CF9008951F931A
:102BC000CF93DF93182F292FD62F81E080930F0208
:102BD00080E78093D50310920E0210920D0280912F
:102BE000B9029091BA02DC01ED91FC910190F08163
:102BF000E02D622F0995C82F8091B9029091BA02F9
:102C0000DC01ED91FC910190F081E02D612F09959F
:102C100030910D02313208F04AC09091EC019111CF
:102C2000FCCF2091D50342E04093EC01D093EB011F
:102C30004FEF4093EA011092E9013093E801ADEEC5
:102C4000B1E0E8ECF1E040E0431721F05D915193F1
:102C50004F5FFACF1092C7013091C701220F232B8B
:102C60002093C7012091C601213061F41092C60162
:102C70002091C7012093BB002091BC0023FDF8CF19
:102C800025EC01C025EE2093BC002091EC01223000
:102C9000E1F32091EA012F3F79F09091EA0190321F
:102CA00041F09091EA01903331F094E005C091E059
:102CB00003C092E001C093E010920E0210920D0248
:102CC00010920F02911105C09C2F980F81E0923055
:102CD00009F080E0DF91CF911F910895FC019C01E4
:102CE0002E5F3F4F8FEF41E39191892798E087FF57
:102CF00003C0880F842701C0880F9150C1F7E217E5
:102D0000F30791F70895FF920F931F93CF93DF93EB
:102D1000F62ED72FC42F60E00E94DF15882309F418
:102D20006CC08091EC018111FCCF8C2FC13208F076
:102D300080E291E09093EC019093EB012FEF2093D0
:102D4000EA011092E901280F2093E8019093C7014E
:102D50009091C701906E9093C7019091C6019130F8
:102D600061F41092C6019091C7019093BB009091BD
:102D7000BC0093FDF8CF95EC01C095EE9093BC009C
:102D80009091EC019130E1F39091E901981710F4E2
:102D90008091E901A8ECB1E0E6EAF1E090E0981753
:102DA00021F02D9121939F5FFACF1092A50190936E
:102DB000A4018091B9029091BA02DC01ED91FC91DD
:102DC0000084F185E02D09952C2F30E082179307C0
:102DD000A1F40F2D1D2FCC2391F08091B902909179
:102DE000BA02DC01ED91FC910284F385E02D099596
:102DF000F80181938F01C150EECF80E001C081E0E6
:102E0000DF91CF911F910F91FF9008950F931F9322
:102E1000CF93DF93C4E6D0E098819E7F9883862B82
:102E200080937C000AE710E0F80180818868808345
:102E30006AE070E080E090E00E94971982E00E94D2
:102E4000270C84E00E94270CF8018081877780831B
:102E50008881816088838091A2019091A3019695D9
:102E60008795969587959093A3018093A201DF9112
:102E7000CF911F910F91089586B169E170E080E0D4
:102E800090E00E94971986B1817008951F93CF93A7
:102E9000DF93EC01162F61E00E948906482F112371
:102EA00011F0416001C04E7F61E0CE01DF91CF9112
:102EB0001F910C9443067F928F929F92AF92BF9284
:102EC000CF92DF92EF92FF920F931F93CF93DF93F6
:102ED000CDB7DEB728970FB6F894DEBF0FBECDBFD3
:102EE000FC019B012115310559F0822F8770863036
:102EF00008F0E3C0A3E036952795AA95E1F7F2CF55
:102F000062AB73AB87A590A9DC012D913C912F3F5B
:102F1000310509F4D2C0DC0112962D913C91139732
:102F20002F3F310509F4C9C0E72EF62E8F0160E06E
:102F30000E944617F80187A590A90E94F214D801B3
:102F4000D2968D919C91D39766E070E00E94E22822
:102F5000482F440F4B5FB0E14B9FA0011124456007
:102F600064E0F80187A590A90E94430689E190E0FA
:102F7000A0E0B0E0F80181839283A383B4838BE463
:102F800090E09683858322A933A940E08FEF9FEFDD
:102F9000B90168237923672B39F073E0880F991FF3
:102FA0007A95E1F74F5FF4CFF80141AB80959095AA
:102FB000E059FE4F9183808363E0969587956A95EB
:102FC000E1F73397A90148235923518340830097A0
:102FD00059F043E0369527954A95E1F753E09695E9
:102FE00087955A95E1F7F3CFF801E159FE4F208319
:102FF00086E0782E88248394912C7A94FFEF7F16B4
:1030000009F454C0672D8F2D9E2D0E942010D801E9
:103010009F96CD90DC90D09729833A834B835C8335
:103020006D837E838F839887A72CB12C71100BC082
:10303000F601468550E0BE016F5F7F4FC6010996DD
:103040000E94042B03C0F1E07F1208C0F501EE5589
:10305000F74F6491D6011E962C9105C0F501EE55EF
:10306000F74F649121E0AE014F5F5F4FC6010E94B0
:103070005E06F501E456F74F6491F6014781C601FB
:103080000E94430662E0C6010E948906F501EA56E5
:10309000F74FE491940101C0220FEA95EAF7482F17
:1030A000422B62E0C6010E944306A7CFD8019F963B
:1030B0008D919C91D0970E94EE0628960FB6F894B9
:1030C000DEBF0FBECDBFDF91CF911F910F91FF905B
:1030D000EF90DF90CF90BF90AF909F908F907F90B8
:1030E00008958F929F92AF92BF92CF92DF92EF920C
:1030F000FF92CF93DF93EC016A017B010E94D1190B
:103100004B015C0167E1CE010E94890684FD29C064
:103110006FEFCE010E94EC0584FFF4CF40E167E041
:10312000CE010E94430660E0CE010E94D90561E015
:10313000CE010E94D9050E94D119DC01CB0188196A
:103140009909AA09BB098C159D05AE05BF05D0F2EA
:1031500060E0CE010E94D905CE010E94FF0580E00B
:1031600005C060E0CE010E94D90581E0DF91CF91DA
:10317000FF90EF90DF90CF90BF90AF909F908F9097
:1031800008953FB7F89480914D0590914E05A09118
:103190004F05B091500526B5A89B05C02F3F19F0EB
:1031A0000196A11DB11D3FBFBA2FA92F982F8827C7
:1031B000820F911DA11DB11DBC01CD0146E0660F1E
:1031C000771F881F991F4A95D1F7089560E087ED12
:1031D00092E00E94D90560E087ED92E00E948906A6
:1031E000482F4D7F60E087ED92E00C944306CF932B
:1031F000C82F66E087ED92E00E948906887FC43080
:1032000018F4CC0FCF5F01C0C7E0482F4C2B66E00D
:1032100087ED92E0CF910C94430690E0FC01E457D7
:10322000F64F2491FC01E858F64F8491882399F0D9
:1032300090E0880F991FFC01E259F64FA591B491D7
:10324000FC01EC59F64F859194918FB7F894EC916D
:10325000E22BEC938FBF0895362F90E0FC01E05BEA
:10326000F64F4491FC01E457F64F2491FC01E858D5
:10327000F64F8491882309F44EC04423C1F150E0F5
:10328000FA013197ED30F10590F5E059FF4F0C94BC
:103290004B29909180009F7703C0909180009F7D83
:1032A0009093800024C094B59F7702C094B59F7D11
:1032B00094BD1DC09091B0009F7703C09091B00065
:1032C0009F7D9093B00013C0909190009F7703C0B2
:1032D000909190009F7D9093900009C09091A000E4
:1032E0009F7703C09091A0009F7D9093A000E82F4E
:1032F000F0E0EE0FFF1FEC59F64FA591B4919FB788
:10330000F894311104C08C912095282302C0EC91CF
:103310002E2B2C939FBF08958A31910538F0469744
:1033200096958795969587950197F1F708958F92D1
:103330009F92AF92BF92CF92DF92EF92FF926B017A
:103340007C010E94C1184B015C01C114D104E1044D
:10335000F104F1F00E94C118DC01CB018819990930
:10336000AA09BB09883E9340A105B10570F321E08D
:10337000C21AD108E108F10888EE880E83E0981E91
:10338000A11CB11CC114D104E104F10419F7DDCF73
:10339000FF90EF90DF90CF90BF90AF909F908F9075
:1033A00008952FB7F8946091490570914A0580916E
:1033B0004B0590914C052FBF08952F923F924F924D
:1033C0005F926F927F928F929F92AF92BF92CF92B5
:1033D000DF92EF92FF920F931F93CF93DF93CDB7BE
:1033E000DEB761970FB6F894DEBF0FBECDBF67E1C1
:1033F0008091C5029091C6020E94890680FD03C09B
:1034000080E090E06CC18091C5029091C6020E945C
:10341000B906E091C702F091C80282A5826082A736
:103420006AE070E080E090E00E94971964E279E041
:103430008091C7029091C8020E945B1784E299E0D4
:103440009093C0028093BF020E94D1192B013C01CE
:10345000C12CE12C90E4292E312C3C862B868091C6
:103460000001909101019C012F5F3F4F30930101BA
:10347000209300019E878D8722EC2F878091C702C1
:103480009091C802FC0122A933A93A872987EE202E
:1034900089F02E2D30E021503109A901440F551F2C
:1034A000240F351F01E010E002C0000F111F2A9504
:1034B000E2F702C000E010E020E030E040E050E041
:1034C000BE01675F7F4F0E94D1130E94D1194B014B
:1034D0005C01F12C8091C7029091C8020E941611E4
:1034E000823C89F4FE013196EF0DF11DEF0DF11DC7
:1034F000A091C702B091C80217968D919C91189720
:1035000091838083F3940E94D119DC01CB01881947
:103510009909AA09BB09C897A105B10508F0B0C06F
:10352000F3E0FF15B8F6198AD12C23EC2F87809190
:10353000C102888BFE013196ED0DF11DED0DF11DDF
:10354000008111811C870B8720E030E040E050E0D3
:10355000BE01675F7F4F8091C7029091C8020E94B1
:10356000D1130E94D1194B015C010E94D119DC01D9
:10357000CB0188199909AA09BB09813E9105A105CA
:10358000B10550F48091C7029091C8020E941611B3
:10359000898B803851F7DF2C65E070E080E090E0A7
:1035A0000E949719D394DF1408F4BFCF898980381B
:1035B000B1F5E091C702F091C80287859089009724
:1035C00071F136852091C102321329C05CC063E0DD
:1035D00070E080E090E00E94971908E310E020E09E
:1035E00030E040E050E0BE01675F7F4F8091C7024E
:1035F0009091C8020E94D113811166C0FA94F11013
:10360000E6CF64E279E08091C7029091C8020E94FF
:103610005B1784E299E09093C0028093BF020E94FE
:10362000D119DC01CB0184199509A609B7098133A9
:103630009547A105B10508F0E3CE2C2D30E02F5FB2
:103640003F4F8E2D90E00196289FB001299F700D6D
:10365000389F700D1124675E7F4F660F771F072E0E
:10366000000C880B990B0E94971981E08E0D8370D6
:10367000E82E81E08C0D6AE00E94D628C92EEDCE9E
:10368000FF2069F250CF9093C0028093BF028091D7
:10369000C5029091C6020E94B9066AE070E080E01F
:1036A00090E00E9497196091BF027091C0028091D2
:1036B000C7029091C8020E945B171C861B86F1E826
:1036C000FF8787E0F82E89CFE091C702F091C8020A
:1036D00082A58D7F82A78091BF029091C0026196E2
:1036E0000FB6F894DEBF0FBECDBFDF91CF911F9113
:1036F0000F91FF90EF90DF90CF90BF90AF909F9091
:103700008F907F906F905F904F903F902F90089593
:103710001F920F920FB60F9211242F933F938F9306
:103720009F93AF93BF938091490590914A05A091D3
:103730004B05B0914C053091480520E3230F2D3700
:1037400020F44096A11DB11D05C023EB230F419627
:10375000A11DB11D209348058093490590934A050A
:10376000A0934B05B0934C0580914D0590914E056B
:10377000A0914F05B09150050196A11DB11D8093F8
:103780004D0590934E05A0934F05B0935005BF9102
:10379000AF919F918F913F912F910F900FBE0F90FE
:1037A0001F901895CF93DF93CDB7DEB768970FB60C
:1037B000F894DEBF0FBECDBF789484B5826084BD1F
:1037C00084B5816084BD85B5826085BD85B5816025
:1037D00085BD80916E00816080936E0010928100A3
:1037E000809181008260809381008091800081605F
:1037F000809380008091B10084608093B1008091BB
:10380000B00081608093B0008091910082608093CD
:10381000910080919100816080939100809190004F
:103820008160809390008091A10082608093A100CC
:103830008091A10081608093A1008091A0008160AF
:103840008093A00080917A008B7F80937A00809192
:103850007A00826080937A0080917A008160809300
:103860007A0080917A00806880937A001092C1007B
:103870008FEE84B984E085B916E017B902E008B983
:1038800082EF8AB91BB81DB81EB80FB6F894A89578
:1038900080916000886180936000109260000FBE8C
:1038A00010927A008091640081608093640080911E
:1038B0006400826080936400809164008F7D8093B7
:1038C000640080916400886080936400809164004B
:1038D00080648093640080916500816080936500BE
:1038E00080916500886080936500809164008061AC
:1038F0008093640080916500806180936500809171
:10390000650080628093650080916500846080938B
:103910006500809164008B7F8093640080916400D7
:103920008F77809364001092A5011092A4011092E9
:103930000E0210920D021092EC0181E08093EB01D7
:103940001092C60161E082E10E942C1961E083E1DE
:103950000E942C198091B9008E7F8093B9008091CC
:10396000B9008D7F8093B9008DEF8093B80085E416
:103970008093BC008DE295E09093510180935001BB
:103980008EE295E090934F0180934E011092B80023
:1039900080EC80937E0080917A00816080937A0031
:1039A0001DBA1092680010926B0010926C00109279
:1039B0006D001092690083E08CBB0E943C17D82EEA
:1039C0008823D9F1809164008D7F8093640083E027
:1039D0000E945A0BE0912002F09121020083E091B5
:1039E0001C02F0911D021082E0911E02F0911F0254
:1039F0008CE0808310922802E0912402F09125024D
:103A00001083E0912202F091230280818061808303
:103A1000E0912202F0912302808188608083E0910E
:103A20002202F0912302808180688083E09122024B
:103A3000F091230280818F7D808380E00E94760C4C
:103A40008091F6029E012F5F3F4F7901811111C0D5
:103A500087ED92E00E943407882309F48FC763E062
:103A600087ED92E00E9489068150833008F086C776
:103A7000B6C6813009F082C78CE90E94640C8823A5
:103A800009F444C08093C10280E90E94640C082FAD
:103A90008FE80E94640C182F8091C5029091C60295
:103AA0000E9434071093D2028091C5029091C60201
:103AB0001D3708F01DE7412F65E00E944306602F87
:103AC0008091C5029091C6020E94BC148091C702E9
:103AD0009091C80221E0FC0121A72091C10222237C
:103AE00061F084E299E09093C0028093BF020E944B
:103AF000DD19892B09F442C745C71092C002109204
:103B0000BF0260E070E00E945B173CC710E08FEFDF
:103B100090E00E948C1961E087E195E30E94DF1537
:103B200043E0B70188EC9FEE0E948316811102C02A
:103B300000E01AC0C7010E946E169B818913F8CF5E
:103B4000898183FFF5CF8A818F73873089F761E0A0
:103B50008DE590E80E94DF15882351F361E088E944
:103B600090EB0E94DF15082FDD2019F184E091E031
:103B70000E947F158FEF90E00E946415802F90E0E7
:103B80000E94B1158AEF90E00E946415812F90E0A9
:103B90000E94B11581E080935A0189E291E00E9470
:103BA0007F1580E192E00E94E20D81E00E94210CED
:103BB0000DC0112321F00E94750A811102C082E01C
:103BC00003C00023E1F380E080935A0196B198701E
:103BD0008091EF02811104C081E0911104C002C004
:103BE00081E0911180E080937E036E01F9E0CF0EB9
:103BF000D11C10915A011111D9C28091F0020E947A
:103C0000210C80E00E9465091092530181E08093AD
:103C10005401E7EFF2E001900020E9F79F01225004
:103C20003109390107EF12E055E2252E66E0362E04
:103C300072E3872E912CE6E64E2EF1E65F2EF80118
:103C40008081882309F42DC16016710608F429C10A
:103C500065E270E0C8010E940D2B5C01009709F439
:103C60001DC10817190769F0FC011082C8010E94E4
:103C7000F70A811104C085E2F501808312C1F501C4
:103C80002082F5018181853241F483E391E00E9435
:103C9000F70A85010E5F1F4FD2CF882309F401C1B7
:103CA000F5019281992309F4FCC0893651F08235DF
:103CB00009F48BC631E0813481F030E0893411F0B1
:103CC0001BC031E04091F2025091F3025A8B498BB4
:103CD0002FEF1BC0813409F080C641E050E06091B5
:103CE0007F0370918003613D774010F040E050E029
:103CF0005A8B498B20E009C0823461F740917F03E1
:103D0000509180035A8B498B22E086E0E2E0F1E09B
:103D1000D70101900D928A95E1F7943619F49A83B0
:103D20001B8226C0983729F4332311F182E38B8359
:103D30001FC0923611F419821BC0933611F4998377
:103D400017C09234A9F489899A89892B49F084E7AC
:103D5000898382E78A8385E78B8385E68C8308C025
:103D600049825A828CE68B8383E78C8385E68D8338
:103D70008981811127C0332311F0E1E001C0E2E025
:103D800080915301282F30E0A9014E0F511D42347C
:103D900051050CF07FC0D901A657BC4F99899C935F
:103DA000A1E0A80FE13029F0B0E0A657BC4F9A89F6
:103DB0009C938E0F80935301E82FF0E0E657FC4F61
:103DC000108268C0833609F051C089899A892223FC
:103DD00089F0263679F0283629F4B4010E94E228C9
:103DE000CB0108C0223041F0273631F0233709F0EB
:103DF00051C002C053E001C054E040915301642F10
:103E000070E0FB01E50FF11DE234F1050CF042C05A
:103E100030915401E1E0E30FE0935401FB01E657D8
:103E2000FC4F3083E1E0E40FF0E0E657FC4F2083E5
:103E3000E3E0E40F22E0240F30E0533039F4E09364
:103E40005301F901E657FC4F808324C06AE070E01B
:103E50000E94E228D901A657BC4F7C934C5F409347
:103E60005301F0E0E657FC4F608314C08A898F93BA
:103E700089898F93FF92EF921F923F92DF92CF92A8
:103E80000E94182BC6010E94F70A0FB6F894DEBFF5
:103E90000FBECDBF85010D5F1F4FD1CEC8010E945F
:103EA000F70A30905301332009F422C187ED92E0E4
:103EB0000E94A0060E94750A8091F602811127C017
:103EC00080917D03811102C020EB01C020EA432DC7
:103ED0006AE873E087ED92E00E94020661E087EDF8
:103EE00092E00E94D90560E087ED92E00E94D9053A
:103EF000E89A64E082E00E94240B80915201E898E5
:103F000040E767E087ED92E00E944306ADC0813054
:103F100009F0EEC08091BF029091C00284329940B6
:103F200009F4ADC020907C0340917B034C8B0E9430
:103F3000D119222009F471C042E3842E912CA12CC6
:103F4000B12C9B01AC012854344F4F4F5F4F2D8B48
:103F50003E8B4F8B588F2B8A8091BF029091C0026D
:103F60008432994019F40FEF1FEF45C01C821B8269
:103F700080910001909101019C012F5F3F4F309390
:103F80000101209300019E838D8344EC4F8308E35D
:103F900010E022E030E0AE014D5E5F4FB70180914E
:103FA000C7029091C8020E94D1138823E1F20E94B7
:103FB000D1192B013C018091C7029091C8020E9447
:103FC0001611843C71F00E94D119DC01CB018419D7
:103FD0009509A609B70987399105A105B10558F3D7
:103FE000C2CFE091C702F091C8020785108917FF80
:103FF00002C00EEF1FEF17FF12C00E94D1192D89CA
:104000003E894F89588D261737074807590760F1B1
:104010000E3F1F4F09F0C4C427C000E010E080919C
:10402000BF029091C00284329940F1F01C830B834F
:1040300080910001909101019C012F5F3F4F3093CF
:104040000101209300019E838D835C895F83232D72
:1040500030E008E310E04AE853E0B7018091C7027E
:104060009091C8020E94D1138091F602811105C07F
:1040700087ED92E00E94FF053BC08130C9F5809139
:104080007D038823A9F18091BF029091C002843200
:10409000994071F11C821B82809100019091010175
:1040A0009C012F5F3F4F30930101209300019E83BD
:1040B0008D8385EC8F8308E310E020E030E040E062
:1040C00050E0B7018091C7029091C8020E94D113BD
:1040D000882371F064E279E08091C7029091C80270
:1040E0000E945B1784E299E09093C0028093BF0224
:1040F0000E94E6188091F002882319F080E00E9467
:10410000210C86B188709091EF0211E0911103C0EB
:10411000811103C001C0811110E080917E038117DD
:1041200051F08091F0020E94210C10937E0388E0F0
:104130000E945A0B51C38091F4029091F5020097AE
:1041400019F0282F892F02C021E080E0209355012B
:104150008093560181E02091F4023091F502232BE7
:1041600009F080E00E94B60B209155013091560174
:10417000215031093093560120935501811103C01C
:10418000121613063CF326B128709091EF0291119C
:1041900004C091E0211104C002C091E0211190E01F
:1041A00090937E03823009F017C304C3113009F0E5
:1041B00003C38091D30381110AC08091D2030E946E
:1041C000AC151093D303109257011092D40380E1E1
:1041D00092E00E945D0D892B09F4E0C280E192E03B
:1041E0000E943B0D882E9091D4038091D1039817A3
:1041F00028F086E391E00E940D157FC0FDE08F1648
:1042000029F02AE0821611F020E017C066E970E07C
:1042100080E090E00E94971980E192E00E945D0D9D
:10422000892B51F080E192E00E944F0D8D3009F40E
:10423000C1C38A3009F4BEC321E08091D303813029
:1042400009F05EC03091D4038091CF039091D003E8
:10425000211103C040E2841273C0FC01E30FF11D81
:1042600010827090CE03A090CF03B090D003009145
:10427000CC031091CD03912C7914D9F1B801C5016B
:104280000E94DA250A5F1F4F9394892BA9F719140E
:1042900084F550E2851204C080E20E94AC1502C091
:1042A0000E9460159092570182E08093D303109290
:1042B000D40383E0981609F458C0891560F091E0A2
:1042C000991609F449C0E2E09E1268C20E94601586
:1042D00089E291E043C0F5E09F1609F43BC19F16C7
:1042E00008F43FC026E0921259C281E00E94760C89
:1042F00031C188E191E00E947F151092D3034EC234
:10430000823009F04BC23091D4038091CF03909159
:10431000D0032223A9F0FC01E30FF11D1082A0902D
:10432000CF03B090D003B0925901A09258011092DF
:10433000D303A114B10409F011C100E010E018C1C9
:1043400021E0230F2093D403FC01E30FF11D8082B1
:10435000882D0E94AC1522C289E093E00E947F154F
:10436000F7C081E00E946509F3C00E94601580EEED
:1043700092E00E94641582E00E94640C0E948B15FA
:1043800086ED92E00E94641583E00E94640C0E9416
:104390008B1582EC92E00E94641584E00E94640C0C
:1043A0000E948B1584EB92E00E94641585E00E94C8
:1043B00050090E949C1581EA92E00E94641587E0F2
:1043C0000E9450090E949C1582E992E00E946415A7
:1043D00089E00E94640C0E948B1584E892E00E94A0
:1043E00064158DE80E94640C0E948B1581E90E947F
:1043F000640CB82E84E792E00E9464158B2D0E9415
:104400008B1581E692E00E9464154B2D50E0B701B8
:1044100082E90E943609870133E0A32EBB20C9F050
:10442000F80181918F011F928F9326E431E03F9331
:104430002F931F92AF92DF92CF920E94182BC6014A
:104440000E940D15BA940FB6F894DEBF0FBECDBF13
:10445000E5CF0E9460158EE492E00E94641587E922
:104460000E94640C0E948B1580E492E00E94641507
:1044700089E90E94640C0E948B1586E392E00E94F9
:10448000641588E90E94640C0E948B1583E292E017
:104490000E9464158AE90E94640C0E948B1580E1D9
:1044A00092E00E9464158BE90E94640C0E948B15B7
:1044B0008BEF91E00E9464158CE90E94640C0E94CD
:1044C0008B1584EE91E00E9464158DE90E94640CC6
:1044D0000E948B158AEC91E00E9464158EE90E947F
:1044E000640C0E948B1582EB91E00E9464158FE9A9
:1044F0000E94640C0E948B1583EA91E00E9464156F
:104500008EE80E94640C0E948B1582E991E00E9463
:10451000641580E90E94640C0E948B1584E891E088
:104520000E9464158FE80E94640C0E948B158DE632
:1045300091E00E94641542E850E067EF72E08AE083
:104540000E94360987EF92E00E940D150E946015C7
:1045500010E001C011E01092D3030FC101E0F5019A
:104560008081803309F400E0C5010E94B325162F35
:10457000E09157018E2F90E0FC013797E631F1056D
:1045800008F0F5C0E65AFF4F0C944B29602F82E0EB
:10459000EAC0602F83E0E7C0602F84E0E4C0A1148C
:1045A000B10421F0C5010E94B32503C060E070E0B2
:1045B000CB01788B6F8742E050E0BE01615F7F4F97
:1045C00085E000C2A114B10421F0C5010E94B32509
:1045D00001C060E087E0C7C0612F89E0C4C0F50179
:1045E00001900020E9F73197EA19FB09CF01019703
:1045F0008138910508F0BBC0AF014F5F5F4FB50137
:104600008AE0E0C1123008F0B2C0612F8DE8ABC083
:10461000153008F0ACC0612F8EE8A5C08FEF810F78
:104620008E3708F0A4C0612F8FE89DC0133008F0CA
:104630009EC0612F80E997C08DEF810F833008F015
:1046400096C0612F81E98FC081E90E94640C882E99
:1046500060905801709059016114710409F487C089
:10466000F30101900020E9F731975F01A618B70820
:1046700009F47DC0C50162E070E00E94F628019750
:1046800009F475C0912CC401880F991FA816B906AA
:1046900009F06DC000E01701402E512C4A145B0454
:1046A0000CF08DC1460C571CF2018081082E000CC5
:1046B000990B0E94FC2A10ED180F1A3040F09FEB66
:1046C000980F963018F419EC180F01C01FEFF20183
:1046D0008181082E000C990B0E94FC2A90ED980F06
:1046E0009A3030F09FEB980F963020F4875303C038
:1046F000892F01C08FEFF0E11F0290011124182FC4
:10470000122BF10111931F010E5FC6CF8FEF810FA6
:10471000803268F5612F87E926C0133040F5612F9C
:1047200088E921C0602F89E91EC0103100F5612F92
:104730008AE919C01031D8F4612F8BE914C0112314
:10474000B1F0612F8CE90FC011168CF4612F8DE947
:104750000AC08CE90E94640C181749F0612F8EE999
:1047600002C0602F8FE90E94F10C81E001C080E05F
:104770001092D303882351F010E082E093E00E946E
:104780007F15112339F080EF92E00EC088EF92E0A0
:104790000E947F1580E192E00E94E20D0E943C178A
:1047A00081111AC081EB97E00E947F1580E192E0B1
:1047B0000E94E20D0E94AA0B81E00E94210C81E080
:1047C0000E94B60B80E00E94210C81E00E94B60B93
:1047D0000E943C178111EECF0E94040E0ACA80E9A4
:1047E0000E94640C682F87ED92E00E94BC1488231D
:1047F00009F4C4C060E087ED92E00E948906482F6A
:104800004F7860E087ED92E00E94430643E063E06A
:1048100087ED92E00E94430685E08093E50280E206
:104820008093DE0288E90E94640C182F60E087ED17
:1048300092E0112351F00E948906837F482F1130A6
:1048400011F4486006C04C6004C00E948906482FDD
:10485000477F60E087ED92E00E9443068EE80E9469
:10486000640C0E94F7188FE80E94640C8D3708F0E2
:104870008DE7482F65E087ED92E00E94430687E9C7
:104880000E94640C811105C087ED92E00E94F21431
:1048900003C080E28093DE0281E90E94640C082F4D
:1048A0001EEF180F59F01370412F63E087ED92E06F
:1048B0000E9443061E5F1093E50209C040E063E0DA
:1048C00087ED92E00E94430682E08093E50285E056
:1048D000F70111928A95E9F7402F50E0B70182E97C
:1048E0000E94360989E90E94640C882311F04FE385
:1048F00001C040E061E087ED92E00E9443068AE952
:104900000E94640C182F8BE90E94640CF0E18F9FC9
:10491000C0011124412F4F70482B64E087ED92E0D5
:104920000E9443062091E502A7016AE087ED92E02C
:104930000E945E062091E502A70160E187ED92E00A
:104940000E945E064091DE0261E187ED92E00E94E6
:1049500043061092E7021092E8021092E9021092C8
:10496000EA0287ED92E00E94EE0687ED92E00E9457
:10497000B90687ED92E00E94FF0510C010E00E948A
:10498000E618C5C8E091C702F091C80282A5886008
:1049900082A78EE80E94640C0E94F71811E0EFCF06
:1049A000F2E38F0E911CA11CB11CC501B4010E9441
:1049B0009719D1CA80E192E00E943B0D3DCCA40141
:1049C000B70182E90E940F09D0CE20917E0330E02A
:1049D0003A8B298B31E026E698C9863529F4409137
:1049E0008103509182038EC9843541F44091830341
:1049F000509184035A8B498B27E687C9883441F448
:104A000040918503509186035A8B498B28E67DC9D6
:104A1000803509F03FCA40918703509188035A8B33
:104A2000498B23E772C9CF93DF93E0E1F2E0138271
:104A3000128288EE93E0A0E0B0E084839583A683A1
:104A4000B78323E131E03183208325EC30E03587E3
:104A5000248724EC30E03787268720EC30E0318B48
:104A6000208B21EC30E0338B228B22EC30E0358B35
:104A7000248B26EC30E0378B268B118E128E138E12
:104A8000148EEDEAF2E01382128284839583A6836A
:104A9000B78385E291E091838083A9EBB2E0119620
:104AA000FC93EE9313961C921E92129715961C92ED
:104AB0001E921497E7EDF2E089E090E09183808305
:104AC0008AE090E093838283168280E28783108657
:104AD00085E0868785E090E0A0E0B0E0848B958B50
:104AE000A68BB78B1186A6EDB3E0D096FC93EE9320
:104AF0009F978BE094E09093A6048093A50483EBAA
:104B000094E09093B2048093B10487EA94E098967D
:104B10009C938E9397979B961D921D921D921C922B
:104B20009E979A961C929A9799961C9299971C9286
:104B3000CFEBD2E0FF83EE83B987A887ECECF3E0FC
:104B400088EA98E0918380838CE182838AE893E00D
:104B50009483838381E485838EE386831782108622
:104B6000DF91CF9108951F93FC0199278827BC01FD
:104B7000E89411911032E9F3193010F01E30C8F3A7
:104B80001B3251F01D3249F4689406C00E94E3259F
:104B9000610F711D811D911D119110531A30B0F3D9
:104BA0003EF490958095709561957F4F8F4F9F4F04
:104BB0001F910895FB01DC018D9105908019011072
:104BC000D9F3990B0895592F482F372F262F660FA9
:104BD000771F881F991F660F771F881F991F620F05
:104BE000731F841F951F660F771F881F991F0895D5
:104BF000ABE0B0E0EEEFF5E20C949F286C017B0196
:104C00008A01FC0117821682838181FFCCC1CE010B
:104C100001963C01F6019381F70193FD859193FF85
:104C200081917F01882309F4BAC1853239F493FD5B
:104C3000859193FF81917F01853229F4B60190E03F
:104C40000E94EF27E7CF912C212C312CFFE1F315A7
:104C5000D8F08B3279F038F4803279F08332A1F4D5
:104C6000232D20611DC08D3261F0803369F4232D26
:104C7000216016C0832D8260382EE32DE4603E2E25
:104C80002AC0F32DF8601DC037FC2DC020ED280F81
:104C90002A3040F08E32B9F436FC81C1232D2064D5
:104CA000322E19C036FE06C08AE0989E200D1124CF
:104CB000922E11C0EAE02E9E200D1124222EF32DFB
:104CC000F0623F2E08C08C3621F4832D8068382E88
:104CD00002C0883641F4F70193FD859193FF8191DD
:104CE0007F018111B3CF982F9F7D9554933028F485
:104CF0000C5F1F4F9FE399830DC0833631F08337DC
:104D000071F0833509F059C021C0F8018081898391
:104D10000E5F1F4F88248394912C530113C02801E8
:104D2000F2E04F0E511CF801A080B18036FE03C0A6
:104D3000692D70E002C06FEF7FEFC5010E94E4278C
:104D40004C018201F32DFF773F2E16C0280122E08F
:104D5000420E511CF801A080B18036FE03C0692DBF
:104D600070E002C06FEF7FEFC5010E94D9274C01B0
:104D7000F32DF0683F2E820133FC1BC0822D90E0A2
:104D800088169906B0F4B60180E290E00E94EF2701
:104D90002A94F4CFF50137FC859137FE81915F01AC
:104DA000B60190E00E94EF2721102A9421E0821A98
:104DB00091088114910471F7E8C0843611F08936A6
:104DC00041F5F80137FE07C06081718182819381CE
:104DD0000C5F1F4F08C060817181072E000C880B8B
:104DE000990B0E5F1F4FF32DFF763F2E97FF09C0E3
:104DF00090958095709561957F4F8F4F9F4FF0688C
:104E00003F2E2AE030E0A3010E942B28882E86182E
:104E100045C0853731F4232D2F7EB22E2AE030E0B5
:104E200025C0932D997FB92E8F36C1F018F488359F
:104E300079F0B5C0803719F0883721F0B0C0E92F7C
:104E4000E061BE2EB4FE0DC0FB2DF460BF2E09C084
:104E500034FE0AC0292F2660B22E06C028E030E0BA
:104E600005C020E130E002C020E132E0F801B7FEE9
:104E700007C060817181828193810C5F1F4F06C0E2
:104E80006081718180E090E00E5F1F4FA3010E945E
:104E90002B28882E8618FB2DFF773F2E36FE0DC05F
:104EA000232D2E7FA22E891458F434FE0BC032FC21
:104EB00009C0832D8E7EA82E05C0B82CA32C03C05C
:104EC000B82C01C0B92CA4FE0FC0FE01E80DF11DE5
:104ED0008081803321F49A2D997EA92E09C0A2FEEB
:104EE00006C0B394B39404C08A2D867809F0B394B5
:104EF000A3FC11C0A0FE06C0B21488F4280C922CAA
:104F00009B180EC0B21460F4B60180E290E00E94DB
:104F1000EF27B394F7CFB21418F42B1802C0982CD3
:104F2000212CA4FE10C0B60180E390E00E94EF2780
:104F3000A2FE17C0A1FC03C088E790E002C088E58C
:104F400090E0B6010CC08A2D867859F0A1FE02C00F
:104F50008BE201C080E2A7FC8DE2B60190E00E94E6
:104F6000EF27891438F4B60180E390E00E94EF2720
:104F70009A94F7CF8A94F301E80DF11D8081B60170
:104F800090E00E94EF278110F5CF222009F442CE55
:104F9000B60180E290E00E94EF272A94F6CFF60156
:104FA0008681978102C08FEF9FEF2B96E2E10C94F0
:104FB000BB28FC010590615070400110D8F7809526
:104FC00090958E0F9F1F0895FC01615070400190D5
:104FD0000110D8F7809590958E0F9F1F08950F931D
:104FE0001F93CF93DF93FB01238121FD03C08FEF3C
:104FF0009FEF2CC022FF16C0468157812481358146
:105000004217530744F4A081B1819D012F5F3F4FA8
:10501000318320838C93268137812F5F3F4F3783E5
:10502000268314C08B01EC01FB010084F185E02D87
:105030000995892BE1F6D80116968D919C911797C9
:10504000019617969C938E931697CE01DF91CF9180
:105050001F910F910895FA01AA27283051F12031AC
:1050600081F1E8946F936E7F6E5F7F4F8F4F9F4FFC
:10507000AF4FB1E03ED0B4E03CD0670F781F891F3E
:105080009A1FA11D680F791F8A1F911DA11D6A0F0C
:10509000711D811D911DA11D20D009F468943F91BF
:1050A0002AE0269F11243019305D3193DEF6CF01BE
:1050B0000895462F4770405D4193B3E00FD0C9F784
:1050C000F6CF462F4F70405D4A3318F0495D31FDF1
:1050D0004052419302D0A9F7EACFB4E0A695979544
:1050E000879577956795BA95C9F70097610571051A
:1050F00008959B01AC010A2E069457954795379564
:105100002795BA95C9F7620F731F841F951FA01DBD
:105110000895F999FECF92BD81BDF89A992780B57F
:105120000895262FF999FECF1FBA92BD81BD20BDEB
:105130000FB6F894FA9AF99A0FBE019608952F9235
:105140003F924F925F926F927F928F929F92AF9217
:10515000BF92CF92DF92EF92FF920F931F93CF9364
:10516000DF93CDB7DEB7CA1BDB0B0FB6F894DEBFFB
:105170000FBECDBF09942A88398848885F846E8421
:105180007D848C849B84AA84B984C884DF80EE806B
:10519000FD800C811B81AA81B981CE0FD11D0FB674
:1051A000F894DEBF0FBECDBFED010895991B79E0E5
:1051B00004C0991F961708F0961B881F7A95C9F7A7
:1051C00080950895AA1BBB1B51E107C0AA1FBB1FF6
:1051D000A617B70710F0A61BB70B881F991F5A9583
:1051E000A9F780959095BC01CD01089597FB072EF6
:1051F00016F4009407D077FD09D00E94E22807FC3E
:1052000005D03EF4909581959F4F089570956195D6
:105210007F4F0895A1E21A2EAA1BBB1BFD010DC0F2
:10522000AA1FBB1FEE1FFF1FA217B307E407F50756
:1052300020F0A21BB30BE40BF50B661F771F881F32
:10524000991F1A9469F760957095809590959B01C8
:10525000AC01BD01CF010895052E97FB1EF400940B
:105260000E94432957FD07D00E940A2907FC03D05A
:105270004EF40C94432950954095309521953F4F1D
:105280004F4F5F4F089590958095709561957F4F32
:105290008F4F9F4F0895EE0FFF1F0590F491E02D63
:1052A0000994A29FB001B39FC001A39F700D811DFF
:1052B0001124911DB29F700D811D1124911D08951F
:1052C0005058BB27AA270E9478290C94502A0E9484
:1052D000422A38F00E94492A20F039F49F3F19F4FD
:1052E00026F40C943F2A0EF4E095E7FB0C94392A3F
:1052F000E92F0E94612A58F3BA17620773078407DF
:10530000950720F079F4A6F50C94832A0EF4E09525
:105310000B2EBA2FA02D0B01B90190010C01CA016F
:10532000A0011124FF27591B99F0593F50F4503E1A
:1053300068F11A16F040A22F232F342F4427585F0C
:10534000F3CF469537952795A795F0405395C9F724
:105350007EF41F16BA0B620B730B840BBAF09150DC
:10536000A1F0FF0FBB1F661F771F881FC2F70EC07B
:10537000BA0F621F731F841F48F48795779567954E
:10538000B795F7959E3F08F0B0CF9395880F08F03A
:105390009927EE0F9795879508950E94692A88F0BE
:1053A0009F5798F0B92F9927B751B0F0E1F0660FE9
:1053B000771F881F991F1AF0BA95C9F714C0B1302A
:1053C00091F00E94832AB1E008950C94832A672FFC
:1053D000782F8827B85F39F0B93FCCF38695779559
:1053E0006795B395D9F73EF4909580957095619542
:1053F0007F4F8F4F9F4F0895E89409C097FB3EF46D
:1054000090958095709561957F4F8F4F9F4F992311
:10541000A9F0F92F96E9BB279395F695879577958F
:105420006795B795F111F8CFFAF4BB0F11F460FF4F
:105430001BC06F5F7F4F8F4F9F4F16C0882311F0A7
:1054400096E911C0772321F09EE8872F762F05C0BB
:10545000662371F096E8862F70E060E02AF09A9556
:10546000660F771F881FDAF7880F9695879597F94B
:10547000089597F99F6780E870E060E008959FEFD6
:1054800080EC089500240A941616170618060906DB
:10549000089500240A9412161306140605060895AA
:1054A000092E0394000C11F4882352F0BB0F40F432
:1054B000BF2B11F460FF04C06F5F7F4F8F4F9F4F72
:1054C000089557FD9058440F551F59F05F3F71F0F4
:1054D0004795880F97FB991F61F09F3F79F087955B
:1054E0000895121613061406551FF2CF4695F1DFE4
:1054F00008C0161617061806991FF1CF8695710574
:10550000610508940895E894BB2766277727CB01A7
:1055100097F908950E949D2A0C94502A0E94422ACD
:1055200038F00E94492A20F0952311F00C94392A72
:105530000C943F2A11240C94842A0E94612A70F34F
:10554000959FC1F3950F50E0551F629FF001729F28
:10555000BB27F00DB11D639FAA27F00DB11DAA1F37
:10556000649F6627B00DA11D661F829F2227B00D84
:10557000A11D621F739FB00DA11D621F839FA00D0F
:10558000611D221F749F3327A00D611D231F849F5F
:10559000600D211D822F762F6A2F11249F575040B6
:1055A0009AF0F1F088234AF0EE0FFF1FBB1F661F31
:1055B000771F881F91505040A9F79E3F510580F0FA
:1055C0000C94392A0C94842A5F3FE4F3983ED4F378
:1055D000869577956795B795F795E7959F5FC1F79E
:1055E000FE2B880F911D9695879597F9089581E078
:1055F00090E0F8940C94482B9111089581568A51AB
:1056000008F4805285580895FB01DC0102C0019026
:105610000D9241505040D8F70895FC0181918617B2
:1056200021F08823D9F7992708953197CF0108955C
:10563000AEE0B0E0EEE1FBE20C94AD280D891E89EE
:105640008F89988D26E02C831A83098397FF02C0E7
:1056500080E090E801979E838D83AE01455E5F4FA9
:10566000698D7A8DCE0101960E94F8254D815E816B
:1056700057FD0AC02F813885421753070CF49A0151
:10568000F801E20FF31F10822E96E4E00C94C92873
:04569000F894FFCFBC
:105694000100253034580000C33C33CE3EE3EC0017
:1056A400000000950D020D2C0DE20D5D0D3B0D4F1C
:1056B4000D0000000088055B05B8052F0553053F64
:1056C4000530052525000A456E74727920746F6FC4
:0E56D400206C6F6E670025303258000D0A0002
:00000001FF
