:100000000C9400050C94FE0A0C942B0B0C94280500
:100010000C94130B0C9428050C94B00A0C9428052E
:100020000C9428050C9428050C9428050C9428059C
:100030000C9428050C9428050C9428050C9428058C
:100040000C94DB1B0C9428050C940D0F0C94E70EFC
:100050000C9428050C94550B0C9428050C94280539
:100060000C9410080C9428050C9428050C94280571
:100070000C9428050C9428050C9428050C9428054C
:100080000C9428050C9428050C9428050C9428053C
:100090000C9428050C9428050C9428050C9428052C
:1000A0000C9428050C9428050C9428050C9428051C
:1000B0000C9428053C233F234223452358236223E5
:1000C000652378237E2384238C2392239A23FC2385
:1000D000032408240B24102415241A241F24272465
:1000E000A619A9199C19A019CA19CA19AD19B119CB
:1000F000B719BB19CA19C119C519524F4B3A004358
:100100006F6E6E656374696E672E2E2E00534F4BB3
:100110003A000A4E6F74696669636174696F6E2094
:100120006D6F646500524F4B3A00534F4B3A000AD3
:10013000436F6E66696775726174696F6E206D6F6B
:100140006465005B772F726565645D3A005B736C74
:100150006565705D0073697A655D3A005B70617911
:100160006C6F6164004E6F746966792E2E2E000AE2
:10017000496E76616C696420636F6D6D616E6400B9
:10018000426F726F7352656564323420636F6E66BE
:10019000696720636F6E736F6C65205B424D3C3204
:1001A000344D3E56335D2054797065202768656C68
:1001B000702720746F2073686F7720636F6D6D6197
:1001C0006E6473005B74706C5D5061796C6F616418
:1001D0002074656D706C6174653A005B6368615D85
:1001E0004368616E6E656C3A005B726174655D4474
:1001F00061746120726174653A005B7478705D545B
:100200007820706F7765723A005B6D666F725D4D36
:1002100065736820666F7263652072656E65773AF4
:10022000005B6D6473745D4D657368204465737421
:100230002E206E6F64652049643A005B6D666964C8
:100240005D4D657368206672616D652074797065B7
:100250003A005B6D6E69645D4D657368206E6F6416
:1002600065202049643A005B726574645D52657470
:1002700072792064656C61793A005B726574725DB5
:10028000526574727920436F756E743A005B6372C5
:10029000635D4372633A005B61636B5D4175746FCC
:1002A00041636B3A005B64737A5D5061796C6F6196
:1002B000642073697A653A005B706970655D5265A8
:1002C0006D6F746520706970653A005B70737A5D5C
:1002D000416464722073697A653A005B6D6F645D96
:1002E0005266204D6F64653A005B6163635D4163F4
:1002F0006375726163793A005B7265706F5D526518
:10030000706F7274286D756C293A005B69645D4486
:10031000657669636549443A005B65696E745D455D
:10032000496E7420656E61626C65643A005B6C6551
:10033000645D4C65643A005B696E765D496E762E4D
:1003400020726565643A005265626F6F7421000A1D
:100350005B4552524F525D0A000A5B4F4B5D0A00EB
:100360002D2D2D434F4D4D414E44532D2D2D3A0AE9
:100370004D6973633A0A3D3D3D3D3D0A68656C70C9
:10038000202D2073686F77732074686973206D73F4
:10039000670A76657220202D2073686F7773207648
:1003A000657273696F6E2062616E6E65720A736842
:1003B0006F77202D2073686F777320637572726575
:1003C0006E7420636F6E66696775726174696F6EB3
:1003D0000A73656E20202D2073686F777320736514
:1003E0006E736F7273207374617475730A726562D1
:1003F0006F202D207265626F6F742064657669636B
:10040000650A66616320202D206F766572726964CB
:100410006520636F6E66696720776974682066611E
:1004200063746F72792064656661756C74730A47D2
:10043000656E6572616C3A0A3D3D3D3D3D3D3D3D19
:100440000A696E76203C312F303E2020202D206915
:100450006E7665727420726565642073656E736F65
:10046000722072656164696E670A6C6564203C3154
:100470002F303E2020202D20626C696E6B206C6531
:1004800064206F6E206E6F74696669636174696F52
:100490006E0A65696E74203C312F303E20202D207D
:1004A000656E61626C652065787465726E616C2042
:1004B000696E746572727570740A6964203C6E7539
:1004C0006D6265723E202D2073657420313662693D
:1004D0007420696E74656765722049440A7265709C
:1004E0006F203C6D756C3E20202D2073657420704C
:1004F0006572696F646963207265706F7274203D04
:1005000020382A6D756C207365636F6E64732E28B6
:10051000303D64697361626C6564290A61636320BC
:100520003C6E3E20202020202D20736574206163C6
:1005300063757261637920627974650A2074706CE6
:1005400020203C74656D706C6174653E202D2073B5
:100550006574207061796C6F61642074656D706C76
:100560006174650A6D6F6465203C302D333E202D2B
:100570002073657420726164696F206D6F646520FB
:10058000303D706C61696E2C313D6D6573682C3245
:100590003D6C6F726177616E0A526164696F3A0AED
:1005A0003D3D3D3D3D3D0A74787020203C302D346A
:1005B0003E2020202D2073657420545820706F77C2
:1005C0006572206C6576656C0A63686120203C3139
:1005D0002D3132363E202D2073657420726164699E
:1005E0006F206368616E6E656C0A72617465203C91
:1005F000302F312F323E202D2073657420726164BC
:10060000696F2064617461207261746520303D31CE
:100610004D4250532C313D324D4250532C333D32DC
:1006200035304B4250530A506C61696E206D6F64D7
:10063000653A0A3D3D3D3D3D3D3D3D3D3D3D0A70F8
:10064000737A20203C332F342F353E202D207365C4
:1006500074207069706520616464726573732073BF
:10066000697A650A70697065203C6865783E20206B
:10067000202D207365742068657820646573746923
:10068000616E74696F6E207069706520284C5342EA
:10069000290A64737A20203C302D33323E20202DED
:1006A0002073657420646174612F7061796C6F616F
:1006B000642073697A650A63726320203C302F31AD
:1006C0002F323E202D207365742063726320303DED
:1006D00064697361626C65642C313D386269742CA5
:1006E000323D31366269740A61636B20203C302FE1
:1006F000313E2020202D20557365206175746F6177
:10070000636B0A72657472203C302D31353E2020B7
:100710002D20736574206E756D626572206F662082
:10072000747820726574726965730A7265746420E6
:100730003C302D31353E20202D20736574207265AC
:1007400074726965732064656C617920286E2B3141
:10075000292A32353075730A4D657368206D6F64D0
:10076000653A0A3D3D3D3D3D3D3D3D3D3D0A6D6E99
:100770006964203C312D3235353E202D207365745F
:10078000206D657368206E6F64652049440A6D664C
:100790006964203C302D3235353E202D2073657440
:1007A000206D657368206672616D6520747970656F
:1007B0000A6D647374203C302D3235353E202D2077
:1007C000736574206D657368206E6F646520646561
:1007D0007374696E6174696F6E2069640A6D666F07
:1007E00072203C302F313E2020202D20666F726316
:1007F00065206D6573682072656E657720636F6E26
:100800006E656374696F6E00455252524F52004DCF
:100810006F6465206368616E67656400CAAB000041
:100820000001000000002549642C2552642C25425B
:10083000642C2541422C2556640000000000000075
:1008400000000000000000000000000000000000A8
:100850000000000000000000000000000000000098
:100860000000000000000000000000000000000088
:100870000000000000000000000000000000000078
:100880000000000000000000000000000000000068
:100890000000000000000000000000000000000058
:1008A00000000000000000000000024C0005314E76
:1008B0006F646520020108060A440000000102037B
:1008C00004051112131415160A0B0C0D0E0F5348C4
:1008D0005443335B48554D5D286325293A005348FE
:1008E0005443335B54454D505D286343293A005BC4
:1008F0005643435D286D56293A005B564241545D8C
:10090000286D56293A0068656C70000076657200A3
:10091000000073686F77000073656E0000007265F9
:10092000626F0000666163000000696E760000007F
:100930006C656400000065696E7400006964000005
:1009400000007265706F00006163630000007470E6
:100950006C0000006D6F646500007478700000002A
:1009600063686100000072617465000070737A0052
:10097000000070697065000064737A0000006372A3
:100980006300000061636B00000072657472000018
:100990007265746400006D6E696400006D66696460
:1009A00000006D64737400006D666F7200000000DB
:1009B000000800020100000304070000000000001E
:1009C000000000000000250028002B0000000000AF
:1009D000240027002A00040404040404040402027E
:1009E00002020202030303030303010204081020AE
:1009F00040800102040810200102040810208D2507
:100A000011241FBECFEFD8E0DEBFCDBF11E0A0E0C4
:100A1000B1E0E8E8F7E502C005900D92AE34B10709
:100A2000D9F725E0AEE4B1E001C01D92A135B207CF
:100A3000E1F714E0C0E0D5E004C02197FE010E9478
:100A4000C529CF3FD107C9F70E94251C0C94C22BA2
:100A50000C94000085ED8093BC008091BC0084FD67
:100A6000FCCF1092EC01089540917E01262F30E0DA
:100A7000240F311D21323105DCF42091EC012430AA
:100A8000C9F4FC0180E090E0861758F430917E01B3
:100A90002191DC01A25ABE4FA30FB11D2C930196E8
:100AA000F3CF80917E01680F60937E0180E008950E
:100AB00081E0089582E00895089508950895E091F1
:100AC000A5018091A401E81730F4F0E0EA55FE4F4B
:100AD000808190E008958FEF9FEF08959091A50198
:100AE0008091A401981750F4E92FF0E0EA55FE4FE9
:100AF000208130E09F5F9093A50102C02FEF3FEF70
:100B0000C90108958091A40190E02091A501821B64
:100B100091090895CF92DF92EF92FF920F931F9366
:100B2000CF93DF937C01CB018A0120910F02222316
:100B300089F0EB016B01C40ED51ECC15DD0569F003
:100B40006991D701ED91FC910190F081E02DC701F1
:100B50000995F3CF642F0E943405C801DF91CF912E
:100B60001F910F91FF90EF90DF90CF900895CF935A
:100B7000DF931F92CDB7DEB7698320910F02222346
:100B8000D1F020910D02203240F021E030E0FC0154
:100B90003383228380E090E015C080910E02E82F1D
:100BA000F0E0E351FE4F998190838F5F80930E02B6
:100BB00080930D0205C061E0CE0101960E943405CC
:100BC00081E090E00F90DF91CF910895089580E04B
:100BD00090E00895CF93DF93EC018CB58F7D8CBDB1
:100BE0008CB5837F8CBD8CB58C7F8CBD8DB58160C1
:100BF0008DBD8A810E947F198C899D89DF91CF915B
:100C00000C94DF1961E00C94EA0560E00C94EA05AD
:100C1000FC0120813181828193812817390719F0E5
:100C2000822F0C947F1908958EBD00000DB407FE2D
:100C3000FDCF8EB508951F93CF93DF93EC01162F50
:100C40000E940506812F0E941406182FCE010E94D3
:100C50000206812FDF91CF911F91089561EE0C94D0
:100C60001B06BF92CF92DF92EF92FF920F931F93DA
:100C7000CF93DF938C01B62EC72EF22EFC01C781D5
:100C8000DC2F4C1708F4D42FF8018085811102C0A5
:100C9000CD1B01C0C0E0C8010E9405068F2D0E9437
:100CA0001406D82EEB2CFC2CDD2339F0F7018191B2
:100CB0007F010E941406D150F7CFCC2329F080E0A9
:100CC0000E941406C150F9CFC8010E9402068D2D62
:100CD000DF91CF911F910F91FF90EF90DF90CF9018
:100CE000BF9008950F931F93CF93DF938C01C62F6E
:100CF000D42F0E9405068C2F8F7180620E941406EB
:100D0000C82F8D2F0E941406C8010E9402068C2F46
:100D1000DF91CF911F910F910895CF92DF92EF92C3
:100D2000FF920F931F93CF93DF937C01162F6A01DD
:100D3000C22F0E940506812F8F7180620E941406C7
:100D4000D82F8601CC2339F0F80181918F010E94C0
:100D50001406C150F7CFC7010E9402068D2FDF9104
:100D6000CF911F910F91FF90EF90DF90CF9008955A
:100D70001F93CF93DF93EC01162F0E940506812F5E
:100D80008F710E9414068FEF0E941406182FCE0157
:100D90000E940206812FDF91CF911F910895CF937A
:100DA000DF93EC0160E00E94B80681FD0EC0482F81
:100DB000426060E0CE010E94720665E070E080E073
:100DC00090E0DF91CF910C94EA19DF91CF910895D3
:100DD000CF93DF93EC0160E00E940806888999892F
:100DE0000E94DF196DE1CE010E94B80681FF07C0A5
:100DF000888999890E94DF19CE010E942E0660E041
:100E0000CE010E94B806482F4E7F60E0CE010E94BE
:100E1000720662E0CE010E94B806ECEBF8E0E491C5
:100E200041E050E001C0440FEA95EAF7482B62E048
:100E3000CE01DF91CF910C947206CF93DF93EC013A
:100E40000E94CF0660E0CE010E94B806482F4160A4
:100E500060E0CE010E94720640E767E0CE010E948A
:100E6000720661E0CE010E9408068985882349F058
:100E70002E85AE01475F5F4F6AE0CE010E948D066E
:100E800014C062E0CE010E94B806ECEBF8E0E491F9
:100E900021E030E001C0220FEA95EAF72095422FC9
:100EA000482362E0CE010E9472066DE1CE010E94ED
:100EB000B80681FF05C0CE01DF91CF910C942E06BC
:100EC000DF91CF9108951F93CF93DF93EC01888139
:100ED00099812A813B818217930711F00E94601942
:100EE0008A819B81288139812817390711F00E9456
:100EF00060191FB7F8948091A101811124C0E0EE20
:100F0000F9E08491E4EFF9E09491E82FF0E0EE0F3E
:100F1000FF1FE453F64FA591B491EC91E92321F41E
:100F200061E08AE00E947F198AE00E9460198CB516
:100F300080618CBD8CB580648CBD8DE00E94601991
:100F40008BE00E9460198091A1018F5F8093A101C5
:100F50001FBF60E0CE010E94080661E0CE010E9442
:100F6000EA0565E070E080E090E00E94EA194CE05C
:100F700060E0CE010E9472064FE564E0CE010E945F
:100F8000720662E0CE010E94DB13882311F081E03B
:100F90008E8366E0CE010E94B806182F60E0CE0175
:100FA0000E94DB13CE010E94050680E50E94140614
:100FB00083E70E941406CE010E94020640E06DE124
:100FC000CE010E94720640E06CE1CE010E947206E2
:100FD000188640E767E0CE010E9472064CE465E0A7
:100FE000CE010E94720662EECE010E941B06CE0167
:100FF0000E942E06CE010E94CF0660E0CE010E9424
:10100000B806482F4E7F60E0CE010E947206115054
:1010100081E01E3F08F080E0DF91CF911F9108959D
:101020001F920F920FB60F9211242F933F934F935D
:101030005F936F937F938F939F93AF93BF93EF9340
:10104000FF938091B900887F803609F49CC068F5D1
:10105000883209F45BC090F4803109F454C038F44C
:10106000882309F4F6C0883009F44DC0F6C08831F1
:1010700009F44CC0803209F45DC0EFC0803409F43B
:1010800068C048F4803309F455C0883309F0E5C0DE
:101090008093EA01D8C0803509F44FC0883509F43F
:1010A0005DC0883409F0D9C0D6C0883909F4C7C0FA
:1010B000A8F4883709F467C038F4883609F463C0A7
:1010C000803709F460C0C9C0883809F4B8C08039D5
:1010D00009F45FC0803809F0C0C05BC0803B09F4F0
:1010E00086C038F4803A09F466C0883A09F47FC0B3
:1010F000B4C0803C09F4A7C0883C09F4A4C0883B74
:1011000009F48AC0AAC08091C70110C09091E9017A
:101110008091E801981770F5E091E90181E08E0F68
:101120008093E901F0E0E853FE4F80818093BB009B
:1011300085EC86C08093EA018EC0E091E90181E0F0
:101140008E0F8093E9018091BB00F0E0E853FE4FE1
:1011500080839091E9018091E8016EC0E091E901FE
:1011600081E08E0F8093E9018091BB00F0E0E853AD
:10117000FE4F80838091EB0181116DC081E08093EF
:10118000C60184EA61C083E08093EC011092A00163
:10119000CFCF8091A001803208F051C0E091A00132
:1011A00081E08E0F8093A0018091BB00F0E0E058B9
:1011B000FE4F8083BDCF85EC8093BC001092EC0184
:1011C0008091A001803230F4E091A001F0E0E0587D
:1011D000FE4F10826091A00170E0E0914E01F0910D
:1011E0004F0180E891E009951092A00136C084E09B
:1011F0008093EC0110927F0110927E01E0915001EA
:10120000F0915101099580917E01811105C081E025
:1012100080937E0110925E01E0917F0181E08E0F4C
:1012200080937F01F0E0E25AFE4F80818093BB0003
:1012300090917F0180917E01981708F479CF85E81D
:101240008093BC000AC085EC8093BC001092EC0136
:1012500004C01092EA010E942A05FF91EF91BF910C
:10126000AF919F918F917F916F915F914F913F913E
:101270002F910F900FBE0F901F901895CF92DF9275
:10128000EF92FF920F931F93CF93DF93EB017B01BC
:10129000E40EF51E182FCE15DF0571F00991C12E51
:1012A000D12CC6010E940329081721F0602FC60126
:1012B0000E940B291F5FEFCFDF91CF911F910F91FC
:1012C000FF90EF90DF90CF900895EF92FF921F93E1
:1012D000CF93DF93EB017B01E40EF51E182FCE15A3
:1012E000DF0539F0812F90E00E94032989931F5F69
:1012F000F6CFDF91CF911F91FF90EF900895CF939C
:10130000DF9300D0CDB7DEB71A82198242E050E0F9
:10131000BE016F5F7F4F0E94650989819A810F909E
:101320000F90DF91CF910895EF92FF920F931F934B
:10133000CF93DF93CDB7DEB728970FB6F894DEBF13
:101340000FBECDBF8091F602811105C087ED92E0FE
:101350000E942E065CC08130E9F480917D038111EA
:1013600014C084E0F82E92E8E92EFA94FF2039F0B8
:101370008091BF029091C0028432994069F48091BB
:10138000C5029091C6020E94E8060E94301A21E030
:10139000892BF1F520E03CC08091C7029091C802F2
:1013A0000E94351067E18091C5029091C6020E94AB
:1013B000B80681FD2CC08091C7029091C802FC0143
:1013C00022A520FD24C01C821B82209100013091A7
:1013D0000101A9014F5F5F4F50930101409300014C
:1013E0003E832D83EF8208E310E020E030E040E010
:1013F00050E0BE016F5F7F4F0E94F012811107C065
:1014000067E670E080E090E00E94EA19AECF21E04C
:10141000822F28960FB6F894DEBF0FBECDBFDF91A6
:10142000CF911F910F91FF90EF900895209153015C
:101430009F938F93822F90E021E430E0281B390B9B
:101440003F932F9386579C4F9F938F930E94922B8D
:10145000E09153018E0F809353010F900F900F90E6
:101460000F900F900F90823438F081E480935301F5
:101470001092CB0380E00895E82FF0E0E657FC4F90
:10148000108281E008950FB6F894A89590916000BD
:10149000986190936000109260000FBE8A30A9F0AE
:1014A00083FD02C098E001C098E28770892B98E123
:1014B0000FB6F894A895909360000FBE80936000DB
:1014C0008091600080648093600083B7817F682B87
:1014D00063BFF89483B7816083BF85B7806685BF9B
:1014E0008F7D85BF7894889583B78E7F83BF7894EE
:1014F00008950FB6F894A895909160009861909324
:101500006000109260000FBE8A3049F191E0909324
:101510005D0183FD02C098E001C098E28770892BCD
:1015200098E10FB6F894A895909360000FBE809351
:1015300060008091600080648093600083B7817F49
:1015400083BFF89483B7816083BF7894889583B70D
:101550008E7F83BF789480915D018111EFCF0895D4
:101560001F920F920FB60F9211248F930FB6F8941B
:10157000A89580916000886180936000109260005F
:101580000FBE10925D018F910F900FBE0F901F90B4
:101590001895F8949BE088E10FB6F894A89580938D
:1015A00060000FBE90936000FFCF811102C089E000
:1015B00001C08AE01092520190915C01992311F0D0
:1015C000E99A01C0E9989091680092609093680050
:1015D00090916C00996090936C0064E00E94430AC3
:1015E00080915201E998909168009D7F90936800E6
:1015F00090916C00967F90936C0008951F920F92CB
:101600000FB60F9211248F93F89483B78E7F83BF08
:10161000E89884E08093520178948F910F900FBEE8
:101620000F901F9018951F920F920FB60F921124D2
:101630008F93F89483B78E7F83BF309B02C082E084
:1016400001C081E08093520178948F910F900FBE7A
:101650000F901F9018951F920F920FB60F921124A2
:101660008F93F89483B78E7F83BFE99883E080934C
:10167000520178948F910F900FBE0F901F90189584
:10168000882311F05C9A08955C9808951092A30144
:101690001092A20180935B0162E08AE00E94430AFB
:1016A00080915B018111F8CF08951F920F920FB6C0
:1016B0000F9211242F933F934F938F939F93909169
:1016C0007800409179002091A2013091A301892FE7
:1016D00090E0942B820F931F9093A3018093A2011B
:1016E00080915B01882329F080915B018150809378
:1016F0005B019F918F914F913F912F910F900FBE62
:101700000F901F901895CF93DF931F92CDB7DEB740
:10171000198241E050E0BE016F5F7F4F0E94650972
:1017200089810F90DF91CF9108951F93CF93DF931D
:10173000C82F80E00E947F09C1115EC08A3C9B4A8D
:1017400009F05AC082E00E94830B91E0811101C030
:1017500090E09093EF0283E00E94830B91E081116F
:1017600001C090E09093F00284E00E94830B91E02E
:10177000811101C090E09093F10285E00E947F0901
:101780009093F3028093F20287E00E947F09909386
:10179000F5028093F40289E00E94830B8093890311
:1017A00042E850E067EF72E08AE00E9465098DE848
:1017B0000E94830B8093F60289E90E94830B91E0DB
:1017C000811101C090E090937A038DE90E94830B10
:1017D00080937B038EE90E94830B80937C038FE9C7
:1017E0000E94830B91E0811101C090E090937D03F2
:1017F000DF91CF911F910895C0E0D0E0FE01E45E3B
:10180000F74F1491CE010E940329181721F0612F80
:10181000CE010E940B292196C03AD10579F792CFCB
:10182000CF93DF931F92CDB7DEB7698341E050E0DD
:10183000BE016F5F7F4F0E943E090F90DF91CF91F5
:101840000895CF92DF92EF92FF920F931F93CF9361
:10185000DF936C017A018B01C0E0D0E0CE15DF058B
:1018600081F0D8016D918D01D601ED91FC9101902F
:10187000F081E02DC6010995892B11F02196EECF5C
:101880007E01C701DF91CF911F910F91FF90EF90E3
:10189000DF90CF900895FC01538D448D252F30E0CB
:1018A000842F90E0821B930B541710F0CF9608956D
:1018B00001970895FC01918D828D981761F0828DBA
:1018C000DF01A80FB11D5D968C91928D9F5F9F7374
:1018D000928F90E008958FEF9FEF0895FC01918D16
:1018E000828D981731F0828DE80FF11D858D90E083
:1018F00008958FEF9FEF0895FC01918D228D892F20
:1019000090E0805C9F4F821B91098F739927089507
:1019100080E192E00E947C0C21E0892B09F420E018
:10192000822F0895FC01848DDF01A80FB11DA35AF9
:10193000BF4F2C91848D90E001968F739927848FEF
:10194000A689B7892C93A089B1898C918370806412
:101950008C93938D848D981306C00288F389E02DB3
:1019600080818F7D80830895EF92FF920F931F9364
:10197000CF93DF93EC0181E0888F9B8D8C8D981342
:1019800005C0E889F989808185FD26C0F62E0B8D7A
:1019900010E00F5F1F4F0F731127E02E8C8DE812A0
:1019A0000CC00FB607FCFACFE889F989808185FF62
:1019B000F5CFCE010E94920CF1CF8B8DFE01E80F86
:1019C000F11DE35AFF4FF0829FB7F8940B8FEA891D
:1019D000FB89808180620AC09FB7F894EE89FF89F5
:1019E0006083E889F98980818370806480839FBFE8
:1019F00081E090E0DF91CF911F910F91FF90EF90E8
:101A00000895CF93DF93EC01888D8823C9F0EA898C
:101A1000FB89808185FD05C0A889B9898C9186FDE7
:101A20000FC00FB607FCF5CF808185FFF2CFA889E4
:101A3000B9898C9185FFEDCFCE010E94920CE7CF42
:101A4000DF91CF91089580E090E0892B21F00E94F2
:101A5000880C81110DC080E090E0892B71F080E04E
:101A600090E0892B51F00E940000811104C008957C
:101A70000E940000F0CF0C9400000895CF93DF93F4
:101A8000FB01228150814181223030F0252F342FFB
:101A900081E0838380E02EC0252F342FDC01A05904
:101AA000BE4F4D915C91D901A423B523EC016AA9E5
:101AB0007BA9A617B70749F0DC01A359BE4F2D91AA
:101AC0003C91119712968C9115C0CA018095909502
:101AD00063E0880F991F6A95E1F782239323892B8E
:101AE00041F083E0440F551F8A95E1F747602423B6
:101AF000352385E031832083828381E0DF91CF919C
:101B000008950E94712B8F929F92AF92BF92CF92B5
:101B1000DF92EF92FF920F931F93CF93DF93EC012D
:101B20007B01CCA8D12C860108501109DB01169647
:101B30009C918CE6890F833020F0983C09F0CFC04F
:101B400003C0943909F4E4C08BE6890F823018F0A1
:101B5000983C09F08EC06E0159EDC50ED11CD6011E
:101B60002D913C91A801420F531F4139510520F09E
:101B7000C852DF4F1882B1C05E01B8EDAB0EB11C88
:101B8000F5018081882309F415C1963929F0D70120
:101B900017969C918913A1C0FE01EB52FF4F408123
:101BA0005181F701848195814817590709F095C043
:101BB0004E01FBED8F0E911CD4018D919C91A801DB
:101BC000BE01615F7F4F820F931F0E947E2BF60143
:101BD00080819181080F191F11830083D701169608
:101BE0008C91863929F0F50180818150808373C002
:101BF000D5011C92F7018781FE01E952FF4F8083D6
:101C0000833809F483C07E01FFECEF0EF11CF7016D
:101C1000A081B181CE018A1B9B0B8B539F4F8017F4
:101C20009107F8F032968AE001900D928A95E1F7DB
:101C3000D7018D919C91F40160817181D6014D9104
:101C40005C910A960E947E2BF601808191810A9612
:101C5000D7012D913C911197820F931F8D939C93E7
:101C60003AC08FA598A90E94E8068AA581608AA734
:101C700034C07E01BFECEB0EF11CF701A081B181F5
:101C8000CE01C5969D01281B390BC901800F911FFC
:101C90008B39910510F5E85CF10988E001900D920F
:101CA0008A95E1F7D701ED91FC9111971187008793
:101CB0008D919C91BE01615F7F4FA8010A960E94A1
:101CC0007E2BB2E0CB0ED11CF70180819181C80E32
:101CD000D91ED182C08281E06DC080E06BC0933894
:101CE00041F6DE01AF52BF4FFE01379688E001900A
:101CF0000D928A95E1F7FE01E552FF4FCE010F9656
:101D000091838083C752DF4F1983088382E052C0DA
:101D1000F7018781873008F02BCFFE01EB52FF4F90
:101D200040815181D70114962D913C91159734979C
:101D30006F014217530739F4408151812D913C9135
:101D40004217530741F2F8E18F9FC0011124FE01B1
:101D5000E153FF4F20813181AE01421B530B9A01A9
:101D60002B533F4F281739073CF48AA581608AA777
:101D70008FA598A90E94E806FE01379688E0D60153
:101D800001900D928A95E1F7FE01E552FF4FBE01E9
:101D9000615F7F4FA801808191810E947E2BFE01AF
:101DA000E752FF4F11830083C852DF4F8881815073
:101DB000888391CFDF91CF911F910F91FF90EF908A
:101DC000DF90CF90BF90AF909F908F9008951F921B
:101DD0000F920FB60F9211242F933F934F935F935F
:101DE0006F937F938F939F93AF93BF93EF93FF93E3
:101DF00080E192E00E94920CFF91EF91BF91AF9130
:101E00009F918F917F916F915F914F913F912F9112
:101E10000F900FBE0F901F9018951F920F920FB644
:101E20000F9211242F938F939F93EF93FF93E09141
:101E30002002F09121028081E0912602F091270298
:101E400082FD12C09081809129028F5F8F73209153
:101E50002A02821751F0E0912902F0E0E05FFD4F85
:101E6000958F8093290201C08081FF91EF919F910E
:101E70008F912F910F900FBE0F901F901895CF93B9
:101E8000DF93CDB7DEB728970FB6F894DEBF0FBE4D
:101E9000CDBFAC019CEC99839A839B839C839D83EB
:101EA0001E821F8218869A01E1E021153105C9F0D2
:101EB000611103C04115510569F4D901A770BB2711
:101EC000A85FBE4F8C91A1E0B0E0AC0FBD1FAE0F7C
:101ED000B11D8C9383E0369527958A95E1F7EF5FE6
:101EE000E4CF611102C0452B39F4E62FF0E0E85F42
:101EF000FE4F8081898305C0F0E0E95FFE4F80815D
:101F00008A8329813A814B815C816D817E818F81B9
:101F1000988528960FB6F894DEBF0FBECDBFDF912F
:101F2000CF9108956F927F928F929F92AF92BF92BE
:101F3000CF92DF92EF92FF920F931F93CF93DF9395
:101F4000CDB7DEB728970FB6F894DEBF0FBECDBF72
:101F50008C01CB01F22E642F0E943F0F39014A0100
:101F60005B016C01F80182A582FD04C087A590A9E0
:101F70000E94E806F80187A590A9FF2011F060E013
:101F800001C061E00E949917F801E7A4F0A86982F6
:101F90007A828B829C82AD82BE82CF82D886F70104
:101FA0002685AE014F5F5F4F6AE0C7010E948D0634
:101FB000F7012685AE014F5F5F4F60E1C7010E94C8
:101FC0008D06F701478161E1C7010E947206F801A1
:101FD000D4A8E7A4F0A86FEFC7010E941B0680FFFA
:101FE0000DC06FEFC7010E941B0684FFF4CF40E1D4
:101FF00067E0C7010E947206F12C0EC020EA4D2D49
:10200000B801695F7F4FC7010E94310661E0C701D7
:102010000E940806FF24F394F80182A582FD0FC0F8
:10202000418152816381748187A590A90E94C4185F
:10203000F82E60E0F80187A590A90E9499178F2DCE
:1020400028960FB6F894DEBF0FBECDBFDF91CF91BB
:102050001F910F91FF90EF90DF90CF90BF90AF90C6
:102060009F908F907F906F9008952F923F924F9204
:102070005F926F927F928F929F92AF92BF92CF9218
:10208000DF92EF92FF920F931F93CF93DF9300D0D5
:102090001F92CDB7DEB79B838A83FC0192A5892F5F
:1020A000827091FD19C0E153FF4F4A815B814B5C07
:1020B0005F4F90FD07C020813181241B350B2937EC
:1020C000310554F0208131814217530708F477C15C
:1020D0009E7FEA81FB8192A7712CEA80FB80F7E06A
:1020E000EF0EF11CF8E52F2EF2E03F2E442443942E
:1020F000512CCA80DB8021E9C21A2EEFD20AB4E249
:10210000AB2EB9E0BB2EEA81FB8107A510A9F8012F
:10211000808191818F3F910509F450C18281938123
:102120008F3F910509F44AC167E1C8010E94B806D2
:10213000F82FF1709F2E80FD41C16FEFC8010E9402
:102140001B06EA81FB8107A510A9C8010E940506AC
:1021500080E60E9414068FEF0E941406882EC801A4
:102160000E940206F0E2F81558F462EEC8010E94DF
:102170001B0662E070E080E090E00E94EA1901C076
:10218000982CEA81FB8194AAF7E0F91538F06AE00F
:1021900070E080E090E00E94EA19B5CFEA81FB810F
:1021A00007A510A9F8018781682E981608F4692CF4
:1021B000F8019085911103C08619898301C01982A5
:1021C000C8010E94050681E60E94140647016A9430
:1021D000FFEF6F1202C0998007C08FEF0E941406B4
:1021E000F40181934F01F3CF992029F08FEF0E94E2
:1021F00014069A94F9CFC8010E94020640E767E0EE
:10220000C8010E947206EA81FB8161857285CB015B
:10221000009759F0282F2770263008F074CFE3E09C
:1022200096958795EA95E1F7F3CFEA81FB8175846E
:1022300082A993A96817790709F048C0F2E87F16C8
:1022400009F461CF20E8721212C064327940F9F0CB
:10225000EA81FB81B286A18642E064E279E0CF01A7
:102260000E94F5116AE070E080E090E04DC0F3EC70
:102270007F120DC06115710551F0EA81FB817087F5
:1022800067831286118640E060E070E044C0EA8116
:10229000FB8181A5882319F077FE0EC003C0F1EC05
:1022A0007F120AC08CE6870D833030F028EC72165E
:1022B00019F033E8731282C0B7018A819B810E94B2
:1022C000830D823009F01FCF83E879C06034710537
:1022D00009F06EC0E2EC7E1220C0EA81FB8122A5EB
:1022E00023FD11CF8432F9E09F0709F40CCFEA8176
:1022F000FB81278130853287218790878783F6018C
:10230000608170E080E090E00E94EA19EA81FB8140
:102310006185728542E0CF014EC0B7018A819B8101
:102320000E94830D182FEA81FB8180818823E1F1CF
:1023300082A993A953E0969587955A95E1F7892B41
:1023400021F080E699E00E94DF19EA81FB8182A9F1
:1023500093A9837099279C01229DC001239D900D14
:10236000329D900D11240E94DF19EA81FB8181A921
:10237000882371F090E001979C01220F331F820F98
:10238000931FB20102C0660F771F8A95E2F702C061
:1023900060E070E083E0660F771F8A95E1F744E024
:1023A0008A819B810E94F511123009F0ACCE8CCF4E
:1023B00041E08A819B810E94F511A5CE872D0F9067
:1023C0000F900F90DF91CF911F910F91FF90EF90A1
:1023D000DF90CF90BF90AF909F908F907F906F9045
:1023E0005F904F903F902F900895CF92DF92EF92A1
:1023F000FF920F931F93CF93DF9300D000D01F92D3
:10240000CDB7DEB79B012115310561F0522F577012
:10241000563030F453E0369527955A95E1F7F3CFCF
:1024200080E097C0F42E6B018C01FC0185858154FE
:102430008D8319821A821B821C827A8369834B8363
:10244000BE016F5F7F4FC8010E943E0D69817A8196
:102450002C814B81C8010E94920FF1E0FF1228C02D
:10246000811102C0F12C32C089819A81C816D90627
:1024700009F58D818F37F0F481ECF801858787812C
:102480009085928781879A838983FB821C82BE0113
:102490006F5F7F4FC8010E943E0D88E0F80184AB5A
:1024A00069817A812C814B81C8010E94920F02C000
:1024B0008823C1F289819A81C816D90629F0FF20A4
:1024C00079F0F3E0FF1661F0FF24F394F80182A5A0
:1024D00082FD04C087A590A90E941D078F2D39C0D9
:1024E0008D818F3788F7F80182A582FF11C0418165
:1024F00052816381748187A590A90E94C418F80154
:1025000082A58B7F82A760E087A590A90E9499177A
:10251000F80187A590A90E941D070E94241A6B014B
:102520007C01C8010E943510813C71F20E94241A7E
:10253000AB01BC014C195D096E097F09F801858169
:102540009681A0E0B0E084179507A607B70748F783
:1025500089CF0F900F900F900F900F90DF91CF9138
:102560001F910F91FF90EF90DF90CF900895EF9221
:10257000FF920F931F93CF93DF93EC017B01BA017E
:102580008AA99BA9F70191838083DE01179688E0D1
:1025900001900D928A95E1F72115310529F0A901E5
:1025A000CE010F960E947E2BF70162817381083362
:1025B000110561F06034710511F444E001C043E09D
:1025C0000617170709F442E0B80101C040E0CE0148
:1025D000DF91CF911F910F91FF90EF900C94F51127
:1025E0002F923F924F925F926F927F928F929F9223
:1025F000AF92BF92CF92DF92EF92FF920F931F9311
:10260000CF93DF93EC017B015A01690148010E94DD
:10261000241A4BA45CA46DA47EA4DC01CB01841914
:102620009509A609B7094997A105B10548F088ECB5
:1026300090E00E94DF1989E1C816D104E8F406C0D1
:10264000CE010E94351087FFE2CFF1CF88E08C0DDC
:102650008CAB84019601A501B701CE010E94B7128F
:10266000182F882311F011E092C00E94241A6BA742
:102670007CA78DA79EA78BC0E1E9CE16D10408F0F8
:1026800085C0C60168E170E00E945C2921E0892BC9
:1026900009F420E0C60168E170E00E945C29722E16
:1026A000760EF701828193818034910539F08AA5F5
:1026B00084608AA78FA598A90E94E806F701468042
:1026C000512C612C84E9282E96E9392EF701778266
:1026D000F1E07F1204C0F7013682478208C0611022
:1026E00003C0F701268203C085E9F7018683E8E18C
:1026F0006E9EA00111249601241B350B2931310552
:1027000010F028E130E088E0820F8CAB4A0D5B1DB1
:102710008401B701CE010E94B712182F81110BC09E
:1027200062E070E080E090E00E94EA195394F2E0E9
:10273000F51560F606C07A946394772011F0512C59
:10274000C5CFF70146828AA582FF12C049815A810E
:102750006B817C818FA598A90E94C418182F8FA522
:1027600098A90E941D0760E08FA598A90E9499175B
:102770008AA58B7F8AA7112349F0772009F473CFAC
:102780000E94241A6BA77CA78DA79EA710E0812F1B
:10279000DF91CF911F910F91FF90EF90DF90CF903D
:1027A000BF90AF909F908F907F906F905F904F9071
:1027B0003F902F9008950F931F93CF93DF938C0139
:1027C000D62F66E00E94B806C82FC77DD23031F4FC
:1027D000C0628BE990E0A0E0B0E00CC0D13029F0FD
:1027E00085E590E0A0E0B0E005C0C86081E490E03D
:1027F000A0E0B0E0F801808B918BA28BB38B4C2FC3
:1028000066E0C8010E94720666E0C8010E94B80630
:1028100091E0C81390E0892FDF91CF911F910F9124
:102820000895CF93DF93EC016DE10E94B806482F25
:1028300044606DE1CE010E9472066CE1CE010E94FF
:10284000B806482F4F636CE1CE010E94720681E00A
:102850008887DF91CF9108950F931F93CF93DF93D4
:10286000C4E6D0E098819E7F9883862B80937C007D
:102870000AE710E0F8018081886880836AE070E0F0
:1028800080E090E00E94EA1982E00E94460B84E01A
:102890000E94460BF8018081877780838881816060
:1028A00088838091A2019091A30196958795969532
:1028B00087959093A3018093A201DF91CF911F91FF
:1028C0000F910895009769F0FC0101900020E9F74D
:1028D0003197AF01481B590BBC0180E192E00C9489
:1028E000210C80E090E008958F929F92AF92BF926A
:1028F0000F931F93CF93DF93CDB7DEB7A1970FB69A
:10290000F894DEBF0FBECDBF19A2423008F44AE0F2
:102910008E010F5D1F4F842E912CA12CB12CA5018F
:1029200094010E948429E62FB901CA0101501109BE
:10293000EA3014F4E05D01C0E95CD801EC93232B8C
:10294000242B252B61F7C8010E946214A1960FB6B3
:10295000F894DEBF0FBECDBFDF91CF911F910F91D5
:10296000BF90AF909F908F9008958BE491E00C946E
:1029700062140F931F93CF93DF938C01C0E0D0E0DC
:10298000F801EC0FFD1F6491662341F080E192E0B5
:102990000E94B40C892B11F02196F2CFCE01DF9169
:1029A000CF911F910F910895CF93DF930E94B91497
:1029B000EC010E94B5148C0F9D1FDF91CF910895FB
:1029C000CF93DF93682F70E080E090E04AE00E94B0
:1029D0007414EC010E94B5148C0F9D1FDF91CF91F0
:1029E0000895CF93DF93BC0180E090E04AE00E941D
:1029F0007414EC010E94B5148C0F9D1FDF91CF91D0
:102A00000895682F80E192E00C94B40CCF92DF928D
:102A1000EF92FF92CF93DF936C01990FEE08FF08BE
:102A2000F7FE17C08DE20E940115EC01662777279B
:102A3000CB016C197D098E099F094AE00E9474142C
:102A40008C0F9D1FDF91CF91FF90EF90DF90CF9083
:102A500008954AE0C701B601DF91CF91FF90EF9052
:102A6000DF90CF900C947414CF93DF930E940615DF
:102A7000EC010E94B5148C0F9D1FDF91CF9108953A
:102A80001F93CF93DF93182F292FD62F81E08093A8
:102A90000F0280E78093D50310920E0210920D0270
:102AA0008091B9029091BA02DC01ED91FC91019004
:102AB000F081E02D622F0995C82F8091B902909185
:102AC000BA02DC01ED91FC910190F081E02D612FC3
:102AD000099530910D02313208F04AC09091EC0115
:102AE0009111FCCF2091D50342E04093EC01D093AB
:102AF000EB014FEF4093EA011092E9013093E801B6
:102B0000ADEEB1E0E8ECF1E040E0431721F05D917B
:102B100051934F5FFACF1092C7013091C701220F36
:102B2000232B2093C7012091C601213061F410921C
:102B3000C6012091C7012093BB002091BC0023FD5A
:102B4000F8CF25EC01C025EE2093BC002091EC01CC
:102B50002230E1F32091EA012F3F79F09091EA01D0
:102B6000903241F09091EA01903331F094E005C049
:102B700091E003C092E001C093E010920E02109227
:102B80000D0210920F02911105C09C2F980F81E049
:102B9000923009F080E0DF91CF911F910895FC0100
:102BA0009C012E5F3F4F8FEF41E39191892798E081
:102BB00087FF03C0880F842701C0880F9150C1F799
:102BC000E217F30791F70895FF920F931F93CF93A6
:102BD000DF93F62ED72FC42F60E00E944015882384
:102BE00009F46CC08091EC018111FCCF8C2FC132B3
:102BF00008F080E291E09093EC019093EB012FEFCD
:102C00002093EA011092E901280F2093E8019093A4
:102C1000C7019091C701906E9093C7019091C60132
:102C2000913061F41092C6019091C7019093BB005E
:102C30009091BC0093FDF8CF95EC01C095EE909378
:102C4000BC009091EC019130E1F39091E90198176B
:102C500010F48091E901A8ECB1E0E6EAF1E090E03F
:102C6000981721F02D9121939F5FFACF1092A50123
:102C70009093A4018091B9029091BA02DC01ED9188
:102C8000FC910084F185E02D09952C2F30E082170E
:102C90009307A1F40F2D1D2FCC2391F08091B90241
:102CA0009091BA02DC01ED91FC910284F385E02D54
:102CB0000995F80181938F01C150EECF80E001C0EA
:102CC00081E0DF91CF911F910F91FF900895CF92F6
:102CD000DF92EF92FF920F931F93CF93DF9300D079
:102CE00000D000D0CDB7DEB7419865E070E080E05D
:102CF00090E00E94EA1960EC86E00E942C1460913A
:102D0000A2017091A30180E090E00E94762A2EEC4F
:102D10003DE84BE450E40E94042B20E030E040E02A
:102D20005FE30E94DB290E94472A7093A30160930E
:102D3000A2018091A2019091A301909380038093BE
:102D40007F038AEF98E00E94B91480917F039091ED
:102D500080030E94F11480E192E00E94010D419AEB
:102D600060E48EE00E942C142091A2013091A30116
:102D700040E050E064EB7BE281E190E00E94A62914
:102D800030938203209381038FEE98E00E94B91460
:102D900080918103909182030E94F11480918903B4
:102DA000811103C008E514E602C002EA1CE761E0F5
:102DB00087E195E30E944015882309F45EC046E050
:102DC000BE016F5F7F4FC8010E94E415182F882352
:102DD00081F0CE0101960E94CF159B81891308C016
:102DE000CE0104960E94CF159E81891709F458C020
:102DF00010E061E088E990EB0E9440151123E9F1B1
:102E00002091BB023091BC02AFE4B8E60E94CB290E
:102E100040EAC42E46E8D42EEE24E394F12CA70118
:102E200096010E94842924593141309384032093D0
:102E300083032091BD023091BE02ABE9BBE30E9447
:102E4000CB29A70196010E94842930938603209301
:102E500085038EED98E00E94B914809183039091D0
:102E600084030E9434158EEC98E00E94B91480917E
:102E70008503909186030E94F11480E192E00E9404
:102E8000010D26960FB6F894DEBF0FBECDBFDF91C1
:102E9000CF911F910F91FF90EF90DF90CF90089509
:102EA000898190E0982F88272A81820F911D909325
:102EB000BC028093BB028C8190E0982F88272D81E3
:102EC000820F911D9093BE028093BD0292CF86B176
:102ED00069E170E080E090E00E94EA1986B18170BB
:102EE0000895E0E1F2E0A089B18982E08C93A485A5
:102EF000B5851C92A685B7858CE08C93108EA4892D
:102F0000B58986E08C93A289B3898C9180618C937A
:102F1000A289B3898C9188608C93A289B3898C91A2
:102F200080688C930288F389E02D80818F7D808377
:102F300008951F93CF93DF93EC01162F61E00E9459
:102F4000B806482F112311F0416001C04E7F61E0A7
:102F5000CE01DF91CF911F910C9472067F928F92D8
:102F60009F92AF92BF92CF92DF92EF92FF920F9318
:102F70001F93CF93DF93CDB7DEB728970FB6F894A2
:102F8000DEBF0FBECDBFFC019B012115310559F0FD
:102F9000822F8770863008F0E3C0A3E0369527952E
:102FA000AA95E1F7F2CF62AB73AB87A590A9DC01DC
:102FB0002D913C912F3F310509F4D2C0DC011296CE
:102FC0002D913C9113972F3F310509F4C9C0E72E8D
:102FD000F62E8F0160E00E949917F80187A590A94D
:102FE0000E941114D801D2968D919C91D39766E0DE
:102FF00070E00E945C29482F440F4B5FB0E14B9F6B
:10300000A0011124456064E0F80187A590A90E9401
:10301000720689E190E0A0E0B0E0F801818392833C
:10302000A383B4838BE490E09683858322A933A99C
:1030300040E08FEF9FEFB90168237923672B39F0C8
:1030400073E0880F991F7A95E1F74F5FF4CFF8018D
:1030500041AB80959095E059FE4F9183808363E06A
:10306000969587956A95E1F73397A90148235923E7
:1030700051834083009759F043E0369527954A9550
:10308000E1F753E0969587955A95E1F7F3CFF8016C
:10309000E159FE4F208386E0782E88248394912C7A
:1030A0007A94FFEF7F1609F454C0672D8F2D9E2D63
:1030B0000E943F0FD8019F96CD90DC90D097298336
:1030C0003A834B835C836D837E838F839887A72CA1
:1030D000B12C71100BC0F601468550E0BE016F5F48
:1030E0007F4FC60109960E947E2B03C0F1E07F123C
:1030F00008C0F501E853F74F6491D6011E962C9154
:1031000005C0F501E853F74F649121E0AE014F5F30
:103110005F4FC6010E948D06F501EE53F74F649193
:10312000F6014781C6010E94720662E0C6010E9454
:10313000B806F501E454F74FE491940101C0220F61
:10314000EA95EAF7482F422B62E0C6010E94720618
:10315000A7CFD8019F968D919C91D0970E941D0773
:1031600028960FB6F894DEBF0FBECDBFDF91CF918A
:103170001F910F91FF90EF90DF90CF90BF90AF9095
:103180009F908F907F9008958F929F92AF92BF9261
:10319000CF92DF92EF92FF92CF93DF93EC016A011F
:1031A0007B010E94241A4B015C0167E1CE010E9461
:1031B000B80684FD29C06FEFCE010E941B0684FF74
:1031C000F4CF40E167E0CE010E94720660E0CE01DC
:1031D0000E94080661E0CE010E9408060E94241A9F
:1031E000DC01CB0188199909AA09BB098C159D0539
:1031F000AE05BF05D0F260E0CE010E940806CE0108
:103200000E942E0680E005C060E0CE010E94080604
:1032100081E0DF91CF91FF90EF90DF90CF90BF9052
:10322000AF909F908F9008953FB7F89480914D058F
:1032300090914E05A0914F05B091500526B5A89BE1
:1032400005C02F3F19F00196A11DB11D3FBFBA2F38
:10325000A92F982F8827820F911DA11DB11DBC0198
:10326000CD0146E0660F771F881F991F4A95D1F759
:10327000089560E087ED92E00E94080660E087ED27
:1032800092E00E94B806482F4D7F60E087ED92E003
:103290000C947206CF93C82F66E087ED92E00E94EF
:1032A000B806887FC43018F4CC0FCF5F01C0C7E0E8
:1032B000482F4C2B66E087ED92E0CF910C9472067C
:1032C00090E0FC01E651F64F2491FC01EA52F64FE2
:1032D0008491882399F090E0880F991FFC01E453B2
:1032E000F64FA591B491FC01EE53F64F8591949160
:1032F0008FB7F894EC91E22BEC938FBF0895362FA3
:1033000090E0FC01E255F64F4491FC01E651F64F86
:103310002491FC01EA52F64F8491882309F44EC0AF
:103320004423C1F150E0FA013197ED30F10590F5F9
:10333000E059FF4F0C94C529909180009F7703C0FE
:10334000909180009F7D9093800024C094B59F77DA
:1033500002C094B59F7D94BD1DC09091B0009F7731
:1033600003C09091B0009F7D9093B00013C09091E6
:1033700090009F7703C0909190009F7D9093900064
:1033800009C09091A0009F7703C09091A0009F7DFD
:103390009093A000E82FF0E0EE0FFF1FEE53F64FE2
:1033A000A591B4919FB7F894311104C08C912095E8
:1033B000282302C0EC912E2B2C939FBF08958A31B5
:1033C000910538F04697969587959695879501973C
:1033D000F1F708958F929F92AF92BF92CF92DF92B2
:1033E000EF92FF926B017C010E9414194B015C016A
:1033F000C114D104E104F104F1F00E941419DC01BC
:10340000CB0188199909AA09BB09883E9340A105F7
:10341000B10570F321E0C21AD108E108F10888EE85
:10342000880E83E0981EA11CB11CC114D104E104D4
:10343000F10419F7DDCFFF90EF90DF90CF90BF90B0
:10344000AF909F908F9008952FB7F89460914905A1
:1034500070914A0580914B0590914C052FBF0895BE
:103460002F923F924F925F926F927F928F929F9294
:10347000AF92BF92CF92DF92EF92FF920F931F9382
:10348000CF93DF93CDB7DEB761970FB6F894DEBF69
:103490000FBECDBF67E18091C5029091C6020E9428
:1034A000B80680FD03C080E090E06CC18091C50249
:1034B0009091C6020E94E806E091C702F091C8020E
:1034C00082A5826082A76AE070E080E090E00E94BE
:1034D000EA1964E279E08091C7029091C8020E94E3
:1034E000AE1784E299E09093C0028093BF020E94DD
:1034F000241A2B013C01C12CE12C90E4292E312C03
:103500003C862B8680910001909101019C012F5FE8
:103510003F4F30930101209300019E878D8722EC5D
:103520002F878091C7029091C802FC0122A933A97C
:103530003A872987EE2089F02E2D30E0215031097D
:10354000A901440F551F240F351F01E010E002C0F0
:10355000000F111F2A95E2F702C000E010E020E002
:1035600030E040E050E0BE01675F7F4F0E94F01204
:103570000E94241A4B015C01F12C8091C7029091AA
:10358000C8020E943510823C89F4FE013196EF0D8D
:10359000F11DEF0DF11DA091C702B091C802179661
:1035A0008D919C91189791838083F3940E94241AA3
:1035B000DC01CB0188199909AA09BB09C897A105A3
:1035C000B10508F0B0C0F3E0FF15B8F6198AD12CA8
:1035D00023EC2F878091C102888BFE013196ED0D7F
:1035E000F11DED0DF11D008111811C870B8720E07D
:1035F00030E040E050E0BE01675F7F4F8091C7023E
:103600009091C8020E94F0120E94241A4B015C01A2
:103610000E94241ADC01CB0188199909AA09BB0967
:10362000813E9105A105B10550F48091C7029091AA
:10363000C8020E943510898B803851F7DF2C65E075
:1036400070E080E090E00E94EA19D394DF1408F45F
:10365000BFCF89898038B1F5E091C702F091C802E7
:1036600087859089009771F136852091C1023213C8
:1036700029C05CC063E070E080E090E00E94EA193D
:1036800008E310E020E030E040E050E0BE01675F7A
:103690007F4F8091C7029091C8020E94F012811161
:1036A00066C0FA94F110E6CF64E279E08091C70237
:1036B0009091C8020E94AE1784E299E09093C002F4
:1036C0008093BF020E94241ADC01CB018419950962
:1036D000A609B70981339547A105B10508F0E3CEE6
:1036E0002C2D30E02F5F3F4F8E2D90E00196289FCC
:1036F000B001299F700D389F700D1124675E7F4FB8
:10370000660F771F072E000C880B990B0E94EA1991
:1037100081E08E0D8370E82E81E08C0D6AE00E94BE
:103720005029C92EEDCEFF2069F250CF9093C002F0
:103730008093BF028091C5029091C6020E94E80664
:103740006AE070E080E090E00E94EA196091BF02B8
:103750007091C0028091C7029091C8020E94AE177A
:103760001C861B86F1E8FF8787E0F82E89CFE09161
:10377000C702F091C80282A58D7F82A78091BF0207
:103780009091C00261960FB6F894DEBF0FBECDBF18
:10379000DF91CF911F910F91FF90EF90DF90CF902D
:1037A000BF90AF909F908F907F906F905F904F9061
:1037B0003F902F9008951F920F920FB60F921124F1
:1037C0002F933F938F939F93AF93BF93809149051E
:1037D00090914A05A0914B05B0914C053091480558
:1037E00020E3230F2D3720F44096A11DB11D05C005
:1037F00023EB230F4196A11DB11D20934805809313
:10380000490590934A05A0934B05B0934C058091D0
:103810004D0590914E05A0914F05B0915005019630
:10382000A11DB11D80934D0590934E05A0934F05AA
:10383000B0935005BF91AF919F918F913F912F9180
:103840000F900FBE0F901F901895CF93DF93CDB7B9
:10385000DEB768970FB6F894DEBF0FBECDBF789481
:1038600084B5826084BD84B5816084BD85B5826085
:1038700085BD85B5816085BD80916E008160809336
:103880006E0010928100809181008260809381009F
:10389000809180008160809380008091B10084607D
:1038A0008093B1008091B00081608093B0008091DE
:1038B000910082608093910080919100816080935B
:1038C0009100809190008160809390008091A10090
:1038D00082608093A1008091A10081608093A1000B
:1038E0008091A00081608093A00080917A008B7FFE
:1038F00080937A0080917A00826080937A00809130
:103900007A00816080937A0080917A008068809349
:103910007A001092C1008FEE84B984E085B986E008
:1039200087B982E088B982EF8AB91BB81DB81EB882
:103930000FB6F894A895809160008861809360002C
:10394000109260000FBE10927A0080916400816036
:103950008093640080916400826080936400809111
:1039600064008F7D80936400809164008860809300
:10397000640080916400806480936400809165009D
:103980008160809365008091650088608093650008
:103990008091640080618093640080916500806103
:1039A00080936500809165008062809365008091BE
:1039B0006500846080936500809164008B7F8093B4
:1039C0006400809164008F77809364001092A50159
:1039D0001092A40110920E0210920D021092EC01AE
:1039E00081E08093EB011092C60161E082E10E94C8
:1039F0007F1961E083E10E947F198091B9008E7F79
:103A00008093B9008091B9008D7F8093B9008DEFCC
:103A10008093B80085E48093BC008CE595E090939A
:103A20005101809350018DE595E090934F01809373
:103A30004E011092B80080EC80937E0080917A0055
:103A4000816080937A001DBA1092680010926B001A
:103A500010926C0010926D001092690083E08CBB94
:103A60000E946717D82E809164008D7F8093640038
:103A700083E00E94790A0E94711780E00E94950BF2
:103A80008091F6029E012F5F3F4F7901811111C095
:103A900087ED92E00E946307882309F4E9C763E099
:103AA00087ED92E00E94B8068150833008F0E0C7AD
:103AB00010C7813009F0DCC78CE90E94830B882392
:103AC00009F444C08093C10280E90E94830B082F4F
:103AD0008FE80E94830B182F8091C5029091C60237
:103AE0000E9463071093D2028091C5029091C60292
:103AF0001D3708F01DE7412F65E00E947206602F18
:103B00008091C5029091C6020E94DB138091C7028A
:103B10009091C80221E0FC0121A72091C10222233B
:103B200061F084E299E09093C0028093BF020E940A
:103B3000301A892B09F49CC79FC71092C0021092BB
:103B4000BF0260E070E00E94AE1796C710E08FEFF2
:103B500090E00E94DF1961E087E195E30E94401543
:103B600043E0B70188EC9FEE0E94E415811102C08A
:103B700000E01AC0C7010E94CF159B818913F8CFBE
:103B8000898183FFF5CF8A818F73873089F761E060
:103B90008DE590E80E944015882351F361E088E9A3
:103BA00090EB0E944015082FA02EB12CDD2011F1C2
:103BB0008FE291E00E94D4148AE291E00E94B9144D
:103BC000C5010E94341585E291E00E94B914812F4D
:103BD00090E00E94341581E080935A0180E891E0E2
:103BE0000E94D41480E192E00E94010D81E00E94C5
:103BF000400B29C082E191E00E94D4148DE091E055
:103C00000E94B914C5010E9434158FEF90E00E9404
:103C1000D414112319F00E949409182F8AEF90E010
:103C20000E94B914812F90E00E94341580E192E047
:103C30000E94010D112321F0002311F080E001C04A
:103C400082E080935A0196B198708091EF028111C1
:103C500004C081E0911104C002C081E0911180E0B4
:103C600080937E036E01F9E0CF0ED11C10915A01B2
:103C7000111113C38091F0020E94400B85E691E080
:103C80000E94D41480E192E00E94010D0E94671608
:103C90008CE591E00E94B91480E192E00E94010D50
:103CA0001092530181E080935401E7EFF2E001901C
:103CB0000020E9F79F0122503109390107EF12E096
:103CC00055E2252E66E0362E72E3872E912CE6E62D
:103CD0004E2EF1E65F2EF8018081882309F42DC174
:103CE0006016710608F429C165E270E0C8010E94FF
:103CF000872B5C01009709F41DC10817190769F0AB
:103D0000FC011082C8010E94160A811104C085E2DC
:103D1000F501808312C1F5012082F5018181853290
:103D200041F483E391E00E94160A85010E5F1F4F64
:103D3000D2CF882309F401C1F5019281992309F4B6
:103D4000FCC0893651F0823509F4B9C631E08134BE
:103D500081F030E0893411F01BC031E04091F20273
:103D60005091F3025A8B498B2FEF1BC0813409F01D
:103D7000AEC641E050E060917F0370918003613DE9
:103D8000774010F040E050E05A8B498B20E009C0AA
:103D9000823461F740917F03509180035A8B498BA5
:103DA00022E086E0E2E0F1E0D70101900D928A95F1
:103DB000E1F7943619F49A831B8226C0983729F4C8
:103DC000332311F182E38B831FC0923611F41982E1
:103DD0001BC0933611F4998317C09234A9F48989D2
:103DE0009A89892B49F084E7898382E78A8385E76A
:103DF0008B8385E68C8308C049825A828CE68B834C
:103E000083E78C8385E68D838981811127C03323E5
:103E100011F0E1E001C0E2E080915301282F30E091
:103E2000A9014E0F511D423451050CF07FC0D9013C
:103E3000A657BC4F99899C93A1E0A80FE13029F0C7
:103E4000B0E0A657BC4F9A899C938E0F8093530184
:103E5000E82FF0E0E657FC4F108268C0833609F087
:103E600051C089899A89222389F0263679F028362B
:103E700029F4B4010E945C29CB0108C0223041F032
:103E8000273631F0233709F051C002C053E001C09A
:103E900054E040915301642F70E0FB01E50FF11DE8
:103EA000E234F1050CF042C030915401E1E0E30F3F
:103EB000E0935401FB01E657FC4F3083E1E0E40F4F
:103EC000F0E0E657FC4F2083E3E0E40F22E0240F0C
:103ED00030E0533039F4E0935301F901E657FC4FD9
:103EE000808324C06AE070E00E945C29D901A65753
:103EF000BC4F7C934C5F40935301F0E0E657FC4F7E
:103F0000608314C08A898F9389898F93FF92EF927F
:103F10001F923F92DF92CF920E94922BC6010E9485
:103F2000160A0FB6F894DEBF0FBECDBF85010D5F38
:103F30001F4FD1CEC8010E94160A10915301E12FE4
:103F4000F0E0E657FC4F108285E591E00E94B9143D
:103F5000812F0E94E01480E192E00E94010D3090D8
:103F60005301332009F422C187ED92E00E94CF066D
:103F70000E9494098091F602811127C080917D03EF
:103F8000811102C020EB01C020EA432D6AE873E0F2
:103F900087ED92E00E94310661E087ED92E00E9499
:103FA000080660E087ED92E00E940806E89A64E067
:103FB00082E00E94430A80915201E89840E767E05E
:103FC00087ED92E00E947206ADC0813009F0EEC02C
:103FD0008091BF029091C0028432994009F4ADC033
:103FE00020907C0340917B034C8B0E94241A22205A
:103FF00009F471C042E3842E912CA12CB12C9B01B9
:10400000AC012854344F4F4F5F4F2D8B3E8B4F8B5D
:10401000588F2B8A8091BF029091C00284329940C0
:1040200019F40FEF1FEF45C01C821B828091000125
:10403000909101019C012F5F3F4F3093010120932C
:1040400000019E838D8344EC4F8308E310E022E05F
:1040500030E0AE014D5E5F4FB7018091C702909195
:10406000C8020E94F0128823E1F20E94241A2B0158
:104070003C018091C7029091C8020E943510843C97
:1040800071F00E94241ADC01CB0184199509A6095C
:10409000B70987399105A105B10558F3C2CFE09161
:1040A000C702F091C8020785108917FF02C00EEF02
:1040B0001FEF17FF12C00E94241A2D893E894F89D5
:1040C000588D261737074807590760F10E3F1F4FD5
:1040D00009F0E0C427C000E010E08091BF02909199
:1040E000C00284329940F1F01C830B83809100015F
:1040F000909101019C012F5F3F4F3093010120936C
:1041000000019E838D835C895F83232D30E008E36B
:1041100010E04AE853E0B7018091C7029091C802CD
:104120000E94F0128091F602811105C087ED92E0A5
:104130000E942E063BC08130C9F580917D03882303
:10414000A9F18091BF029091C0028432994071F12F
:104150001C821B8280910001909101019C012F5FC4
:104160003F4F30930101209300019E838D8385ECA6
:104170008F8308E310E020E030E040E050E0B7013A
:104180008091C7029091C8020E94F012882371F0BA
:1041900064E279E08091C7029091C8020E94AE1754
:1041A00084E299E09093C0028093BF020E94391983
:1041B0008091F002882319F080E00E94400B86B1C4
:1041C00088709091EF0211E0911103C0811103C03A
:1041D00001C0811110E080917E03811751F0809120
:1041E000F0020E94400B10937E0388E00E94790A3F
:1041F0006DC38DE491E00E94D41480E192E00E94AE
:10420000010D8091F4029091F502009719F0282F8A
:10421000892F02C021E080E0209355018093560150
:1042200081E02091F4023091F502232B09F080E027
:104230000E94D50A182F809155019091560101973F
:104240009093560180935501111103C01816190659
:104250003CF396B198708091EF02811104C081E027
:10426000911104C002C081E0911180E080937E032F
:1042700083E491E00E94B91480917E0390E00E9453
:104280000615812F90E00E94341580E192E00E9493
:10429000010D123009F01AC303C3113009F002C333
:1042A0008091D30381110AC08091D2030E9401152D
:1042B0001093D303109257011092D40380E192E03F
:1042C0000E947C0C892B09F4DFC280E192E00E94FD
:1042D0005A0C882E9091D4038091D103981728F01E
:1042E00086E391E00E9462147FC0FDE08F1629F002
:1042F0002AE0821611F020E017C066E970E080E045
:1043000090E00E94EA1980E192E00E947C0C892BE7
:1043100051F080E192E00E946E0C8D3009F4C4C32C
:104320008A3009F4C1C321E08091D303813009F0C0
:104330005EC03091D4038091CF039091D0032111BE
:1043400003C040E2841273C0FC01E30FF11D108230
:104350007090CE03A090CF03B090D0030091CC0317
:104360001091CD03912C7914D9F1B801C5010E94A7
:1043700054260A5F1F4F9394892BA9F7191484F5CB
:1043800050E2851204C080E20E94011502C00E9422
:10439000B5149092570182E08093D3031092D40316
:1043A00083E0981609F457C0891560F091E09916DA
:1043B00009F449C0E2E09E1267C20E94B51480E889
:1043C00091E043C0F5E09F1609F43AC19F1608F446
:1043D0003FC026E0921258C281E00E94950B30C186
:1043E0008FE691E00E94D4141092D3034DC2823024
:1043F00009F04AC23091D4038091CF039091D00349
:104400002223A9F0FC01E30FF11D1082A090CF033D
:10441000B090D003B0925901A09258011092D303EA
:10442000A114B10409F010C100E010E017C121E0AF
:10443000230F2093D403FC01E30FF11D8082882D0C
:104440000E94011521C280E693E00E94D414F6C0B8
:104450000E946716F3C00E94B51487E393E00E94A0
:10446000B91482E00E94830B0E94E0148DE293E075
:104470000E94B91483E00E94830B0E94E01489E13A
:1044800093E00E94B91484E00E94830B0E94E01420
:104490008BE093E00E94B91485E00E947F090E949E
:1044A000F11488EF92E00E94B91487E00E947F091E
:1044B0000E94F11489EE92E00E94B91489E00E94F2
:1044C000830B0E94E0148BED92E00E94B9148DE8FA
:1044D0000E94830B0E94E01481E90E94830BB82E96
:1044E0008BEC92E00E94B9148B2D0E94E01488EBB3
:1044F00092E00E94B9144B2D50E0B70182E90E946E
:104500006509870133E0A32EBB20C9F0F801819132
:104510008F011F928F9326E431E03F932F931F92D8
:10452000AF92DF92CF920E94922BC6010E9462143A
:10453000BA940FB6F894DEBF0FBECDBFE5CF0E9490
:10454000B51485EA92E00E94B91487E90E94830BB2
:104550000E94E01487E992E00E94B91489E90E9460
:10456000830B0E94E0148DE892E00E94B91488E960
:104570000E94830B0E94E0148AE792E00E94B91423
:104580008AE90E94830B0E94E01487E692E00E9471
:10459000B9148BE90E94830B0E94E01482E592E03B
:1045A0000E94B9148CE90E94830B0E94E0148BE3F3
:1045B00092E00E94B9148DE90E94830B0E94E014DE
:1045C00081E292E00E94B9148EE90E94830B0E945E
:1045D000E01489E092E00E94B9148FE90E94830BF5
:1045E0000E94E0148AEF91E00E94B9148EE80E94C4
:1045F000830B0E94E01489EE91E00E94B91480E9D7
:104600000E94830B0E94E0148BED91E00E94B9148C
:104610008FE80E94830B0E94E01484EC91E00E94DA
:10462000B91442E850E067EF72E08AE00E94650941
:1046300087EF92E00E9462140E94B51410E001C05E
:1046400011E01092D3030FC101E0F50180818033A6
:1046500009F400E0C5010E942D26162FE0915701B4
:104660008E2F90E0FC013797E631F10508F0F5C098
:10467000E65AFF4F0C94C529602F82E0EAC0602FF4
:1046800083E0E7C0602F84E0E4C0A114B10421F00E
:10469000C5010E942D2603C060E070E0CB01788B3D
:1046A0006F8742E050E0BE01615F7F4F85E004C24A
:1046B000A114B10421F0C5010E942D2601C060E0C3
:1046C00087E0C7C0612F89E0C4C0F50101900020D8
:1046D000E9F73197EA19FB09CF0101978138910574
:1046E00008F0BBC0AF014F5F5F4FB5018AE0E4C186
:1046F000123008F0B2C0612F8DE8ABC0153008F061
:10470000ACC0612F8EE8A5C08FEF810F8E3708F007
:10471000A4C0612F8FE89DC0133008F09EC0612FA8
:1047200080E997C08DEF810F833008F096C0612F2C
:1047300081E98FC081E90E94830B882E6090580127
:10474000709059016114710409F487C0F30101905C
:104750000020E9F731975F01A618B70809F47DC07A
:10476000C50162E070E00E947029019709F475C0EC
:10477000912CC401880F991FA816B90609F06DC0C5
:1047800000E01701402E512C4A145B040CF091C13B
:10479000460C571CF2018081082E000C990B0E94D8
:1047A000762B10ED180F1A3040F09FEB980F9630D3
:1047B00018F419EC180F01C01FEFF2018181082EC7
:1047C000000C990B0E94762B90ED980F9A3030F0E8
:1047D0009FEB980F963020F4875303C0892F01C0B8
:1047E0008FEFF0E11F0290011124182F122BF1011D
:1047F00011931F010E5FC6CF8FEF810F803268F5D6
:10480000612F87E926C0133040F5612F88E921C068
:10481000602F89E91EC0103100F5612F8AE919C0A7
:104820001031D8F4612F8BE914C01123B1F0612F3E
:104830008CE90FC011168CF4612F8DE90AC08CE948
:104840000E94830B181749F0612F8EE902C0602F78
:104850008FE90E94100C81E001C080E01092D30328
:10486000882351F010E089E593E00E94D4141123CD
:1048700039F087E493E00EC08FE493E00E94D414F3
:1048800080E192E00E94010D0E94671781111EC015
:104890008FE098E00E94D41480E192E00E94010D24
:1048A0000E94C90A88E098E00E94D41481E00E9426
:1048B000400B81E00E94D50A80E00E94400B81E01D
:1048C0000E94D50A0E9467178111EACF0E94230D2A
:1048D000CDC980E90E94830B682F87ED92E00E948A
:1048E000DB13882309F4C4C060E087ED92E00E94E6
:1048F000B806482F4F7860E087ED92E00E9472067C
:1049000043E063E087ED92E00E94720685E08093C9
:10491000E50280E28093DE0288E90E94830B182F73
:1049200060E087ED92E0112351F00E94B806837F8A
:10493000482F113011F4486006C04C6004C00E943A
:10494000B806482F477F60E087ED92E00E9472062C
:104950008EE80E94830B0E944A198FE80E94830B05
:104960008D3708F08DE7482F65E087ED92E00E94D3
:10497000720687E90E94830B811105C087ED92E0E2
:104980000E94111403C080E28093DE0281E90E943C
:10499000830B082F1EEF180F59F01370412F63E09F
:1049A00087ED92E00E9472061E5F1093E50209C037
:1049B00040E063E087ED92E00E94720682E080931F
:1049C000E50285E0F70111928A95E9F7402F50E062
:1049D000B70182E90E94650989E90E94830B882357
:1049E00011F04FE301C040E061E087ED92E00E94EA
:1049F00072068AE90E94830B182F8BE90E94830BB1
:104A0000F0E18F9FC0011124412F4F70482B64E0CB
:104A100087ED92E00E9472062091E502A7016AE00C
:104A200087ED92E00E948D062091E502A70160E1EA
:104A300087ED92E00E948D064091DE0261E187EDF4
:104A400092E00E9472061092E7021092E802109221
:104A5000E9021092EA0287ED92E00E941D0787EDBD
:104A600092E00E94E80687ED92E00E942E0610C0B8
:104A700010E00E9439196BC8E091C702F091C8029A
:104A800082A5886082A78EE80E94830B0E944A1943
:104A900011E0EFCFF2E38F0E911CA11CB11CC501F8
:104AA000B4010E94EA19B5CA80E192E00E945A0C52
:104AB0003ACCA401B70182E90E943E09CCCE2091F4
:104AC0007E0330E03A8B298B31E026E66AC98635D1
:104AD00029F4409181035091820360C9843541F4E7
:104AE00040918303509184035A8B498B27E659C91F
:104AF000883441F440918503509186035A8B498B49
:104B000028E64FC9803509F011CA409187035091BA
:104B100088035A8B498B23E744C9CF93DF93E0E1A5
:104B2000F2E01382128288EE93E0A0E0B0E084838A
:104B30009583A683B78323E131E03183208325EC7D
:104B400030E03587248724EC30E03787268720EC57
:104B500030E0318B208B21EC30E0338B228B22EC48
:104B600030E0358B248B26EC30E0378B268B118E92
:104B7000128E138E148EEDEAF2E013821282848379
:104B80009583A683B78385E291E091838083A9EB27
:104B9000B2E01196FC93EE9313961C921E9212971C
:104BA00015961C921E921497E7EDF2E089E090E0D2
:104BB000918380838AE090E093838283168280E2EF
:104BC0008783108685E0868785E090E0A0E0B0E0EE
:104BD000848B958BA68BB78B1186A6EDB3E0D09610
:104BE000FC93EE939F978BE094E09093A6048093C0
:104BF000A50483EB94E09093B2048093B10487EA18
:104C000094E098969C938E9397979B961D921D92F5
:104C10001D921C929E979A961C929A9799961C9216
:104C200099971C92CFEBD2E0FF83EE83B987A887D8
:104C3000ECECF3E086E099E0918380838CE1828361
:104C40008AE893E09483838381E485838EE386837B
:104C500017821086DF91CF9108951F93FC01992749
:104C60008827BC01E89411911032E9F3193010F053
:104C70001E30C8F31B3251F01D3249F4689406C04F
:104C80000E945D26610F711D811D911D11911053B0
:104C90001A30B0F33EF490958095709561957F4FF2
:104CA0008F4F9F4F1F910895FB01DC018D9105905F
:104CB00080190110D9F3990B0895592F482F372FD8
:104CC000262F660F771F881F991F660F771F881F73
:104CD000991F620F731F841F951F660F771F881F10
:104CE000991F0895ABE0B0E0E8E7F6E20C941929CB
:104CF0006C017B018A01FC0117821682838181FF8E
:104D0000CCC1CE0101963C01F6019381F70193FDE0
:104D1000859193FF81917F01882309F4BAC185327F
:104D200039F493FD859193FF81917F01853229F4B8
:104D3000B60190E00E946928E7CF912C212C312CFC
:104D4000FFE1F315D8F08B3279F038F4803279F046
:104D50008332A1F4232D20611DC08D3261F0803398
:104D600069F4232D216016C0832D8260382EE32D37
:104D7000E4603E2E2AC0F32DF8601DC037FC2DC024
:104D800020ED280F2A3040F08E32B9F436FC81C174
:104D9000232D2064322E19C036FE06C08AE0989E6C
:104DA000200D1124922E11C0EAE02E9E200D112418
:104DB000222EF32DF0623F2E08C08C3621F4832D75
:104DC0008068382E02C0883641F4F70193FD859142
:104DD00093FF81917F018111B3CF982F9F7D9554CF
:104DE000933028F40C5F1F4F9FE399830DC08336E7
:104DF00031F0833771F0833509F059C021C0F801D3
:104E0000808189830E5F1F4F88248394912C5301E6
:104E100013C02801F2E04F0E511CF801A080B180B0
:104E200036FE03C0692D70E002C06FEF7FEFC50151
:104E30000E945E284C018201F32DFF773F2E16C0A1
:104E4000280122E0420E511CF801A080B18036FEFC
:104E500003C0692D70E002C06FEF7FEFC5010E94B3
:104E600053284C01F32DF0683F2E820133FC1BC008
:104E7000822D90E088169906B0F4B60180E290E0A9
:104E80000E9469282A94F4CFF50137FC859137FEFA
:104E900081915F01B60190E00E94692821102A9457
:104EA00021E0821A91088114910471F7E8C08436D8
:104EB00011F0893641F5F80137FE07C06081718134
:104EC000828193810C5F1F4F08C060817181072E22
:104ED000000C880B990B0E5F1F4FF32DFF763F2EB2
:104EE00097FF09C090958095709561957F4F8F4F82
:104EF0009F4FF0683F2E2AE030E0A3010E94A528D2
:104F0000882E861845C0853731F4232D2F7EB22E8A
:104F10002AE030E025C0932D997FB92E8F36C1F05D
:104F200018F4883579F0B5C0803719F0883721F04A
:104F3000B0C0E92FE061BE2EB4FE0DC0FB2DF460C1
:104F4000BF2E09C034FE0AC0292F2660B22E06C02B
:104F500028E030E005C020E130E002C020E132E08E
:104F6000F801B7FE07C060817181828193810C5F77
:104F70001F4F06C06081718180E090E00E5F1F4F7F
:104F8000A3010E94A528882E8618FB2DFF773F2EAF
:104F900036FE0DC0232D2E7FA22E891458F434FE28
:104FA0000BC032FC09C0832D8E7EA82E05C0B82C04
:104FB000A32C03C0B82C01C0B92CA4FE0FC0FE0165
:104FC000E80DF11D8081803321F49A2D997EA92E60
:104FD00009C0A2FE06C0B394B39404C08A2D86789B
:104FE00009F0B394A3FC11C0A0FE06C0B21488F46B
:104FF000280C922C9B180EC0B21460F4B60180E20B
:1050000090E00E946928B394F7CFB21418F42B18DB
:1050100002C0982C212CA4FE10C0B60180E390E0C1
:105020000E946928A2FE17C0A1FC03C088E790E097
:1050300002C088E590E0B6010CC08A2D867859F050
:10504000A1FE02C08BE201C080E2A7FC8DE2B601A6
:1050500090E00E946928891438F4B60180E390E05A
:105060000E9469289A94F7CF8A94F301E80DF11D04
:105070008081B60190E00E9469288110F5CF22203E
:1050800009F442CEB60180E290E00E9469282A9499
:10509000F6CFF6018681978102C08FEF9FEF2B96A6
:1050A000E2E10C943529FC0105906150704001103B
:1050B000D8F7809590958E0F9F1F0895FC01615041
:1050C000704001900110D8F7809590958E0F9F1F2A
:1050D00008950F931F93CF93DF93FB01238121FD4D
:1050E00003C08FEF9FEF2CC022FF16C0468157816F
:1050F000248135814217530744F4A081B1819D0179
:105100002F5F3F4F318320838C93268137812F5F20
:105110003F4F3783268314C08B01EC01FB010084D1
:10512000F185E02D0995892BE1F6D80116968D9130
:105130009C911797019617969C938E931697CE0184
:10514000DF91CF911F910F910895FA01AA2728307E
:1051500051F1203181F1E8946F936E7F6E5F7F4F44
:105160008F4F9F4FAF4FB1E03ED0B4E03CD0670FC0
:10517000781F891F9A1FA11D680F791F8A1F911D13
:10518000A11D6A0F711D811D911DA11D20D009F463
:1051900068943F912AE0269F11243019305D3193A5
:1051A000DEF6CF010895462F4770405D4193B3E08E
:1051B0000FD0C9F7F6CF462F4F70405D4A3318F035
:1051C000495D31FD4052419302D0A9F7EACFB4E0E6
:1051D000A6959795879577956795BA95C9F700979E
:1051E0006105710508959B01AC010A2E069457953F
:1051F000479537952795BA95C9F7620F731F841F96
:10520000951FA01D0895F999FECF92BD81BDF89A12
:10521000992780B50895262FF999FECF1FBA92BD20
:1052200081BD20BD0FB6F894FA9AF99A0FBE019687
:1052300008952F923F924F925F926F927F928F923A
:105240009F92AF92BF92CF92DF92EF92FF920F9315
:105250001F93CF93DF93CDB7DEB7CA1BDB0B0FB61F
:10526000F894DEBF0FBECDBF09942A8839884888DC
:105270005F846E847D848C849B84AA84B984C88472
:10528000DF80EE80FD800C811B81AA81B981CE0F69
:10529000D11D0FB6F894DEBF0FBECDBFED0108954E
:1052A000991B79E004C0991F961708F0961B881F78
:1052B0007A95C9F780950895AA1BBB1B51E107C0D9
:1052C000AA1FBB1FA617B70710F0A61BB70B881F96
:1052D000991F5A95A9F780959095BC01CD01089525
:1052E00097FB072E16F4009407D077FD09D00E9493
:1052F0005C2907FC05D03EF4909581959F4F089559
:10530000709561957F4F0895A1E21A2EAA1BBB1BD1
:10531000FD010DC0AA1FBB1FEE1FFF1FA217B30781
:10532000E407F50720F0A21BB30BE40BF50B661F97
:10533000771F881F991F1A9469F76095709580955B
:1053400090959B01AC01BD01CF010895052E97FBFF
:105350001EF400940E94BD2957FD07D00E948429A5
:1053600007FC03D04EF40C94BD2950954095309520
:1053700021953F4F4F4F5F4F0895909580957095C1
:1053800061957F4F8F4F9F4F0895EE0FFF1F059040
:10539000F491E02D0994A29FB001B39FC001A39F97
:1053A000700D811D1124911DB29F700D811D11245E
:1053B000911D08955058BB27AA270E94F2290C94EA
:1053C000CA2A0E94BC2A38F00E94C32A20F039F46D
:1053D0009F3F19F426F40C94B92A0EF4E095E7FBEC
:1053E0000C94B32AE92F0E94DB2A58F3BA176207FC
:1053F00073078407950720F079F4A6F50C94FD2A2D
:105400000EF4E0950B2EBA2FA02D0B01B9019001DF
:105410000C01CA01A0011124FF27591B99F0593F23
:1054200050F4503E68F11A16F040A22F232F342F6B
:105430004427585FF3CF469537952795A795F040B9
:105440005395C9F77EF41F16BA0B620B730B840BCE
:10545000BAF09150A1F0FF0FBB1F661F771F881F86
:10546000C2F70EC0BA0F621F731F841F48F48795DE
:1054700077956795B795F7959E3F08F0B0CF9395D0
:10548000880F08F09927EE0F9795879508950E9449
:10549000E32A88F09F5798F0B92F9927B751B0F0B9
:1054A000E1F0660F771F881F991F1AF0BA95C9F7A8
:1054B00014C0B13091F00E94FD2AB1E008950C941F
:1054C000FD2A672F782F8827B85F39F0B93FCCF3D2
:1054D000869577956795B395D9F73EF49095809525
:1054E000709561957F4F8F4F9F4F0895E89409C045
:1054F00097FB3EF490958095709561957F4F8F4F07
:105500009F4F9923A9F0F92F96E9BB279395F6951C
:10551000879577956795B795F111F8CFFAF4BB0F9A
:1055200011F460FF1BC06F5F7F4F8F4F9F4F16C0FE
:10553000882311F096E911C0772321F09EE8872F88
:10554000762F05C0662371F096E8862F70E060E044
:105550002AF09A95660F771F881FDAF7880F9695BD
:10556000879597F9089597F99F6780E870E060E064
:1055700008959FEF80EC089500240A9416161706EC
:1055800018060906089500240A9412161306140634
:1055900005060895092E0394000C11F4882352F097
:1055A000BB0F40F4BF2B11F460FF04C06F5F7F4F4F
:1055B0008F4F9F4F089557FD9058440F551F59F036
:1055C0005F3F71F04795880F97FB991F61F09F3FF0
:1055D00079F087950895121613061406551FF2CF19
:1055E0004695F1DF08C0161617061806991FF1CF69
:1055F00086957105610508940895E894BB27662790
:105600007727CB0197F908950E94172B0C94CA2A8B
:105610000E94BC2A38F00E94C32A20F0952311F082
:105620000C94B32A0C94B92A11240C94FE2A0E94DB
:10563000DB2A70F3959FC1F3950F50E0551F629FD1
:10564000F001729FBB27F00DB11D639FAA27F00DDB
:10565000B11DAA1F649F6627B00DA11D661F829F02
:105660002227B00DA11D621F739FB00DA11D621FE7
:10567000839FA00D611D221F749F3327A00D611D04
:10568000231F849F600D211D822F762F6A2F1124E6
:105690009F5750409AF0F1F088234AF0EE0FFF1F19
:1056A000BB1F661F771F881F91505040A9F79E3F70
:1056B000510580F00C94B32A0C94FE2A5F3FE4F36A
:1056C000983ED4F3869577956795B795F795E795C6
:1056D0009F5FC1F7FE2B880F911D9695879597F9CF
:1056E000089581E090E0F8940C94C22B91110895F4
:1056F00081568A5108F4805285580895FB01DC01D7
:1057000002C001900D9241505040D8F70895FC011D
:105710008191861721F08823D9F799270895319729
:10572000CF010895AEE0B0E0E8E9FBE20C94272950
:105730000D891E898F89988D26E02C831A83098311
:1057400097FF02C080E090E801979E838D83AE01B1
:10575000455E5F4F698D7A8DCE0101960E9472265B
:105760004D815E8157FD0AC02F813885421753074E
:105770000CF49A01F801E20FF31F10822E96E4E078
:085780000C944329F894FFCFBB
:105788000100253034580000C33C33CE3EE3EC0022
:10579800000000B40C210C4B0C010D7C0C5A0C6E53
:1057A8000C00000000B7058A05E7055E0582056E56
:1057B800055F052525000A456E74727920746F6FA0
:0E57C800206C6F6E670025303258000D0A000D
:00000001FF
