:100000000C94F6030C94C80B0C94F50B0C941E0482
:100010000C94DD0B0C941E040C947A0B0C941E04AF
:100020000C941E040C941E040C941E040C941E04C8
:100030000C941E040C941E040C941E040C941E04B8
:100040000C9491260C941E040C942C0E0C94060E09
:100050000C941E040C94A10C0C941E040C941E040D
:100060000C94FD070C941E040C941E040C941E04A6
:100070000C941E040C941E040C941E040C941E0478
:100080000C941E040C941E040C941E040C941E0468
:100090000C941E040C941E040C941E040C941E0458
:1000A0000C941E040C941E040C941E040C941E0448
:1000B0000C941E04922E952E982E9B2EAE2EB82EAA
:1000C000BA2ECF2ED32ED32EE52EF52EF32EF92ECB
:1000D000F92E77067906FA06F806DF061B072007D1
:1000E00019072007200720071B07200720072007E4
:1000F000170717073D174017331737176117611791
:10010000441748174E175217611758175C17524F6C
:100110004B3A00534F4B3A000A436F6E666967755E
:10012000726174696F6E206D6F6465000A496E7646
:10013000616C696420636F6D6D616E6400426F7203
:100140006F7352656564323420636F6E6669672031
:10015000636F6E736F6C65205B424D3C54544E3E32
:1001600056335D2054797065202768656C702720B0
:10017000746F2073686F7720636F6D6D616E647349
:10018000005B74706C5D5061796C6F6164207465A4
:100190006D706C6174653A005B6A73665D4A6F6985
:1001A0006E2053463A005B73665D53463A005B70BF
:1001B0006F725D506F72743A000A5B6368615D43F1
:1001C00068616E6E656C3A000A5B61706B5D4170D0
:1001D000704B65793A000A5B6175695D41707045E5
:1001E00055493A005B6475695D4465764555493A01
:1001F000005B6D6F645D5266204D6F64653A005B15
:100200006163635D41636375726163793A005B7238
:1002100065706F5D5265706F7274286D756C293AE8
:10022000005B69645D44657669636549443A005BD7
:1002300065696E745D45496E7420656E61626C65BA
:10024000643A005B6C65645D4C65643A005B696EA2
:10025000765D496E762E20726565643A005265625D
:100260006F6F7421000A5B4552524F525D0A000ABB
:100270005B4F4B5D0A002D2D2D434F4D4D414E449C
:10028000532D2D2D3A0A4D6973633A0A3D3D3D3D8C
:100290003D0A68656C70202D2073686F7773207439
:1002A000686973206D73670A76657220202D20734C
:1002B000686F77732076657273696F6E2062616E06
:1002C0006E65720A73686F77202D2073686F77737D
:1002D0002063757272656E7420636F6E66696775F0
:1002E000726174696F6E0A73656E20202D207368C9
:1002F0006F77732073656E736F727320737461749C
:1003000075730A7265626F202D207265626F6F745B
:10031000206465766963650A66616320202D206F1D
:100320007665727269646520636F6E6669672077AF
:1003300069746820666163746F72792064656661B0
:10034000756C74730A47656E6572616C3A0A3D3D5F
:100350003D3D3D3D3D3D0A696E76203C312F303EAE
:100360002020202D20696E76657274207265656488
:100370002073656E736F722072656164696E670ABF
:100380006C6564203C312F303E2020202D20626C93
:10039000696E6B206C6564206F6E206E6F74696689
:1003A00069636174696F6E0A65696E74203C312FF0
:1003B000303E20202D20656E61626C65206578746A
:1003C00065726E616C20696E746572727570740A04
:1003D0006964203C6E756D6265723E202D207365E8
:1003E0007420313662697420696E746567657220A5
:1003F00049440A7265706F203C6D756C3E20202D5B
:100400002073657420706572696F6469632072651A
:10041000706F7274203D20382A6D756C207365638F
:100420006F6E64732E28303D64697361626C65641D
:10043000290A616363203C6E3E20202020202D206D
:100440007365742061636375726163792062797486
:10045000650A2074706C20203C74656D706C61744A
:10046000653E202D20736574207061796C6F616426
:100470002074656D706C6174650A6D6F6465203CF5
:10048000302D333E202D2073657420726164696FB6
:10049000206D6F646520303D706C61696E2C313D5C
:1004A0006D6573682C323D6C6F726177616E0A0006
:1004B0004D6F6465206368616E67656400050403C1
:1004C00002010053485443335B48554D5D28632572
:1004D000293A0053485443335B54454D505D2863DB
:1004E00043293A005B5643435D286D56293A005B29
:1004F000564241545D286D56293A0021AB00000058
:100500000100000000255263254263254163255602
:100510006300000000000000000000000000000078
:1005200000000000000000000000000000000000CB
:1005300000000000000000000000000000000000BB
:1005400000000000000000000000000000000000AB
:10055000000000000000000000000000000000009B
:100560000000000000000000000002000000000089
:10057000000000000000000000000000000000007B
:10058000000000000000000000000001FFFFFF1459
:100590000E0B080502000000000000000000000033
:1005A0000400000002000000010000800000004084
:1005B000000000200000001000000005000000C046
:1005C0004000000000002300260029000000000079
:1005D0006700CC00B80154039D0700000000240010
:1005E00027002A0000000000250028002B0004043A
:1005F00004040404040402020202020203030303CB
:1006000003030102040810204080010204081020A6
:10061000010204081020000000080002010000038D
:1006200004070000000000000000637C777BF26B91
:100630006FC53001672BFED7AB76CA82C97DFA59E8
:1006400047F0ADD4A2AF9CA472C0B7FD9326363F4D
:10065000F7CC34A5E5F171D8311504C723C318963A
:10066000059A071280E2EB27B27509832C1A1B6EDC
:100670005AA0523BD6B329E32F8453D100ED20FC7E
:10068000B15B6ACBBE394A4C58CFD0EFAAFB434D81
:10069000338545F9027F503C9FA851A3408F929D1E
:1006A00038F5BCB6DA2110FFF3D2CD0C13EC5F970E
:1006B0004417C4A77E3D645D197360814FDC222A14
:1006C000908846EEB814DE5E0BDBE0323A0A49064B
:1006D000245CC2D3AC629195E479E7C8376D8DD5BF
:1006E0004EA96C56F4EA657AAE08BA78252E1CA697
:1006F000B4C6E8DD741F4BBD8B8A703EB5664803F7
:10070000F60E613557B986C11D9EE1F8981169D979
:100710008E949B1E87E9CE5528DF8CA1890DBFE6FC
:10072000426841992D0FB054BB1668656C7000008B
:1007300076657200000073686F77000073656E0065
:1007400000007265626F0000666163000000696E00
:10075000760000006C656400000065696E7400003E
:100760006964000000007265706F000061636300DF
:10077000000074706C0000006D6F646500006475AB
:100780006900000061756900000061706B00000085
:10079000706F720000006368610000007366000003
:1007A00000006A73660000002020200E11140C0F58
:1007B00012090C0F06090C030609000306000000CD
:1007C00001000100010000A027BE33E034C1332046
:1007D00042C433A127BE33E134C1332142C433FFC5
:1007E0000605040302010900FF00792F11241FBE32
:1007F000CFEFD8E0DEBFCDBF12E0A0E0B1E0E8EF80
:10080000FCE602C005900D92A831B107D9F726E0A9
:10081000A8E1B2E001C01D92A53BB207E1F713E0E9
:10082000C6EFD3E004C02197FE010E94B730C53F58
:10083000D107C9F70E94DB260C947A360C9400008D
:1008400085ED8093BC008091BC0084FDFCCF1092AC
:100850001A05089540916002262F30E0240F311DC3
:1008600021323105DCF420911A052430C9F4FC0151
:1008700080E090E0861758F4309160022191DC010D
:10088000A05CBD4FA30FB11D2C930196F3CF8091B7
:100890006002680F6093600280E0089581E008952F
:1008A00082E00895089508950895E091D304809119
:1008B000D204E81730F4F0E0EC52FB4F808190E076
:1008C00008958FEF9FEF08959091D3048091D20403
:1008D000981750F4E92FF0E0EC52FB4F208130E004
:1008E0009F5F9093D30402C02FEF3FEFC90108959B
:1008F0008091D20490E02091D304821B9109089545
:10090000CF92DF92EF92FF920F931F93CF93DF93DB
:100910007C01CB018A0120913D05222389F0EB0166
:100920006B01C40ED51ECC15DD0569F06991D701A8
:10093000ED91FC910190F081E02DC7010995F3CF75
:10094000642F0E942A04C801DF91CF911F910F915B
:10095000FF90EF90DF90CF900895CF93DF931F9299
:10096000CDB7DEB7698320913D052223D1F02091D8
:100970003B05203240F021E030E0FC01338322834C
:1009800080E090E015C080913C05E82FF0E0E55E46
:10099000FA4F998190838F5F80933C0580933B054C
:1009A00005C061E0CE0101960E942A0481E090E03A
:1009B0000F90DF91CF91089580E090E008950FB6F9
:1009C000F894A895909160009861909360001092BF
:1009D00060000FBE8A30A9F083FD02C098E001C01C
:1009E00098E28770892B98E10FB6F894A8959093B8
:1009F00060000FBE809360008091600080648093EF
:100A0000600083B7817F682B63BFF89483B78160F0
:100A100083BF85B7806685BF8F7D85BF78948895B5
:100A200083B78E7F83BF789408950F931F93CF93DE
:100A3000DF9310927C0490E890937B0493E0909372
:100A40008604893080F089EF860F8630C0F5E62F66
:100A5000F0E0EA54FB4F849164E1DF91CF911F9164
:100A60000F910C9402264091000450910104A0EAD9
:100A7000B3E0E0EEF3E020E030E001E010E08217C8
:100A800091F01D921D921D921C921397118210825B
:100A9000E801022E02C0CC0FDD1F0A94E2F7C095D8
:100AA000D0954C235D232F5F3F4F1496329629300B
:100AB000310529F75093010440930004C4CFDF911E
:100AC000CF911F910F9108950C942C1E4F925F921D
:100AD0006F927F928F929F92AF92BF92CF92DF924E
:100AE000EF92FF920F931F93CF93DF936B017C01E3
:100AF000EA0134E0239FF0011124E156FA4F85907A
:100B00009590A590B49085E080937503609113044F
:100B1000709114046115710509F447C080E090E0FC
:100B2000A70196010E94E530722E032F142FB52FD6
:100B3000F62FE72F582E692EA0E00E94B53184F4DD
:100B4000215031094F4F5F4F6F4F7F4F8F4F9F4F56
:100B5000722E032F142FB52FF62FE72F582E692E44
:100B6000272D302F412F5B2F6F2F7E2F852D962D18
:100B700000E10E94973129013A01AAEFB0E0A501F6
:100B800094010E94DA30641575058605970524F4F2
:100B90008FEF8093750309C0C301B201A5019401D1
:100BA0000E9498302B5F2093750380916003909191
:100BB0006103A0916203B0916303C80ED91EEA1EBF
:100BC000FB1ED501C40123E0880F991FAA1FBB1F7C
:100BD0002A95D1F7C80ED91EEA1EFB1EA0917503F7
:100BE000B0E0A50194010E94DA30A7019601261B0E
:100BF000370B480B590B20936403309365034093E4
:100C0000660350936703CA01B9016D5771098109E1
:100C10009109AE01DF91CF911F910F91FF90EF905D
:100C2000DF90CF90BF90AF909F908F907F906F900C
:100C30005F904F900C94D816A0E6B3E082E08093CA
:100C40008C04E0918604F0E0E052F84FE491F0E08B
:100C5000EF77E0685496FC93EE93539740918704A6
:100C6000509188046091890470918A041D964D9377
:100C70005D936D937C93509710928E040E94EA0EC0
:100C800080E00E9464120C94C80F2F923F924F9202
:100C90005F927F928F929F92AF92BF92CF92DF929C
:100CA000EF92FF920F931F93CF93DF938C017B0101
:100CB000C0E0D0E0BB24B39437E8A32E46E8942EDE
:100CC000CC24C394D12CCE15DF050CF0B9C0D801CB
:100CD000AC0FBD1FEC914E2F50E0FA013297E1317D
:100CE000F10508F0ADC0E759FF4F0C94B7302396DB
:100CF000EACF11968C90119712962D913C911397F3
:100D000014967C902596A0927F04872D807F09F011
:100D100094C02115310509F490C080910004909190
:100D200001048095909582239323009709F085C054
:100D3000A0EAB3E0A601082E02C0440F551F0A9492
:100D4000E2F7BA0162237323672B69F02D903D907F
:100D50004D905C90139723282428252821F4409552
:100D6000509524233523019614968031910511F76F
:100D70003093010420930004882D82958F70E82F12
:100D8000F0E0E052F84FE491EF3F29F490917F04B6
:100D90009D7F90937F0490917F049F77973061F4BB
:100DA000972D9F7090930E04E82DEF70F0E0E157BF
:100DB000FA4F64910E940226B0927C0484CFB092D4
:100DC000800420917203022E000C330BC90102969D
:100DD00097FD039695958795959587958F31910504
:100DE00014F48F7301C08FE18093810421966BCF3F
:100DF000259669CF11968C918F3F49F420910C0470
:100E000030910D04206430930D0420930C048F70F6
:100E1000809303040E94090F6093040470930504F7
:100E20008093060490930704B092840402C0249631
:100E30004ACF229648CF269646CF90927F049CCFE9
:100E4000CE01DF91CF911F910F91FF90EF90DF9036
:100E5000CF90BF90AF909F908F907F905F904F907A
:100E60003F902F900895CF93C82F0E948526CA30B7
:100E700011F482E007C0C13189F42091300223309F
:100E800021F481E08093310221C06093830270934A
:100E90008402809385029093860218C0C53039F48D
:100EA000609161068FEF0E94150581E00DC0C6308C
:100EB00041F46091600680915F060E94150583E011
:100EC00003C0C83019F482E080933002CF910C94B3
:100ED0002C1E0E9416260E94BB1D8CE00C9433072A
:100EE000CF92DF92EF92FF92CF93DF93D82F0E94A1
:100EF000DC11C82F0E94DC112C2F30E0322F22276A
:100F0000A901482BCA016C01853254EF950720F0E6
:100F100024E2C21A24EFD20AE12CF12CDD2371F075
:100F200099276D2F70E00E94623024E234EFDC01DB
:100F30000E94D330C60ED71EE81EF91EC701B601A7
:100F4000DF91CF91FF90EF90DF90CF900895AF9217
:100F5000BF92CF92DF92EF92FF920F931F93CF93A6
:100F6000DF93FC011A141B04BCF580E1A7E8B2E092
:100F7000ED0119928A95E9F791E09093960290938A
:100F80008702EF2809F490E090938C0240938D0241
:100F900050938E0260938F0270939002009391029F
:100FA00010939202209393023093940290E1ACE963
:100FB000B2E001900D929A95E1F7A501B60184E0A7
:100FC000DF91CF911F910F91FF90EF90DF90CF9025
:100FD000BF90AF900C94F310DF91CF911F910F91C0
:100FE000FF90EF90DF90CF90BF90AF900895FC01FD
:100FF000608171818281938108951F920F920FB653
:101000000F9211242F933F934F935F936F937F938E
:101010008F939F93AF93BF93EF93FF938091B9000A
:10102000887F803609F49CC068F5883209F45BC07B
:1010300090F4803109F454C038F4882309F4F6C0E0
:10104000883009F44DC0F6C0883109F44CC08032B4
:1010500009F45DC0EFC0803409F468C048F48033FF
:1010600009F455C0883309F0E5C080931805D8C04D
:10107000803509F44FC0883509F45DC0883409F023
:10108000D9C0D6C0883909F4C7C0A8F4883709F494
:1010900067C038F4883609F463C0803709F460C04B
:1010A000C9C0883809F4B8C0803909F45FC08038F5
:1010B00009F0C0C05BC0803B09F486C038F4803AB8
:1010C00009F466C0883A09F47FC0B4C0803C09F4D2
:1010D000A7C0883C09F4A4C0883B09F48AC0AAC010
:1010E0008091F50410C0909117058091160598170E
:1010F00070F5E091170581E08E0F80931705F0E001
:10110000EA50FB4F80818093BB0085EC86C08093C2
:1011100018058EC0E091170581E08E0F80931705AA
:101120008091BB00F0E0EA50FB4F8083909117055F
:10113000809116056EC0E091170581E08E0F8093B7
:1011400017058091BB00F0E0EA50FB4F808380914F
:10115000190581116DC081E08093F40484EA61C0B7
:1011600083E080931A0510928202CFCF8091820291
:10117000803208F051C0E091820281E08E0F8093AE
:1011800082028091BB00F0E0EE59FD4F8083BDCF1D
:1011900085EC8093BC0010921A0580918202803207
:1011A00030F4E0918202F0E0EE59FD4F1082609140
:1011B000820270E0E0911802F091190282E692E05A
:1011C00009951092820236C084E080931A0510922D
:1011D000610210926002E0911A02F0911B020995DF
:1011E00080916002811105C081E0809360021092BD
:1011F0004002E091610281E08E0F80936102F0E095
:10120000E05CFD4F80818093BB00909161028091F2
:101210006002981708F479CF85E88093BC000AC073
:1012200085EC8093BC0010921A0504C0109218053A
:101230000E942004FF91EF91BF91AF919F918F91F8
:101240007F916F915F914F913F912F910F900FBEC2
:101250000F901F901895CF92DF92EF92FF920F930D
:101260001F93CF93DF93EB017B01E40EF51E182F44
:10127000CE15DF0571F00991C12ED12CC6010E9457
:101280001C30081721F0602FC6010E9424301F5F18
:10129000EFCFDF91CF911F910F91FF90EF90DF90F3
:1012A000CF900895EF92FF921F93CF93DF93EB01BE
:1012B0007B01E40EF51E182FCE15DF0539F0812FC6
:1012C00090E00E941C3089931F5FF6CFDF91CF9191
:1012D0001F91FF90EF900895CF93DF9300D0CDB78B
:1012E000DEB71A82198242E050E0BE016F5F7F4F85
:1012F0000E94520989819A810F900F90DF91CF91BE
:101300000895CF93DF931F92CDB7DEB7198241E0E6
:1013100050E0BE016F5F7F4F0E94520989810F909C
:10132000DF91CF9108951F93CF93DF93C82F80E073
:101330000E946C09C11156C081329B4A09F052C00B
:1013400082E00E94810991E0811101C090E09093B8
:10135000F20583E00E94810991E0811101C090E0D3
:101360009093F30584E00E94810991E0811101C00E
:1013700090E09093F40585E00E946C099093F60547
:101380008093F50587E00E946C099093F80580939F
:10139000F70589E00E94810980936E0644E650E0DB
:1013A0006AEF75E08AE00E9452098FE60E94810987
:1013B0008093F90581E90E94810980935F0682E9A3
:1013C0000E9481098093600683E90E9481098093CD
:1013D000610680E90E94810980936206DF91CF91C6
:1013E0001F910895C0E0D0E0FE01E550FB4F14913D
:1013F000CE010E941C30181721F0612FCE010E94EF
:1014000024302196C439D10579F79ACFCF92DF9253
:10141000EF92FF920F931F93CF93DF9300D000D0F2
:1014200000D0CDB7DEB7082F419865E070E080E0CE
:1014300090E00E94CD1760EC86E00E940718609152
:10144000D0047091D10480E090E00E9466322EECCE
:101450003DE84BE450E40E94F43220E030E040E00C
:101460005FE30E94CB310E9437327093D1046093C6
:10147000D0048091D0049091D1049093650680931C
:101480006406002371F08FEE94E00E943B1380917C
:101490006406909165060E94281481E495E00E94FC
:1014A000C00D419A60E48EE00E9407182091D0049C
:1014B0003091D10440E050E064EB7BE281E190E0C8
:1014C0000E9498303093670620936606002351F0FF
:1014D00084EE94E00E943B1380916606909167062B
:1014E0000E94281480916E06811105C068E5E62EE1
:1014F00064E6F62E04C052EAE52E5CE7F52E61E0C4
:1015000087E195E30E946B14882309F462C046E0EA
:10151000BE016F5F7F4FC7010E940F15182F8823F0
:1015200081F0CE0101960E94FA149B81891308C0B4
:10153000CE0104960E94FA149E81891709F450C0C6
:1015400010E061E088E990EB0E946B14112309F42C
:1015500040C02091EE053091EF05AFE4B8E60E945F
:10156000C43040EAC42E46E8D42EEE24E394F12C95
:10157000A70196010E9476302459314130936906C3
:10158000209368062091F0053091F105ABE9BBE3AB
:101590000E94C430A70196010E94763030936B06FA
:1015A00020936A06002399F183ED94E00E943B1397
:1015B00080916806909169060E943D1483EC94E046
:1015C0000E943B1380916A0690916B060E9428143A
:1015D00002C00023E1F081E495E00E94C00D17C035
:1015E000898190E0982F88272A81820F911D9093FE
:1015F000EF058093EE058C8190E0982F88272D8150
:10160000820F911D9093F1058093F0059ACF269655
:101610000FB6F894DEBF0FBECDBFDF91CF911F9103
:101620000F91FF90EF90DF90CF90089520913202BC
:101630009F938F93822F90E022E330E0281B390B99
:101640003F932F938159994F9F938F930E94823399
:10165000E09132028E0F809332020F900F900F9024
:101660000F900F900F90833338F082E38093320213
:101670001092A10680E00895E82FF0E0E159F94FBB
:10168000108281E008950FB6F894A89590916000BB
:10169000986190936000109260000FBE8A3049F10B
:1016A00091E090933F0283FD02C098E001C098E270
:1016B0008770892B98E10FB6F894A89590936000F5
:1016C0000FBE809360008091600080648093600012
:1016D00083B7817F83BFF89483B7816083BF789499
:1016E000889583B78E7F83BF789480913F02811164
:1016F000EFCF08951F920F920FB60F9211248F9380
:101700000FB6F894A895809160008861809360007E
:10171000109260000FBE10923F028F910F900FBE8B
:101720000F901F901895F8949BE088E10FB6F894FD
:10173000A895809360000FBE90936000FFCF811149
:1017400002C089E001C08AE010923E0290913D0201
:10175000992311F0E99A01C0E9989091680092608C
:101760009093680090916C00996090936C0064E095
:101770000E94DF0480913E02E998909168009D7F6D
:101780009093680090916C00967F90936C00089500
:101790001F920F920FB60F9211248F93F89483B774
:1017A0008E7F83BFE89884E080933E0278948F9187
:1017B0000F900FBE0F901F9018951F920F920FB6AB
:1017C0000F9211248F93F89483B78E7F83BF309B41
:1017D00002C082E001C081E080933E0278948F9144
:1017E0000F900FBE0F901F9018951F920F920FB67B
:1017F0000F9211248F93F89483B78E7F83BFE9985B
:1018000083E080933E0278948F910F900FBE0F90EB
:101810001F901895882311F05C9A08955C9808959C
:101820008F929F92AF92BF92CF92DF92EF92FF92F0
:101830000F931F9380913002833009F467C08111A8
:1018400025C081E00E940A0C10928302109284024B
:1018500010928502109286020E94BB1D80915F0645
:10186000893010F480930204809183029091840265
:10187000A0918502B0918602892B8A2B8B2B19F4BB
:101880000E942D25F1CF80E00E940A0C0E942D2598
:101890000E9485266B017C0188EE882E83E0982EBD
:1018A000A12CB12C809130028230F0F40E942D25C1
:1018B0000E9485268B019C010C191D092E093F09E8
:1018C000013C17422940310578F4A50194010E949A
:1018D0007630653F71408105910510F081E001C0CF
:1018E00080E00E940A0CDECF80E00E940A0C83E8B0
:1018F00090E090931404809313040E942D2581E0BE
:1019000090913002933019F080E001C081E01F9186
:101910000F91FF90EF90DF90CF90BF90AF909F908E
:101920008F9008951092D1041092D00480933C02BD
:1019300062E08AE00E94DF0480913C028111F8CFCE
:1019400008951F920F920FB60F9211242F933F9379
:101950004F938F939F9390917800409179002091BD
:10196000D0043091D104892F90E0942B820F931FE3
:101970009093D1048093D00480913C02882329F075
:1019800080913C02815080933C029F918F914F91B6
:101990003F912F910F900FBE0F901F901895CF93EE
:1019A000DF931F92CDB7DEB7698341E050E0BE01FF
:1019B0006F5F7F4F0E942B090F90DF91CF910895A9
:1019C000CF92DF92EF92FF920F931F93CF93DF930B
:1019D0006C017A018B01C0E0D0E0CE15DF0581F00B
:1019E000D8016D918D01D601ED91FC910190F081AE
:1019F000E02DC6010995892B11F02196EECF7E01CD
:101A0000C701DF91CF911F910F91FF90EF90DF9071
:101A1000CF900895FC01538D448D252F30E0842F05
:101A200090E0821B930B541710F0CF960895019706
:101A30000895FC01918D828D981761F0828DDF01F0
:101A4000A80FB11D5D968C91928D9F5F9F73928FB1
:101A500090E008958FEF9FEF0895FC01918D828DA6
:101A6000981731F0828DE80FF11D858D90E0089573
:101A70008FEF9FEF0895FC01918D228D892F90E0CB
:101A8000805C9F4F821B91098F739927089581E491
:101A900095E00E943B0D21E0892B09F420E0822F84
:101AA0000895FC01848DDF01A80FB11DA35ABF4F1B
:101AB0002C91848D90E001968F739927848FA6894D
:101AC000B7892C93A089B1898C91837080648C93A1
:101AD000938D848D981306C00288F389E02D808150
:101AE0008F7D80830895EF92FF920F931F93CF9382
:101AF000DF93EC0181E0888F9B8D8C8D981305C05E
:101B0000E889F989808185FD26C0F62E0B8D10E0CD
:101B10000F5F1F4F0F731127E02E8C8DE8120CC042
:101B20000FB607FCFACFE889F989808185FFF5CFE8
:101B3000CE010E94510DF1CF8B8DFE01E80FF11DFA
:101B4000E35AFF4FF0829FB7F8940B8FEA89FB8925
:101B5000808180620AC09FB7F894EE89FF89608314
:101B6000E889F98980818370806480839FBF81E0E8
:101B700090E0DF91CF911F910F91FF90EF9008952A
:101B8000CF93DF93EC01888D8823C9F0EA89FB8924
:101B9000808185FD05C0A889B9898C9186FD0FC01B
:101BA0000FB607FCF5CF808185FFF2CFA889B989F0
:101BB0008C9185FFEDCFCE010E94510DE7CFDF91D3
:101BC000CF91089580E090E0892B21F00E94470D8D
:101BD00081110DC080E090E0892B71F080E090E0F1
:101BE000892B51F00E940000811104C008950E94C9
:101BF0000000F0CF0C940000089580E0089508954F
:101C000060E070E0CB0108950E9461331F920F9253
:101C10000FB60F9211242F933F934F935F936F93BF
:101C20007F938F939F93AF93BF93EF93FF9381E441
:101C300095E00E94510DFF91EF91BF91AF919F915F
:101C40008F917F916F915F914F913F912F910F9065
:101C50000FBE0F901F9018951F920F920FB60F9204
:101C600011242F938F939F93EF93FF93E09151054E
:101C7000F09152058081E0915705F091580582FD61
:101C800012C0908180915A058F5F8F7320915B0500
:101C9000821751F0E0915A05F0E0EF5BFA4F958F13
:101CA00080935A0501C08081FF91EF919F918F91A0
:101CB0002F910F900FBE0F901F901895CF93DF9329
:101CC00000D000D0CDB7DEB7FB013C969B01205F72
:101CD0003F4FDE01119691919D932E173F07D9F743
:101CE00099812A8129832B812A832C812B839C83B0
:101CF0009E012B5F3F4FDE0111969C91E92FE295EB
:101D0000EF7040E1E49FF0011124E65DF94F9F7010
:101D1000E90FF11DE491ED93A217B30771F791E07C
:101D20004BE1813041F0592F5078990F503809F428
:101D300094278150F6CF89819827998394E0FE01FA
:101D40003196DB014C91808184278D9381932E17EE
:101D50003F07C1F791506C5F7F4F9111F0CF0F900B
:101D60000F900F900F90DF91CF910895ECE4F3E086
:101D700084819581948396819583978196838783C7
:101D800080859285908782878185938591878387D7
:101D90008785968597879585968794859587848787
:101DA0000895CF932CE433E0BC01605F7F4FDC01EA
:101DB000F90140E05D91C0815C2750834F5F34960C
:101DC0004430C1F72F5F3F4F04966817790779F7C2
:101DD000CF910895F89480919B028F5F80939B022E
:101DE00008958C01EB018BE991E00E94E4120E94BE
:101DF0003713C8010E94E4128AE30E943814CE010E
:101E00000E94281481E495E00E94C00D0E94EA0E11
:101E1000FFCF0E946026DC01CB0124E0B695A79598
:101E2000979587952A95D1F730919702232F2B27E5
:101E30002870230F20939702BC01CD01922B0895A7
:101E4000CF92DF92EF92FF926B017C010E94090F0B
:101E5000C61AD70AE80AF90A89EEC81683E0D80636
:101E6000E104F1046CF060E170E080E090E00E9439
:101E7000CD1788EEC81A83E0D80AE108F108ECCF44
:101E80001C141D041E041F049CF434E0CC0CDD1C47
:101E90003A95E1F78AE1C816D10450F086E1C81AF4
:101EA000D108C60196958795969587950197F1F784
:101EB000FF90EF90DF90CF9008958F929F92AF9216
:101EC000BF92DF92EF92FF920F931F93CF93DF9316
:101ED000D82EEB018A01E22EE0912E02F0912F0222
:101EE000F08080849184A284B38481149104A1043D
:101EF000B10439F490E4892E92E4992E9FE0A92E42
:101F0000B12C40E251EA67E070E090E0841695065B
:101F1000A606B70640F476956795579547959F5F57
:101F20009630A1F797E081E08927982F906A9695DF
:101F300081709CBD8DBD60E08F2D0E946217DEBC5C
:101F400000000DB407FEFDCF8EB50C0F1D1FC0178E
:101F5000D10779F0E11002C0888101C080E08EBD18
:101F600000000DB407FEFDCF8EB5E11088832196E9
:101F7000EECF61E08F2DDF91CF911F910F91FF90F8
:101F8000EF90DF90BF90AF909F908F900C9462176E
:101F9000AF92BF92CF92DF92EF92FF920F931F9377
:101FA000CF93DF9380919B02815080939B0281119C
:101FB000FFC0789408E912E0C0E0D0E0BB24B394FD
:101FC000E0912E02F0912F02EC0FFD1F23812F3F95
:101FD00009F4E7C0F801D080ED2CF12C30E0F901D4
:101FE000EA5EF94F8491F901EE5FF94FC490F9016F
:101FF000E251FA4FA490AA20A1F081110E94291762
:10200000EA2DF0E0EE0FFF1FEE53FA4FA591B491C9
:10201000EC91CE2231E020E009F430E0832F922FC2
:1020200002C080E090E0E816F90609F4BAC0DB24AB
:10203000F801D082DD2009F4B4C00E94090F6B01C1
:102040007C0181E00E941F2487FF69C082E10E9419
:102050001F2483FF0EC0F2E0CF1AD108E108F10877
:10206000C0926003D0926103E0926203F092630336
:102070004DC086FF48C0E0917303F0917403CF0117
:1020800023E0969587952A95E1F7837061F4E770D0
:10209000F0E0EE0FFF1FE453FA4F85919491C81AB8
:1020A000D90AE108F108C0926403D0926503E09276
:1020B0006603F09267038DE10E941F2482FF02C035
:1020C00082E201C083E10E941F2480938E0480E19C
:1020D0000E941F24682F8DE00E94322440918E04BC
:1020E00050E021E06FE874E080E00E945D0F89E13C
:1020F0000E941F24809372038AE10E941F248D5343
:102100008093710303C087FD10928E046FEF81E10D
:102110000E9432246FEF82E10E94322439C08EE3A4
:102120000E941F24A82E8FE30E941F2483FF09C052
:10213000C0926003D0926103E0926203F092630365
:1021400027C082FF1AC0C0926403D0926503E09258
:102150006603F092670382E30E941F2480938E043B
:10216000482F50E021E06FE874E080E00E945D0FAE
:1021700010927203109271030BC0A2FE03C0109262
:102180008E0406C068EF73E084EA91E00E94F10ECD
:1021900080E00E94232580917E0390917F030E941E
:1021A000AB1521960F5F1F4FC330D10509F008CF43
:1021B000DF91CF911F910F91FF90EF90DF90CF9023
:1021C000BF90AF900895982FE0912E02F0912F02CA
:1021D00081818F3F39F061E02681291301C060E0E1
:1021E0000C94621708958F929F92AF92BF92CF92F4
:1021F000DF92EF92FF920F931F93CF93DF93CDB7B0
:10220000DEB760970FB6F894DEBF0FBECDBF7B017F
:102210008A01282F30E0277F2230310549F0243011
:10222000310509F49CC0232B09F0B0C0D12C79C032
:1022300083FD0CC087E892E00E94D11530E1832E27
:10224000CE0101966C0147E8942E45C080E1E7E895
:10225000F2E0DF011D928A95E9F7F0CFFC012191B0
:10226000CF013C9123272D934F5F7F01015011092E
:102270004031E1F10115110589F7E42FF0E0E9574C
:10228000FD4F80818058808301E0D601E82D1D92AA
:10229000EA95E9F7C6010E94D11519811078C601A7
:1022A0000E94C916112319F088898925888B01118C
:1022B00022C0F6018191D5019C9189278D935D0102
:1022C000B7E9AB16B2E0BB06A9F700E010E087E87B
:1022D00092E00E94D11501151105C1F0C70127E850
:1022E000A22E22E0B22ED50140E0B8CF0115110593
:1022F00071F700E0CACF19811078C6010E94C91693
:102300001123B9F288898925888BD3CF6091870200
:10231000709188028091890290918A020E94BD305A
:1023200038C08D2D90E08017910780F58E0D9F1D90
:102330000E94D115E0E1DE0EF4CF0115110551F038
:102340008D91908189278193015011097F01E217B6
:10235000F30799F7809196028F5F8093960201159B
:102360001105A1F080E1E7E8F2E0DE0111960190AD
:102370000D928A95E1F7CE0101960E94D115DE01FA
:102380001196F7019701205F3F4FDACF60E070E0D0
:10239000CB0160960FB6F894DEBF0FBECDBFDF91C4
:1023A000CF911F910F91FF90EF90DF90CF90BF9052
:1023B000AF909F908F90089590911C02911106C04C
:1023C0006EE373E084EA91E00E94F10E903141F4F3
:1023D00040E150E06CE172E080E00E94F31090E098
:1023E000E92FF0E0E45EFD4F80819F5F90931C0237
:1023F0000895CF93C82F88E80E940C2581E00E94A1
:102400001F2487FD06C06DE672E084EA91E00E9419
:10241000F10E81E00E942325C23049F46AE08DE18B
:102420000E94322460E78EE10E94322404C00E94A0
:10243000AB240E945B2461E28CE00E94322460E4C1
:1024400083E20E9432248091CF04882331F083E319
:102450000E941F24682F6F7B05C083E30E941F2406
:10246000682F606483E30E943224609175038FE1DA
:102470000E94322464E389E30E94322460EC80E409
:102480000E9432246FEF82E10E943224EC2FF0E0B0
:10249000E154FA4F6491609581E10E94322480E01A
:1024A0000E94E310C1110CC0609164037091650338
:1024B00080916603909167030E94200F86E001C01F
:1024C00085E0CF910C942325CF93C82F81E00E9403
:1024D0001F24877019F06AEE72E009C080917303BF
:1024E000877009F06DC0CC2331F068EB72E084EAAC
:1024F00091E00E94F10E88E00E940C2581E00E948C
:102500001F2487FF03C06CEB72E0F1CF81E00E94D3
:1025100023250E945B2461E28CE00E9432246EE15C
:102520008DE00E9432246BE082E10E94322462E15D
:1025300083E10E9432246AEA8FE10E94322462E140
:1025400087E20E94322468ED80E30E94322460E436
:1025500081E30E94322461EC88E20E94322464E923
:1025600089E20E94322461EC8AE20E9432246FEFF9
:1025700081E20E94322462E082E00E94322460E81C
:1025800083E00E94322461E084E00E94322469E901
:1025900085E00E94322468E380E40E94322480E0D7
:1025A0000E94E3106091640370916503809166035B
:1025B000909167030E94200F85E0CF910C94232512
:1025C0008C2FCF910C94F911009769F0FC010190C8
:1025D0000020E9F73197AF01481B590BBC0181E49A
:1025E00095E00C94E00C80E090E008958F929F922B
:1025F000AF92BF920F931F93CF93DF93CDB7DEB708
:10260000A1970FB6F894DEBF0FBECDBF19A242301E
:1026100008F44AE08E010F5D1F4F842E912CA12CEF
:10262000B12CA50194010E947630E62FB901CA01B0
:1026300001501109EA3014F4E05D01C0E95CD801F1
:10264000EC93232B242B252B61F7C8010E94E41265
:10265000A1960FB6F894DEBF0FBECDBFDF91CF912C
:102660001F910F91BF90AF909F908F90089586EC2F
:1026700091E00C94E4120F931F93CF93DF938C019E
:10268000C0E0D0E0F801EC0FFD1F6491662341F03B
:1026900081E495E00E94730D892B11F02196F2CF11
:1026A000CE01DF91CF911F910F910895CF93DF93CA
:1026B0000E943B13EC010E9437138C0F9D1FDF918A
:1026C000CF910895CF92DF92EF92FF920F931F93D5
:1026D000CF93DF937C01262FE0913F05F0914005D9
:1026E000309709F459C0DF010D900020E9F71197E8
:1026F0008D010E1B1F0B09F44FC0C80162E070E092
:102700000E946230019709F447C0622F70E0660FA3
:10271000771F0617170709F03FC0D0E08D2F90E014
:1027200080179107DCF5C0903F05D0904005C80E9A
:10273000D91EF6018081082E000C990B0E94663389
:1027400090ED980F9A3038F09FEB980F963028F460
:10275000C9ECC80F03C0C92F01C0CFEFF6018181BA
:10276000082E000C990B0E94663390ED980F9A305A
:1027700030F09FEB980F963020F4875303C0892FD9
:1027800001C08FEFF0E1CF0290011124282BF70157
:1027900021937F01DE5FC2CF80E001C081E0DF9145
:1027A000CF911F910F91FF90EF90DF90CF90089500
:1027B000CF93DF93682F70E080E090E04AE00E94C2
:1027C000F612EC010E9437138C0F9D1FDF91CF9101
:1027D0000895AF92BF92CF92DF92EF92FF920F9344
:1027E0001F93CF93DF9300D01F92CDB7DEB75C016C
:1027F000162F89ECC82E81E0D82E03E0CE01019679
:102800007C011123B9F0F50181915F011F928F9333
:10281000DF92CF921F920F93FF92EF920E9482332A
:10282000C7010E94E41211500FB6F894DEBF0FBE2C
:10283000CDBFE7CF0F900F900F90DF91CF911F91F9
:102840000F91FF90EF90DF90CF90BF90AF900895E1
:10285000CF93DF93BC0180E090E04AE00E94F61243
:10286000EC010E9437138C0F9D1FDF91CF910895CB
:10287000682F81E495E00C94730DCF92DF92EF9274
:10288000FF92CF93DF936C01990FEE08FF08F7FEDC
:1028900011C08DE20E943814EC0166277727CB0126
:1028A0006C197D098E099F094AE00E94F612C80F33
:1028B000D91F06C04AE0C701B6010E94F612EC011A
:1028C0000E9437138C0F9D1FDF91CF91FF90EF90E7
:1028D000DF90CF9008951F93CF93DF93182F292F68
:1028E000D62F81E080933D0580E78093AB06109260
:1028F0003C0510923B058091EC059091ED05DC01C3
:10290000ED91FC910190F081E02D622F0995C82F87
:102910008091EC059091ED05DC01ED91FC91019029
:10292000F081E02D612F099530913B05313208F09F
:102930004AC090911A059111FCCF2091AB0642E05C
:1029400040931A05D09319054FEF40931805109244
:10295000170530931605ABE1B5E0E6EFF4E040E093
:10296000431721F05D9151934F5FFACF1092F50418
:102970003091F504220F232B2093F5042091F404C9
:10298000213061F41092F4042091F5042093BB00EF
:102990002091BC0023FDF8CF25EC01C025EE20934B
:1029A000BC0020911A052230E1F3209118052F3F39
:1029B00079F090911805903241F09091180590337C
:1029C00031F094E005C091E003C092E001C093E0D3
:1029D00010923C0510923B0510923D05911105C0E7
:1029E0009C2F980F81E0923009F080E0DF91CF9129
:1029F0001F910895FC019C012E5F3F4F8FEF41E333
:102A00009191892798E087FF03C0880F842701C030
:102A1000880F9150C1F7E217F30791F70895FF92DD
:102A20000F931F93CF93DF93F62ED72FC42F60E021
:102A30000E946B14882309F46CC080911A058111DF
:102A4000FCCF8C2FC13208F080E291E090931A0500
:102A5000909319052FEF2093180510921705280F52
:102A6000209316059093F5049091F504906E909341
:102A7000F5049091F404913061F41092F404909173
:102A8000F5049093BB009091BC0093FDF8CF95ECBA
:102A900001C095EE9093BC0090911A059130E1F33E
:102AA00090911705981710F480911705A6EFB4E0E0
:102AB000E4EDF4E090E0981721F02D9121939F5FD1
:102AC000FACF1092D3049093D2048091EC059091A8
:102AD000ED05DC01ED91FC910084F185E02D099577
:102AE0002C2F30E082179307A1F40F2D1D2FCC233C
:102AF00091F08091EC059091ED05DC01ED91FC9158
:102B00000284F385E02D0995F80181938F01C1506E
:102B1000EECF80E001C081E0DF91CF911F910F9156
:102B2000FF900895FC01208131812115310581F04C
:102B300043E02837340751F420917803309179032A
:102B4000FC013183208381E090E00895C901EACF40
:102B500080E090E00895CF93DF93EC010E94EA0EAD
:102B60008EE593E00E949215D0937F03C0937E037D
:102B70001092790310927803E0915E03F0915F0365
:102B8000AEE5B3E0309729F0DF010190F081E02D50
:102B9000F9CF88E793E08D939C93DF91CF910C94CC
:102BA000C80F6F927F928F929F92AF92BF92CF92F7
:102BB000DF92EF92FF920F931F93CF93DF93CDB7E6
:102BC000DEB768970FB6F894DEBF0FBECDBF8C019D
:102BD0002CE4E22E23E0F22E970180E090E0D80171
:102BE000A80FB91FF90140E05D9150834F5F349603
:102BF0004430D1F704962F5F3F4F8031910579F72C
:102C0000ACE9B2E0FE0131968CEA92E04F012D91E1
:102C100021938A179B07D9F7C4010E94D10E77240C
:102C2000739480E5C82E83E0D82E5E0159E1A50E8D
:102C3000B11C9BE1692E8CE493E034E0DC0140E0C0
:102C40002C91E22FE295EF7050E1E59FF001112405
:102C5000E65DF94F2F70E20FF11DE491EC934F5FA9
:102C60001496443069F7315001963111E7CF0E9434
:102C7000B60EECE4F3E0CE014596BE016F5E7F4FE9
:102C80009F01D9015C91DC015D93CD01452F440F7B
:102C900057FD4625DB014C932C5F3F4F6F5F7F4F05
:102CA000A816B90671F76E89498946275F89288D6C
:102CB0008A8985278227942F982791933D899B891C
:102CC0008327892783838C89262723279227982780
:102CD00097833527382743274387CE16DF0659F6D3
:102CE000B401872D0E945E0EC4010E94D10E739420
:102CF000BAE07B12A0CF8CE493E034E0DC0140E04A
:102D00002C91E22FE295EF7050E1E59FF001112444
:102D1000E65DF94F2F70E20FF11DE491EC934F5FE8
:102D20001496443069F7315001963111E7CF0E9473
:102D3000B60EB4018AE00E945E0EC4010E94D10E5C
:102D40009801205F3F4FD801F70180E090819D936B
:102D50008F5F34968430D1F78FEFE81AF80A0C5F52
:102D60001F4F2017310779F768960FB6F894DEBF2A
:102D70000FBECDBFDF91CF911F910F91FF90EF90CC
:102D8000DF90CF90BF90AF909F908F907F906F908B
:102D90000895FC0120E1215050F011F0818101C023
:102DA00080E09081990F87FD91609193F4CF089511
:102DB000CF92DF92EF92FF92CF93DF936B017C0172
:102DC000EA010E94EA0E8CE593E00E949215C092FF
:102DD0007A03D0927B03E0927C03F0927D03D09340
:102DE0007F03C0937E031092790310927803E091E1
:102DF0005C03F0915D03CCE5D3E03097B9F08281BC
:102E00009381A481B5818C199D09AE09BF0918165B
:102E100019061A061B062CF4F0937903E093780345
:102E200005C0EF010190F081E02DE7CF88E793E046
:102E300099838883DF91CF91FF90EF90DF90CF90BF
:102E40000C94C80F40E150E06CE972E080E80C940B
:102E5000520990E0FC013197ED30F10590F5E6580C
:102E6000FF4F0C94B730809180008F7703C0809122
:102E700080008F7D80938000089584B58F7702C095
:102E800084B58F7D84BD08958091B0008F7703C095
:102E90008091B0008F7D8093B00008958091900064
:102EA0008F7703C0809190008F7D8093900008956C
:102EB0008091A0008F7703C08091A0008F7D8093C8
:102EC000A00008951F93CF93DF93282F30E0F901DE
:102ED000EA5EF94F8491F901EE5FF94FD491F9015F
:102EE000E251FA4FC491CC23C1F0162F81110E94F8
:102EF0002917EC2FF0E0EE0FFF1FEC51FA4FA591D0
:102F0000B4919FB7F894111104C08C91D095D82337
:102F100002C0EC91DE2BDC939FBFDF91CF911F911C
:102F20000895CF93DF9390E0FC01EE5FF94F249179
:102F3000FC01E251FA4F8491882361F190E0880FFF
:102F4000991FFC01E652FA4FC591D491FC01EC5156
:102F5000FA4FA591B491611109C09FB7F894888187
:102F6000209582238883EC912E230BC0623061F47C
:102F70009FB7F8948881322F309583238883EC9112
:102F80002E2B2C939FBF06C08FB7F894E8812E2B71
:102F900028838FBFDF91CF9108958F929F92AF9238
:102FA000BF92CF92DF92EF92FF926B017C010E9461
:102FB00060264B015C01C114D104E104F104F1F07D
:102FC0000E946026DC01CB0188199909AA09BB0976
:102FD000883E9340A105B10570F321E0C21AD108E3
:102FE000E108F10888EE880E83E0981EA11CB11C50
:102FF000C114D104E104F10419F7DDCFFF90EF9083
:10300000DF90CF90BF90AF909F908F9008950F93D7
:103010001F93CF93DF93C4E6D0E098819E7F98837F
:10302000862B80937C000AE710E0F8018081886895
:1030300080836AE070E080E090E00E94CD1782E03B
:103040000E94920C84E00E94920CF80180818777A4
:1030500080838881816088838091D0049091D1049D
:1030600096958795969587959093D1048093D004F3
:10307000DF91CF911F910F91089586B169E170E0C2
:1030800080E090E00E94CD1786B18170089585E0C0
:103090000C94330788E00C9433072F923F924F92A1
:1030A0005F926F927F928F929F92AF92BF92CF92D8
:1030B000DF92EF92FF920F931F93CF93DF93CDB7E1
:1030C000DEB727970FB6F894DEBF0FBECDBF809155
:1030D0000C0487FD06C066E476E08EEC91E00E9469
:1030E000F10E20908E042110ACC0E0918B04EE23F1
:1030F00009F460C0E83008F05BC0EF5FE0938B0438
:10310000F0E0E354F84F2491298380911004498121
:10311000442331F00E947625398131503983F7CF2D
:1031200060E80E940226409064035090650360901E
:1031300066037090670383E00E947007DC01CB0197
:10314000840D951DA61DB71D20910304222399F01F
:1031500000910404109105042091060430910704A5
:10316000AC01BD01401B510B620B730B141615060D
:10317000160617068CF48093040490930504A0931C
:103180000604B093070480910C0490910D049160A3
:1031900090930D0480930C0480910C0490910D0485
:1031A0008F7790930D0480930C040E942C1ED0C145
:1031B00080E601C080E280938C0480917B0480389B
:1031C00019F08F5F80937B0410928E0410928D040F
:1031D00080910C0490910D049C01277730930D048D
:1031E00020930C0420918C04277059F094FF09C09F
:1031F00087779F7E90930D0480930C048FE00E944C
:1032000033078AE00E94330780917B0489310CF4F4
:103210009FC1809110040E94762560E80E940226DA
:103220008CE080937B0480910C0490910D0480626B
:10323000906190930D0480930C048EE00E943307FC
:1032400087C1312C5CE02516310444F410928E04C1
:1032500080918C0480FF49CF80E07BC180918F04F6
:10326000682F6370F62E91F7807E8983803611F087
:10327000803A61F780E994E00E94F70700916E04BC
:1032800010916F04209170043091710460177107E0
:1032900082079307D9F6A0919404AB830A2F0F708D
:1032A00010E0F8013896FF83EE83F4E02F1A31081E
:1032B0002E813F81221633064CF2221533055CF431
:1032C00021573B4FD9012C91822E912CF801399630
:1032D000FF83EE8303C088248A94982C4090720464
:1032E000509073046090740470907504209195045C
:1032F0003091960424193509420E531E611C711C2D
:1033000020E1E7E8F2E0DF01322F1D923A95E9F77C
:1033100039E43093870231E030938C022092960298
:1033200060938D0270938E0280938F02909390022F
:103330004092910250929202609293027092940293
:10334000EEE4F4E0ACE9B2E001900D922A95E1F7E9
:10335000A1016FE874E082E00E94F3109B01AC01D0
:10336000F101E157FB4F60817181828193810E945D
:10337000BD30261737074807590709F067CF8091F6
:10338000720490917304A0917404B091750448166E
:1033900059066A067B06E0F484159505A605B7056F
:1033A0000CF454CF0197A109B109481659066A06D1
:1033B0007B0609F04BCF80917A04882309F446CF2D
:1033C0004981403A09F042CFCC24C394D12C17C094
:1033D000D301C2010196A11DB11D80937204909387
:1033E0007304A0937404B09375045981503A11F496
:1033F00080E201C080E080937A04C12CD12C8091BE
:103400007A04811103C06B8164FF09C080910C04B0
:1034100090910D04806190930D0480930C041092A0
:10342000120410927C0480917B04803819F084EFA0
:1034300080937B042091730330917403822F8770F3
:1034400090E0FC01EE0FFF1FE80FF91FE855F84F61
:1034500053E0369527955A95E1F72370E20FF11D59
:10346000E49180917103082E000C990B8E1B910939
:10347000835B9F4F97FD06C08F3F910514F08EEF41
:1034800090E0F82EF0927E04B80187E994E00E9463
:103490004506CD28B1F57FEF8716970691F1C1015A
:1034A000AE81BF818A1B9B0B9A83898318161906EC
:1034B00044F5A157BB4FBD83AC8340916E0450913E
:1034C0006F0460917004709171048114910419F477
:1034D0008EE494E002C08EE594E0A980BA80CC80AE
:1034E000DD80EE24E394F12C930182010E94A70772
:1034F0008114910431F469817A818C819D810E94CB
:10350000450680918B04882359F0BB81B5FF02C02A
:1035100080E801C080E490918C04892B80938C0416
:1035200080918C04181419044CF0806280938C04F0
:10353000EE81E0938D0410928E044ACE80618093D8
:103540008C04FE81F0938D042F1A20928E0440CEBD
:1035500081E027960FB6F894DEBF0FBECDBFDF9196
:10356000CF911F910F91FF90EF90DF90CF90BF9080
:10357000AF909F908F907F906F905F904F903F9013
:103580002F9008950C944D1880917503873069F041
:1035900020917D0430E0A4E2B4EF0E94C430209179
:1035A000760343EB5DE10C946605089580918E04EB
:1035B00081110EC0A0917D04B0E0119624E234EF99
:1035C0000E94D330209186044CEF5AE10C9466059A
:1035D0000E944D18882371F30895809175038730F8
:1035E00051F02091760347EB5DE164EB74EC84E0ED
:1035F00090E00C94660508958CE09BE190937F0326
:1036000080937E030C941C0686E99DE190937F03D2
:1036100080937E030C941C06CF92DF92EF92FF9270
:1036200080918E0481111CC010928C040E94090F9D
:103630006B017C0182E00E9470072CE6C20E2CED2B
:10364000D21E22E0E21EF11C6C0D7D1D8E1D9F1D01
:1036500042EC5AE1FF90EF90DF90CF900C94D81697
:10366000FF90EF90DF90CF900C944D184F925F92A7
:103670006F927F928F929F92AF92BF92CF92DF9282
:10368000EF92FF920F931F93CF93DF9380918C045F
:1036900010918E04813029F4111103C06BE174E0A4
:1036A00006C080910C0487FD06C06CE174E08EECCE
:1036B00091E00E94F10E11118AC080910C0490914A
:1036C0000D0482FD13C085FD03C061E274E0EFCFFD
:1036D0008F7590930D0480930C04809112048A30AE
:1036E00018F48F5F8093120489E0D3C18F77909391
:1036F0000D0480930C04809102048F5F833019F0D5
:103700008093020402C01092020480918B048F5FA8
:1037100080938B0463E00E944230911108C0809135
:103720001004882331F00E94762580931004C0E0B5
:1037300001C0C1E080910C0490910D04977F90939B
:103740000D0480930C040E94090F6B017C01809191
:10375000840390918503A0918603B0918703B701FC
:10376000A601481B590B6A0B7B0B77FF02C06C014B
:103770007D018FEF90E00090100402C09595879531
:103780000A94E2F70E947007DC01CB01845993424E
:10379000AD4FBF4FC80ED91EEA1EFB1EC09260037C
:1037A000D0926103E0926203F0926303CC2319F09C
:1037B0000AE418E102C004E615E00E94090F6C0F4C
:1037C000711D811D911DA8010E94D81664C111317F
:1037D00041F0113231F080918C0480FF6ECF80E097
:1037E00081C180918F04837E8032A9F7C12FD0E000
:1037F0000E942217AE014150510960E974E080E057
:103800000E94F3100E9422172497AE016FE874E023
:103810008AE00E94F3106B017C01C157DB4F688185
:1038200079818A819B810E94BD30C616D706E80641
:10383000F90689F686E994E00E94F70760936E0422
:1038400070936F04809370049093710483E994E003
:103850000E94F707DC01CB01BB27809308049093FB
:103860000904A0930A04B0930B0480E00E947F2512
:10387000123108F047C080914C0490914D0401979B
:1038800020E1EEE4F4E0DF01322F1D923A95E9F7F2
:1038900031E030934E0436E0E0E9F4E0AFE4B4E028
:1038A00001900D923A95E1F7809355049093560458
:1038B000EEE4F4E0AEE5B4E001900D922A95E1F774
:1038C00082E080935E040E94221740E150E06EE4A3
:1038D00074E080E00E94F3100E94221740E150E063
:1038E0006EE574E080E00E94F31080910C049091EA
:1038F0000D049C0124723327232B09F06EC066E867
:1039000074E0D5CE3BE9C32E34E0D32E4CEAE42E4E
:1039100043E0F42E06EE13E0C3E0D0E05FE3A52E13
:10392000B12C88248394912CC6010E94F707272F7D
:10393000382F492F5527A4E6B0E00E94DA302B013A
:103940003C0140EC441A45E5540A40E7640A43E36D
:10395000740AA1EC4A16AFEC5A06AAE66A0671048C
:1039600070F52B013C0140EC441A4DEF540A41ED37
:10397000640A43E3740AA1E94A16A0ED5A06A3E0DB
:103980006A06710408F089C06260D7016D937D9367
:103990008D939C931397F801B182A082209100042B
:1039A00030910104C4010C2E02C0880F991F0A94A3
:1039B000E2F7822B932B909301048093000423E081
:1039C000C20ED11C34E0E30EF11C0E5F1F4F219696
:1039D000C830D10509F0A8CF4ECF85FF0CC080912B
:1039E0001004C0911204CC2321F00E947625C1500E
:1039F000FACF8093100480910C0490910D04897586
:103A00009D7F986090930D0480930C0410928B041A
:103A10001092760410927704109278041092790430
:103A20001092720410927304109274041092750430
:103A3000109212041092800410927F0410927C0461
:103A400010927A04109283041092840410920E044F
:103A500084EF80937B0488E096EEA3EDB3E380933C
:103A6000870490938804A0938904B0938A0480917A
:103A70009A04982F9F709093860482958770809304
:103A8000850480919B04811101C081E080937D04B5
:103A900086E00E94330781E025C02B013C01B1EA9A
:103AA0005B1ABCEB6B0AB3E37B0AE1EC4E16E7E270
:103AB0005E06E9E06E06710498F02B013C01F0EA25
:103AC0004F1AF1E95F0AF6ED6F0AF3E37F0A21EE80
:103AD000421623E9520624E06206710408F055CF2D
:103AE000616053CFDF91CF911F910F91FF90EF90C5
:103AF000DF90CF90BF90AF909F908F907F906F900E
:103B00005F904F90089580918E0481110AC020919A
:103B1000860444E05BE168ED78EB85E090E00C948E
:103B200066050E94361B882391F3089580918E04C8
:103B3000811102C010928C040C94361BE0E6F3E075
:103B400021E020938C04238934892068348B238BD3
:103B500010928E04978F868F0E94EA0E80E00E945A
:103B600064120C94C80F86ED9AE10C949E1D83E8B4
:103B70009DE10C949E1DCF92DF92EF92FF92809177
:103B80006E0490916F04A0917004B0917104892B20
:103B90008A2B8B2B09F05AC080910C0490910D0454
:103BA0009C0120793327232B29F06CE176E08EEC01
:103BB00091E026C0109203048E7D977E90930D04B1
:103BC00080930C0410928B04109212040E94DC115A
:103BD00063E00E9442309093020480E180930F04DE
:103BE00085E08093100481E00E947F2580910C0481
:103BF00090910D0493FF06C06EE470E08FEE91E0AB
:103C00000E94F10E0E94090F6B017C0188E00E9466
:103C10007007DC01CB018C0D9D1DAE1DBF1D809377
:103C2000600390936103A0936203B0936303809158
:103C30000C0490910D04846090930D0480930C0407
:103C400087E498E10E94AB1581E001C080E0FF901D
:103C5000EF90DF90CF9008952F923F924F925F9216
:103C60006F927F928F929F92AF92BF92CF92DF928C
:103C7000EF92FF920F931F93CF93DF93CDB7DEB7F1
:103C80002C970FB6F894DEBF0FBECDBF80910C0409
:103C900090910D049C01217C3327232B09F08BC5C7
:103CA00040916E0450916F046091700470917104A2
:103CB000452B462B472BE1F482FD1AC02C960FB6FC
:103CC000F894DEBF0FBECDBFDF91CF911F910F9152
:103CD000FF90EF90DF90CF90BF90AF909F908F902C
:103CE0007F906F905F904F903F902F900C94BB1DF2
:103CF0000E94090F2B013C0120910C0430910D040E
:103D0000C9018C739927892B09F430C533FFBFC0D3
:103D100080900004909001049C828B82809110041A
:103D20008F7041E050E05A0102C0AA0CBB1C8A957A
:103D3000E2F7BE82AD821FE0B301A2015E52664B84
:103D400074494F83588769877A8722242394312CBA
:103D50006F81788589859A85E0E6F3E040E050E060
:103D600000E0A12FB0E04D01042E02C0959487948D
:103D70000A94E2F79A82898280FE12C084A095A0FC
:103D8000A6A0B7A06B017C01C818D908EA08FB08F7
:103D90001C141D041E041F041CF4042FC501B401CF
:103DA0004F5F5F4F389644305105E9F6A02EB12C95
:103DB000BA82A98243E0AA0CBB1C4A95E1F7BC86F3
:103DC000AB86F501E05AFC4FE3A150E1C02ED12CA7
:103DD000E12CF12C41E04E0F403110F041EF4E0F3D
:103DE000E42FF0E0D101042E02C0AA0FBB1F0A94F9
:103DF000E2F78B809C80A821B921AB2B51F1DF0128
:103E0000AA0FBB1FA052BC4F0D90BC91A02DAD803E
:103E1000BE80AA21BB21AB2BE1F0EE0FFF1FEE0FFE
:103E2000FF1FE056FC4F80809180A280B380A3E00A
:103E30008A229924AA24BB24C814D904EA04FB04C6
:103E400041F4EB85FC85E05AFC4F43A34093020408
:103E50000FC0515011F0E42FBDCFA101098002C065
:103E6000440F551F0A94E2F74095142309F070CFD0
:103E70006093600370936103809362039093630384
:103E8000A901577F50930D0440930C0408C0609122
:103E9000600370916103809162039091630340918C
:103EA0000304411106C040910C0450910D0450FFD1
:103EB00012C0C0900404D0900504E0900604F09075
:103EC00007044B015C018C189D08AE08BF08B7FEC3
:103ED00002C0C701B60173016201FDE7CF0ED11C1C
:103EE000E11CF11C4B015C018C189D08AE08BF0859
:103EF000B7FE2EC49090100424723327232B09F4AC
:103F00004DC080910C0485FF10C0A0901204A982BE
:103F10008980882041F0892D0E947625982E29815C
:103F200021502983F5CF80EC01C080E080938F047D
:103F300048E050E060E974E088E70E94520948E0F8
:103F400050E068E974E080E70E94520990914C04C7
:103F500080914D049093A0048093A1040E942217A5
:103F600043E150E06FE874E08AE00E94F310609350
:103F7000A5047093A4048093A3049093A20487E102
:103F800080938E0480914C0490914D0401969093FF
:103F90004D0480934C048DEE9AE181C180917204AE
:103FA00090917304A0917404B091750480389F4F70
:103FB000AF4FBF4FE0F089E697E02C960FB6F8942C
:103FC000DEBF0FBECDBFDF91CF911F910F91FF904C
:103FD000EF90DF90CF90BF90AF909F908F907F90A9
:103FE0006F905F904F903F902F900C94AB15709115
:103FF0008B0471110DC08091760490917704A0918B
:104000007804B09179048F3F9F4FAF4FBF4F99F223
:1040100040910C0450910D044871552740315105D1
:1040200019F06091170401C060E080918404882336
:1040300041F084E0809397041092840489E090E03A
:1040400002C088E090E0209180042223A1F09C012E
:10405000205A3C4FF901E15DFE4FA6E0A083319666
:10406000AFEFA083D901AF5CBE4FE0918104EC9328
:10407000039610928004E0917F04EE2371F09C017E
:10408000205A3C4FD901A15DBE4FF3E0FC9311963D
:10409000E770EC93029610927F0420917C04222317
:1040A00039F020917B0427FD10927B0410927C0450
:1040B0004031510521F0A5E0A60FA98302C0B4E06C
:1040C000B983F82F8980880EE0E4E81528F0E1E054
:1040D0004031510529F403C0E4E08E2E880EE0E063
:1040E00020E420938F0430917A0440918204432B82
:1040F00030917B043095232F221F2227221F2295E7
:10410000220F220F207C38EF3F0F342B232B2093DC
:10411000940450916E0440916F043091700420918A
:10412000710450939004409391043093920420932F
:104130009304711114C000917604109177042091BA
:104140007804309179040F5F1F4F2F4F3F4F00933A
:1041500076041093770420937804309379042091A7
:1041600076043091770421503109209395043093DF
:10417000960410927A04EE2309F43FC020911604AD
:10418000222341F020E820938F04711103C021E025
:1041900020938B04FC01E157FB4F209115042083F1
:1041A0009C0120573B4F6901A62EB12CA50168E167
:1041B00074E0C9010E946E33009176041091770477
:1041C00020917804309179040150110921093109B5
:1041D00040916E0450916F0460917004709171046D
:1041E00080911504882319F08EE594E002C08EE4D6
:1041F00094E0E12CF12C0E94A707E82DF0E08F015C
:10420000045011098091760490917704A09178046C
:10421000B09179040197A109B10960916E045091A0
:104220006F04409170043091710420E177E8E72E2B
:1042300072E0F72EF701A22E1192AA94E9F779E421
:104240007093870210928C020093960260938D0205
:1042500050938E0240938F0230939002809391028C
:1042600090939202A0939302B0939402EEE4F4E050
:10427000ACE9B2E001900D922A95E1F7A8016FE850
:1042800074E082E00E94F310F801E157FB4F638372
:1042900072838183908380928E0484EC9AE1909360
:1042A0007F0380937E03E92DF0E0E052F84F849184
:1042B000E091110420E2E29FF00111248F79E82BB4
:1042C000F0937403E09373039092760380910C044F
:1042D00090910D048F76967F8068986090930D047E
:1042E00080930C04A091020434E0A39FD001112418
:1042F000A056BC4FCD90DD90ED90FC90A0918E0427
:104300003E2F3770B0E079F41B9683E0AA0FBB1FF5
:104310008A95E1F724E234EF0E94D33020E533ECB4
:1043200040E050E086C0632F660F660F685E353050
:1043300010F490E001C098E003E0AA0FBB1F0A95BB
:10434000E1F7A61BB1095C96E7FD03C040E150E030
:1043500002C040E050E0A40FB51F4F2F5527452B5A
:1043600019F440E050E002C044E150E0A41BB50B5A
:104370001A161B06DCF4691B70E0A60FB71FCD01EF
:1043800001970E946230AF01A5E056954795AA9526
:10439000E1F7437050E04B5F5F4F469FC001479F7E
:1043A000900D569F900D1124089602C088E090E071
:1043B000880F991F880F991FC1963F5F63E0F6959C
:1043C000E7956A95E1F7E3703E1B353050F03450C5
:1043D000E9E0FDE302C0F595E7953A95E2F734E0B0
:1043E00002C0E9E0FDE3092E000CAA0BBB0B4C0157
:1043F0005D0104C0880C991CAA1CBB1C3A95D2F71D
:10440000A5019401A4E2B4EF0E94DA309F01F7FF06
:1044100002C02F5F3F4F359527958901330F220B3F
:10442000330B600F711F821F931F9F01FF0F440BFF
:10443000550B0E94983049015A01D701C60183707B
:104440009927AA27BB272CEFC222C0926D03D092D6
:104450006E03E0926F03F0927003FC0123E0EE0F15
:10446000FF1F2A95E1F7E05AFC4F22A12093770322
:10447000049633E0880F991F3A95E1F7DC01A05AC2
:10448000BC4F0D90BC91A02DA50194010E94DA3083
:10449000DC01CB01840D951DA61DB71D84A395A33A
:1044A000A6A3B7A380910304882399F004C0880CC5
:1044B000991CAA1CBB1C8A95D2F7480C591C6A1C73
:1044C0007B1C409204045092050460920604709292
:1044D000070481E10E9433070E94EA0E81E00E94F6
:1044E0001F24877059F080E00E9423250E94090F45
:1044F000625C7F4F8F4F9F4F0E94200FC0906803D8
:10450000D0906903E0906A03F0906B031C141D04C3
:104510001E041F040CF061C081E00E94F91180911B
:104520006D0390916E03A0916F03B091700381347D
:104530009D4DAA44BF4128F44CE55FEF5A8349835F
:1045400004C063E67FEF7A836983E0912E02F091E5
:104550002F02878189809A80880E911C87FD9A940A
:104560009A8289820E94090F615E7F4F8F4F9F4F11
:104570000E94200F0E94090F10E046015701860E8D
:10458000971EA81EB91E8BE10E941F24181708F45D
:10459000182F0E94C80F0E94090F6B017C010E9416
:1045A000EA0EC818D908EA08FB08F7FCECCF80E04F
:1045B0000E94232580916C03082E000C990BA98082
:1045C000BA80A10EB11CA816B9063CF080917E03FA
:1045D00090917F030E94AB15A1C0809173038770F7
:1045E00009F050C080E10E940C2581E00E941F2448
:1045F000803119F06FED71E04FC081E00E942325FA
:1046000062E082E00E94322460E883E00E9432246B
:1046100061E084E00E94322469E985E00E9432244E
:1046200060E085E20E94322465E086E20E94322446
:1046300062E187E20E94322460ED80E30E9432242E
:1046400060E481E30E94322461EC88E20E9432241B
:1046500064E989E20E94322461EC8AE20E943224F9
:104660000E945B240E94452464E380E40E9432247B
:1046700060918E046F5F82E30E94322460918E0409
:1046800080E03BC088E80E940C2581E00E941F2446
:1046900087FD06C06BE072E084EA91E00E94F10EB3
:1046A00081E00E9423250E94AB240E945B248AE0C3
:1046B0000E941F24807F682F68608AE00E94322455
:1046C0000E94452464E389E30E94322460EF80E481
:1046D0000E9432246FEF82E10E94322467EF81E171
:1046E0000E94322460E08EE00E94322460E08DE07F
:1046F0000E94322460918E0482E20E943224409112
:104700008E0450E020E06FE874E080E80E945D0FC6
:1047100081E00E94E31083E00E9423252C960FB6CF
:10472000F894DEBF0FBECDBFDF91CF911F910F91E7
:10473000FF90EF90DF90CF90BF90AF909F908F90C1
:104740007F906F905F904F903F902F900C94C80F88
:1047500020910C0421FF0FC06115710581059105A1
:1047600051F461E070E080E090E005C021FF23C0DB
:1047700060E070E0CB016D5771098109910944E651
:1047800055E02C960FB6F894DEBF0FBECDBFDF917B
:10479000CF911F910F91FF90EF90DF90CF90BF903E
:1047A000AF909F908F907F906F905F904F903F90D1
:1047B0002F900C94D8162C960FB6F894DEBF0FBE2F
:1047C000CDBFDF91CF911F910F91FF90EF90DF90C0
:1047D000CF90BF90AF909F908F907F906F905F90A1
:1047E0004F903F902F900895CF92DF92EF92FF92DB
:1047F000A0912C02B0912D0261E0811101C060E016
:10480000ED91FC9111970190F081E02DCD0109957A
:104810006B017C01672B682B692B61F00E94090FEB
:104820006C0D7D1D8E1D9F1DFF90EF90DF90CF9032
:104830000C94200FFF90EF90DF90CF900895CF93CE
:10484000DF931F92CDB7DEB721E041E050E0BE011B
:104850006F5F7F4F8F770E945D0F89810F90DF918F
:10486000CF910895CF93DF931F92CDB7DEB76983C1
:1048700020E041E050E0BE016F5F7F4F80680E9402
:104880005D0F0F90DF91CF910895609177036231B2
:1048900024F462301CF462E001C061E1625060689F
:1048A00089E00E9432248DE40E941F24682F6460F6
:1048B0008DE40C943224AF92BF92CF92DF92EF92AC
:1048C000FF920F931F93CF93DF9380916D0390918D
:1048D0006E03A0916F03B09170039C01AD0160E085
:1048E00070E080E090E003E10E947E31A12CE8E4DA
:1048F000BE2EF8EECF2EDD24D394E12CF12C00E077
:1049000010E00E942131C22FB32E6A017B01182FC3
:10491000D92F00E10E949931622F86E00E94322453
:104920002C2F3B2DA601B701812F9D2F08E00E945F
:104930009931622F87E00E9432246C2F88E0DF914A
:10494000CF911F910F91FF90EF90DF90CF90BF908C
:10495000AF900C943224CF93DF93609173037091E6
:104960007403D62FD770CB0153E0969587955A954F
:10497000E1F78370813049F050F0823051F06FE6FA
:1049800071E084EA91E00E94F10EC0E803C0C0E744
:1049900001C0C0E9CB0145E0969587954A95E1F7BE
:1049A0008370823041F0833041F0813011F0C26079
:1049B00005C0C46003C0C66001C0C860672F772708
:1049C0006115710521F0C16082E20E9432246C2FD2
:1049D0008DE10E9432246D2F6295607F605A809134
:1049E000730387FF64608EE10E943224D550D23079
:1049F00068F4809173039091740323E096958795F2
:104A00002A95E1F7837011F46CE001C064E086E25E
:104A1000DF91CF910C943224CF93DF93D82FC82FFE
:104A2000C77019F081E00E94F4236D2F81E00E948D
:104A30003224C11105C080E0DF91CF910C94F423A2
:104A4000DF91CF910895CF93C82F81E00E941F245A
:104A5000887F8C2BCF910C940C25CF92DF92EF9214
:104A6000FF92CF93DF930E94EA0EC0915E03D09134
:104A70005F03209739F08881998190935F03809339
:104A80005E031FC0E0915C03F0915D033097C9F0B5
:104A9000C280D380E480F5800E94090FC61AD70A2D
:104AA000E80AF90A1C141D041E041F0454F0C091E6
:104AB0005C03D0915D038881998190935D0380931D
:104AC0005C030E94C80F209751F0EE81FF81CE0158
:104AD000DF91CF91FF90EF90DF90CF900994DF911D
:104AE000CF91FF90EF90DF90CF900895E82FF0E006
:104AF000E152F84FE491EF3F09F081500895CF93D0
:104B0000DF9390E4E0EAF3E0DF011D929A95E9F784
:104B100090E2E0EEF3E0DF01292F1D922A95E9F7FC
:104B2000E0E8F3E0DF011D929A95E9F727E030E035
:104B30003093010420930004811102C083E001C07E
:104B400080E0C0EAD3E0A0EEB3E093E0980F2FE35B
:104B500030E044E0849FF0011124E953F84F45917F
:104B600055916591749149935993699379932D93D4
:104B70003D938F5F8913EDCF88EE93E0909381038F
:104B800080938003CEE0C09382030E94DC118F707B
:104B90008093830384E690E0909389038093880355
:104BA000C0938A030E94DC118F7080938B038AE08C
:104BB00090E090939103809390038BE18093920314
:104BC0000E94DC118F70809393030E94090F609301
:104BD0009403709395038093960390939703609347
:104BE0008C0370938D0380938E0390938F03609357
:104BF0008403709385038093860390938703DF91EA
:104C0000CF910895603811F060930F0490911004D3
:104C1000981759F08093100480910C0490910D0422
:104C2000986090930D0480930C040895CF930E9494
:104C3000EA0E80E00E9423250E94C80F0E94EA0E1F
:104C40008CE593E00E949215892B21F48EE593E088
:104C50000E9492150E94C80F80E791E0E0E6F3E021
:104C6000DF019C011D9221503040E1F70E94DC11D0
:104C7000C82F0E94DC112C2F30E0322F2227282B46
:104C800030934D0420934C0410920D0410920C04A8
:104C90001092110480E8809382041092860488E0C8
:104CA00096EEA3EDB3E38093870490938804A093DA
:104CB0008904B0938A0481E080937D04CF910895A4
:104CC0003FB7F8948091B0069091B106A091B206DA
:104CD000B091B30626B5A89B05C02F3F19F00196E9
:104CE000A11DB11D3FBFBA2FA92F982F8827820F72
:104CF000911DA11DB11DBC01CD0146E0660F771FBE
:104D0000881F991F4A95D1F708952FB7F89460919D
:104D1000AC067091AD068091AE069091AF062FBFA4
:104D200008951F920F920FB60F9211242F933F9365
:104D30008F939F93AF93BF938091AC069091AD06F4
:104D4000A091AE06B091AF063091B40620E3230FD8
:104D50002D3720F44096A11DB11D05C023EB230F74
:104D60004196A11DB11D2093B4068093AC0690938B
:104D7000AD06A093AE06B093AF068091B0069091B9
:104D8000B106A091B206B091B3060196A11DB11D66
:104D90008093B0069093B106A093B206B093B30689
:104DA000BF91AF919F918F913F912F910F900FBE27
:104DB0000F901F901895CF93DF93CDB7DEB76A970A
:104DC0000FB6F894DEBF0FBECDBF789484B5826075
:104DD00084BD84B5816084BD85B5826085BD85B59F
:104DE000816085BD80916E00816080936E0010921D
:104DF0008100809181008260809381008091800099
:104E00008160809380008091B10084608093B100C4
:104E10008091B00081608093B000809191008260A9
:104E200080939100809191008160809391008091A6
:104E300090008160809390008091A10082608093B7
:104E4000A1008091A10081608093A1008091A000C9
:104E500081608093A00080917A008B7F80937A009C
:104E600080917A00826080937A0080917A008160DC
:104E700080937A0080917A00806880937A00109203
:104E8000C1008FEE84B984E085B906E0E02EE7B872
:104E900082E0D82ED8B882EF8AB91BB81DB81EB8E8
:104EA0000FB6F894A89580916000886180936000A7
:104EB000109260000FBE10927A00809164008160B1
:104EC000809364008091640082608093640080918C
:104ED00064008F7D8093640080916400886080937B
:104EE0006400809164008064809364008091650018
:104EF0008160809365008091650088608093650083
:104F0000809164008061809364008091650080617D
:104F10008093650080916500806280936500809138
:104F20006500846080936500809164008B7F80932E
:104F30006400809164008F77809364001092D304A2
:104F40001092D20410923C0510923B0510921A0563
:104F500081E0809319051092F40461E082E10E94DF
:104F6000621761E083E10E9462178091B9008E7F31
:104F70008093B9008091B9008D7F8093B9008DEF47
:104F80008093B80085E48093BC0082E594E0909320
:104F90001B0280931A0283E594E090931902809398
:104FA00018021092B80080EC80937E0080917A0005
:104FB000816080937A001DBA1092680010926B0095
:104FC00010926C0010926D001092690083E08CBB0F
:104FD0000E943D18F82E8823D9F1809164008D7FBE
:104FE0008093640083E00E94430BE0915105F091AF
:104FF0005205D082E0914D05F0914E051082E0916E
:105000004F05F09150058CE0808310925905E09196
:105010005505F0915605E082E0915305F091540555
:10502000808180618083E0915305F09154058081F7
:1050300088608083E0915305F091540580818068F9
:105040008083E0915305F091540580818F7D8083AA
:1050500080E00E94930984E0ECE5F3E0DF011D921B
:105060008A95E9F786E091E090932F0280932E02D3
:105070008EED95E090932D0280932C02E091DE0559
:10508000F091DF050280F381E02D0995C0902E029A
:10509000D0902F02F60180818F3F19F461E270E019
:1050A00005C093819F3F31F462E270E084E491E0B7
:1050B0000E94F10EF60194819F3F31F495819F3F4C
:1050C00019F463E270E0F2CF61E00E94621761E0E0
:1050D000D6018C910E949117F60181818F3F69F072
:1050E00061E09681911101C060E00E94621761E069
:1050F000D60111968C910E949117F60182818F3F03
:1051000019F060E00E94911760E0D60113968C912F
:105110000E949117F60184818F3F19F060E00E9490
:105120009117D60115968C918F3F19F060E00E947F
:105130009117EFB6F89480913302811127C0E8EF00
:10514000F5E08491ECE0F6E09491E82FF0E0EE0FCA
:10515000FF1FE652FA4FA591B491EC91E92321F497
:1051600061E08AE00E94621761E08AE00E94911784
:105170008CB580618CBD8CB580648CBD61E08DE0A8
:105180000E94911761E08BE00E9491178091330299
:105190008F5F80933302EFBE0E94EA0E81E00E948F
:1051A000F423C0902E02D0902F02F60182818F3F0F
:1051B00049F060E00E94621761E0D60112968C917E
:1051C0000E9491170E94090F625C7F4F8F4F9F4F83
:1051D0000E94200FF60182818F3F19F060E00E944B
:1051E00091170E94090F685C7E4F8F4F9F4F0E945E
:1051F000200F80E00E94232582E40E941F24823138
:1052000009F01AC180912C0290912D02DC01ED91E0
:10521000FC910680F781E02D0995882341F08BE40D
:105220000E941F24682F60618BE40E94322482E078
:105230000E94F91181E00E941F2487708530D1F708
:10524000ACE1CA2EA2E0DA2EBBE28B2EB2E09B2E9E
:10525000F8E0AF2EB12C8CE20E941F248170E82E62
:105260008CE20E941F242E2D30E0082F017010E0E8
:105270002017310781F3F6018181880FE82AE18246
:10528000F1E0AF1AB10839F72FEFC21AD20A8C1425
:105290009D04F1F680E180931C0280E00E942325AA
:1052A0000E94C80F80E490E090930D0480930C045A
:1052B0000E9416268CEC9CE49093140480931304B3
:1052C00081EA97E2AEEBB3E38093A0039093A1034E
:1052D000A093A203B093A3038FE390E09093E10324
:1052E0008093E003209100043091010441EE54E3E7
:1052F00061EC73E34093A4035093A5036093A6036A
:105300007093A7034FE750E05093E3034093E20309
:1053100041E252E464EC73E34093A8035093A90381
:105320006093AA037093AB039093E5038093E40327
:1053300041E655EE6EEA73E34093AC035093AD0340
:105340006093AE037093AF039093E7038093E603FB
:1053500041EA52EF61EB73E34093B0035093B10322
:105360006093B2037093B3039093E9038093E803CF
:1053700041EE5FEF64EB73E34093B4035093B503E6
:105380006093B6037093B7039093EB038093EA03A3
:1053900041E25DE068EB73E34093B8035093B903D7
:1053A0006093BA037093BB039093ED038093EC0377
:1053B00041E65AE16BEB73E34093BC035093BD03AA
:1053C0006093BE037093BF039093EF038093EE034B
:1053D00080E096EDA8ECB3E38093C0039093C10303
:1053E000A093C203B093C30380E890E09093F103CD
:1053F0008093F003C9018F6F9160909301048093B3
:10540000000483E080938604109230028AE390E0E7
:105410000197F1F761E087E195E30E946B1443E0A7
:105420008E010F5F1F4FB80188EC9FEE0E940F1591
:10543000811107C0E12C1FC065E370E085E691E0B3
:1054400037CEC8010E94FA149B818913F3CF89815A
:1054500083FFF0CF8A818F73873061F761E08DE53C
:1054600090E80E946B14882329F361E088E990EBAF
:105470000E946B14E82EFF2019F188E191E00E9450
:10548000561383E191E00E943B138E2D90E00E9421
:105490003D148EE091E00E943B1381E090E00E9479
:1054A0003D1481E080933B028DE391E00E9456130E
:1054B00081E495E00E94C00D81E00E940A0C0AC0C0
:1054C0000E94100C8111DDC482E080933B0288E0D1
:1054D0000E94430B96B198708091F205811104C02F
:1054E00081E0911104C002C081E0911180E08093BD
:1054F00063065E0181E1A80EB11C72E3672E712C78
:10550000EFE68E2EE6E09E2EF0903B02F1106BC28D
:105510008091F3050E940A0C80E00E94060A109216
:10552000320281E080933402EAEFF5E0019000203E
:10553000E9F7DF0112972D014AEFC42E45E0D42E82
:1055400056E6252E61E6362EF6018081882309F481
:1055500031C14C145D0408F42DC165E270E0C60150
:105560000E9477337C01009709F421C1C816D9063F
:1055700071F0DC011C92C6010E94160B811104C05F
:1055800085E2F701808316C1E5E2D701EC93D701EC
:1055900011968C91853249F488E891E00E94160BAF
:1055A0006701B2E0CB0ED11CCFCF882309F402C132
:1055B000F7019281992309F4FDC0893651F08235B3
:1055C00009F469C431E0813481F030E0893411F0AC
:1055D0001BC031E04091F5055091F6055A8F498F77
:1055E0002FEF1BC0813409F05EC441E050E06091B0
:1055F000640670916506613D774010F040E050E030
:105600005A8F498F20E009C0823461F740916406C7
:10561000509165065A8F498F22E086E0E0E0F1E084
:10562000D80101900D928A95E1F7943619F49A8386
:105630001B8226C0983729F4332311F182E38B8330
:105640001FC0923611F419821BC0933611F499834E
:1056500017C09234A9F4898D9A8D892B49F084E77B
:10566000898382E78A8385E78B8385E68C8308C0FC
:1056700029823A828CE68B8383E78C8385E68D834F
:105680008981811127C0332311F0E1E001C0E2E0FC
:1056900080913202282F30E0A9014E0F511D433373
:1056A00051050CF07FC0D901A159B94F998D9C9338
:1056B000A1E0A80FE13029F0B0E0A159B94F9A8DCF
:1056C0009C938E0F80933202E82FF0E0E159F94F5E
:1056D000108268C0833609F050C0898D9A8D2223CC
:1056E00089F0263679F0283629F4B3010E944E302D
:1056F000CB0108C0223041F0273631F0233709F0C2
:1057000051C002C053E001C054E040913202642F06
:1057100070E0FB01E50FF11DF3970CF043C03091F1
:105720003402E1E0E30FE0933402FB01E159F94F69
:105730003083E1E0E40FF0E0E159F94F2083E3E04A
:10574000E40F22E0240F30E0533039F4E0933202CA
:10575000F901E159F94F808325C06AE070E00E94A9
:105760004E30D901A159B94F7C934C5F409332021E
:10577000F0E0E159F94F608315C08A8D8F93898DD0
:105780008F931F930F931F9226E02F93BF92AF9298
:105790000E948233C5010E94160B0FB6F894DEBF3B
:1057A0000FBECDBF670193E0C90ED11CCDCEC6019F
:1057B0000E94160B80913202882309F44BC00E948C
:1057C0002D250E94100CF09032021092310280912F
:1057D0000C0487FD3DC00E942D25A4E3AF1508F100
:1057E0008114910441F04F2D50E06FE676E088E19E
:1057F00094E00E946E331092160481E080931504A9
:10580000F092170480910C0490910D049C01286083
:1058100030930D0420930C0482FF10928B040E949D
:105820002C1E0E9485266B017C0180913102823002
:1058300078F40E942D250E948526DC01CB018C196D
:105840009D09AE09BF0981319742A105B10568F3F1
:105850000E942D250E942D258091F305882319F0A3
:1058600080E00E940A0C96B198708091F205811137
:1058700006C081E0911101C080E0F82E04C0FF2431
:10588000F3949111F12C809163068F1551F0809162
:10589000F3050E940A0CF092630688E00E94430B15
:1058A000EDC28091F7059091F805009719F0282F27
:1058B000892F02C021E080E02093390280933A02D0
:1058C000109235021092360210923702109238026E
:1058D00032E0E32EF12C80E00E949F0B40913502D4
:1058E0005091360260913702709138021A012B01F3
:1058F000FFEF2F1A3F0A4F0A5F0A209235023092BB
:10590000360240923702509238022091F7053091CA
:10591000F805232B21F4F0923A02E092390220910B
:10592000390230913A022150310930933A022093E2
:105930003902811103C0121613066CF226B12870C9
:105940009091F205911104C091E0211104C002C0B0
:1059500091E0211190E090936306823009F47CC2BB
:10596000ADE3B5E2A20191010E94DA30EFB7F894FD
:10597000C090AC06D090AD06E090AE06F090AF06B9
:10598000DC01CB018C0D9D1DAE1DBF1D8093AC06AF
:105990009093AD06A093AE06B093AF06C090B0064C
:1059A000D090B106E090B206F090B30668E476E7D6
:1059B00081E990E00E943230DC01CB012EE0B69507
:1059C000A795979587952A95D1F7C80ED91EEA1EF7
:1059D000FB1EC092B006D092B106E092B206F092E1
:1059E000B306EFBF4BC221E0F21238C28091A90684
:1059F00081110AC08091A8060E943814F092A9066D
:105A000010923E051092AA0681E495E00E943B0D9B
:105A1000892B09F415C281E495E00E94190D482EE6
:105A20009091AA068091A706981728F08BE891E03C
:105A30000E94E4127FC08DE0481629F09AE04916D2
:105A400011F020E017C066E970E080E090E00E946D
:105A5000CD1781E495E00E943B0D892B51F081E444
:105A600095E00E942D0D8D3009F410C28A3009F4A2
:105A70000DC221E08091A906813009F05EC030910D
:105A8000AA068091A5069091A606211103C0A0E266
:105A90004A1273C0FC01E30FF11D10823090A4067E
:105AA000C090A506D090A606E090A206F090A306AE
:105AB000512C3514D9F1B701C6010E94FE2FB6E072
:105AC000EB0EF11C5394892BA1F715147CF5E0E241
:105AD0004E1204C080E20E94381402C00E943713A4
