:100000000C943E040C945A0B0C94870B0C946604CD
:100010000C946F0B0C9466040C940C0B0C946604FB
:100020000C9466040C9466040C9466040C946604A8
:100030000C9466040C9466040C9466040C94660498
:100040000C9457270C9466040C94BE0D0C94980DD8
:100050000C9466040C94330C0C9466040C946604A3
:100060000C949F080C9466040C9466040C9466042B
:100070000C9466040C9466040C9466040C94660458
:100080000C9466040C9466040C9466040C94660448
:100090000C9466040C9466040C9466040C94660438
:1000A0000C9466040C9466040C9466040C94660428
:1000B0000C946604872F8A2F8D2F902FA32FAD2F9E
:1000C000AF2FC42FC82FC82FDA2FEA2FE82FEE2F1B
:1000D000EE2FD906DB065C075A0741077D0782072A
:1000E0007B078207820782077D07820782078207D4
:1000F000790779075C265F265226562680268026B9
:10010000632667266D267126802677267B26524F2A
:100110004B3A00436F6E6E656374696E672E2E2EC8
:1001200000534F4B3A000A4E6F74696669636174FD
:10013000696F6E206D6F646500524F4B3A00534FEC
:100140004B3A000A436F6E66696775726174696F36
:100150006E206D6F6465005054582D41424F5254CB
:10016000005B772F726565645D3A005B736C656553
:10017000705D0073697A655D3A005B7061796C6FE0
:100180006164004E6F746966792E2E2E000A496EE6
:1001900076616C696420636F6D6D616E6400426F9F
:1001A000726F7352656564323420636F6E6669677F
:1001B00020636F6E736F6C65205B424D3C54544EF0
:1001C0003E56335D2054797065202768656C702732
:1001D00020746F2073686F7720636F6D6D616E643C
:1001E00073005B74706C5D5061796C6F6164207436
:1001F000656D706C6174653A005B6A73665D4A6F29
:10020000696E2053463A005B73665D53463A005B65
:10021000706F725D506F72743A000A5B6368615D63
:100220004368616E6E656C3A000A5B61706B5D419C
:1002300070704B65793A000A5B6175695D41707059
:100240004555493A005B6475695D44657645554995
:100250003A005B6D6F645D5266204D6F64653A00D5
:100260005B6163635D41636375726163793A005BEF
:100270007265706F5D5265706F7274286D756C2950
:100280003A005B69645D44657669636549443A0098
:100290005B65696E745D45496E7420656E61626C64
:1002A00065643A005B6C65645D4C65643A005B694B
:1002B0006E765D496E762E20726565643A005265F1
:1002C000626F6F7421000A5B4552524F525D0A0003
:1002D0000A5B4F4B5D0A002D2D2D434F4D4D414E76
:1002E00044532D2D2D3A0A4D6973633A0A3D3D3D25
:1002F0003D3D0A68656C70202D2073686F77732010
:1003000074686973206D73670A76657220202D20EA
:1003100073686F77732076657273696F6E206261A0
:100320006E6E65720A73686F77202D2073686F7721
:10033000732063757272656E7420636F6E66696791
:1003400075726174696F6E0A73656E20202D20735B
:10035000686F77732073656E736F72732073746147
:100360007475730A7265626F202D207265626F6FFB
:1003700074206465766963650A66616320202D20B8
:100380006F7665727269646520636F6E6669672057
:100390007769746820666163746F7279206465663A
:1003A00061756C74730A47656E6572616C3A0A3DDB
:1003B0003D3D3D3D3D3D3D0A696E76203C312F304F
:1003C0003E2020202D20696E76657274207265654E
:1003D000642073656E736F722072656164696E6705
:1003E0000A6C6564203C312F303E2020202D206295
:1003F0006C696E6B206C6564206F6E206E6F746923
:100400006669636174696F6E0A65696E74203C3158
:100410002F303E20202D20656E61626C652065784E
:100420007465726E616C20696E7465727275707439
:100430000A6964203C6E756D6265723E202D2073E2
:10044000657420313662697420696E7465676572FF
:100450002049440A7265706F203C6D756C3E202007
:100460002D2073657420706572696F6469632072F2
:1004700065706F7274203D20382A6D756C2073652D
:10048000636F6E64732E28303D64697361626C65BE
:1004900064290A616363203C6E3E20202020202DC9
:1004A000207365742061636375726163792062797A
:1004B00074650A2074706C20203C74656D706C61EA
:1004C00074653E202D20736574207061796C6F61B6
:1004D000642074656D706C6174650A6D6F6465206D
:1004E0003C302D333E202D20736574207261646989
:1004F0006F206D6F646520303D706C61696E2C31CA
:100500003D6D6573682C323D6C6F726177616E0A68
:1005100000455252524F52004D6F6465206368612E
:100520006E676564002F4653463A000504030201D6
:1005300000204643483A0021AB00000001000000C3
:100540000025526325426325416325566300000060
:10055000000000000000000000000000000000009B
:10056000000000000000000000000000000000008B
:10057000000000000000000000000000000000007B
:10058000000000000000000000000000000000006B
:10059000000000000000000000000000000000005B
:1005A0000000000000000200000000000000000049
:1005B000000000000000000000000000000000003B
:1005C0000000000000000001FFFFFF3A4556200038
:1005D0003A4A46003A4A4F2D003A4A472D003A54CB
:1005E000582D003A54584400140E0B080502000020
:1005F00000000000000000000004000000020000F5
:100600000001000080000000400000002000000009
:100610001000000005000000C040000000000023A2
:100620000026002900000000006700CC00B801543B
:10063000039D07637C777BF26B6FC53001672BFEF0
:10064000D7AB76CA82C97DFA5947F0ADD4A2AF9C28
:10065000A472C0B7FD9326363FF7CC34A5E5F171FF
:10066000D8311504C723C31896059A071280E2EB08
:1006700027B27509832C1A1B6E5AA0523BD6B32998
:10068000E32F8453D100ED20FCB15B6ACBBE394A25
:100690004C58CFD0EFAAFB434D338545F9027F502C
:1006A0003C9FA851A3408F929D38F5BCB6DA21102B
:1006B000FFF3D2CD0C13EC5F974417C4A77E3D64C3
:1006C0005D197360814FDC222A908846EEB814DEF3
:1006D0005E0BDBE0323A0A4906245CC2D3AC62917D
:1006E00095E479E7C8376D8DD54EA96C56F4EA6567
:1006F0007AAE08BA78252E1CA6B4C6E8DD741F4B66
:10070000BD8B8A703EB5664803F60E613557B986D3
:10071000C11D9EE1F8981169D98E949B1E87E9CE80
:100720005528DF8CA1890DBFE6426841992D0FB095
:1007300054BB1653485443335B48554D5D286325DD
:10074000293A0053485443335B54454D505D286368
:1007500043293A005B5643435D286D56293A005BB6
:10076000564241545D286D56293A0068656C700008
:100770000076657200000073686F77000073656E25
:100780000000007265626F0000666163000000692E
:100790006E760000006C656400000065696E740090
:1007A000006964000000007265706F00006163639F
:1007B00000000074706C0000006D6F6465000064E0
:1007C000756900000061756900000061706B0000D0
:1007D00000706F72000000636861000000736600C3
:1007E0000000006A73660000002020200E11140C27
:1007F0000F12090C0F06090C03060900030600007E
:100800000001000100010000A027BE33E034C13325
:100810002042C433A127BE33E134C1332142C43363
:10082000FF0605040302010900FF00000000240088
:1008300027002A0000000000250028002B000404E7
:100840000404040404040202020202020303030378
:100850000303010204081020408001020408102054
:10086000010204081020000000080002010000033B
:10087000040700000000000000006D3011241FBEBE
:10088000CFEFD8E0DEBFCDBF12E0A0E0B1E0E0EEF8
:10089000FEE602C005900D92A831B107D9F726E017
:1008A000A8E1B2E001C01D92A53BB207E1F714E058
:1008B000CEE3D4E004C02197FE010E94AB31CD33DA
:1008C000D107C9F70E94A1270C946E370C94000041
:1008D00085ED8093BC008091BC0084FDFCCF10921C
:1008E0001A05089540916002262F30E0240F311D33
:1008F00021323105DCF420911A052430C9F4FC01C1
:1009000080E090E0861758F4309160022191DC017C
:10091000A05CBD4FA30FB11D2C930196F3CF809126
:100920006002680F6093600280E0089581E008959E
:1009300082E00895089508950895E091D304809188
:10094000D204E81730F4F0E0EC52FB4F808190E0E5
:1009500008958FEF9FEF08959091D3048091D20472
:10096000981750F4E92FF0E0EC52FB4F208130E073
:100970009F5F9093D30402C02FEF3FEFC90108950A
:100980008091D20490E02091D304821B91090895B4
:10099000CF92DF92EF92FF920F931F93CF93DF934B
:1009A0007C01CB018A0120913D05222389F0EB01D6
:1009B0006B01C40ED51ECC15DD0569F06991D70118
:1009C000ED91FC910190F081E02DC7010995F3CFE5
:1009D000642F0E947204C801DF91CF911F910F9183
:1009E000FF90EF90DF90CF900895CF93DF931F9209
:1009F000CDB7DEB7698320913D052223D1F0209148
:100A00003B05203240F021E030E0FC0133832283BB
:100A100080E090E015C080913C05E82FF0E0E55EB5
:100A2000FA4F998190838F5F80933C0580933B05BB
:100A300005C061E0CE0101960E94720481E090E061
:100A40000F90DF91CF91089580E090E008950FB668
:100A5000F894A8959091600098619093600010922E
:100A600060000FBE8A30A9F083FD02C098E001C08B
:100A700098E28770892B98E10FB6F894A895909327
:100A800060000FBE8093600080916000806480935E
:100A9000600083B7817F682B63BFF89483B7816060
:100AA00083BF85B7806685BF8F7D85BF7894889525
:100AB00083B78E7F83BF789408950C94C31DCF9322
:100AC000DF93C82FD62F10927C0480E880937B049C
:100AD00083E080938604C930A8F52091000430910A
:100AE0000104A0EAB3E0E0EEF3E080E090E061E032
:100AF00070E0C81791F01D921D921D921C921397E1
:100B000011821082AB01082E02C0440F551F0A94B7
:100B1000E2F740955095242335230196149632969A
:100B20008930910531F7309301042093000481E36B
:100B300095E00E94C2126C2F70E080E090E04AE0E5
:100B40000E945F1389EF8D0F8630D0F4ED2FF0E017
:100B5000EC5DFA4FC49164E18C2F0E94992585E2E7
:100B600095E00E94C2126D2F70E080E090E04AE0B4
:100B70000E945F1383E20E9400148C2F0E94A01336
:100B80000E94BE1281E495E0DF91CF910C94520D4A
:100B90004F925F926F927F928F929F92AF92BF928D
:100BA000CF92DF92EF92FF920F931F93CF93DF9339
:100BB0006B017C01EA0134E0239FF0011124E8502D
:100BC000FA4F85909590A590B49085E08093750339
:100BD00060911304709114046115710509F447C004
:100BE00080E090E0A70196010E94D931722E032F78
:100BF000142FB52FF62FE72F582E692EA0E00E9454
:100C0000A93284F4215031094F4F5F4F6F4F7F4F0E
:100C10008F4F9F4F722E032F142FB52FF62FE72FD4
:100C2000582E692E272D302F412F5B2F6F2F7E2FAF
:100C3000852D962D00E10E948B3229013A01AAEF01
:100C4000B0E0A50194010E94CE31641575058605BA
:100C5000970524F48FEF8093750309C0C301B20197
:100C6000A50194010E948C312B5F20937503809124
:100C7000600390916103A0916203B0916303C80E79
:100C8000D91EEA1EFB1ED501C40123E0880F991F5F
:100C9000AA1FBB1F2A95D1F7C80ED91EEA1EFB1E3C
:100CA000A0917503B0E0A50194010E94CE31A70187
:100CB0009601261B370B480B590B20936403309386
:100CC00065034093660350936703CA01B9016D57EA
:100CD000710981099109AE01DF91CF911F910F91A7
:100CE000FF90EF90DF90CF90BF90AF909F908F904C
:100CF0007F906F905F904F900C94F725A0E6B3E043
:100D000082E080938C04E0918604F0E0EF5DF74F81
:100D1000E491F0E0EF77E0685496FC93EE935397FC
:100D200040918704509188046091890470918A04ED
:100D30001D964D935D936D937C93509710928E0406
:100D40000E947C0E80E00E94F6110C945A0F2F92A4
:100D50003F924F925F927F928F929F92AF92BF92FB
:100D6000CF92DF92EF92FF920F931F93CF93DF9377
:100D70008C017B01C0E0D0E0BB24B39437E8A32E04
:100D800046E8942ECC24C394D12CCE15DF050CF06C
:100D9000B9C0D801AC0FBD1FEC914E2F50E0FA0145
:100DA0003297E131F10508F0ADC0E759FF4F0C94DF
:100DB000AB312396EACF11968C90119712962D9114
:100DC0003C91139714967C902596A0927F04872DD2
:100DD000807F09F094C02115310509F490C08091FD
:100DE00000049091010480959095822393230097AD
:100DF00009F085C0A0EAB3E0A601082E02C0440FA6
:100E0000551F0A94E2F7BA0162237323672B69F036
:100E10002D903D904D905C901397232824282528F1
:100E200021F4409550952423352301961496803162
:100E3000910511F73093010420930004882D8295C9
:100E40008F70E82FF0E0EF5DF74FE491EF3F29F46A
:100E500090917F049D7F90937F0490917F049F7772
:100E6000973061F4972D9F7090930E04E82DEF70EA
:100E7000F0E0E851FA4F64910E949925B0927C0409
:100E800084CFB092800420917203022E000C330BA9
:100E9000C901029697FD0396959587959595879537
:100EA0008F31910514F48F7301C08FE18093810419
:100EB00021966BCF259669CF11968C918F3F49F47F
:100EC00020910C0430910D04206430930D04209384
:100ED0000C048F70809303040E949B0E60930404A3
:100EE000709305048093060490930704B0928404E1
:100EF00002C024964ACF229648CF269646CF90929B
:100F00007F049CCFCE01DF91CF911F910F91FF9075
:100F1000EF90DF90CF90BF90AF909F908F907F9099
:100F20005F904F903F902F900895CF92DF92EF9275
:100F3000FF92CF93C82F0E944B276B017C014AE0A0
:100F40000E945F13CA3031F483EE95E00E94DD12F7
:100F500082E01DC0C13139F58EED95E00E94C212CC
:100F600060916D0370916E0380916F039091700397
:100F70004AE00E945F138FE20E94001480911004E7
:100F80000E94A01380913002833021F481E080938D
:100F9000310236C0C0928302D0928402E092850270
:100FA000F09286022DC0C53059F489ED95E00E947B
:100FB000C212609161068FEF0E945F0581E015C04B
:100FC000C63061F484ED95E00E94DD126091600608
:100FD00080915F060E945F0583E007C0C83041F43E
:100FE00080ED95E00E94DD1282E08093300208C01F
:100FF0008BEC95E00E94C2128C2F90E00E9433147B
:1010000081E495E00E94520DCF91FF90EF90DF9028
:10101000CF900C94C31D0E94AD250E94521D8CE000
:101020000C949507CF92DF92EF92FF92CF93DF93CC
:10103000D82F0E946E11C82F0E946E112C2F30E005
:10104000322F2227A901482BCA016C01853254EFA7
:10105000950720F024E2C21A24EFD20AE12CF12CE9
:10106000DD2371F099276D2F70E00E94563124E244
:1010700034EFDC010E94C731C60ED71EE81EF91EF0
:10108000C701B601DF91CF91FF90EF90DF90CF9035
:101090000895AF92BF92CF92DF92EF92FF920F939B
:1010A0001F93CF93DF93FC011A141B04BCF580E15E
:1010B000A7E8B2E0ED0119928A95E9F791E09093E3
:1010C000960290938702EF2809F490E090938C02A7
:1010D00040938D0250938E0260938F027093900222
:1010E0000093910210939202209393023093940202
:1010F00090E1ACE9B2E001900D929A95E1F7A5017B
:10110000B60184E0DF91CF911F910F91FF90EF9096
:10111000DF90CF90BF90AF900C948510DF91CF916E
:101120001F910F91FF90EF90DF90CF90BF90AF9005
:101130000895FC01608171818281938108951F92DD
:101140000F920FB60F9211242F933F934F935F93FB
:101150006F937F938F939F93AF93BF93EF93FF937F
:101160008091B900887F803609F49CC068F5883288
:1011700009F45BC090F4803109F454C038F488233A
:1011800009F4F6C0883009F44DC0F6C0883109F47E
:101190004CC0803209F45DC0EFC0803409F468C0EF
:1011A00048F4803309F455C0883309F0E5C08093D2
:1011B0001805D8C0803509F44FC0883509F45DC0E2
:1011C000883409F0D9C0D6C0883909F4C7C0A8F45A
:1011D000883709F467C038F4883609F463C080376B
:1011E00009F460C0C9C0883809F4B8C0803909F46E
:1011F0005FC0803809F0C0C05BC0803B09F486C086
:1012000038F4803A09F466C0883A09F47FC0B4C063
:10121000803C09F4A7C0883C09F4A4C0883B09F4C9
:101220008AC0AAC08091F50410C0909117058091E2
:101230001605981770F5E091170581E08E0F8093E1
:101240001705F0E0EA50FB4F80818093BB0085ECEE
:1012500086C0809318058EC0E091170581E08E0F3F
:10126000809317058091BB00F0E0EA50FB4F80832C
:1012700090911705809116056EC0E091170581E0E9
:101280008E0F809317058091BB00F0E0EA50FB4F72
:1012900080838091190581116DC081E08093F404F1
:1012A00084EA61C083E080931A0510928202CFCF56
:1012B00080918202803208F051C0E091820281E088
:1012C0008E0F809382028091BB00F0E0EE59FD4FBB
:1012D0008083BDCF85EC8093BC0010921A0580916D
:1012E0008202803230F4E0918202F0E0EE59FD4F4C
:1012F00010826091820270E0E0911802F091190270
:1013000082E692E009951092820236C084E08093D2
:101310001A051092610210926002E0911A02F09197
:101320001B02099580916002811105C081E08093C4
:10133000600210924002E091610281E08E0F809382
:101340006102F0E0E05CFD4F80818093BB009091F2
:10135000610280916002981708F479CF85E8809344
:10136000BC000AC085EC8093BC0010921A0504C032
:10137000109218050E946804FF91EF91BF91AF9100
:101380009F918F917F916F915F914F913F912F919D
:101390000F900FBE0F901F901895CF92DF92EF9293
:1013A000FF920F931F93CF93DF93EB017B01E40E2A
:1013B000F51E182FCE15DF0571F00991C12ED12C25
:1013C000C6010E941031081721F0602FC6010E944B
:1013D00018311F5FEFCFDF91CF911F910F91FF90D9
:1013E000EF90DF90CF900895EF92FF921F93CF93ED
:1013F000DF93EB017B01E40EF51E182FCE15DF0500
:1014000039F0812F90E00E94103189931F5FF6CF51
:10141000DF91CF911F91FF90EF900895CF93DF93CD
:1014200000D0CDB7DEB71A82198242E050E0BE018B
:101430006F5F7F4F0E94F40989819A810F900F900E
:10144000DF91CF910895CF93DF931F92CDB7DEB791
:10145000198241E050E0BE016F5F7F4F0E94F409A6
:1014600089810F90DF91CF9108951F93CF93DF93E0
:10147000C82F80E00E940E0AC11156C081329B4ADB
:1014800009F052C082E00E94230A91E0811101C05C
:1014900090E09093F20583E00E94230A91E081118D
:1014A00001C090E09093F30584E00E94230A91E04C
:1014B000811101C090E09093F40585E00E940E0A2E
:1014C0009093F6058093F50587E00E940E0A9093AD
:1014D000F8058093F70589E00E94230A80936E0641
:1014E00044E650E06AEF75E08AE00E94F4098FE676
:1014F0000E94230A8093F90581E90E94230A8093C0
:101500005F0682E90E94230A8093600683E90E94B5
:10151000230A8093610680E90E94230A8093620671
:10152000DF91CF911F910895C0E0D0E0FE01E95C0A
:10153000FA4F1491CE010E941031181721F0612F3B
:10154000CE010E9418312196C439D10579F79ACF7E
:10155000209132029F938F93822F90E022E330E01C
:10156000281B390B3F932F938159994F9F938F934A
:101570000E947634E09132028E0F809332020F90F7
:101580000F900F900F900F900F90833338F082E3FD
:10159000809332021092A10680E00895E82FF0E0D7
:1015A000E159F94F108281E008950FB6F894A8959B
:1015B00090916000986190936000109260000FBE5F
:1015C0008A3049F191E090933F0283FD02C098E098
:1015D00001C098E28770892B98E10FB6F894A8951E
:1015E000909360000FBE80936000809160008064E3
:1015F0008093600083B7817F83BFF89483B7816055
:1016000083BF7894889583B78E7F83BF78948091C9
:101610003F028111EFCF08951F920F920FB60F92E4
:1016200011248F930FB6F894A8958091600088617B
:1016300080936000109260000FBE10923F028F9165
:101640000F900FBE0F901F901895F8949BE088E1C3
:101650000FB6F894A895809360000FBE9093600039
:10166000FFCF811102C089E001C08AE010923E02E2
:1016700090913D02992311F0E99A01C0E998909167
:10168000680092609093680090916C0099609093CC
:101690006C0064E00E94270580913E02E9989091D9
:1016A00068009D7F9093680090916C00967F909366
:1016B0006C0008951F920F920FB60F9211248F9312
:1016C000F89483B78E7F83BFE89884E080933E02CE
:1016D00078948F910F900FBE0F901F9018951F92C6
:1016E0000F920FB60F9211248F93F89483B78E7FC9
:1016F00083BF309B02C082E001C081E080933E0244
:1017000078948F910F900FBE0F901F9018951F9295
:101710000F920FB60F9211248F93F89483B78E7F98
:1017200083BFE99883E080933E0278948F910F9075
:101730000FBE0F901F901895882311F05C9A0895A2
:101740005C9808958F929F92AF92BF92CF92DF9252
:10175000EF92FF920F931F9380913002833009F430
:1017600067C0811125C081E00E949C0B109283020A
:101770001092840210928502109286020E94521DDD
:1017800080915F06893010F4809302048091830277
:1017900090918402A0918502B0918602892B8A2BB8
:1017A0008B2B19F40E94C424F1CF80E00E949C0B83
:1017B0000E94C4240E944B276B017C0188EE882E76
:1017C00083E0982EA12CB12C809130028230F0F46D
:1017D0000E94C4240E944B278B019C010C191D09F7
:1017E0002E093F09013C17422940310578F4A50133
:1017F00094010E946A31653F71408105910510F0A6
:1018000081E001C080E00E949C0BDECF80E00E945E
:101810009C0B83E890E090931404809313040E943F
:10182000C42481E090913002933019F080E001C02F
:1018300081E01F910F91FF90EF90DF90CF90BF90CC
:10184000AF909F908F9008951092D1041092D00481
:1018500080933C0262E08AE00E94270580913C026E
:101860008111F8CF08951F920F920FB60F92112495
:101870002F933F934F938F939F9390917800409134
:1018800079002091D0043091D104892F90E0942BDD
:10189000820F931F9093D1048093D00480913C02D7
:1018A000882329F080913C02815080933C029F91D3
:1018B0008F914F913F912F910F900FBE0F901F90DE
:1018C0001895CF93DF931F92CDB7DEB7698341E0C0
:1018D00050E0BE016F5F7F4F0E94CD090F90DF91F6
:1018E000CF910895CF92DF92EF92FF920F931F93C3
:1018F000CF93DF936C017A018B01C0E0D0E0CE156D
:10190000DF0581F0D8016D918D01D601ED91FC913B
:101910000190F081E02DC6010995892B11F02196E7
:10192000EECF7E01C701DF91CF911F910F91FF9004
:10193000EF90DF90CF900895FC01538D448D252FBB
:1019400030E0842F90E0821B930B541710F0CF9659
:10195000089501970895FC01918D828D981761F08B
:10196000828DDF01A80FB11D5D968C91928D9F5FD6
:101970009F73928F90E008958FEF9FEF0895FC0181
:10198000918D828D981731F0828DE80FF11D858D34
:1019900090E008958FEF9FEF0895FC01918D228DC7
:1019A000892F90E0805C9F4F821B91098F7399274C
:1019B000089581E495E00E94CD0C21E0892B09F483
:1019C00020E0822F0895FC01848DDF01A80FB11D56
:1019D000A35ABF4F2C91848D90E001968F73992765
:1019E000848FA689B7892C93A089B1898C91837043
:1019F00080648C93938D848D981306C00288F3893C
:101A0000E02D80818F7D80830895EF92FF920F9368
:101A10001F93CF93DF93EC0181E0888F9B8D8C8D9A
:101A2000981305C0E889F989808185FD26C0F62EC6
:101A30000B8D10E00F5F1F4F0F731127E02E8C8D61
:101A4000E8120CC00FB607FCFACFE889F98980814B
:101A500085FFF5CFCE010E94E30CF1CF8B8DFE0107
:101A6000E80FF11DE35AFF4FF0829FB7F8940B8FF8
:101A7000EA89FB89808180620AC09FB7F894EE8969
:101A8000FF896083E889F98980818370806480831D
:101A90009FBF81E090E0DF91CF911F910F91FF9068
:101AA000EF900895CF93DF93EC01888D8823C9F0E0
:101AB000EA89FB89808185FD05C0A889B9898C9157
:101AC00086FD0FC00FB607FCF5CF808185FFF2CFF2
:101AD000A889B9898C9185FFEDCFCE010E94E30CD6
:101AE000E7CFDF91CF91089580E090E0892B21F03E
:101AF0000E94D90C81110DC080E090E0892B71F01B
:101B000080E090E0892B51F00E940000811104C018
:101B100008950E940000F0CF0C940000089580E02A
:101B20000895089560E070E0CB0108950E94553457
:101B30001F920F920FB60F9211242F933F934F9342
:101B40005F936F937F938F939F93AF93BF93EF9325
:101B5000FF9381E495E00E94E30CFF91EF91BF9128
:101B6000AF919F918F917F916F915F914F913F9135
:101B70002F910F900FBE0F901F9018951F920F92EC
:101B80000FB60F9211242F938F939F93EF93FF9390
:101B9000E0915105F09152058081E0915705F09157
:101BA000580582FD12C0908180915A058F5F8F7316
:101BB00020915B05821751F0E0915A05F0E0EF5B50
:101BC000FA4F958F80935A0501C08081FF91EF9164
:101BD0009F918F912F910F900FBE0F901F9018958E
:101BE000CF93DF9300D000D0CDB7DEB7FB013C969A
:101BF0009B01205F3F4FDE01119691919D932E171F
:101C00003F07D9F799812A8129832B812A832C8147
:101C10002B839C839E012B5F3F4FDE0111969C918D
:101C2000E92FE295EF7040E1E49FF0011124ED5CB3
:101C3000F94F9F70E90FF11DE491ED93A217B307DF
:101C400071F791E04BE1813041F0592F5078990FB5
:101C5000503809F494278150F6CF898198279983C9
:101C600094E0FE013196DB014C91808184278D93B5
:101C700081932E173F07C1F791506C5F7F4F9111F1
:101C8000F0CF0F900F900F900F90DF91CF910895AC
:101C9000ECE4F3E084819581948396819583978128
:101CA00096838783808592859087828781859385B7
:101CB000918783878785968597879585968794856D
:101CC000958784870895CF932CE433E0BC01605F4F
:101CD0007F4FDC01F90140E05D91C0815C275083BA
:101CE0004F5F34964430C1F72F5F3F4F049668171B
:101CF000790779F7CF910895F89480919B028F5FCF
:101D000080939B0208958C01EB018BE991E00E9486
:101D1000AC120E94BE12C8010E94AC128AE30E945B
:101D20000014CE010E94F01381E495E00E94520D50
:101D30000E947C0EFFCF0E94EC26DC01CB0124E048
:101D4000B695A795979587952A95D1F730919702E3
:101D5000232F2B272870230F20939702BC01CD013E
:101D6000922B0895CF92DF92EF92FF926B017C014C
:101D70000E949B0EC61AD70AE80AF90A89EEC8160D
:101D800083E0D806E104F1046CF060E170E080E0EB
:101D900090E00E94112788EEC81A83E0D80AE10873
:101DA000F108ECCF1C141D041E041F049CF434E045
:101DB000CC0CDD1C3A95E1F78AE1C816D10450F04D
:101DC00086E1C81AD108C60196958795969587959C
:101DD0000197F1F7FF90EF90DF90CF9008958F92E9
:101DE0009F92AF92BF92DF92EF92FF920F931F9359
:101DF000CF93DF93D82EEB018A01E22EE0912E02E1
:101E0000F0912F02F08080849184A284B3848114A5
:101E10009104A104B10439F490E4892E92E4992E3E
:101E20009FE0A92EB12C40E251EA67E070E090E01B
:101E300084169506A606B70640F4769567955795DD
:101E400047959F5F9630A1F797E081E08927982F0B
:101E5000906A969581709CBD8DBD60E08F2D0E942B
:101E60008126DEBC00000DB407FEFDCF8EB50C0F41
:101E70001D1FC017D10779F0E11002C0888101C091
:101E800080E08EBD00000DB407FEFDCF8EB5E110E1
:101E900088832196EECF61E08F2DDF91CF911F9146
:101EA0000F91FF90EF90DF90BF90AF909F908F9039
:101EB0000C948126AF92BF92CF92DF92EF92FF9265
:101EC0000F931F93CF93DF9380919B028150809358
:101ED0009B028111FFC0789408E912E0C0E0D0E0D5
:101EE000BB24B394E0912E02F0912F02EC0FFD1F62
:101EF00023812F3F09F4E7C0F801D080ED2CF12CAD
:101F000030E0F901EA59F74F8491F901EE5AF74FA1
:101F1000C490F901E25CF74FA490AA20A1F08111CE
:101F20000E944826EA2DF0E0EE0FFF1FE55EF94F14
:101F3000A591B491EC91CE2231E020E009F430E09B
:101F4000832F922F02C080E090E0E816F90609F492
:101F5000BAC0DB24F801D082DD2009F4B4C00E94AD
:101F60009B0E6B017C0181E00E94B62387FF69C054
:101F700082E10E94B62383FF0EC0F2E0CF1AD1089F
:101F8000E108F108C0926003D0926103E09262031D
:101F9000F09263034DC086FF48C0E0917303F09157
:101FA0007403CF0123E0969587952A95E1F7837016
:101FB00061F4E770F0E0EE0FFF1FEB5DF94F8591E4
:101FC0009491C81AD90AE108F108C0926403D0922A
:101FD0006503E0926603F09267038DE10E94B623E9
:101FE00082FF02C082E201C083E10E94B623809397
:101FF0008E0480E10E94B623682F8DE00E94C923E1
:1020000040918E0450E021E06FE874E080E00E948F
:10201000EF0E89E10E94B623809372038AE10E9449
:10202000B6238D538093710303C087FD10928E04F5
:102030006FEF81E10E94C9236FEF82E10E94C92303
:1020400039C08EE30E94B623A82E8FE30E94B623E8
:1020500083FF09C0C0926003D0926103E0926203E3
:10206000F092630327C082FF1AC0C0926403D0922B
:102070006503E0926603F092670382E30E94B62351
:1020800080938E04482F50E021E06FE874E080E0F8
:102090000E94EF0E10927203109271030BC0A2FE09
:1020A00003C010928E0406C068EF73E084EA91E0EA
:1020B0000E94830E80E00E94BA2480917E0390915A
:1020C0007F030E94B11621960F5F1F4FC330D105C9
:1020D00009F008CFDF91CF911F910F91FF90EF9002
:1020E000DF90CF90BF90AF900895982FE0912E028F
:1020F000F0912F0281818F3F39F061E02681291311
:1021000001C060E00C94812608958F929F92AF9257
:10211000BF92CF92DF92EF92FF920F931F93CF93D4
:10212000DF93CDB7DEB760970FB6F894DEBF0FBE72
:10213000CDBF7B018A01282F30E0277F2230310577
:1021400049F02430310509F49CC0232B09F0B0C0BC
:10215000D12C79C083FD0CC087E892E00E94D7168D
:1021600030E1832ECE0101966C0147E8942E45C0E4
:1021700080E1E7E8F2E0DF011D928A95E9F7F0CF10
:10218000FC012191CF013C9123272D934F5F7F01CB
:10219000015011094031E1F10115110589F7E42FD2
:1021A000F0E0E957FD4F80818058808301E0D6013F
:1021B000E82D1D92EA95E9F7C6010E94D71619810C
:1021C0001078C6010E94CF17112319F0888989253C
:1021D000888B011122C0F6018191D5019C9189273C
:1021E0008D935D01B7E9AB16B2E0BB06A9F700E03D
:1021F00010E087E892E00E94D71601151105C1F0A2
:10220000C70127E8A22E22E0B22ED50140E0B8CFC8
:102210000115110571F700E0CACF19811078C601C8
:102220000E94CF171123B9F288898925888BD3CFD3
:1022300060918702709188028091890290918A0250
:102240000E94B13138C08D2D90E08017910780F544
:102250008E0D9F1D0E94D716E0E1DE0EF4CF011512
:10226000110551F08D9190818927819301501109B9
:102270007F01E217F30799F7809196028F5F8093B1
:10228000960201151105A1F080E1E7E8F2E0DE0118
:10229000119601900D928A95E1F7CE0101960E9468
:1022A000D716DE011196F7019701205F3F4FDACF75
:1022B00060E070E0CB0160960FB6F894DEBF0FBE11
:1022C000CDBFDF91CF911F910F91FF90EF90DF90E5
:1022D000CF90BF90AF909F908F90089590911C02E7
:1022E000911106C06EE373E084EA91E00E94830ED0
:1022F000903141F440E150E06CE172E080E00E94F6
:10230000851090E0E92FF0E0E45EFD4F80819F5F53
:1023100090931C020895CF93C82F88E80E94A324AD
:1023200081E00E94B62387FD06C06DE672E084EA74
:1023300091E00E94830E81E00E94BA24C23049F4E9
:102340006AE08DE10E94C92360E78EE10E94C92303
:1023500004C00E9442240E94F22361E28CE00E94A9
:10236000C92360E483E20E94C9238091CF048823BB
:1023700031F083E30E94B623682F6F7B05C083E3AF
:102380000E94B623682F606483E30E94C923609192
:1023900075038FE10E94C92364E389E30E94C92386
:1023A00060EC80E40E94C9236FEF82E10E94C923A0
:1023B000EC2FF0E0E85EF94F6491609581E10E94B6
:1023C000C92380E00E947510C1110CC060916403A4
:1023D0007091650380916603909167030E94B20E2D
:1023E00086E001C085E0CF910C94BA24CF93C82F2A
:1023F00081E00E94B623877019F06AEE72E009C08E
:1024000080917303877009F06DC0CC2331F068EBC5
:1024100072E084EA91E00E94830E88E00E94A32487
:1024200081E00E94B62387FF03C06CEB72E0F1CF1E
:1024300081E00E94BA240E94F22361E28CE00E94B3
:10244000C9236EE18DE00E94C9236BE082E10E9406
:10245000C92362E183E10E94C9236AEA8FE10E94F5
:10246000C92362E187E20E94C92368ED80E30E94EC
:10247000C92360E481E30E94C92361EC88E20E94E1
:10248000C92364E989E20E94C92361EC8AE20E94BF
:10249000C9236FEF81E20E94C92362E082E00E94BB
:1024A000C92360E883E00E94C92361E084E00E94C0
:1024B000C92369E985E00E94C92368E380E40E949A
:1024C000C92380E00E9475106091640370916503D8
:1024D00080916603909167030E94B20E85E0CF91D0
:1024E0000C94BA248C2FCF910C948B110F931F93C3
:1024F000CF93DF93C4E6D0E098819E7F9883862BAC
:1025000080937C000AE710E0F8018081886880836E
:102510006AE070E080E090E00E94112782E00E9473
:10252000240C84E00E94240CF8018081877780834A
:102530008881816088838091D0049091D1049695A0
:102540008795969587959093D1048093D004DF91D9
:10255000CF911F910F910895009769F0FC010190B0
:102560000020E9F73197AF01481B590BBC0181E40A
:1025700095E00C94720C80E090E0089586EC91E078
:102580000C94AC120F931F93CF93DF938C01C0E098
:10259000D0E0F801EC0FFD1F6491662341F081E467
:1025A00095E00E94050D892B11F02196F2CFCE0106
:1025B000DF91CF911F910F910895CF93DF930E94E8
:1025C000C212EC010E94BE128C0F9D1FDF91CF91B1
:1025D0000895CF92DF92EF92FF920F931F93CF93C4
:1025E000DF937C01262FE0913F05F0914005309765
:1025F00009F459C0DF010D900020E9F711978D0112
:102600000E1B1F0B09F44FC0C80162E070E00E946E
:102610005631019709F447C0622F70E0660F771FAB
:102620000617170709F03FC0D0E08D2F90E0801704
:102630009107DCF5C0903F05D0904005C80ED91E2B
:10264000F6018081082E000C990B0E945A3490EDFF
:10265000980F9A3038F09FEB980F963028F4C9EC19
:10266000C80F03C0C92F01C0CFEFF6018181082E2A
:10267000000C990B0E945A3490ED980F9A3030F06C
:102680009FEB980F963020F4875303C0892F01C029
:102690008FEFF0E1CF0290011124282BF701219355
:1026A0007F01DE5FC2CF80E001C081E0DF91CF918A
:1026B0001F910F91FF90EF90DF90CF9008958F9230
:1026C0009F92AF92BF920F931F93CF93DF93CDB79B
:1026D000DEB7A1970FB6F894DEBF0FBECDBF19A22B
:1026E000423008F44AE08E010F5D1F4F842E912C7A
:1026F000A12CB12CA50194010E946A31E62FB901E9
:10270000CA0101501109EA3014F4E05D01C0E95C2E
:10271000D801EC93232B242B252B61F7C8010E94B1
:10272000AC12A1960FB6F894DEBF0FBECDBFDF91FD
:10273000CF911F910F91BF90AF909F908F90089570
:10274000CF93DF93682F70E080E090E04AE00E9432
:102750005F13EC010E94BE128C0F9D1FDF91CF9181
:102760000895AF92BF92CF92DF92EF92FF920F93B4
:102770001F93CF93DF9300D01F92CDB7DEB75C01DC
:10278000162F89ECC82E81E0D82E03E0CE010196E9
:102790007C011123B9F0F50181915F011F928F93A4
:1027A000DF92CF921F920F93FF92EF920E947634A6
:1027B000C7010E94AC1211500FB6F894DEBF0FBED5
:1027C000CDBFE7CF0F900F900F90DF91CF911F916A
:1027D0000F91FF90EF90DF90CF90BF90AF90089552
:1027E000CF93DF93BC0180E090E04AE00E945F134A
:1027F000EC010E94BE128C0F9D1FDF91CF910895B6
:10280000682F81E495E00C94050DCF92DF92EF9252
:10281000FF92CF93DF936C01990FEE08FF08F7FE4C
:1028200017C08DE20E940014EC0166277727CB01C8
:102830006C197D098E099F094AE00E945F138C0F75
:102840009D1FDF91CF91FF90EF90DF90CF90089583
:102850004AE0C701B601DF91CF91FF90EF90DF9082
:10286000CF900C945F13CF93DF930E940514EC017B
:102870000E94BE128C0F9D1FDF91CF9108951F9370
:10288000CF93DF93182F292FD62F81E080933D051A
:1028900080E78093AB0610923C0510923B05809137
:1028A000EC059091ED05DC01ED91FC910190F0813A
:1028B000E02D622F0995C82F8091EC059091ED05D0
:1028C000DC01ED91FC910190F081E02D612F0995E3
:1028D00030913B05313208F04AC090911A059111B0
:1028E000FCCF2091AB0642E040931A05D093190526
:1028F0004FEF409318051092170530931605ABE182
:10290000B5E0E6EFF4E040E0431721F05D9151932C
:102910004F5FFACF1092F5043091F504220F232B6C
:102920002093F5042091F404213061F41092F40412
:102930002091F5042093BB002091BC0023FDF8CF2B
:1029400025EC01C025EE2093BC0020911A05223011
:10295000E1F3209118052F3F79F0909118059032FE
:1029600041F090911805903331F094E005C091E06A
:1029700003C092E001C093E010923C0510923B0529
:1029800010923D05911105C09C2F980F81E0923067
:1029900009F080E0DF91CF911F910895FC019C0127
:1029A0002E5F3F4F8FEF41E39191892798E087FF9A
:1029B00003C0880F842701C0880F9150C1F7E21728
:1029C000F30791F70895FF920F931F93CF93DF932F
:1029D000F62ED72FC42F60E00E943F14882309F4FD
:1029E0006CC080911A058111FCCF8C2FC13208F088
:1029F00080E291E090931A05909319052FEF2093B0
:102A0000180510921705280F209316059093F504CA
:102A10009091F504906E9093F5049091F4049130A8
:102A200061F41092F4049091F5049093BB0090919E
:102A3000BC0093FDF8CF95EC01C095EE9093BC00DF
:102A400090911A059130E1F390911705981710F4C1
:102A500080911705A6EFB4E0E4EDF4E090E098175C
:102A600021F02D9121939F5FFACF1092D304909380
:102A7000D2048091EC059091ED05DC01ED91FC9183
:102A80000084F185E02D09952C2F30E08217930703
:102A9000A1F40F2D1D2FCC2391F08091EC05909186
:102AA000ED05DC01ED91FC910284F385E02D0995A3
:102AB000F80181938F01C150EECF80E001C081E029
:102AC000DF91CF911F910F91FF900895CF92DF92E8
:102AD000EF92FF920F931F93CF93DF9300D000D01C
:102AE00000D0CDB7DEB7419865E070E080E090E0BF
:102AF0000E94112760EC86E00E9476126091D0045B
:102B00007091D10480E090E00E945A332EEC3DE8B1
:102B10004BE450E40E94E83320E030E040E05FE323
:102B20000E94BF320E942B337093D1046093D00473
:102B30008091D0049091D1049093650680936406AF
:102B40008FE597E00E94C21280916406909165061D
:102B50000E94F01381E495E00E94520D419A60E4D6
:102B60008EE00E9476122091D0043091D10440E092
:102B700050E064EB7BE281E190E00E948C31309385
:102B800067062093660684E597E00E94C212809152
:102B90006606909167060E94F01380916E0681117F
:102BA00003C008E514E602C002EA1CE761E087E121
:102BB00095E30E943F14882309F45EC046E0BE01FD
:102BC0006F5F7F4FC8010E94E314182F882381F0A4
:102BD000CE0101960E94CE149B81891308C0CE01BC
:102BE00004960E94CE149E81891709F458C010E003
:102BF00061E088E990EB0E943F141123E9F12091F4
:102C0000EE053091EF05AFE4B8E60E94B83140EA36
:102C1000C42E46E8D42EEE24E394F12CA7019601AD
:102C20000E946A3124593141309369062093680625
:102C30002091F0053091F105ABE9BBE30E94B8317A
:102C4000A70196010E946A3130936B0620936A06B1
:102C500083E497E00E94C212809168069091690611
:102C60000E94331483E397E00E94C21280916A06A7
:102C700090916B060E94F01381E495E00E94520D42
:102C800026960FB6F894DEBF0FBECDBFDF91CF9171
:102C90001F910F91FF90EF90DF90CF900895898161
:102CA00090E0982F88272A81820F911D9093EF053D
:102CB0008093EE058C8190E0982F88272D81820FDC
:102CC000911D9093F1058093F00592CF86B169E153
:102CD00070E080E090E00E94112786B18170089535
:102CE000E1E4F5E0A089B18982E08C93A485B58503
:102CF0001C92A685B7858CE08C93108EA489B5892B
:102D000086E08C93A289B3898C9180618C93A2898F
:102D1000B3898C9188608C93A289B3898C918068E7
:102D20008C930288F389E02D80818F7D80830895C4
:102D3000FC01208131812115310581F043E02837E4
:102D4000340751F42091780330917903FC013183E9
:102D5000208381E090E00895C901EACF80E090E00F
:102D60000895CF93DF93EC010E947C0E8EE593E0F3
:102D70000E949816D0937F03C0937E03109279032C
:102D800010927803E0915E03F0915F03AEE5B3E04B
:102D9000309729F0DF010190F081E02DF9CF88E72D
:102DA00093E08D939C93DF91CF910C945A0F6F9287
:102DB0007F928F929F92AF92BF92CF92DF92EF92CB
:102DC000FF920F931F93CF93DF93CDB7DEB7689732
:102DD0000FB6F894DEBF0FBECDBF8C012CE4E22EFF
:102DE00023E0F22E970180E090E0D801A80FB91FF0
:102DF000F90140E05D9150834F5F34964430D1F744
:102E000004962F5F3F4F8031910579F7ACE9B2E02E
:102E1000FE0131968CEA92E04F012D9121938A17A1
:102E20009B07D9F7C4010E94630E7724739480E551
:102E3000C82E83E0D82E5E0159E1A50EB11C9BE19E
:102E4000692E8CE493E034E0DC0140E02C91E22F29
:102E5000E295EF7050E1E59FF0011124ED5CF94F30
:102E60002F70E20FF11DE491EC934F5F1496443004
:102E700069F7315001963111E7CF0E94480EECE41A
:102E8000F3E0CE014596BE016F5E7F4F9F01D901F1
:102E90005C91DC015D93CD01452F440F57FD462524
:102EA000DB014C932C5F3F4F6F5F7F4FA816B90635
:102EB00071F76E89498946275F89288D8A89852718
:102EC0008227942F982791933D899B89832789276F
:102ED00083838C8926272327922798279783352752
:102EE000382743274387CE16DF0659F6B401872DCE
:102EF0000E94F00DC4010E94630E7394BAE07B122D
:102F0000A0CF8CE493E034E0DC0140E02C91E22F90
:102F1000E295EF7050E1E59FF0011124ED5CF94F6F
:102F20002F70E20FF11DE491EC934F5F1496443043
:102F300069F7315001963111E7CF0E94480EB40174
:102F40008AE00E94F00DC4010E94630E9801205F88
:102F50003F4FD801F70180E090819D938F5F3496B9
:102F60008430D1F78FEFE81AF80A0C5F1F4F201753
:102F7000310779F768960FB6F894DEBF0FBECDBF64
:102F8000DF91CF911F910F91FF90EF90DF90CF9045
:102F9000BF90AF909F908F907F906F900895FC01AD
:102FA00020E1215050F011F0818101C080E090813A
:102FB000990F87FD91609193F4CF089585E00C946B
:102FC000950788E00C9495072F923F924F925F925D
:102FD0006F927F928F929F92AF92BF92CF92DF9229
:102FE000EF92FF920F931F93CF93DF93CDB7DEB78E
:102FF00027970FB6F894DEBF0FBECDBF80910C04AB
:1030000087FD06C066E476E08EEC91E00E94830EB8
:1030100020908E042110ACC0E0918B04EE2309F4C3
:1030200060C0E83008F05BC0EF5FE0938B04F0E035
:10303000E250F84F24912983809110044981442360
:1030400031F00E940D25398131503983F7CF60E886
:103050000E94992540906403509065036090660338
:103060007090670383E00E941208DC01CB01840D9D
:10307000951DA61DB71D20910304222399F00091F0
:103080000404109105042091060430910704AC015A
:10309000BD01401B510B620B730B1416150616066F
:1030A00017068CF48093040490930504A0930604FF
:1030B000B093070480910C0490910D04916090935B
:1030C0000D0480930C0480910C0490910D048F7773
:1030D00090930D0480930C040E94C31DD0C180E620
:1030E00001C080E280938C0480917B04803819F0C9
:1030F0008F5F80937B0410928E0410928D048091D8
:103100000C0490910D049C01277730930D042093BB
:103110000C0420918C04277059F094FF09C0877724
:103120009F7E90930D0480930C048FE00E9495077E
:103130008AE00E94950780917B0489310CF49FC13D
:10314000809110040E940D2560E80E9499258CE072
:1031500080937B0480910C0490910D0480629061B7
:1031600090930D0480930C048EE00E94950787C114
:10317000312C5CE02516310444F410928E048091C9
:103180008C0480FF49CF80E07BC180918F04682F41
:103190006370F62E91F7807E8983803611F0803A35
:1031A00061F780E994E00E94990800916E04109103
:1031B0006F042091700430917104601771078207C9
:1031C0009307D9F6A0919404AB830A2F0F7010E0F7
:1031D000F8013896FF83EE83F4E02F1A31082E8130
:1031E0003F81221633064CF2221533055CF4215739
:1031F0003B4FD9012C91822E912CF8013996FF83F7
:10320000EE8303C088248A94982C409072045090D6
:10321000730460907404709075042091950430914B
:10322000960424193509420E531E611C711C20E1BD
:10323000E7E8F2E0DF01322F1D923A95E9F739E431
:103240003093870231E030938C0220929602609393
:103250008D0270938E0280938F0290939002409221
:103260009102509292026092930270929402EEE464
:10327000F4E0ACE9B2E001900D922A95E1F7A101EA
:103280006FE874E082E00E9485109B01AC01F101BF
:10329000E157FB4F60817181828193810E94B1313E
:1032A000261737074807590709F067CF809172043E
:1032B00090917304A0917404B09175044816590656
:1032C0006A067B06E0F484159505A605B7050CF49F
:1032D00054CF0197A109B109481659066A067B0621
:1032E00009F04BCF80917A04882309F446CF4981B5
:1032F000403A09F042CFCC24C394D12C17C0D3015B
:10330000C2010196A11DB11D8093720490937304B4
:10331000A0937404B09375045981503A11F480E27B
:1033200001C080E080937A04C12CD12C80917A0472
:10333000811103C06B8164FF09C080910C049091DE
:103340000D04806190930D0480930C04109212047C
:1033500010927C0480917B04803819F084EF809374
:103360007B042091730330917403822F877090E067
:10337000FC01EE0FFF1FE80FF91FE751F84F53E074
:10338000369527955A95E1F72370E20FF11DE491E8
:1033900080917103082E000C990B8E1B9109835BA1
:1033A0009F4F97FD06C08F3F910514F08EEF90E080
:1033B000F82EF0927E04B80187E994E00E94A706F7
:1033C000CD28B1F57FEF8716970691F1C101AE8147
:1033D000BF818A1B9B0B9A8389831816190644F5B3
:1033E000A157BB4FBD83AC8340916E0450916F04D5
:1033F00060917004709171048114910419F48EE449
:1034000094E002C08EE594E0A980BA80CC80DD8093
:10341000EE24E394F12C930182010E944908811467
:10342000910431F469817A818C819D810E94A70683
:1034300080918B04882359F0BB81B5FF02C080E8DE
:1034400001C080E490918C04892B80938C0480913E
:103450008C04181419044CF0806280938C04EE8163
:10346000E0938D0410928E044ACE806180938C0488
:10347000FE81F0938D042F1A20928E0440CE81E0BD
:1034800027960FB6F894DEBF0FBECDBFDF91CF9168
:103490001F910F91FF90EF90DF90CF90BF90AF9072
:1034A0009F908F907F906F905F904F903F902F9064
:1034B00008950C94E41780917503873069F020918A
:1034C0007D0430E0A4E2B4EF0E94B831209176038D
:1034D0004AE45DE10C94C805089580918E04811141
:1034E0000EC0A0917D04B0E0119624E234EF0E945A
:1034F000C7312091860443E95AE10C94C8050E9423
:10350000E417882371F3089580917503873051F093
:10351000209176034EE45DE164EB74EC84E090E08E
:103520000C94C805089583EA9AE190937F038093F1
:103530007E030C947E068DE29DE190937F03809341
:103540007E030C947E06CF92DF92EF92FF928091E1
:103550008E0481111CC010928C040E949B0E6B0182
:103560007C0182E00E9412082CE6C20E2CEDD21ED5
:1035700022E0E21EF11C6C0D7D1D8E1D9F1D49E594
:103580005AE1FF90EF90DF90CF900C94F725FF90D9
:10359000EF90DF90CF900C94E4174F925F926F9270
:1035A0007F928F929F92AF92BF92CF92DF92EF92D3
:1035B000FF920F931F93CF93DF9380918C04109110
:1035C0008E04813029F4111103C06BE174E006C050
:1035D00080910C0487FD06C06CE174E08EEC91E0F4
:1035E0000E94830E11118AC080910C0490910D04E9
:1035F00082FD13C085FD03C061E274E0EFCF8F75DB
:1036000090930D0480930C04809112048A3018F476
:103610008F5F8093120489E0D3C18F7790930D045C
:1036200080930C04809102048F5F833019F08093A3
:10363000020402C01092020480918B048F5F809379
:103640008B0463E00E943631911108C08091100410
:10365000882331F00E940D2580931004C0E001C042
:10366000C1E080910C0490910D04977F90930D041C
:1036700080930C040E949B0E6B017C01809184035B
:1036800090918503A0918603B0918703B701A601AD
:10369000481B590B6A0B7B0B77FF02C06C017D0145
:1036A0008FEF90E00090100402C0959587950A94E2
:1036B000E2F70E941208DC01CB0184599342AD4F1E
:1036C000BF4FC80ED91EEA1EFB1EC0926003D092E7
:1036D0006103E0926203F0926303CC2319F001EEE0
:1036E00017E102C00DE515E00E949B0E6C0F711DE5
:1036F000811D911DA8010E94F72564C1113141F07F
:10370000113231F080918C0480FF6ECF80E081C156
:1037100080918F04837E8032A9F7C12FD0E00E9470
:103720004126AE014150510960E974E080E00E94F9
:1037300085100E9441262497AE016FE874E08AE06C
:103740000E9485106B017C01C157DB4F6881798134
:103750008A819B810E94B131C616D706E806F90618
:1037600089F686E994E00E94990860936E0470934C
:103770006F04809370049093710483E994E00E9435
:103780009908DC01CB01BB278093080490930904BE
:10379000A0930A04B0930B0480E00E941625123116
:1037A00008F047C080914C0490914D04019720E1AE
:1037B000EEE4F4E0DF01322F1D923A95E9F731E0B3
:1037C00030934E0436E0E0E9F4E0AFE4B4E0019079
:1037D0000D923A95E1F78093550490935604EEE4E8
:1037E000F4E0AEE5B4E001900D922A95E1F782E0B5
:1037F00080935E040E94412640E150E06EE474E054
:1038000080E00E9485100E94412640E150E06EE574
:1038100074E080E00E94851080910C0490910D046A
:103820009C0124723327232B09F06EC066E874E0F4
:10383000D5CE3BE9C32E34E0D32E4CEAE42E43E050
:10384000F42E06EE13E0C3E0D0E05FE3A52EB12C2A
:1038500088248394912CC6010E949908272F382F21
:10386000492F5527A4E6B0E00E94CE312B013C0140
:1038700040EC441A45E5540A40E7640A43E3740AFD
:10388000A1EC4A16AFEC5A06AAE66A06710470F576
:103890002B013C0140EC441A4DEF540A41ED640AFF
:1038A00043E3740AA1E94A16A0ED5A06A3E06A06AA
:1038B000710408F089C06260D7016D937D938D9388
:1038C0009C931397F801B182A0822091000430915B
:1038D0000104C4010C2E02C0880F991F0A94E2F75C
:1038E000822B932B909301048093000423E0C20E5B
:1038F000D11C34E0E30EF11C0E5F1F4F2196C8303F
:10390000D10509F0A8CF4ECF85FF0CC080911004DF
:10391000C0911204CC2321F00E940D25C150FACF92
:103920008093100480910C0490910D0489759D7F03
:10393000986090930D0480930C0410928B04109265
:103940007604109277041092780410927904109201
:103950007204109273041092740410927504109201
:1039600012041092800410927F0410927C04109232
:103970007A04109283041092840410920E0484EF4F
:1039800080937B0488E096EEA3EDB3E380938704F5
:1039900090938804A0938904B0938A0480919A0438
:1039A000982F9F70909386048295877080938504EA
:1039B00080919B04811101C081E080937D0486E0A9
:1039C0000E94950781E025C02B013C01B1EA5B1AFA
:1039D000BCEB6B0AB3E37B0AE1EC4E16E7E25E0652
:1039E000E9E06E06710498F02B013C01F0EA4F1AF1
:1039F000F1E95F0AF6ED6F0AF3E37F0A21EE421662
:103A000023E9520624E06206710408F055CF616094
:103A100053CFDF91CF911F910F91FF90EF90DF90E7
:103A2000CF90BF90AF909F908F907F906F905F905E
:103A30004F90089580918E0481110AC020918604D0
:103A40004BE95AE168ED78EB85E090E00C94C8050D
:103A50000E94CD1A882391F3089580918E048111DC
:103A600002C010928C040C94CD1AE0E6F3E021E041
:103A700020938C04238934892068348B238B109203
:103A80008E04978F868F0E947C0E80E00E94F61134
:103A90000C945A0F8DE69AE10C94351D8AE19DE154
:103AA0000C94351DCF92DF92EF92FF9280916E04BD
:103AB00090916F04A0917004B0917104892B8A2BAE
:103AC0008B2B09F05AC080910C0490910D049C013D
:103AD00020793327232B29F06CE176E08EEC91E0FE
:103AE00026C0109203048E7D977E90930D048093E0
:103AF0000C0410928B04109212040E946E1163E069
:103B00000E9436319093020480E180930F0485E097
:103B10008093100481E00E94162580910C049091FE
:103B20000D0493FF06C06EE470E08FEE91E00E94FA
:103B3000830E0E949B0E6B017C0188E00E9412089C
:103B4000DC01CB018C0D9D1DAE1DBF1D809360035C
:103B500090936103A0936203B093630380910C047C
:103B600090910D04846090930D0480930C048EED6D
:103B700097E10E94B11681E001C080E0FF90EF90D4
:103B8000DF90CF9008952F923F924F925F926F9265
:103B90007F928F929F92AF92BF92CF92DF92EF92DD
:103BA000FF920F931F93CF93DF93CDB7DEB72C9780
:103BB0000FB6F894DEBF0FBECDBF80910C0490917C
:103BC0000D049C01217C3327232B09F08BC54091E8
:103BD0006E0450916F046091700470917104452BD4
:103BE000462B472BE1F482FD1AC02C960FB6F894B1
:103BF000DEBF0FBECDBFDF91CF911F910F91FF9020
:103C0000EF90DF90CF90BF90AF909F908F907F907C
:103C10006F905F904F903F902F900C94521D0E9498
:103C20009B0E2B013C0120910C0430910D04C90125
:103C30008C739927892B09F430C533FFBFC080905E
:103C40000004909001049C828B82809110048F70FC
:103C500041E050E05A0102C0AA0CBB1C8A95E2F771
:103C6000BE82AD821FE0B301A2015E52664B744971
:103C70004F83588769877A8722242394312C6F8158
:103C8000788589859A85E0E6F3E040E050E000E041
:103C9000A12FB0E04D01042E02C0959487940A94A0
:103CA000E2F79A82898280FE12C084A095A0A6A025
:103CB000B7A06B017C01C818D908EA08FB081C14DE
:103CC0001D041E041F041CF4042FC501B4014F5F22
:103CD0005F4F389644305105E9F6A02EB12CBA82D8
:103CE000A98243E0AA0CBB1C4A95E1F7BC86AB86CF
:103CF000F501E05AFC4FE3A150E1C02ED12CE12C9C
:103D0000F12C41E04E0F403110F041EF4E0FE42F07
:103D1000F0E0D101042E02C0AA0FBB1F0A94E2F703
:103D20008B809C80A821B921AB2B51F1DF01AA0F18
:103D3000BB1FA052BC4F0D90BC91A02DAD80BE808A
:103D4000AA21BB21AB2BE1F0EE0FFF1FEE0FFF1FEF
:103D5000E056FC4F80809180A280B380A3E08A224D
:103D60009924AA24BB24C814D904EA04FB0441F40E
:103D7000EB85FC85E05AFC4F43A3409302040FC03F
:103D8000515011F0E42FBDCFA101098002C0440FB2
:103D9000551F0A94E2F74095142309F070CF609301
:103DA0006003709361038093620390936303A9019E
:103DB000577F50930D0440930C0408C0609160033A
:103DC00070916103809162039091630340910304B9
:103DD000411106C040910C0450910D0450FF12C0D7
:103DE000C0900404D0900504E0900604F09007040D
:103DF0004B015C018C189D08AE08BF08B7FE02C0DD
:103E0000C701B60173016201FDE7CF0ED11CE11CB1
:103E1000F11C4B015C018C189D08AE08BF08B7FE71
:103E20002EC49090100424723327232B09F44DC024
:103E300080910C0485FF10C0A0901204A982898093
:103E4000882041F0892D0E940D25982E298121502E
:103E50002983F5CF80EC01C080E080938F0448E097
:103E600050E060E974E088E70E94F40948E050E01F
:103E700068E974E080E70E94F40990914C04809115
:103E80004D049093A0048093A1040E94412643E135
:103E900050E06FE874E08AE00E9485106093A5040A
:103EA0007093A4048093A3049093A20487E1809369
:103EB0008E0480914C0490914D04019690934D0492
:103EC00080934C0484E89AE181C1809172049091BE
:103ED0007304A0917404B091750480389F4FAF4F64
:103EE000BF4FE0F08BE098E02C960FB6F894DEBF61
:103EF0000FBECDBFDF91CF911F910F91FF90EF903B
:103F0000DF90CF90BF90AF909F908F907F906F90F9
:103F10005F904F903F902F900C94B11670918B044E
:103F200071110DC08091760490917704A09178046E
:103F3000B09179048F3F9F4FAF4FBF4F99F240919F
:103F40000C0450910D04487155274031510519F06A
:103F50006091170401C060E080918404882341F0DF
:103F600084E0809397041092840489E090E002C07A
:103F700088E090E0209180042223A1F09C01205A47
:103F80003C4FF901E15DFE4FA6E0A0833196AFEF13
:103F9000A083D901AF5CBE4FE0918104EC930396FE
:103FA00010928004E0917F04EE2371F09C01205A6E
:103FB0003C4FD901A15DBE4FF3E0FC931196E77031
:103FC000EC93029610927F0420917C04222339F016
:103FD00020917B0427FD10927B0410927C044031D9
:103FE000510521F0A5E0A60FA98302C0B4E0B98372
:103FF000F82F8980880EE0E4E81528F0E1E04031F0
:10400000510529F403C0E4E08E2E880EE0E020E4A0
:1040100020938F0430917A0440918204432B309195
:104020007B043095232F221F2227221F2295220F47
:10403000220F207C38EF3F0F342B232B2093940446
:1040400050916E0440916F0430917004209171047E
:1040500050939004409391043093920420939304DE
:10406000711114C0009176041091770420917804A6
:10407000309179040F5F1F4F2F4F3F4F009376040D
:104080001093770420937804309379042091760478
:104090003091770421503109209395043093960490
:1040A00010927A04EE2309F43FC0209116042223D3
:1040B00041F020E820938F04711103C021E0209388
:1040C0008B04FC01E157FB4F2091150420839C01D8
:1040D00020573B4F6901A62EB12CA50168E174E081
:1040E000C9010E94623400917604109177042091F6
:1040F0007804309179040150110921093109409166
:104100006E0450916F0460917004709171048091FD
:104110001504882319F08EE594E002C08EE494E043
:10412000E12CF12C0E944908E82DF0E08F010450A9
:1041300011098091760490917704A0917804B09150
:1041400079040197A109B10960916E0450916F043F
:10415000409170043091710420E177E8E72E72E01D
:10416000F72EF701A22E1192AA94E9F779E4709341
:10417000870210928C020093960260938D025093F6
:104180008E0240938F02309390028093910290931D
:104190009202A0939302B0939402EEE4F4E0ACE9AF
:1041A000B2E001900D922A95E1F7A8016FE874E062
:1041B00082E00E948510F801E157FB4F6383728310
:1041C0008183908380928E048BE59AE190937F03A4
:1041D00080937E03E92DF0E0EF5DF74F8491E0914D
:1041E000110420E2E29FF00111248F79E82BF09373
:1041F0007403E09373039092760380910C04909182
:104200000D048F76967F8068986090930D0480935C
:104210000C04A091020434E0A39FD0011124A05605
:10422000BC4FCD90DD90ED90FC90A0918E043E2F80
:104230003770B0E079F41B9683E0AA0FBB1F8A9514
:10424000E1F724E234EF0E94C73120E533EC40E08F
:1042500050E086C0632F660F660F685E353010F43D
:1042600090E001C098E003E0AA0FBB1F0A95E1F7B8
:10427000A61BB1095C96E7FD03C040E150E002C017
:1042800040E050E0A40FB51F4F2F5527452B19F4E0
:1042900040E050E002C044E150E0A41BB50B1A1608
:1042A0001B06DCF4691B70E0A60FB71FCD01019758
:1042B0000E945631AF01A5E056954795AA95E1F7C2
:1042C000437050E04B5F5F4F469FC001479F900D8A
:1042D000569F900D1124089602C088E090E0880F48
:1042E000991F880F991FC1963F5F63E0F695E79588
:1042F0006A95E1F7E3703E1B353050F03450E9E049
:10430000FDE302C0F595E7953A95E2F734E002C087
:10431000E9E0FDE3092E000CAA0BBB0B4C015D018B
:1043200004C0880C991CAA1CBB1C3A95D2F7A501A5
:104330009401A4E2B4EF0E94CE319F01F7FF02C0C6
:104340002F5F3F4F359527958901330F220B330B94
:10435000600F711F821F931F9F01FF0F440B550BAE
:104360000E948C3149015A01D701C60183709927F7
:10437000AA27BB272CEFC222C0926D03D0926E03F6
:10438000E0926F03F0927003FC0123E0EE0FFF1F39
:104390002A95E1F7E05AFC4F22A120937703049677
:1043A00033E0880F991F3A95E1F7DC01A05ABC4F22
:1043B0000D90BC91A02DA50194010E94CE31DC018D
:1043C000CB01840D951DA61DB71D84A395A3A6A39F
:1043D000B7A380910304882399F004C0880C991C2A
:1043E000AA1CBB1C8A95D2F7480C591C6A1C7B1C62
:1043F00040920404509205046092060470920704EF
:1044000081E10E9495070E947C0E81E00E94B62304
:10441000877059F080E00E94BA240E949B0E625C73
:104420007F4F8F4F9F4F0E94B20EC0906803D09075
:104430006903E0906A03F0906B031C141D041E04D2
:104440001F040CF061C081E00E948B1180916D030C
:1044500090916E03A0916F03B091700381349D4DD4
:10446000AA44BF4128F44CE55FEF5A83498304C056
:1044700063E67FEF7A836983E0912E02F0912F0249
:10448000878189809A80880E911C87FD9A949A82F0
:1044900089820E949B0E615E7F4F8F4F9F4F0E94CB
:1044A000B20E0E949B0E10E046015701860E971E29
:1044B000A81EB91E8BE10E94B623181708F4182F06
:1044C0000E945A0F0E949B0E6B017C010E947C0E81
:1044D000C818D908EA08FB08F7FCECCF80E00E9476
:1044E000BA2480916C03082E000C990BA980BA8025
:1044F000A10EB11CA816B9063CF080917E039091E4
:104500007F030E94B116A1C080917303877009F0E8
:1045100050C080E10E94A32481E00E94B623803134
:1045200019F06FED71E04FC081E00E94BA2462E0A3
:1045300082E00E94C92360E883E00E94C92361E011
:1045400084E00E94C92369E985E00E94C92360E0F4
:1045500085E20E94C92365E086E20E94C92362E1E8
:1045600087E20E94C92360ED80E30E94C92360E4D2
:1045700081E30E94C92361EC88E20E94C92364E9B7
:1045800089E20E94C92361EC8AE20E94C9230E9449
:10459000F2230E94DC2364E380E40E94C92360913B
:1045A0008E046F5F82E30E94C92360918E0480E0D5
:1045B0003BC088E80E94A32481E00E94B62387FDC7
:1045C00006C06BE072E084EA91E00E94830E81E015
:1045D0000E94BA240E9442240E94F2238AE00E9490
:1045E000B623807F682F68608AE00E94C9230E94FA
:1045F000DC2364E389E30E94C92360EF80E40E9426
:10460000C9236FEF82E10E94C92367EF81E10E9415
:10461000C92360E08EE00E94C92360E08DE00E9423
:10462000C92360918E0482E20E94C92340918E04C6
:1046300050E020E06FE874E080E80E94EF0E81E037
:104640000E94751083E00E94BA242C960FB6F8944D
:10465000DEBF0FBECDBFDF91CF911F910F91FF90B5
:10466000EF90DF90CF90BF90AF909F908F907F9012
:104670006F905F904F903F902F900C945A0F209125
:104680000C0421FF0FC0611571058105910551F4DE
:1046900061E070E080E090E005C021FF23C060E0B1
:1046A00070E0CB016D577109810991094DE555E025
:1046B0002C960FB6F894DEBF0FBECDBFDF91CF9121
:1046C0001F910F91FF90EF90DF90CF90BF90AF9030
:1046D0009F908F907F906F905F904F903F902F9022
:1046E0000C94F7252C960FB6F894DEBF0FBECDBF05
:1046F000DF91CF911F910F91FF90EF90DF90CF90BE
:10470000BF90AF909F908F907F906F905F904F90F1
:104710003F902F900895CF92DF92EF92FF92A09159
:104720002C02B0912D0261E0811101C060E0ED9199
:10473000FC9111970190F081E02DCD0109956B015D
:104740007C01672B682B692B61F00E949B0E6C0D1E
:104750007D1D8E1D9F1DFF90EF90DF90CF900C94DC
:10476000B20EFF90EF90DF90CF900895CF93DF933C
:104770001F92CDB7DEB721E041E050E0BE016F5F90
:104780007F4F8F770E94EF0E89810F90DF91CF913D
:104790000895CF93DF931F92CDB7DEB7698320E0F2
:1047A00041E050E0BE016F5F7F4F80680E94EF0ED6
:1047B0000F90DF91CF91089560917703623124F4D7
:1047C00062301CF462E001C061E16250606889E01F
:1047D0000E94C9238DE40E94B623682F64608DE493
:1047E0000C94C923AF92BF92CF92DF92EF92FF92C7
:1047F0000F931F93CF93DF9380916D0390916E037E
:10480000A0916F03B09170039C01AD0160E070E076
:1048100080E090E003E10E947232A12CE8E4BE2E19
:10482000F8EECF2EDD24D394E12CF12C00E010E043
:104830000E941532C22FB32E6A017B01182FD92F87
:1048400000E10E948D32622F86E00E94C9232C2F46
:104850003B2DA601B701812F9D2F08E00E948D32CC
:10486000622F87E00E94C9236C2F88E0DF91CF91EF
:104870001F910F91FF90EF90DF90CF90BF90AF907E
:104880000C94C923CF93DF936091730370917403E9
:10489000D62FD770CB0153E0969587955A95E1F7BF
:1048A0008370813049F050F0823051F06FE671E052
:1048B00084EA91E00E94830EC0E803C0C0E701C013
:1048C000C0E9CB0145E0969587954A95E1F783705D
:1048D000823041F0833041F0813011F0C26005C078
:1048E000C46003C0C66001C0C860672F7727611528
:1048F000710521F0C16082E20E94C9236C2F8DE115
:104900000E94C9236D2F6295607F605A8091730366
:1049100087FF64608EE10E94C923D550D23068F4CD
:10492000809173039091740323E0969587952A955F
:10493000E1F7837011F46CE001C064E086E2DF917E
:10494000CF910C94C923CF93DF93D82FC82FC77072
:1049500019F081E00E948B236D2F81E00E94C92312
:10496000C11105C080E0DF91CF910C948B23DF91C2
:10497000CF910895CF93C82F81E00E94B623887FFE
:104980008C2BCF910C94A324CF92DF92EF92FF92C5
:10499000CF93DF930E947C0EC0915E03D0915F03A2
:1049A000209739F08881998190935F0380935E030B
:1049B0001FC0E0915C03F0915D033097C9F0C280A5
:1049C000D380E480F5800E949B0EC61AD70AE80ABD
:1049D000F90A1C141D041E041F0454F0C0915C034A
:1049E000D0915D038881998190935D0380935C03EE
:1049F0000E945A0F209751F0EE81FF81CE01DF9186
:104A0000CF91FF90EF90DF90CF900994DF91CF91FD
:104A1000FF90EF90DF90CF900895E82FF0E0E05EF8
:104A2000F74FE491EF3F09F081500895CF93DF9362
:104A300090E4E0EAF3E0DF011D929A95E9F790E255
:104A4000E0EEF3E0DF01292F1D922A95E9F7E0E877
:104A5000F3E0DF011D929A95E9F727E030E030930B
:104A6000010420930004811102C083E001C080E0B2
:104A7000C0EAD3E0A0EEB3E093E0980F2FE330E07C
:104A800044E0849FF0011124E85FF74F4591559170
:104A90006591749149935993699379932D933D93BB
:104AA0008F5F8913EDCF88EE93E09093810380931D
:104AB0008003CEE0C09382030E946E118F708093BA
:104AC000830384E690E09093890380938803C093E6
:104AD0008A030E946E118F7080938B038AE090E0AE
:104AE00090939103809390038BE1809392030E94B3
:104AF0006E118F70809393030E949B0E60939403BA
:104B000070939503809396039093970360938C031F
:104B100070938D0380938E0390938F03609384032F
:104B2000709385038093860390938703DF91CF91E1
:104B30000895603811F060930F0490911004981755
:104B400059F08093100480910C0490910D049860AA
:104B500090930D0480930C040895CF930E947C0ED3
:104B600080E00E94BA240E945A0F0E947C0E8CE5BD
:104B700093E00E949816892B21F48EE593E00E9421
:104B800098160E945A0F80E791E0E0E6F3E0DF011B
:104B90009C011D9221503040E1F70E946E11C82FF8
:104BA0000E946E112C2F30E0322F2227282B3093B9
:104BB0004D0420934C0410920D0410920C0410929A
:104BC000110480E8809382041092860488E096EEB7
:104BD000A3EDB3E38093870490938804A0938904A2
:104BE000B0938A0481E080937D04CF910895CF92A1
:104BF000DF92EF92FF92CF93DF936B017C01EA018A
:104C00000E947C0E8CE593E00E949816C0927A0375
:104C1000D0927B03E0927C03F0927D03D0937F03DC
:104C2000C0937E031092790310927803E0915C03A5
:104C3000F0915D03CCE5D3E03097B9F082819381A8
:104C4000A481B5818C199D09AE09BF0918161906F2
:104C50001A061B062CF4F0937903E093780305C041
:104C6000EF010190F081E02DE7CF88E793E0998391
:104C70008883DF91CF91FF90EF90DF90CF900C94DD
:104C80005A0F40E150E06CE972E080E80C94F409BE
:104C900090E0FC013197ED30F10590F5E658FF4FBB
:104CA0000C94AB31809180008F7703C0809180009D
:104CB0008F7D80938000089584B58F7702C084B57E
:104CC0008F7D84BD08958091B0008F7703C080915F
:104CD000B0008F7D8093B0000895809190008F7711
:104CE00003C0809190008F7D809390000895809103
:104CF000A0008F7703C08091A0008F7D8093A000DB
:104D000008951F93CF93DF93282F30E0F901EA59DC
:104D1000F74F8491F901EE5AF74FD491F901E25C13
:104D2000F74FC491CC23C1F0162F81110E94482661
:104D3000EC2FF0E0EE0FFF1FEC5CF74FA591B49164
:104D40009FB7F894111104C08C91D095D82302C05C
:104D5000EC91DE2BDC939FBFDF91CF911F910895E3
:104D6000CF93DF9390E0FC01EE5AF74F2491FC01C2
:104D7000E25CF74F8491882361F190E0880F991FDE
:104D8000FC01E65DF74FC591D491FC01EC5CF74F57
:104D9000A591B491611109C09FB7F89488812095BD
:104DA00082238883EC912E230BC0623061F49FB77D
:104DB000F8948881322F309583238883EC912E2BB1
:104DC0002C939FBF06C08FB7F894E8812E2B2883C1
:104DD0008FBFDF91CF9108953FB7F8948091B006CF
:104DE0009091B106A091B206B091B30626B5A89BEA
:104DF00005C02F3F19F00196A11DB11D3FBFBA2F6D
:104E0000A92F982F8827820F911DA11DB11DBC01CC
:104E1000CD0146E0660F771F881F991F4A95D1F78D
:104E200008958F929F92AF92BF92CF92DF92EF92AE
:104E3000FF926B017C010E94EC264B015C01C114C6
:104E4000D104E104F104F1F00E94EC26DC01CB0175
:104E500088199909AA09BB09883E9340A105B105A3
:104E600070F321E0C21AD108E108F10888EE880E3B
:104E700083E0981EA11CB11CC114D104E104F1040B
:104E800019F7DDCFFF90EF90DF90CF90BF90AF90FC
:104E90009F908F9008952FB7F8946091AC06709111
:104EA000AD068091AE069091AF062FBF08951F9278
:104EB0000F920FB60F9211242F933F938F939F93CE
:104EC000AF93BF938091AC069091AD06A091AE06D2
:104ED000B091AF063091B40620E3230F2D3720F4B4
:104EE0004096A11DB11D05C023EB230F4196A11DC6
:104EF000B11D2093B4068093AC069093AD06A093A9
:104F0000AE06B093AF068091B0069091B106A09125
:104F1000B206B091B3060196A11DB11D8093B006F3
:104F20009093B106A093B206B093B306BF91AF9130
:104F30009F918F913F912F910F900FBE0F901F90D7
:104F40001895CF93DF93CDB7DEB76A970FB6F89475
:104F5000DEBF0FBECDBF789484B5826084BD84B5BA
:104F6000816084BD85B5826085BD85B5816085BD64
:104F700080916E00816080936E001092810080911C
:104F800081008260809381008091800081608093A5
:104F900080008091B10084608093B1008091B00066
:104FA00081608093B0008091910082608093910035
:104FB0008091910081608093910080919000816048
:104FC000809390008091A10082608093A1008091E5
:104FD000A10081608093A1008091A00081608093F6
:104FE000A00080917A008B7F80937A0080917A0074
:104FF000826080937A0080917A00816080937A0049
:1050000080917A00806880937A001092C1008FEEC0
:1050100084B984E085B986E087B982E088B982EFF7
:105020008AB91BB81DB81EB80FB6F894A895809120
:105030006000886180936000109260000FBE109243
:105040007A008091640081608093640080916400A4
:10505000826080936400809164008F7D80936400FF
:105060008091640088608093640080916400806413
:1050700080936400809165008160809365008091D9
:1050800065008860809365008091640080618093F2
:105090006400809165008061809365008091650067
:1050A00080628093650080916500846080936500D4
:1050B000809164008B7F80936400809164008F777F
:1050C000809364001092D3041092D20410923C0595
:1050D00010923B0510921A0581E0809319051092F9
:1050E000F40461E082E10E94812661E083E10E9494
:1050F00081268091B9008E7F8093B9008091B9009C
:105100008D7F8093B9008DEF8093B80085E4809304
:10511000BC008AE994E090931B0280931A028BE909
:1051200094E090931902809318021092B80080ECDA
:1051300080937E0080917A00816080937A001DBA0E
:105140001092680010926B0010926C0010926D002B
:105150001092690083E08CBB0E946616F82E809145
:1051600064008D7F8093640083E00E94D50A0E94D2
:10517000701680E00E94350A84E0ECE5F3E0DF0180
:105180001D928A95E9F786E091E090932F02809333
:105190002E028EED95E090932D0280932C02E091EB
:1051A000DE05F091DF050280F381E02D0995C090C6
:1051B0002E02D0902F02F60180818F3F19F461E218
:1051C00070E005C093819F3F31F462E270E084E4B7
:1051D00091E00E94830EF60194819F3F31F4958106
:1051E0009F3F19F463E270E0F2CF61E00E948126F4
:1051F00061E0D6018C910E94B026F60181818F3F3B
:1052000069F061E09681911101C060E00E94812601
:1052100061E0D60111968C910E94B026F601828140
:105220008F3F19F060E00E94B02660E0D60113962F
:105230008C910E94B026F60184818F3F19F060E0C6
:105240000E94B026D60115968C918F3F19F060E030
:105250000E94B026EFB6F89480913302811127C0E6
:10526000E8E4F8E08491ECE5F8E09491E82FF0E0D0
:10527000EE0FFF1FE65DF74FA591B491EC91E92386
:1052800021F461E08AE00E94812661E08AE00E94C8
:10529000B0268CB580618CBD8CB580648CBD61E01E
:1052A0008DE00E94B02661E08BE00E94B0268091E4
:1052B00033028F5F80933302EFBE0E947C0E81E049
:1052C0000E948B23C0902E02D0902F02F601828183
:1052D0008F3F49F060E00E94812661E0D60112967E
:1052E0008C910E94B0260E949B0E625C7F4F8F4F74
:1052F0009F4F0E94B20EF60182818F3F19F060E04D
:105300000E94B0260E949B0E685C7E4F8F4F9F4F7D
:105310000E94B20E80E00E94BA2482E40E94B6236A
:10532000823109F01AC180912C0290912D02DC018A
:10533000ED91FC910680F781E02D0995882341F0DD
:105340008BE40E94B623682F60618BE40E94C9231E
:1053500082E00E948B1181E00E94B6238770853025
:10536000D1F7ACE1CA2EA2E0DA2EBBE28B2EB2E07E
:105370009B2EF8E0AF2EB12C8CE20E94B6238170F8
:10538000E82E8CE20E94B6232E2D30E0082F01700B
:1053900010E02017310781F3F6018181880FE82A98
:1053A000E182F1E0AF1AB10839F72FEFC21AD20A41
:1053B0008C149D04F1F680E180931C0280E00E9431
:1053C000BA240E945A0F80E490E090930D048093D9
:1053D0000C040E94AD258CEC9CE490931404809303
:1053E000130481EA97E2AEEBB3E38093A0039093BA
:1053F000A103A093A203B093A3038FE390E0909343
:10540000E1038093E003209100043091010441EE18
:1054100054E361EC73E34093A4035093A5036093BA
:10542000A6037093A7034FE750E05093E303409324
:10543000E20341E252E464EC73E34093A803509327
:10544000A9036093AA037093AB039093E503809341
:10545000E40341E655EE6EEA73E34093AC035093E8
:10546000AD036093AE037093AF039093E703809313
:10547000E60341EA52EF61EB73E34093B0035093CC
:10548000B1036093B2037093B3039093E9038093E5
:10549000E80341EE5FEF64EB73E34093B403509392
:1054A000B5036093B6037093B7039093EB038093B7
:1054B000EA0341E25DE068EB73E34093B803509385
:1054C000B9036093BA037093BB039093ED03809389
:1054D000EC0341E65AE16BEB73E34093BC0350935A
:1054E000BD036093BE037093BF039093EF0380935B
:1054F000EE0380E096EDA8ECB3E38093C0039093B5
:10550000C103A093C203B093C30380E890E09093DB
:10551000F1038093F003C9018F6F916090930104B0
:105520008093000483E080938604109230028AE323
:1055300090E00197F1F761E087E195E30E943F1465
:1055400043E08E010F5F1F4FB80188EC9FEE0E9471
:10555000E314811107C0E12C1FC065E370E085E60C
:1055600091E037CEC8010E94CE149B818913F3CFFE
:10557000898183FFF0CF8A818F73873061F761E083
:105580008DE590E80E943F14882329F361E088E9C3
:1055900090EB0E943F14E82ECE2CD12CFF2011F16D
:1055A00083E491E00E94DD128EE391E00E94C2123A
:1055B000C6010E94331489E391E00E94C21281E087
:1055C00090E00E94331481E080933B028EE991E0E9
:1055D0000E94DD1281E495E00E94520D81E00E945C
:1055E0009C0B2AC086E291E00E94DD1281E291E0EC
:1055F0000E94C212C6010E94331483E191E00E940E
:10560000DD120E94A20BF82E8EE091E00E94C212E1
:105610008F2D90E00E94331481E495E00E94520D9A
:10562000FF2021F0EE2011F080E001C082E08093A5
:105630003B0288E00E94D50A96B198708091F205ED
:10564000811104C081E0911104C002C081E0911178
:1056500080E0809363065E0181E1A80EB11C72E3D5
:10566000672E712CEFE68E2EE6E09E2EF0903B0228
:10567000F110AFC28091F3050E949C0B83E891E08A
:105680000E94DD1281E495E00E94520D0E94661591
:105690008AE791E00E94C21281E495E00E94520DD7
:1056A0001092320281E080933402EAEFF5E001903B
:1056B0000020E9F7DF0112972D014AEFC42E45E0E3
:1056C000D42E56E6252E61E6362EF60180818823FB
:1056D00009F431C14C145D0408F42DC165E270E099
:1056E000C6010E946B347C01009709F421C1C816E1
:1056F000D90671F0DC011C92C6010E94A80A811132
:1057000004C085E2F701808316C1E5E2D701EC937E
:10571000D70111968C91853249F488E891E00E9476
:10572000A80A6701B2E0CB0ED11CCFCF882309F4C1
:1057300002C1F7019281992309F4FDC0893651F025
:10574000823509F49CC431E0813481F030E0893441
:1057500011F01BC031E04091F5055091F6055A8FCC
:10576000498F2FEF1BC0813409F091C441E050E014
:105770006091640670916506613D774010F040E0ED
:1057800050E05A8F498F20E009C0823461F7409180
:105790006406509165065A8F498F22E086E0E0E06A
:1057A000F1E0D80101900D928A95E1F7943619F451
:1057B0009A831B8226C0983729F4332311F182E3A0
:1057C0008B831FC0923611F419821BC0933611F4DB
:1057D000998317C09234A9F4898D9A8D892B49F049
:1057E00084E7898382E78A8385E78B8385E68C83D8
:1057F00008C029823A828CE68B8383E78C8385E616
:105800008D838981811127C0332311F0E1E001C02C
:10581000E2E080913202282F30E0A9014E0F511DA5
:10582000433351050CF07FC0D901A159B94F998D6F
:105830009C93A1E0A80FE13029F0B0E0A159B94F45
:105840009A8D9C938E0F80933202E82FF0E0E159FD
:10585000F94F108268C0833609F050C0898D9A8D47
:10586000222389F0263679F0283629F4B3010E94E4
:105870004231CB0108C0223041F0273631F02337C6
:1058800009F051C002C053E001C054E0409132021F
:10589000642F70E0FB01E50FF11DF3970CF043C09E
:1058A00030913402E1E0E30FE0933402FB01E1596F
:1058B000F94F3083E1E0E40FF0E0E159F94F208344
:1058C000E3E0E40F22E0240F30E0533039F4E093BA
:1058D0003202F901E159F94F808325C06AE070E096
:1058E0000E944231D901A159B94F7C934C5F40933A
:1058F0003202F0E0E159F94F608315C08A8D8F9331
:10590000898D8F931F930F931F9226E02F93BF9241
:10591000AF920E947634C5010E94A80A0FB6F8948F
:10592000DEBF0FBECDBF670193E0C90ED11CCDCE47
:10593000C6010E94A80AF0903202EF2DF0E0E15972
:10594000F94F108283E791E00E94C2128F2D0E94CE
:10595000A01381E495E00E94520D809132028823C9
:1059600009F450C00E94C4240E94A20BF09032029D
:105970001092310280910C0487FF05C087E591E009
:105980000E94DD123DC00E94C424A4E3AF1508F1BB
:105990008114910441F04F2D50E06FE676E088E1EC
:1059A00094E00E9462341092160481E08093150402
:1059B000F092170480910C0490910D049C012860D2
:1059C00030930D0420930C0482FF10928B040E94EC
:1059D000C31D0E944B276B017C01809131028230F4
:1059E00078F40E94C4240E944B27DC01CB018C195F
:1059F0009D09AE09BF0981319742A105B10568F340
:105A00000E94C4240E94C4248091F305882319F0C5
:105A100080E00E949C0B96B198708091F2058111F4
:105A200006C081E0911101C080E0F82E04C0FF247F
:105A3000F3949111F12C809163068F1551F08091B0
:105A4000F3050E949C0BF092630688E00E94D50A41
:105A50000EC38BE691E00E94DD1281E495E00E9486
:105A6000520D8091F7059091F805009719F0282FB5
:105A7000892F02C021E080E02093390280933A020E
:105A800010923502109236021092370210923802AC
:105A900032E0E32EF12C80E00E94310BD82E809171
:105AA000350290913602A0913702B09138020196EA
:105AB000A11DB11D8093350290933602A093370249
:105AC000B09338028091F7059091F805892B21F465
:105AD000F0923A02E09239028091390290913A02B2
