:100000000C94C1040C946A160C9497160C94E90491
:100010000C947F160C94E9040C941C160C94E904BF
:100020000C94E9040C94E9040C94E9040C94E9049C
:100030000C94E9040C94E9040C94E9040C94E9048C
:100040000C94BE170C94E9040C94DB070C94B507D0
:100050000C94E9040C94C1160C94E9040C94E90482
:100060000C94E9040C94E9040C94E9040C94E9045C
:100070000C94E9040C94E9040C94E9040C94E9044C
:100080000C94E9040C94E9040C94E9040C94E9043C
:100090000C94E9040C94E9040C94E9040C94E9042C
:1000A0000C94E9040C94E9040C94E9040C94E9041C
:1000B0000C94E904781F7B1F7E1F811F941F9E1FD5
:1000C000A11FB41FBA1FC01FC81FCE1FD61F4220BA
:1000D00049204E20512056205B20602065206D2055
:1000E000B40FB70FAA0FAE0FD80FD80FBB0FBF0FAB
:1000F000C50FC90FD80FCF0FD30F524F4B3A005334
:100100004F4B3A000A436F6E666967757261746996
:100110006F6E206D6F6465000A496E76616C69646C
:1001200020636F6D6D616E6400426F726F73526514
:100130006564323420636F6E66696720636F6E7327
:100140006F6C65205B42523C32344D3E56335D202D
:1001500054797065202768656C702720746F207350
:10016000686F7720636F6D6D616E6473005B747090
:100170006C5D5061796C6F61642074656D706C6149
:1001800074653A005B6368615D4368616E6E656CBF
:100190003A005B726174655D4461746120726174E0
:1001A000653A005B7478705D547820706F77657283
:1001B0003A005B6D666F725D4D65736820666F72A5
:1001C00063652072656E65773A005B6D6473745D7C
:1001D0004D65736820446573742E206E6F646520CE
:1001E00049643A005B6D6669645D4D6573682066BD
:1001F00072616D6520747970653A005B6D6E69643B
:100200005D4D657368206E6F6465202049643A0017
:100210005B726574645D52657472792064656C61AB
:10022000793A005B726574725D526574727920432D
:100230006F756E743A005B6372635D4372633A007C
:100240005B61636B5D4175746F41636B3A005B6426
:10025000737A5D5061796C6F61642073697A653A75
:10026000005B706970655D52656D6F7465207069C3
:1002700070653A005B70737A5D41646472207369E3
:100280007A653A005B6D6F645D5266204D6F646500
:100290003A005B6163635D41636375726163793AE0
:1002A000005B7265706F5D5265706F7274286D755A
:1002B0006C293A005B69645D44657669636549440D
:1002C0003A005B65696E745D45496E7420656E61C8
:1002D000626C65643A005B6C65645D4C65643A0011
:1002E0005B696E765D496E762E20726565643A00B4
:1002F0005265626F6F7421000A5B4552524F525D26
:100300000A000A5B4F4B5D0A002D2D2D434F4D4DCA
:10031000414E44532D2D2D3A0A4D6973633A0A3DDF
:100320003D3D3D3D0A68656C70202D2073686F77F8
:10033000732074686973206D73670A766572202074
:100340002D2073686F77732076657273696F6E20E6
:1003500062616E6E65720A73686F77202D20736814
:100360006F77732063757272656E7420636F6E664B
:10037000696775726174696F6E0A73656E20202DEE
:100380002073686F77732073656E736F7273207359
:1003900074617475730A7265626F202D20726562D4
:1003A0006F6F74206465766963650A6661632020F7
:1003B0002D206F7665727269646520636F6E666961
:1003C00067207769746820666163746F727920644E
:1003D000656661756C74730A47656E6572616C3A27
:1003E0000A3D3D3D3D3D3D3D3D0A696E76203C3137
:1003F0002F303E2020202D20696E76657274207289
:100400006565642073656E736F72207265616469DF
:100410006E670A6C6564203C312F303E2020202D11
:1004200020626C696E6B206C6564206F6E206E6F4D
:1004300074696669636174696F6E0A65696E7420B8
:100440003C312F303E20202D20656E61626C65208E
:1004500065787465726E616C20696E746572727510
:1004600070740A6964203C6E756D6265723E202D61
:100470002073657420313662697420696E74656713
:1004800065722049440A7265706F203C6D756C3E40
:1004900020202D2073657420706572696F64696314
:1004A000207265706F7274203D20382A6D756C2043
:1004B0007365636F6E64732E28303D646973616287
:1004C0006C6564290A616363203C6E3E2020202015
:1004D000202D2073657420616363757261637920D8
:1004E000627974650A2074706C20203C74656D70AC
:1004F0006C6174653E202D20736574207061796C89
:100500006F61642074656D706C6174650A6D6F64F1
:1005100065203C302D333E202D20736574207261A0
:1005200064696F206D6F646520303D706C61696E29
:100530002C313D6D6573682C323D6C6F7261776153
:100540006E0A526164696F3A0A3D3D3D3D3D3D0A88
:1005500074787020203C302D343E2020202D2073D4
:10056000657420545820706F776572206C657665CD
:100570006C0A63686120203C312D3132363E202DDB
:100580002073657420726164696F206368616E6EA8
:10059000656C0A72617465203C302F312F323E2029
:1005A0002D2073657420726164696F2064617461C9
:1005B000207261746520303D314D4250532C313DE5
:1005C000324D4250532C333D3235304B4250530A5A
:1005D000506C61696E206D6F64653A0A3D3D3D3D2A
:1005E0003D3D3D3D3D3D3D0A70737A20203C332F1B
:1005F000342F353E202D207365742070697065207E
:10060000616464726573732073697A650A706970D6
:1006100065203C6865783E2020202D20736574207D
:10062000686578206465737469616E74696F6E20A3
:100630007069706520284C5342290A64737A20201F
:100640003C302D33323E20202D20736574206461B0
:1006500074612F7061796C6F61642073697A650AC7
:1006600063726320203C302F312F323E202D2073C7
:1006700065742063726320303D64697361626C65E8
:10068000642C313D386269742C323D3136626974B4
:100690000A61636B20203C302F313E2020202D202A
:1006A000557365206175746F61636B0A726574724E
:1006B000203C302D31353E20202D20736574206E76
:1006C000756D626572206F66207478207265747231
:1006D0006965730A72657464203C302D31353E20A3
:1006E000202D2073657420726574726965732064AF
:1006F000656C617920286E2B31292A32353075736B
:100700000A4D657368206D6F64653A0A3D3D3D3D55
:100710003D3D3D3D3D3D0A6D6E6964203C312D32CD
:1007200035353E202D20736574206D657368206E0D
:100730006F64652049440A6D666964203C302D323F
:1007400035353E202D20736574206D6573682066F5
:1007500072616D6520747970650A6D647374203CF4
:10076000302D3235353E202D20736574206D657334
:1007700068206E6F64652064657374696E61746966
:100780006F6E2069640A6D666F72203C302F313EB7
:100790002020202D20666F726365206D65736820B0
:1007A00072656E657720636F6E6E656374696F6ED8
:1007B000004D6F6465206368616E676564000000CA
:1007C0000008000201000003040700000000000010
:1007D000000000000000250028002B0000000000A1
:1007E000240027002A000404040404040404020270
:1007F00002020202030303030303010204081020A0
:1008000040800102040810200102040810200001A9
:10081000020304051112131415160A0B0C0D0E0F0A
:1008200068656C70000076657200000073686F7711
:10083000000073656E0000007265626F0000666103
:1008400063000000696E760000006C6564000000C3
:1008500065696E7400006964000000007265706F65
:10086000000061636300000074706C0000006D6F35
:100870006465000074787000000063686100000027
:1008800072617465000070737A00000070697065B1
:10089000000064737A00000063726300000061630B
:1008A0006B00000072657472000072657464000071
:1008B0006D6E696400006D66696400006D64737438
:1008C00000006D666F7200005B5643435D286D56F5
:1008D000293A005B564241545D286D56293A00CAB8
:1008E000AB00000001000000002549642C25526483
:1008F0002C2542642C2541422C2556640000000022
:1009000000000000000000000000000000000000E7
:1009100000000000000000000000000000000000D7
:1009200000000000000000000000000000000000C7
:1009300000000000000000000000000000000000B7
:1009400000000000000000000000000000000000A7
:100950000000000000000000000000000000000097
:1009600000000000000000000000000000024C0039
:1009700005314E6F646520020108060A440000003C
:10098000FF2011241FBECFEFD8E0DEBFCDBF11E0A6
:10099000A0E0B1E0ECE1FEE402C005900D92AC33C2
:1009A000B107D9F724E0ACE3B1E001C01D92A9374B
:1009B000B207E1F714E0C1ECD4E004C02197FE01D6
:1009C0000E941E25C03CD107C9F70E9408180C944C
:1009D0000C270C940000CF92DF92EF92FF920F93BE
:1009E0001F93CF93DF936C017A018B01C0E0D0E0BD
:1009F000CE15DF0581F0D8016D918D01D601ED9105
:100A0000FC910190F081E02DC6010995892B11F030
:100A10002196EECF7E01C701DF91CF911F910F91FB
:100A2000FF90EF90DF90CF900895089580E090E0E0
:100A30000895FC01538D448D252F30E0842F90E0E4
:100A4000821B930B541710F0CF96089501970895C9
:100A5000FC01918D828D981761F0828DDF01A80FC6
:100A6000B11D5D968C91928D9F5F9F73928F90E0E8
:100A700008958FEF9FEF0895FC01918D828D981757
:100A800031F0828DE80FF11D858D90E008958FEF94
:100A90009FEF0895FC01918D228D892F90E0805C5D
:100AA0009F4F821B91098F739927089587E491E0E6
:100AB0000E944A0521E0892B09F420E0822F089545
:100AC000FC01848DDF01A80FB11DA35ABF4F2C91EB
:100AD000848D90E001968F739927848FA689B789BA
:100AE0002C93A089B1898C91837080648C93938DB1
:100AF000848D981306C00288F389E02D80818F7D54
:100B000080830895EF92FF920F931F93CF93DF930B
:100B1000EC0181E0888F9B8D8C8D981305C0E8894E
:100B2000F989808185FD26C0F62E0B8D10E00F5FC0
:100B30001F4F0F731127E02E8C8DE8120CC00FB6DB
:100B400007FCFACFE889F989808185FFF5CFCE01CE
:100B50000E946005F1CF8B8DFE01E80FF11DE35A75
:100B6000FF4FF0829FB7F8940B8FEA89FB89808151
:100B700080620AC09FB7F894EE89FF896083E88994
:100B8000F98980818370806480839FBF81E090E0D9
:100B9000DF91CF911F910F91FF90EF900895CF9328
:100BA000DF93EC01888D8823C9F0EA89FB89808175
:100BB00085FD05C0A889B9898C9186FD0FC00FB647
:100BC00007FCF5CF808185FFF2CFA889B9898C9188
:100BD00085FFEDCFCE010E946005E7CFDF91CF9179
:100BE000089580E090E0892B21F00E945605811144
:100BF0000DC080E090E0892B71F080E090E0892BBF
:100C000051F00E940000811104C008950E9400006C
:100C1000F0CF0C9400000895CF93DF93FB01228165
:100C200050814181223030F0252F342F81E08383A1
:100C300080E02EC0252F342FDC01A059BE4F4D91EE
:100C40005C91D901A423B523EC016AA97BA9A6175D
:100C5000B70749F0DC01A359BE4F2D913C91119784
:100C600012968C9115C0CA018095909563E0880F0B
:100C7000991F6A95E1F782239323892B41F083E042
:100C8000440F551F8A95E1F747602423352385E0FB
:100C900031832083828381E0DF91CF9108950E9488
:100CA000BB268F929F92AF92BF92CF92DF92EF922C
:100CB000FF920F931F93CF93DF93EC017B01CCA89E
:100CC000D12C860108501109DB0116969C918CE607
:100CD000890F833020F0983C09F0CFC003C09439CD
:100CE00009F4E4C08BE6890F823018F0983C09F0D3
:100CF0008EC06E0159EDC50ED11CD6012D913C91CF
:100D0000A801420F531F4139510520F0C852DF4F4F
:100D10001882B1C05E01B8EDAB0EB11CF501808147
:100D2000882309F415C1963929F0D70117969C91AB
:100D30008913A1C0FE01EB52FF4F40815181F701A1
:100D4000848195814817590709F095C04E01FBED44
:100D50008F0E911CD4018D919C91A801BE01615F01
:100D60007F4F820F931F0E94C826F60180819181D8
:100D7000080F191F11830083D70116968C918639AD
:100D800029F0F50180818150808373C0D5011C92C8
:100D9000F7018781FE01E952FF4F8083833809F410
:100DA00083C07E01FFECEF0EF11CF701A081B18141
:100DB000CE018A1B9B0B8B539F4F80179107F8F036
:100DC00032968AE001900D928A95E1F7D7018D91D4
:100DD0009C91F40160817181D6014D915C910A96DC
:100DE0000E94C826F601808191810A96D7012D9133
:100DF0003C911197820F931F8D939C933AC08FA5BE
:100E000098A90E941B138AA581608AA734C07E011D
:100E1000BFECEB0EF11CF701A081B181CE01C596AC
:100E20009D01281B390BC901800F911F8B3991053A
:100E300010F5E85CF10988E001900D928A95E1F7E0
:100E4000D701ED91FC911197118700878D919C91AD
:100E5000BE01615F7F4FA8010A960E94C826B2E0DA
:100E6000CB0ED11CF70180819181C80ED91ED18291
:100E7000C08281E06DC080E06BC0933841F6DE0136
:100E8000AF52BF4FFE01379688E001900D928A95D0
:100E9000E1F7FE01E552FF4FCE010F96918380836B
:100EA000C752DF4F1983088382E052C0F701878160
:100EB000873008F02BCFFE01EB52FF4F408151816C
:100EC000D70114962D913C91159734976F014217D5
:100ED000530739F4408151812D913C9142175307BA
:100EE00041F2F8E18F9FC0011124FE01E153FF4F51
:100EF00020813181AE01421B530B9A012B533F4F8E
:100F0000281739073CF48AA581608AA78FA598A97C
:100F10000E941B13FE01379688E0D60101900D92C6
:100F20008A95E1F7FE01E552FF4FBE01615F7F4FF9
:100F3000A801808191810E94C826FE01E752FF4FDF
:100F400011830083C852DF4F88818150888391CFFD
:100F5000DF91CF911F910F91FF90EF90DF90CF9095
:100F6000BF90AF909F908F9008951F920F920FB6F1
:100F70000F9211242F933F934F935F936F937F931F
:100F80008F939F93AF93BF93EF93FF9387E491E089
:100F90000E946005FF91EF91BF91AF919F918F915A
:100FA0007F916F915F914F913F912F910F900FBE65
:100FB0000F901F9018951F920F920FB60F92112449
:100FC0002F938F939F93EF93FF93E0915701F091AD
:100FD00058018081E0915D01F0915E0182FD12C0B7
:100FE0009081809160018F5F8F73209161018217E2
:100FF00051F0E0916001F0E0E95BFE4F958F809346
:10100000600101C08081FF91EF919F918F912F919D
:101010000F900FBE0F901F901895CF93DF93CDB711
:10102000DEB728970FB6F894DEBF0FBECDBFAC0178
:101030009CEC99839A839B839C839D831E821F8251
:1010400018869A01E1E021153105C9F0611103C04C
:101050004115510569F4D901A770BB27A85FBE4FA0
:101060008C91A1E0B0E0AC0FBD1FAE0FB11D8C9311
:1010700083E0369527958A95E1F7EF5FE4CF61111C
:1010800002C0452B39F4E62FF0E0E85FFE4F808187
:10109000898305C0F0E0E95FFE4F80818A83298162
:1010A0003A814B815C816D817E818F819885289604
:1010B0000FB6F894DEBF0FBECDBFDF91CF9108957C
:1010C0006F927F928F929F92AF92BF92CF92DF9258
:1010D000EF92FF920F931F93CF93DF93CDB7DEB7BD
:1010E00028970FB6F894DEBF0FBECDBF8C01CB01A1
:1010F000F22E642F0E940D0839014A015B016C0138
:10110000F80182A582FD04C087A590A90E941B1347
:10111000F80187A590A9FF2011F060E001C061E00F
:101120000E949E0DF801E7A4F0A869827A828B8262
:101130009C82AD82BE82CF82D886F7012685AE0121
:101140004F5F5F4F6AE0C7010E94C012F70126851A
:10115000AE014F5F5F4F60E1C7010E94C012F7010F
:10116000478161E1C7010E94A512F801D4A8E7A454
:10117000F0A86FEFC7010E944E1280FF0DC06FEF05
:10118000C7010E944E1284FFF4CF40E167E0C7011F
:101190000E94A512F12C0EC020EA4D2DB801695F06
:1011A0007F4FC7010E94641261E0C7010E943B1299
:1011B000FF24F394F80182A582FD0FC04181528182
:1011C0006381748187A590A90E94C90EF82E60E002
:1011D000F80187A590A90E949E0D8F2D28960FB625
:1011E000F894DEBF0FBECDBFDF91CF911F910F915D
:1011F000FF90EF90DF90CF90BF90AF909F908F9037
:101200007F906F9008952F923F924F925F926F92CE
:101210007F928F929F92AF92BF92CF92DF92EF9286
:10122000FF920F931F93CF93DF9300D01F92CDB700
:10123000DEB79B838A83FC0192A5892F827091FD82
:1012400019C0E153FF4F4A815B814B5C5F4F90FDBA
:1012500007C020813181241B350B2937310554F01B
:10126000208131814217530708F477C19E7FEA81BC
:10127000FB8192A7712CEA80FB80F7E0EF0EF11C56
:10128000F8E52F2EF2E03F2E44244394512CCA80DF
:10129000DB8021E9C21A2EEFD20AB4E2AB2EB9E00C
:1012A000BB2EEA81FB8107A510A9F80180819181FD
:1012B0008F3F910509F450C1828193818F3F910541
:1012C00009F44AC167E1C8010E94EB12F82FF170DE
:1012D0009F2E80FD41C16FEFC8010E944E12EA812E
:1012E000FB8107A510A9C8010E94381280E60E9460
:1012F00047128FEF0E944712882EC8010E943512B4
:10130000F0E2F81558F462EEC8010E944E1262E055
:1013100070E080E090E00E94F80F01C0982CEA8114
:10132000FB8194AAF7E0F91538F06AE070E080E0FC
:1013300090E00E94F80FB5CFEA81FB8107A510A9C4
:10134000F8018781682E981608F4692CF8019085B9
:10135000911103C08619898301C01982C8010E94B6
:10136000381281E60E94471247016A94FFEF6F121C
:1013700002C0998007C08FEF0E944712F401819349
:101380004F01F3CF992029F08FEF0E9447129A94D2
:10139000F9CFC8010E94351240E767E0C8010E94FA
:1013A000A512EA81FB8161857285CB01009759F016
:1013B000282F2770263008F074CFE3E096958795A4
:1013C000EA95E1F7F3CFEA81FB81758482A993A9BD
:1013D0006817790709F048C0F2E87F1609F461CF71
:1013E00020E8721212C064327940F9F0EA81FB8180
:1013F000B286A18642E064E279E0CF010E94C30A8E
:101400006AE070E080E090E04DC0F3EC7F120DC028
:101410006115710551F0EA81FB817087678312863F
:10142000118640E060E070E044C0EA81FB8181A564
:10143000882319F077FE0EC003C0F1EC7F120AC0BA
:101440008CE6870D833030F028EC721619F033E803
:10145000731282C0B7018A819B810E94510682303B
:1014600009F01FCF83E879C06034710509F06EC0C0
:10147000E2EC7E1220C0EA81FB8122A523FD11CF80
:101480008432F9E09F0709F40CCFEA81FB812781C0
:1014900030853287218790878783F601608170E0ED
:1014A00080E090E00E94F80FEA81FB8161857285FF
:1014B00042E0CF014EC0B7018A819B810E94510654
:1014C000182FEA81FB8180818823E1F182A993A909
:1014D00053E0969587955A95E1F7892B21F080E6A0
:1014E00099E00E94ED0FEA81FB8182A993A98370A4
:1014F00099279C01229DC001239D900D329D900D46
:1015000011240E94ED0FEA81FB8181A9882371F0EB
:1015100090E001979C01220F331F820F931FB201AD
:1015200002C0660F771F8A95E2F702C060E070E0A4
:1015300083E0660F771F8A95E1F744E08A819B81FB
:101540000E94C30A123009F0ACCE8CCF41E08A81F0
:101550009B810E94C30AA5CE872D0F900F900F90FC
:10156000DF91CF911F910F91FF90EF90DF90CF907F
:10157000BF90AF909F908F907F906F905F904F90B3
:101580003F902F900895CF92DF92EF92FF920F93AA
:101590001F93CF93DF9300D000D01F92CDB7DEB75B
:1015A0009B012115310561F0522F5770563030F4F0
:1015B00053E0369527955A95E1F7F3CF80E097C031
:1015C000F42E6B018C01FC01858581548D83198279
:1015D0001A821B821C827A8369834B83BE016F5FF0
:1015E0007F4FC8010E940C0669817A812C814B8152
:1015F000C8010E946008F1E0FF1228C0811102C0FA
:10160000F12C32C089819A81C816D90609F58D81DD
:101610008F37F0F481ECF801858787819085928778
:1016200081879A838983FB821C82BE016F5F7F4F13
:10163000C8010E940C0688E0F80184AB69817A81B8
:101640002C814B81C8010E94600802C08823C1F22E
:1016500089819A81C816D90629F0FF2079F0F3E034
:10166000FF1661F0FF24F394F80182A582FD04C007
:1016700087A590A90E9450138F2D39C08D818F3777
:1016800088F7F80182A582FF11C0418152816381F0
:10169000748187A590A90E94C90EF80182A58B7F4D
:1016A00082A760E087A590A90E949E0DF80187A5FA
:1016B00090A90E9450130E94B2176B017C01C801CF
:1016C0000E940309813C71F20E94B217AB01BC0178
:1016D0004C195D096E097F09F80185819681A0E0AA
:1016E000B0E084179507A607B70748F789CF0F9092
:1016F0000F900F900F900F90DF91CF911F910F914E
:10170000FF90EF90DF90CF900895EF92FF920F93AC
:101710001F93CF93DF93EC017B01BA018AA99BA9A8
:10172000F70191838083DE01179688E001900D9286
:101730008A95E1F72115310529F0A901CE010F960F
:101740000E94C826F701628173810833110561F098
:101750006034710511F444E001C043E00617170737
:1017600009F442E0B80101C040E0CE01DF91CF9121
:101770001F910F91FF90EF900C94C30A2F923F920C
:101780004F925F926F927F928F929F92AF92BF9291
:10179000CF92DF92EF92FF920F931F93CF93DF933D
:1017A000EC017B015A01690148010E94B2174BA468
:1017B0005CA46DA47EA4DC01CB0184199509A60963
:1017C000B7094997A105B10548F088EC90E00E945F
:1017D000ED0F89E1C816D104E8F406C0CE010E94DD
:1017E000030987FFE2CFF1CF88E08C0D8CAB840139
:1017F0009601A501B701CE010E94850B182F882301
:1018000011F011E092C00E94B2176BA77CA78DA7C0
:101810009EA78BC0E1E9CE16D10408F085C0C601B1
:1018200068E170E00E94B52421E0892B09F420E0F2
:10183000C60168E170E00E94B524722E760EF701B1
:10184000828193818034910539F08AA584608AA7CA
:101850008FA598A90E941B13F7014680512C612C7B
:1018600084E9282E96E9392EF7017782F1E07F127C
:1018700004C0F7013682478208C0611003C0F70137
:10188000268203C085E9F7018683E8E16E9EA00108
:1018900011249601241B350B2931310510F028E164
:1018A00030E088E0820F8CAB4A0D5B1D8401B701EC
:1018B000CE010E94850B182F81110BC062E070E0F1
:1018C00080E090E00E94F80F5394F2E0F51560F686
:1018D00006C07A946394772011F0512CC5CFF7019C
:1018E00046828AA582FF12C049815A816B817C8120
:1018F0008FA598A90E94C90E182F8FA598A90E949C
:10190000501360E08FA598A90E949E0D8AA58B7F39
:101910008AA7112349F0772009F473CF0E94B217E8
:101920006BA77CA78DA79EA710E0812FDF91CF9199
:101930001F910F91FF90EF90DF90CF90BF90AF90ED
:101940009F908F907F906F905F904F903F902F90DF
:1019500008950F931F93CF93DF938C01D62F66E0EA
:101960000E94EB12C82FC77DD23031F4C0628BE9E0
:1019700090E0A0E0B0E00CC0D13029F085E590E027
:10198000A0E0B0E005C0C86081E490E0A0E0B0E075
:10199000F801808B918BA28BB38B4C2F66E0C80132
:1019A0000E94A51266E0C8010E94EB1291E0C813E4
:1019B00090E0892FDF91CF911F910F910895CF93E0
:1019C000DF93EC016DE10E94EB12482F44606DE162
:1019D000CE010E94A5126CE1CE010E94EB12482FAD
:1019E0004F636CE1CE010E94A51281E08887DF91F0
:1019F000CF910895009769F0FC0101900020E9F76C
:101A00003197AF01481B590BBC0187E491E00C945E
:101A1000EB0480E090E008958F929F92AF92BF9286
:101A20000F931F93CF93DF93CDB7DEB7A1970FB678
:101A3000F894DEBF0FBECDBF19A2423008F44AE0D1
:101A40008E010F5D1F4F842E912CA12CB12CA5016E
:101A500094010E94DD24E62FB901CA010150110949
:101A6000EA3014F4E05D01C0E95CD801EC93232B6B
:101A7000242B252B61F7C8010E94FA0CA1960FB602
:101A8000F894DEBF0FBECDBFDF91CF911F910F91B4
:101A9000BF90AF909F908F90089589E391E00C9450
:101AA000FA0C0F931F93CF93DF938C01C0E0D0E02B
:101AB000F801EC0FFD1F6491662341F087E491E08B
:101AC0000E948205892B11F02196F2CFCE01DF9181
:101AD000CF911F910F910895CF93DF930E94510DE5
:101AE000EC010E944D0D8C0F9D1FDF91CF91089549
:101AF000CF93DF93682F70E080E090E04AE00E948F
:101B00000C0DEC010E944D0D8C0F9D1FDF91CF91AC
:101B10000895CF93DF93BC0180E090E04AE00E94FB
:101B20000C0DEC010E944D0D8C0F9D1FDF91CF918C
:101B30000895682F87E491E00C9482051F93CF935A
:101B4000DF93EC01162F61E00E94EB12482F112366
:101B500011F0416001C04E7F61E0CE01DF91CF9175
:101B60001F910C94A5127F928F929F92AF92BF9279
:101B7000CF92DF92EF92FF920F931F93CF93DF9359
:101B8000CDB7DEB728970FB6F894DEBF0FBECDBF36
:101B9000FC019B012115310559F0822F8770863099
:101BA00008F0E3C0A3E036952795AA95E1F7F2CFB8
:101BB00062AB73AB87A590A9DC012D913C912F3FBF
:101BC000310509F4D2C0DC0112962D913C91139796
:101BD0002F3F310509F4C9C0E72EF62E8F0160E0D2
:101BE0000E949E0DF80187A590A90E94DF0CD801E4
:101BF000D2968D919C91D39766E070E00E94B524B7
:101C0000482F440F4B5FB0E14B9FA001112445606A
:101C100064E0F80187A590A90E94A51289E190E0EF
:101C2000A0E0B0E0F80181839283A383B4838BE4C6
:101C300090E09683858322A933A940E08FEF9FEF40
:101C4000B90168237923672B39F073E0880F991F56
:101C50007A95E1F74F5FF4CFF80141AB809590950D
:101C6000E059FE4F9183808363E0969587956A954E
:101C7000E1F73397A9014823592351834083009703
:101C800059F043E0369527954A95E1F753E096954C
:101C900087955A95E1F7F3CFF801E159FE4F20837C
:101CA00086E0782E88248394912C7A94FFEF7F1617
:101CB00009F454C0672D8F2D9E2D0E940D08D80168
:101CC0009F96CD90DC90D09729833A834B835C8399
:101CD0006D837E838F839887A72CB12C71100BC0E6
:101CE000F601468550E0BE016F5F7F4FC601099641
:101CF0000E94C82603C0F1E07F1208C0F501E65E2D
:101D0000F74F6491D6011E962C9105C0F501E65E51
:101D1000F74F649121E0AE014F5F5F4FC6010E9413
:101D2000C012F501EC5EF74F6491F6014781C601E0
:101D30000E94A51262E0C6010E94EB12F501E25F6B
:101D4000F74FE491940101C0220FEA95EAF7482F7A
:101D5000422B62E0C6010E94A512A7CFD8019F9630
:101D60008D919C91D0970E94501328960FB6F894AD
:101D7000DEBF0FBECDBFDF91CF911F910F91FF90BE
:101D8000EF90DF90CF90BF90AF909F908F907F901B
:101D900008958F929F92AF92BF92CF92DF92EF926F
:101DA000FF92CF93DF93EC016A017B010E94B2178F
:101DB0004B015C0167E1CE010E94EB1284FD29C05A
:101DC0006FEFCE010E944E1284FFF4CF40E167E036
:101DD000CE010E94A51260E0CE010E943B1261E09C
:101DE000CE010E943B120E94B217DC01CB01881980
:101DF0009909AA09BB098C159D05AE05BF05D0F24E
:101E000060E0CE010E943B12CE010E94611280E090
:101E100005C060E0CE010E943B1281E0DF91CF91CE
:101E2000FF90EF90DF90CF90BF90AF909F908F90FA
:101E30000895CF92DF92EF92FF92CF93DF936C01E0
:101E4000990FEE08FF08F7FE11C08DE20E94990D70
:101E5000EC0166277727CB016C197D098E099F0954
:101E60004AE00E940C0DC80FD91F06C04AE0C70106
:101E7000B6010E940C0DEC010E944D0D8C0F9D1FB0
:101E8000DF91CF91FF90EF90DF90CF90089560E0C9
:101E90008CEF91E00E943B1260E08CEF91E00E9499
:101EA000EB12482F4D7F60E08CEF91E00C94A5126F
:101EB000CF93C82F66E08CEF91E00E94EB12887FF1
:101EC000C43018F4CC0FCF5F01C0C7E0482F4C2BB3
:101ED00066E08CEF91E0CF910C94A51290E0FC01AC
:101EE000E650F84F2491FC01EA51F84F8491882381
:101EF00099F090E0880F991FFC01E452F84FA591EA
:101F0000B491FC01EE52F84F859194918FB7F894FB
:101F1000EC91E22BEC938FBF0895362F90E0FC01FB
:101F2000E254F84F4491FC01E650F84F2491FC0133
:101F3000EA51F84F8491882309F44EC04423C1F13B
:101F400050E0FA013197ED30F10590F5E059FF4F7F
:101F50000C941E25909180009F7703C09091800083
:101F60009F7D9093800024C094B59F7702C094B564
:101F70009F7D94BD1DC09091B0009F7703C090914C
:101F8000B0009F7D9093B00013C0909190009F7718
:101F900003C0909190009F7D9093900009C0909114
:101FA000A0009F7703C09091A0009F7D9093A00018
:101FB000E82FF0E0EE0FFF1FEE52F84FA591B4911D
:101FC0009FB7F894311104C08C912095282302C04A
:101FD000EC912E2B2C939FBF08958A31910538F0F8
:101FE000469796958795969587950197F1F7089569
:101FF0008F929F92AF92BF92CF92DF92EF92FF9219
:102000006B017C010E948D174B015C01C114D1044E
:10201000E104F104F1F00E948D17DC01CB01881975
:102020009909AA09BB09883E9340A105B10570F33F
:1020300021E0C21AD108E108F10888EE880E83E099
:10204000981EA11CB11CC114D104E104F10419F7BC
:10205000DDCFFF90EF90DF90CF90BF90AF909F903B
:102060008F9008950F931F93CF93DF93C4E6D0E032
:1020700098819E7F9883862B80937C000AE710E0EE
:10208000F8018081886880836AE070E080E090E0F9
:102090000E94F80F82E00E94B21684E00E94B216FD
:1020A000F80180818777808388818160888380912F
:1020B00045019091460196958795969587959093C1
:1020C000460180934501DF91CF911F910F910895B3
:1020D00086B169E170E080E090E00E94F80F86B17F
:1020E000817008952F923F924F925F926F927F92EC
:1020F0008F929F92AF92BF92CF92DF92EF92FF9218
:102100000F931F93CF93DF93CDB7DEB761970FB6D1
:10211000F894DEBF0FBECDBF67E18091EA019091D8
:10212000EB010E94EB1280FD03C080E090E06CC1E7
:102130008091EA019091EB010E941B13E091EC0168
:10214000F091ED0182A5826082A76AE070E080E0F4
:1021500090E00E94F80F64E279E08091EC019091A8
:10216000ED010E94B30D84E299E09093E501809324
:10217000E4010E94B2172B013C01C12CE12C90E438
:10218000292E312C3C862B868091000190910101F3
:102190009C012F5F3F4F30930101209300019E87E8
:1021A0008D8722EC2F878091EC019091ED01FC014D
:1021B00022A933A93A872987EE2089F02E2D30E015
:1021C00021503109A901440F551F240F351F01E08B
:1021D00010E002C0000F111F2A95E2F702C000E0D4
:1021E00010E020E030E040E050E0BE01675F7F4F4C
:1021F0000E94BE0B0E94B2174B015C01F12C809132
:10220000EC019091ED010E940309823C89F4FE01EA
:102210003196EF0DF11DEF0DF11DA091EC01B09184
:10222000ED0117968D919C91189791838083F3947B
:102230000E94B217DC01CB0188199909AA09BB09D0
:10224000C897A105B10508F0B0C0F3E0FF15B8F6D6
:10225000198AD12C23EC2F878091E601888BFE010F
:102260003196ED0DF11DED0DF11D008111811C87E1
:102270000B8720E030E040E050E0BE01675F7F4F19
:102280008091EC019091ED010E94BE0B0E94B2176B
:102290004B015C010E94B217DC01CB01881999093E
:1022A000AA09BB09813E9105A105B10550F48091B1
:1022B000EC019091ED010E940309898B803851F760
:1022C000DF2C65E070E080E090E00E94F80FD3948E
:1022D000DF1408F4BFCF89898038B1F5E091EC01B3
:1022E000F091ED0187859089009771F136852091F5
:1022F000E601321329C05CC063E070E080E090E04A
:102300000E94F80F08E310E020E030E040E050E0E9
:10231000BE01675F7F4F8091EC019091ED010E94BB
:10232000BE0B811166C0FA94F110E6CF64E279E049
:102330008091EC019091ED010E94B30D84E299E04F
:102340009093E5018093E4010E94B217DC01CB0178
:1023500084199509A609B70981339547A105B105E7
:1023600008F0E3CE2C2D30E02F5F3F4F8E2D90E014
:102370000196289FB001299F700D389F700D112480
:10238000675E7F4F660F771F072E000C880B990B37
:102390000E94F80F81E08E0D8370E82E81E08C0D95
:1023A0006AE00E94A924C92EEDCEFF2069F250CF29
:1023B0009093E5018093E4018091EA019091EB0113
:1023C0000E941B136AE070E080E090E00E94F80F2A
:1023D0006091E4017091E5018091EC019091ED0133
:1023E0000E94B30D1C861B86F1E8FF8787E0F82E5C
:1023F00089CFE091EC01F091ED0182A58D7F82A75C
:102400008091E4019091E50161960FB6F894DEBFEA
:102410000FBECDBFDF91CF911F910F91FF90EF9035
:10242000DF90CF90BF90AF909F908F907F906F90F4
:102430005F904F903F902F900895CF93DF93EC01E2
:102440008CB58F7D8CBD8CB5837F8CBD8CB58C7F1E
:102450008CBD8DB581608DBD8A810E948D0F8C8968
:102460009D89DF91CF910C94ED0F61E00C941D12CA
:1024700060E00C941D12FC012081318182819381E6
:102480002817390719F0822F0C948D0F08958EBDEF
:1024900000000DB407FEFDCF8EB508951F93CF93B6
:1024A000DF93EC01162F0E943812812F0E944712F1
:1024B000182FCE010E943512812FDF91CF911F91ED
:1024C000089561EE0C944E12BF92CF92DF92EF927C
:1024D000FF920F931F93CF93DF938C01B62EC72EDD
:1024E000F22EFC01C781DC2F4C1708F4D42FF80121
:1024F0008085811102C0CD1B01C0C0E0C8010E94CF
:1025000038128F2D0E944712D82EEB2CFC2CDD2385
:1025100039F0F70181917F010E944712D150F7CF26
:10252000CC2329F080E00E944712C150F9CFC801A6
:102530000E9435128D2DDF91CF911F910F91FF9049
:10254000EF90DF90CF90BF9008950F931F93CF939C
:10255000DF938C01C62FD42F0E9438128C2F8F71DD
:1025600080620E944712C82F8D2F0E944712C80117
:102570000E9435128C2FDF91CF911F910F910895FA
:10258000CF92DF92EF92FF920F931F93CF93DF933F
:102590007C01162F6A01C22F0E943812812F8F7181
:1025A00080620E944712D82F8601CC2339F0F801AF
:1025B00081918F010E944712C150F7CFC7010E943D
:1025C00035128D2FDF91CF911F910F91FF90EF90DA
:1025D000DF90CF9008951F93CF93DF93EC01162FD8
:1025E0000E943812812F8F710E9447128FEF0E9434
:1025F0004712182FCE010E943512812FDF91CF9103
:102600001F910895CF93DF93EC0160E00E94EB12DD
:1026100081FD0EC0482F426060E0CE010E94A512ED
:1026200065E070E080E090E0DF91CF910C94F80FCE
:10263000DF91CF910895CF93DF93EC0160E00E948A
:102640003B12888999890E94ED0F6DE1CE010E94AD
:10265000EB1281FF07C0888999890E94ED0FCE0196
:102660000E94611260E0CE010E94EB12482F4E7F63
:1026700060E0CE010E94A51262E0CE010E94EB1242
:10268000EEE0F8E0E49141E050E001C0440FEA954B
:10269000EAF7482B62E0CE01DF91CF910C94A512AE
:1026A000CF93DF93EC010E94021360E0CE010E9401
:1026B000EB12482F416060E0CE010E94A51240E776
:1026C00067E0CE010E94A51261E0CE010E943B129C
:1026D0008985882349F02E85AE01475F5F4F6AE008
:1026E000CE010E94C01214C062E0CE010E94EB1223
:1026F000EEE0F8E0E49121E030E001C0220FEA953D
:10270000EAF72095422F482362E0CE010E94A512ED
:102710006DE1CE010E94EB1281FF05C0CE01DF9179
:10272000CF910C946112DF91CF9108951F93CF93B5
:10273000DF93EC01888199812A813B81821793077D
:1027400011F00E946E0F8A819B81288139812817A0
:10275000390711F00E946E0F1FB7F89480916F0433
:10276000811124C0E0EFF7E08491E4E0F8E0949177
:10277000E82FF0E0EE0FFF1FE452F84FA591B4915F
:10278000EC91E92321F461E08AE00E948D0F8AE058
:102790000E946E0F8CB580618CBD8CB580648CBD41
:1027A0008DE00E946E0F8BE00E946E0F80916F048F
:1027B0008F5F80936F041FBF60E0CE010E943B12C9
:1027C00061E0CE010E941D1265E070E080E090E0C3
:1027D0000E94F80F4CE060E0CE010E94A5124FE588
:1027E00064E0CE010E94A51262E0CE010E94A90C15
:1027F000882311F081E08E8366E0CE010E94EB1207
:10280000182F60E0CE010E94A90CCE010E94381260
:1028100080E50E94471283E70E944712CE010E9482
:10282000351240E06DE1CE010E94A51240E06CE15E
:10283000CE010E94A512188640E767E0CE010E94F3
:10284000A5124CE465E0CE010E94A51262EECE0115
:102850000E944E12CE010E946112CE010E9402130C
:1028600060E0CE010E94EB12482F4E7F60E0CE0167
:102870000E94A512115081E01E3F08F080E0DF9118
:10288000CF911F910895CF92DF92EF92FF920F9315
:102890001F93CF93DF93EB017B01E40EF51E182FFE
:1028A000CE15DF0571F00991C12ED12CC6010E9411
:1028B0005C24081721F0602FC6010E9464241F5F6A
:1028C000EFCFDF91CF911F910F91FF90EF90DF90AD
:1028D000CF900895EF92FF921F93CF93DF93EB0178
:1028E0007B01E40EF51E182FCE15DF0539F0812F80
:1028F00090E00E945C2489931F5FF6CFDF91CF9117
:102900001F91FF90EF900895CF93DF9300D0CDB744
:10291000DEB71A82198242E050E0BE016F5F7F4F3E
:102920000E946A1489819A810F900F90DF91CF9154
:102930000895CF93C82F419865E070E080E090E063
:102940000E94F80F60EC86E00E9432106091450111
:102950007091460180E090E00E94C0252EEC3DE899
:102960004BE450E40E944E2620E030E040E05FE37C
:102970000E9425250E949125709346016093450190
:1029800080914501909146019093A5028093A40205
:10299000CC2371F083ED98E00E94510D8091A40248
:1029A0009091A5020E94890D87E491E00E94CF05D5
:1029B000419A60E48EE00E943210209145013091EE
:1029C000460140E050E064EB7BE281E190E00E9450
:1029D000FF243093A7022093A602CC2379F088EC41
:1029E00098E00E94510D8091A6029091A7020E944A
:1029F000890D87E491E0CF910C94CF05CF91089594
:102A0000EF92FF920F931F93CF93DF93CDB7DEB773
:102A100028970FB6F894DEBF0FBECDBF80911B0282
:102A2000811105C08CEF91E00E9461125CC0813081
:102A3000E9F48091A202811114C084E0F82E92E89A
:102A4000E92EFA94FF2039F08091E4019091E5019C
:102A50008432994069F48091EA019091EB010E94DF
:102A60001B130E94721021E0892BF1F520E03CC07D
:102A70008091EC019091ED010E94030967E1809142
:102A8000EA019091EB010E94EB1281FD2CC0809134
:102A9000EC019091ED01FC0122A520FD24C01C82D7
:102AA0001B822091000130910101A9014F5F5F4F0E
:102AB00050930101409300013E832D83EF8208E390
:102AC00010E020E030E040E050E0BE016F5F7F4F5B
:102AD0000E94BE0B811107C067E670E080E090E0C5
:102AE0000E94F80FAECF21E0822F28960FB6F894FF
:102AF000DEBF0FBECDBFDF91CF911F910F91FF9031
:102B0000EF90089520913D019F938F93822F90E045
:102B100021E430E0281B390B3F932F9381559D4FC3
:102B20009F938F930E94DC26E0913D018E0F80934E
:102B30003D010F900F900F900F900F900F908234E7
:102B400038F081E480933D011092F00280E0089516
:102B5000E82FF0E0E155FD4F108281E008950FB6B7
:102B6000F894A895909160009861909360001092FD
:102B700060000FBE8A30A9F083FD02C098E001C05A
:102B800098E28770892B98E10FB6F894A8959093F6
:102B900060000FBE8093600080916000806480932D
:102BA000600083B7817F682B63BFF89483B781602F
:102BB00083BF85B7806685BF8F7D85BF78948895F4
:102BC00083B78E7F83BF789408950FB6F894A89545
:102BD00090916000986190936000109260000FBE29
:102BE0008A3049F191E090936E0483FD02C098E031
:102BF00001C098E28770892B98E10FB6F894A895E8
:102C0000909360000FBE80936000809160008064AC
:102C10008093600083B7817F83BFF89483B781601E
:102C200083BF7894889583B78E7F83BF7894809193
:102C30006E048111EFCF08951F920F920FB60F927D
:102C400011248F930FB6F894A89580916000886145
:102C500080936000109260000FBE10926E048F91FE
:102C60000F900FBE0F901F901895F8949BE088E18D
:102C70000FB6F894A895809360000FBE9093600003
:102C8000FFCF811102C089E001C08AE010923C01AF
:102C900090916D04992311F0E99A01C0E9989091FF
:102CA000680092609093680090916C009960909396
:102CB0006C0064E00E94AF1580913C01E99890910E
:102CC00068009D7F9093680090916C00967F909330
:102CD0006C0008951F920F920FB60F9211248F93DC
:102CE000F89483B78E7F83BFE89884E080933C019B
:102CF00078948F910F900FBE0F901F9018951F9290
:102D00000F920FB60F9211248F93F89483B78E7F92
:102D100083BF309B02C082E001C081E080933C0110
:102D200078948F910F900FBE0F901F9018951F925F
:102D30000F920FB60F9211248F93F89483B78E7F62
:102D400083BFE99883E080933C0178948F910F9042
:102D50000FBE0F901F901895882311F05C9A08956C
:102D60005C980895109246011092450180936C047E
:102D700062E08AE00E94AF1580916C048111F8CF67
:102D800008951F920F920FB60F9211242F933F9325
:102D90004F938F939F939091780040917900209169
:102DA000450130914601892F90E0942B820F931FAB
:102DB000909346018093450180916C04882329F00B
:102DC00080916C04815080936C049F918F914F91FE
:102DD0003F912F910F900FBE0F901F901895CF939A
:102DE000DF931F92CDB7DEB7198241E050E0BE01FC
:102DF0006F5F7F4F0E946A1489810F90DF91CF919E
:102E000008951F93CF93DF93C82F80E00E9484140E
:102E1000C1115EC08A3C9B4A09F05AC082E00E9400
:102E2000EF1691E0811101C090E09093140283E0CD
:102E30000E94EF1691E0811101C090E0909315027D
:102E400084E00E94EF1691E0811101C090E0909320
:102E5000160285E00E948414909318028093170252
:102E600087E00E94841490931A028093190289E0EB
:102E70000E94EF168093AE0242E850E06CE172E0EF
:102E80008AE00E946A148DE80E94EF1680931B026C
:102E900089E90E94EF1691E0811101C090E09093C2
:102EA0009F028DE90E94EF168093A0028EE90E9496
:102EB000EF168093A1028FE90E94EF1691E0811135
:102EC00001C090E09093A202DF91CF911F910895ED
:102ED000C0E0D0E0FE01E152F74F1491CE010E9414
:102EE0005C24181721F0612FCE010E9464242196E2
:102EF000C03AD10579F792CFCF93DF931F92CDB728
:102F0000DEB7698341E050E0BE016F5F7F4F0E94F2
:102F100043140F90DF91CF9108953FB7F8948091BB
:102F2000750490917604A0917704B091780426B549
:102F3000A89B05C02F3F19F00196A11DB11D3FBFF1
:102F4000BA2FA92F982F8827820F911DA11DB11D7F
:102F5000BC01CD0146E0660F771F881F991F4A9577
:102F6000D1F708952FB7F8946091710470917204AD
:102F700080917304909174042FBF08951F920F9253
:102F80000FB60F9211242F933F938F939F93AF937C
:102F9000BF938091710490917204A0917304B091D9
:102FA00074043091700420E3230F2D3720F44096F1
:102FB000A11DB11D05C023EB230F4196A11DB11D1D
:102FC000209370048093710490937204A09373040F
:102FD000B09374048091750490917604A091770465
:102FE000B09178040196A11DB11D80937504909352
:102FF0007604A0937704B0937804BF91AF919F912A
:103000008F913F912F910F900FBE0F901F901895A9
:10301000CF93DF93CDB7DEB768970FB6F894DEBFD6
:103020000FBECDBF789484B5826084BD84B58160C5
:1030300084BD85B5826085BD85B5816085BD809183
:103040006E00816080936E001092810080918100FB
:1030500082608093810080918000816080938000F5
:103060008091B10084608093B1008091B000816054
:103070008093B00080919100826080939100809154
:103080009100816080939100809190008160809395
:1030900090008091A10082608093A1008091A100A6
:1030A00081608093A1008091A00081608093A00046
:1030B00080917A008B7F80937A0080917A00826081
:1030C00080937A0080917A00816080937A00809169
:1030D0007A00806880937A001092C1008FEE84B9E4
:1030E00084E085B916E017B902E008B982EF8AB921
:1030F0001BB81DB81EB80FB6F894A8958091600053
:10310000886180936000109260000FBE10927A0078
:10311000809164008160809364008091640082608B
:1031200080936400809164008F7D8093640080911F
:103130006400886080936400809164008064809360
:1031400064008091650081608093650080916500D6
:103150008860809365008091640080618093640042
:103160008091650080618093650080916500806238
:1031700080936500809165008460809365008091F4
:1031800064008B7F809364008091640080688093EA
:10319000640080EC80937E0080917A00816080934F
:1031A0007A001DBA1092680010926B0010926C00A9
:1031B00010926D001092690083E08CBB0E94681031
:1031C000E82E8823D9F1809164008D7F809364007C
:1031D00083E00E94E515E0915701F09158010083CA
:1031E000E0915301F09154011082E0915501F0916A
:1031F00056018CE0808310925F01E0915B01F091B9
:103200005C011083E0915901F0915A018081806145
:103210008083E0915901F0915A0180818860808318
:10322000E0915901F0915A01808180688083E0919A
:103230005901F0915A0180818F7D808380E00E9446
:10324000011780911B02811111C08CEF91E00E9447
:103250009613882309F429C163E08CEF91E00E9462
:10326000EB128150833008F020C14DC0813009F04D
:103270001CC18CE90E94EF16882309F41CC18093BD
:10328000E60180E90E94EF16082F8FE80E94EF16F2
:10329000182F8091EA019091EB010E9496131093F0
:1032A000F7018091EA019091EB011D3708F01DE7CD
:1032B000412F65E00E94A512602F8091EA01909154
:1032C000EB010E94A90C8091EC019091ED0121E0AD
:1032D000FC0121A72091E601222361F084E299E01C
:1032E0009093E5018093E4010E947210892B09F408
:1032F000DCC031C71092E5011092E40160E070E09B
:103300000E94B30D28C780E90E94EF16682F8CEF4A
:1033100091E00E94A90C882309F4C7C060E08CEFFB
:1033200091E00E94EB12482F4F7860E08CEF91E023
:103330000E94A51243E063E08CEF91E00E94A51289
:1033400085E080930A0280E28093030288E90E946C
:10335000EF16182F60E08CEF91E0112351F00E94DE
:10336000EB12837F482F113011F4486006C04C6087
:1033700004C00E94EB12482F477F60E08CEF91E081
:103380000E94A5128EE80E94EF160E94580F8FE847
:103390000E94EF168D3708F08DE7482F65E08CEF1F
:1033A00091E00E94A51287E90E94EF16811105C0E5
:1033B0008CEF91E00E94DF0C03C080E28093030257
:1033C00081E90E94EF16F82E1EEF180F59F01370C6
:1033D000412F63E08CEF91E00E94A5121E5F1093D5
:1033E0000A0209C040E063E08CEF91E00E94A51260
:1033F00082E080930A028E010F5F1F4F85E0F80183
:1034000011928A95E9F74F2D50E0B80182E90E94A8
:103410006A1489E90E94EF16882311F04FE301C076
:1034200040E061E08CEF91E00E94A5128AE90E94E1
:10343000EF16F82E8BE90E94EF16F0E18F9FC00186
:1034400011244F2D4F70482B64E08CEF91E00E94C7
:10345000A51220910A02A8016AE08CEF91E00E9477
:10346000C01220910A02A80160E18CEF91E00E9455
:10347000C0124091030261E18CEF91E00E94A5121D
:1034800010920C0210920D0210920E0210920F0276
:103490008CEF91E00E9450138CEF91E00E941B137F
:1034A0008CEF91E00E94611262C610E00E94470F0B
:1034B000EE2041F104C0EE2009F45BC610E084E088
:1034C00091E00E946C0D8FEF90E00E94510D81E021
:1034D00090E00E94190F8AEF90E00E94510D812F19
:1034E00090E00E94190F81E08093440189E291E00D
:1034F0000E946C0D87E491E00E94CF0581E00E945C
:10350000AC160BC0112309F434C60E9400158823A1
:1035100009F42FC680E08093440196B198708091A1
:103520001402811104C081E0911104C002C081E045
:10353000911180E08093A3027E01F9E0EF0EF11C6F
:10354000EAE02E2E312C109144011111E4C2809139
:1035500015020E94AC1680E00E94991410923D0161
:1035600081E080933E01ECE1F2E001900020E9F778
:103570009F012250310929014CE1A42E42E0B42ED2
:10358000AE014F5F5F4F4A0156E0C52E62E3662EE3
:10359000712C76E6D72EF5018081882309F430C19D
:1035A0004A145B0408F42CC165E270E0C5010E9476
:1035B000D1268C01009709F420C1A816B90671F034
:1035C000FC011082C5010E948215811104C085E2B0
:1035D000F801808315C125E2F8012083F80181817B
:1035E000853249F481E291E00E9482155801F2E0AF
:1035F000AF0EB11CD0CF882309F402C1F80192812B
:10360000992309F4FDC0893651F0823509F4C9C502
:1036100031E0813481F030E0893411F01BC031E0B9
:1036200040911702509118025A8B498B2FEF1BC003
:10363000813409F0BEC541E050E06091A402709170
:10364000A502613D774010F040E050E05A8B498B75
:1036500020E009C0823461F74091A4025091A50294
:103660005A8B498B22E086E0E2E0F1E0D401019040
:103670000D928A95E1F7943619F49A831B8227C03C
:10368000983729F4332319F182E38B8320C09236D3
:1036900011F419821CC0933611F4998318C0923426
:1036A000B1F489899A89892B49F084E7898382E773
:1036B0008A8385E78B8385E68C8309C0D98281E67E
:1036C0008A838CE68B8383E78C8385E68D8389816F
:1036D000811127C0332311F0E1E001C0E2E08091C5
:1036E0003D01282F30E0A9014E0F511D42345105F4
:1036F0000CF07EC0D901A155BD4F99899C93A1E0E2
:10370000A80FE13029F0B0E0A155BD4F9A899C93F4
:103710008E0F80933D01E82FF0E0E155FD4F1082C0
:1037200067C0833609F050C089899A89222389F0BD
:10373000263679F0283629F4B3010E94B524CB014E
:1037400008C0223041F0273631F0233709F050C04D
:1037500002C053E001C054E040913D01642F70E08D
:10376000FB01E50FF11DE234F1050CF041C0309191
:103770003E01E1E0E30FE0933E01FB01E155FD4F27
:103780003083E1E0E40FF0E0E155FD4F2083E3E01A
:10379000E40F22E0240F30E0533039F4E0933D0190
:1037A000F901E155FD4F808323C0B1010E94B5248A
:1037B000D901A155BD4F7C934C5F40933D01F0E092
:1037C000E155FD4F608314C08A898F9389898F9357
:1037D0009F928F921F92CF92FF92EF920E94DC26CF
:1037E000C7010E9482150FB6F894DEBF0FBECDBF91
:1037F000580133E0A30EB11CCECEC5010E94821544
:10380000D0903D01DD2009F428C18CEF91E00E94A9
:1038100002130E94001580911B02811127C0809124
:10382000A202811102C020EB01C020EA4D2D6FEAF7
:1038300072E08CEF91E00E94641261E08CEF91E005
:103840000E943B1260E08CEF91E00E943B12E89AEC
:1038500064E082E00E94AF1580913C01E89840E767
:1038600067E08CEF91E00E94A512B1C0813009F0B1
:10387000F4C08091E4019091E5018432994009F40B
:10388000B1C0C090A1025091A0025C8B0E94B217FF
:10389000CC2009F473C032E3832E912CA12CB12CDF
:1038A0009B01AC012854344F4F4F5F4F2D8B3E8B03
:1038B0004F8B588FCB8A8091E4019091E50184323F
:1038C000994019F40FEF1FEF47C01C821B828091B3
:1038D0000001909101019C012F5F3F4F3093010146
:1038E000209300019E838D8344EC4F8308E310E016
:1038F00022E030E0AE014D5E5F4FBE016F5F7F4F53
:103900008091EC019091ED010E94BE0B8823D1F2D1
:103910000E94B2172B013C018091EC019091ED01C6
:103920000E940309843C71F00E94B217DC01CB01B4
:1039300084199509A609B70987399105A105B1052B
:1039400058F3C0CFE091EC01F091ED0107851089AB
:1039500017FF02C00EEF1FEF17FF12C00E94B21731
:103960002D893E894F89588D2617370748075907F3
:1039700070F10E3F1F4F09F0FEC329C000E010E0B8
:103980008091E4019091E5018432994001F11C831A
:103990000B8380910001909101019C012F5F3F4FAB
:1039A00030930101209300019E838D835C895F83A6
:1039B0002D2D30E008E310E04FEA52E0BE016F5FCA
:1039C0007F4F8091EC019091ED010E94BE0B8091A0
:1039D0001B02811105C08CEF91E00E9461123DC075
:1039E0008130D9F58091A2028823B9F18091E40158
:1039F0009091E5018432994081F11C821B82809173
:103A00000001909101019C012F5F3F4F3093010114
:103A1000209300019E838D8385EC8F8308E310E063
:103A200020E030E040E050E0BE016F5F7F4F8091CA
:103A3000EC019091ED010E94BE0B882371F064E2CD
:103A400079E08091EC019091ED010E94B30D84E248
:103A500099E09093E5018093E4010E94470F8091E3
:103A60001502882319F080E00E94AC1686B1887098
:103A70009091140211E0911103C0811103C001C0A3
:103A8000811110E08091A302811751F080911502FD
:103A90000E94AC161093A30288E00E94E51558C35B
:103AA0008091190290911A02009719F0282F892FFE
:103AB00002C021E080E020933F018093400181E03B
:103AC0002091190230911A02232B09F080E00E9404
:103AD000411620913F01309140012150310930932E
:103AE000400120933F01811103C0121613063CF3DD
:103AF00026B1287090911402911104C091E0211117
:103B000004C002C091E0211190E09093A3028230A2
:103B100009F01EC30BC3113009F00AC38091F802EB
:103B200081110AC08091F7020E94990D1093F8024A
:103B3000109241011092F90287E491E00E944A0537
:103B4000892B09F4E7C287E491E00E942805082F39
:103B50009091F9028091F602981728F084E291E0A2
:103B60000E94FA0C78C00D3021F00A3011F020E0EC
:103B700017C066E970E080E090E00E94F80F87E4EB
:103B800091E00E944A05892B51F087E491E00E9460
:103B90003C058D3009F4F9C28A3009F4F6C221E0FF
:103BA0008091F802813009F059C03091F90280917A
:103BB000F4029091F502211103C0003209F06EC0A9
:103BC000FC01E30FF11D10829090F302C090F4020B
:103BD000D090F502A090F102B090F20210E09116A0
:103BE000B1F1B501C6010E94AD21F6E0AF0EB11CE6
:103BF0001F5F892BA1F7111654F5003221F480E2E2
:103C00000E94990D02C00E944D0D1093410182E067
:103C10008093F8021092F902133009F454C058F45A
:103C2000113009F447C0123009F074C20E944D0DE2
:103C300089E291E041C0153009F43EC108F43FC06B
:103C4000163009F067C281E00E94011735C188E192
:103C500091E00E946C0D1092F8025CC2823009F073
:103C600059C23091F9028091F4029091F502222319
:103C7000A9F0FC01E30FF11D1082C090F402D09076
:103C8000F502D0924301C09242011092F802C11491
:103C9000D10409F015C100E010E01CC121E0230FA0
:103CA0002093F902FC01E30FF11D0083802F0E9495
:103CB000990D30C289E093E00E946C0DFBC081E059
:103CC0000E949914F7C00E944D0D80EE92E00E9470
:103CD000510D82E00E94EF160E94780D86ED92E071
:103CE0000E94510D83E00E94EF160E94780D82EC35
:103CF00092E00E94510D84E00E94EF160E94780D20
:103D000084EB92E00E94510D85E00E9484140E9491
:103D1000890D81EA92E00E94510D87E00E9484148F
:103D20000E94890D82E992E00E94510D89E00E9473
:103D3000EF160E94780D84E892E00E94510D8DE804
:103D40000E94EF160E94780D81E90E94EF16182F4D
:103D500084E792E00E94510D812F0E94780D81E648
:103D600092E00E94510D412F50E0BE016F5F7F4FE6
:103D700082E90E946A149E012F5F3F4F690103E0B0
:103D80001123C9F0F60181916F011F928F9324E3F3
:103D900031E03F932F931F920F93FF92EF920E9477
:103DA000DC26C7010E94FA0C11500FB6F894DEBF52
:103DB0000FBECDBFE5CF0E944D0D8EE492E00E9474
:103DC000510D87E90E94EF160E94780D80E492E081
:103DD0000E94510D89E90E94EF160E94780D86E33A
:103DE00092E00E94510D88E90E94EF160E94780D22
:103DF00083E292E00E94510D8AE90E94EF160E9430
:103E0000780D80E192E00E94510D8BE90E94EF163F
:103E10000E94780D8BEF91E00E94510D8CE90E9479
:103E2000EF160E94780D84EE91E00E94510D8DE90D
:103E30000E94EF160E94780D8AEC91E00E94510DCD
:103E40008EE90E94EF160E94780D82EB91E00E94AD
:103E5000510D8FE90E94EF160E94780D83EA91E0E0
:103E60000E94510D8EE80E94EF160E94780D82E9A3
:103E700091E00E94510D80E90E94EF160E94780D9A
:103E800084E891E00E94510D8FE80E94EF160E9495
:103E9000780D8DE691E00E94510D42E850E06CE112
:103EA00072E08AE00E946A148CE192E00E94FA0CAF
:103EB0000E944D0D10E001C011E01092F80219C1EE
:103EC00001E0F6018081803309F400E0C6010E9420
:103ED0008621162FE09141018E2F90E0FC0137974B
:103EE000E631F10508F0FFC0E65AFF4F0C941E259D
:103EF000602F82E0F4C0602F83E0F1C0602F84E087
:103F0000EEC0C114D10421F0C6010E94862103C075
:103F100060E070E0CB01788B6F8742E050E0BE013B
:103F2000615F7F4F85E03AC1C114D10421F0C60121
:103F30000E94862101C060E087E0D1C0612F89E046
:103F4000CEC0F60101900020E9F73197EC19FD0988
:103F5000CF0101978138910508F0C5C0AF014F5FCF
:103F60005F4FB6018AE01AC1123008F0BCC0612F61
:103F70008DE8B5C0153008F0B6C0612F8EE8AFC02F
:103F80008FEF810F8E3708F0AEC0612F8FE8A7C08A
:103F9000133008F0A8C0612F80E9A1C08DEF810F18
:103FA000833008F0A0C0612F81E999C081E90E94A7
:103FB000EF16882E609042017090430161147104E5
:103FC00009F491C0F30101900020E9F731975F01F6
:103FD000A618B70809F487C0C50162E070E00E9426
:103FE000C924019709F47FC0912CC401880F991F3F
:103FF000A816B90609F077C0C12C8E010F5F1F4FBC
:104000000C8B1D8B4C2C512C4A145B040CF0C2C041
:10401000460C571CF2018081082E000C990B0E945F
:10402000C02690ED980F9A3040F09FEB980F963095
:1040300030F499ECD92ED80E04C0D92E02C0DD245C
:10404000DA94F2018181082E000C990B0E94C0269F
:1040500090ED980F9A3030F09FEB980F963020F447
:10406000875303C0892F01C08FEFFD2D40E1F4027B
:1040700090011124D82ED22AF801D1928F01C39435
:10408000C394C0CF8FEF810F803268F5612F87E92D
:1040900026C0133040F5612F88E921C0602F89E9DF
:1040A0001EC0103100F5612F8AE919C01031D8F413
:1040B000612F8BE914C01123B1F0612F8CE90FC07F
:1040C00011168CF4612F8DE90AC08CE90E94EF165D
:1040D000181749F0612F8EE902C0602F8FE90E9406
:1040E0007C1781E001C080E01092F802882351F033
:1040F00010E082E093E00E946C0D112339F080EF14
:1041000092E00EC088EF92E00E946C0D87E491E08F
:104110000E94CF050E94681081111AC081EB97E0C0
:104120000E946C0D87E491E00E94CF050E94351635
:1041300081E00E94AC1681E00E94411680E00E945E
:10414000AC1681E00E9441160E9468108111EECFEA
:104150000E94F105F8C9E091EC01F091ED0182A512
:10416000886082A78EE80E94EF160E94580F11E027
:104170009DC982E0D0C9F2E38F0E911CA11CB11C35
:10418000C501B4010E94F80F95CB87E491E00E942D
:10419000280505CDA4016C897D8982E90E9443141C
:1041A000A0CF2091A30230E03A8B298B31E026E6A4
:1041B0005ACA863529F44091A6025091A70250CAE6
:1041C000843541F44091A8025091A9025A8B498B41
:1041D00027E649CA883441F44091AA025091AB02C3
:1041E0005A8B498B28E63FCA803509F001CB4091B4
:1041F000AC025091AD025A8B498B23E734CACF935E
:10420000DF93E7E4F1E01382128288EE93E0A0E00E
:10421000B0E084839583A683B78383E191E09183A3
:10422000808385EC90E09587848784EC90E0978785
:10423000868780EC90E0918B808B81EC90E0938B73
:10424000828B82EC90E0958B848B86EC90E0978B50
:10425000868B118E128E138E148EECEFF1E089E0B6
:1042600090E0918380838AE090E09383828316823A
:1042700080E28783108685E0868785E090E0A0E075
:10428000B0E0848B958BA68BB78B1186AAEFB2E03A
:10429000D096FC93EE939F978FE293E09093CA039E
:1042A0008093C90387ED93E09093D6038093D50361
:1042B0008BEC93E098969C938E9397979B961D9288
:1042C0001D921D921C929E979A961C929A9799966F
:1042D0001C9299971C92C4EED1E0FF83EE83B987BC
:1042E000A887E1EFF2E080E298E0918380838CE19F
:1042F00082838FEA92E09483838381E485838EE3D3
:10430000868317821086DF91CF9108951F93FC0159
:1043100099278827BC01E89411911032E9F31930EC
:1043200010F01E30C8F31B3251F01D3249F468946E
:1043300006C00E94B621610F711D811D911D119152
:1043400010531A30B0F33EF49095809570956195B6
:104350007F4F8F4F9F4F1F910895FB01DC018D917F
:10436000059080190110D9F3990B0895592F482F02
:10437000372F262F660F771F881F991F660F771F0D
:10438000881F991F620F731F841F951F660F771F69
:10439000881F991F0895ABE0B0E0E1EDF1E20C94C5
:1043A00072246C017B018A01FC01178216828381D1
:1043B00081FFCCC1CE0101963C01F6019381F7014A
:1043C00093FD859193FF81917F01882309F4BAC100
:1043D000853239F493FD859193FF81917F01853278
:1043E00029F4B60190E00E94C223E7CF912C212C42
:1043F000312CFFE1F315D8F08B3279F038F48032AC
:1044000079F08332A1F4232D20611DC08D3261F03B
:10441000803369F4232D216016C0832D8260382EED
:10442000E32DE4603E2E2AC0F32DF8601DC037FC5A
:104430002DC020ED280F2A3040F08E32B9F436FC22
:1044400081C1232D2064322E19C036FE06C08AE0B9
:10445000989E200D1124922E11C0EAE02E9E200D70
:104460001124222EF32DF0623F2E08C08C3621F449
:10447000832D8068382E02C0883641F4F70193FD01
:10448000859193FF81917F018111B3CF982F9F7DFB
:104490009554933028F40C5F1F4F9FE399830DC010
:1044A000833631F0833771F0833509F059C021C06C
:1044B000F801808189830E5F1F4F88248394912C9B
:1044C000530113C02801F2E04F0E511CF801A080E7
:1044D000B18036FE03C0692D70E002C06FEF7FEF40
:1044E000C5010E94B7234C018201F32DFF773F2EB7
:1044F00016C0280122E0420E511CF801A080B180B4
:1045000036FE03C0692D70E002C06FEF7FEFC5017A
:104510000E94AC234C01F32DF0683F2E820133FC46
:104520001BC0822D90E088169906B0F4B60180E297
:1045300090E00E94C2232A94F4CFF50137FC8591C4
:1045400037FE81915F01B60190E00E94C2232110E5
:104550002A9421E0821A91088114910471F7E8C02D
:10456000843611F0893641F5F80137FE07C06081C5
:104570007181828193810C5F1F4F08C060817181BE
:10458000072E000C880B990B0E5F1F4FF32DFF7643
:104590003F2E97FF09C090958095709561957F4F4C
:1045A0008F4F9F4FF0683F2E2AE030E0A3010E941A
:1045B000FE23882E861845C0853731F4232D2F7EA3
:1045C000B22E2AE030E025C0932D997FB92E8F3688
:1045D000C1F018F4883579F0B5C0803719F0883704
:1045E00021F0B0C0E92FE061BE2EB4FE0DC0FB2D5E
:1045F000F460BF2E09C034FE0AC0292F2660B22EF7
:1046000006C028E030E005C020E130E002C020E133
:1046100032E0F801B7FE07C0608171818281938129
:104620000C5F1F4F06C06081718180E090E00E5FDB
:104630001F4FA3010E94FE23882E8618FB2DFF77B3
:104640003F2E36FE0DC0232D2E7FA22E891458F446
:1046500034FE0BC032FC09C0832D8E7EA82E05C00F
:10466000B82CA32C03C0B82C01C0B92CA4FE0FC0D9
:10467000FE01E80DF11D8081803321F49A2D997E91
:10468000A92E09C0A2FE06C0B394B39404C08A2D1B
:10469000867809F0B394A3FC11C0A0FE06C0B21442
:1046A00088F4280C922C9B180EC0B21460F4B6014A
:1046B00080E290E00E94C223B394F7CFB21418F4C2
:1046C0002B1802C0982C212CA4FE10C0B60180E348
:1046D00090E00E94C223A2FE17C0A1FC03C088E79D
:1046E00090E002C088E590E0B6010CC08A2D867883
:1046F00059F0A1FE02C08BE201C080E2A7FC8DE26E
:10470000B60190E00E94C223891438F4B60180E318
:1047100090E00E94C2239A94F7CF8A94F301E80DA7
:10472000F11D8081B60190E00E94C2238110F5CF77
:10473000222009F442CEB60180E290E00E94C2231A
:104740002A94F6CFF6018681978102C08FEF9FEF02
:104750002B96E2E10C948E24FC0105906150704090
:104760000110D8F7809590958E0F9F1F0895FC013A
:104770006150704001900110D8F7809590958E0F90
:104780009F1F08950F931F93CF93DF93FB01238106
:1047900021FD03C08FEF9FEF2CC022FF16C0468182
:1047A0005781248135814217530744F4A081B18198
:1047B0009D012F5F3F4F318320838C93268137816A
:1047C0002F5F3F4F3783268314C08B01EC01FB0121
:1047D0000084F185E02D0995892BE1F6D801169624
:1047E0008D919C911797019617969C938E9316978F
:1047F000CE01DF91CF911F910F910895FA01AA2761
:10480000283051F1203181F1E8946F936E7F6E5F13
:104810007F4F8F4F9F4FAF4FB1E03ED0B4E03CD0C1
:10482000670F781F891F9A1FA11D680F791F8A1FA4
:10483000911DA11D6A0F711D811D911DA11D20D00B
:1048400009F468943F912AE0269F11243019305DC5
:104850003193DEF6CF010895462F4770405D4193B6
:10486000B3E00FD0C9F7F6CF462F4F70405D4A3303
:1048700018F0495D31FD4052419302D0A9F7EACFCB
:10488000B4E0A6959795879577956795BA95C9F7FA
:1048900000976105710508959B01AC010A2E0694ED
:1048A0005795479537952795BA95C9F7620F731FA6
:1048B000841F951FA01D0895F999FECF92BD81BD5B
:1048C000F89A992780B50895262FF999FECF1FBA37
:1048D00092BD81BD20BD0FB6F894FA9AF99A0FBE29
:1048E000019608952F923F924F925F926F927F921E
:1048F0008F929F92AF92BF92CF92DF92EF92FF92F0
:104900000F931F93CF93DF93CDB7DEB7CA1BDB0B9B
:104910000FB6F894DEBF0FBECDBF09942A88398840
:1049200048885F846E847D848C849B84AA84B98447
:10493000C884DF80EE80FD800C811B81AA81B98153
:10494000CE0FD11D0FB6F894DEBF0FBECDBFED0167
:104950000895991B79E004C0991F961708F0961BDB
:10496000881F7A95C9F780950895AA1BBB1B51E152
:1049700007C0AA1FBB1FA617B70710F0A61BB70BCF
:10498000881F991F5A95A9F780959095BC01CD0174
:10499000089597FB072E16F4009407D077FD09D0F1
:1049A0000E94B52407FC05D03EF4909581959F4F59
:1049B0000895709561957F4F0895A1E21A2EAA1B64
:1049C000BB1BFD010DC0AA1FBB1FEE1FFF1FA217BF
:1049D000B307E407F50720F0A21BB30BE40BF50BBC
:1049E000661F771F881F991F1A9469F76095709545
:1049F000809590959B01AC01BD01CF010895052ED6
:104A000097FB1EF400940E94162557FD07D00E94C4
:104A1000DD2407FC03D04EF40C94162550954095E8
:104A2000309521953F4F4F4F5F4F0895909580955A
:104A3000709561957F4F8F4F9F4F0895EE0FFF1F29
:104A40000590F491E02D09945058BB27AA270E94A5
:104A50003C250C9414260E94062638F00E940D2650
:104A600020F039F49F3F19F426F40C9403260EF439
:104A7000E095E7FB0C94FD25E92F0E94252658F3CD
:104A8000BA17620773078407950720F079F4A6F533
:104A90000C9447260EF4E0950B2EBA2FA02D0B0197
:104AA000B90190010C01CA01A0011124FF27591B73
:104AB00099F0593F50F4503E68F11A16F040A22F79
:104AC000232F342F4427585FF3CF469537952795EA
:104AD000A795F0405395C9F77EF41F16BA0B620BE9
:104AE000730B840BBAF09150A1F0FF0FBB1F661F30
:104AF000771F881FC2F70EC0BA0F621F731F841F73
:104B000048F4879577956795B795F7959E3F08F098
:104B1000B0CF9395880F08F09927EE0F979587955A
:104B200008950E942D2688F09F5798F0B92F992755
:104B3000B751B0F0E1F0660F771F881F991F1AF088
:104B4000BA95C9F714C0B13091F00E944726B1E080
:104B500008950C944726672F782F8827B85F39F07F
:104B6000B93FCCF3869577956795B395D9F73EF421
:104B700090958095709561957F4F8F4F9F4F0895C9
:104B8000E89409C097FB3EF49095809570956195E7
:104B90007F4F8F4F9F4F9923A9F0F92F96E9BB279D
:104BA0009395F695879577956795B795F111F8CF19
:104BB000FAF4BB0F11F460FF1BC06F5F7F4F8F4F84
:104BC0009F4F16C0882311F096E911C0772321F07A
:104BD0009EE8872F762F05C0662371F096E8862F12
:104BE00070E060E02AF09A95660F771F881FDAF769
:104BF000880F9695879597F9089597F99F6780E8AC
:104C000070E060E008959FEF80EC089500240A941E
:104C10001616170618060906089500240A94121697
:104C20001306140605060895092E0394000C11F4CA
:104C3000882352F0BB0F40F4BF2B11F460FF04C077
:104C40006F5F7F4F8F4F9F4F089557FD9058440FD0
:104C5000551F59F05F3F71F04795880F97FB991FDB
:104C600061F09F3F79F08795089512161306140698
:104C7000551FF2CF4695F1DF08C016161706180625
:104C8000991FF1CF86957105610508940895E89400
:104C9000BB2766277727CB0197F908950E946126E5
:104CA0000C9414260E94062638F00E940D2620F04F
:104CB000952311F00C94FD250C94032611240C94DB
:104CC00048260E94252670F3959FC1F3950F50E06A
:104CD000551F629FF001729FBB27F00DB11D639FAE
:104CE000AA27F00DB11DAA1F649F6627B00DA11D54
:104CF000661F829F2227B00DA11D621F739FB00DFA
:104D0000A11D621F839FA00D611D221F749F332769
:104D1000A00D611D231F849F600D211D822F762F02
:104D20006A2F11249F5750409AF0F1F088234AF0DF
:104D3000EE0FFF1FBB1F661F771F881F915050404B
:104D4000A9F79E3F510580F00C94FD250C94482650
:104D50005F3FE4F3983ED4F3869577956795B795D2
:104D6000F795E7959F5FC1F7FE2B880F911D9695EC
:104D7000879597F9089581E090E0F8940C940C27BA
:104D80009111089581568A5108F4805285580895EA
:104D9000FB01DC0102C001900D9241505040D8F758
:104DA0000895FC018191861721F08823D9F799276E
:104DB00008953197CF010895AEE0B0E0E2EEF6E25B
:104DC0000C9480240D891E898F89988D26E02C8370
:104DD0001A83098397FF02C080E090E801979E83C1
:104DE0008D83AE01455E5F4F698D7A8DCE01019650
:104DF0000E94CB214D815E8157FD0AC02F813885ED
:104E0000421753070CF49A01F801E20FF31F1082C6
:0C4E10002E96E4E00C949C24F894FFCF54
:104E1C000100253034580000C33C33CE3EE3EC0097
:104E2C000000008205EB041905CF054A0528053C56
:104E3C00052525000A456E74727920746F6F206CFD
:0C4E4C006F6E670025303258000D0A0020
:00000001FF
