:100000000C94F0040C941F160C944C160C941805C8
:100010000C9434160C9418050C94D1150C941805F6
:100020000C9418050C9418050C9418050C941805DC
:100030000C9418050C9418050C9418050C941805CC
:100040000C9418180C9418050C940A080C94E407E6
:100050000C9418050C9476160C9418050C9418053D
:100060000C9418050C9418050C9418050C9418059C
:100070000C9418050C9418050C9418050C9418058C
:100080000C9418050C9418050C9418050C9418057C
:100090000C9418050C9418050C9418050C9418056C
:1000A0000C9418050C9418050C9418050C9418055C
:1000B0000C9418051C1F1F1F221F251F381F421FCD
:1000C000451F581F5E1F641F6C1F721F7A1FE61F9B
:1000D000ED1FF21FF51FFA1FFF1F0420092011203A
:1000E0008E17911784178817B217B217951799179B
:1000F0009F17A317B217A917AD17524F4B3A0043DA
:100100006F6E6E656374696E672E2E2E00534F4BB3
:100110003A000A4E6F74696669636174696F6E2094
:100120006D6F646500524F4B3A00534F4B3A000AD3
:10013000436F6E66696775726174696F6E206D6F6B
:100140006465005B772F726565645D3A005B736C74
:100150006565705D0073697A655D3A005B70617911
:100160006C6F6164004E6F746966792E2E2E000AE2
:10017000496E76616C696420636F6D6D616E6400B9
:10018000426F726F7352656564323420636F6E66BE
:10019000696720636F6E736F6C65205B42523C32FF
:1001A000344D3E56335D2054797065202768656C68
:1001B000702720746F2073686F7720636F6D6D6197
:1001C0006E6473005B74706C5D5061796C6F616418
:1001D0002074656D706C6174653A005B6368615D85
:1001E0004368616E6E656C3A005B726174655D4474
:1001F00061746120726174653A005B7478705D545B
:100200007820706F7765723A005B6D666F725D4D36
:1002100065736820666F7263652072656E65773AF4
:10022000005B6D6473745D4D657368204465737421
:100230002E206E6F64652049643A005B6D666964C8
:100240005D4D657368206672616D652074797065B7
:100250003A005B6D6E69645D4D657368206E6F6416
:1002600065202049643A005B726574645D52657470
:1002700072792064656C61793A005B726574725DB5
:10028000526574727920436F756E743A005B6372C5
:10029000635D4372633A005B61636B5D4175746FCC
:1002A00041636B3A005B64737A5D5061796C6F6196
:1002B000642073697A653A005B706970655D5265A8
:1002C0006D6F746520706970653A005B70737A5D5C
:1002D000416464722073697A653A005B6D6F645D96
:1002E0005266204D6F64653A005B6163635D4163F4
:1002F0006375726163793A005B7265706F5D526518
:10030000706F7274286D756C293A005B69645D4486
:10031000657669636549443A005B65696E745D455D
:10032000496E7420656E61626C65643A005B6C6551
:10033000645D4C65643A005B696E765D496E762E4D
:1003400020726565643A005265626F6F7421000A1D
:100350005B4552524F525D0A000A5B4F4B5D0A00EB
:100360002D2D2D434F4D4D414E44532D2D2D3A0AE9
:100370004D6973633A0A3D3D3D3D3D0A68656C70C9
:10038000202D2073686F77732074686973206D73F4
:10039000670A76657220202D2073686F7773207648
:1003A000657273696F6E2062616E6E65720A736842
:1003B0006F77202D2073686F777320637572726575
:1003C0006E7420636F6E66696775726174696F6EB3
:1003D0000A73656E20202D2073686F777320736514
:1003E0006E736F7273207374617475730A726562D1
:1003F0006F202D207265626F6F742064657669636B
:10040000650A66616320202D206F766572726964CB
:100410006520636F6E66696720776974682066611E
:1004200063746F72792064656661756C74730A47D2
:10043000656E6572616C3A0A3D3D3D3D3D3D3D3D19
:100440000A696E76203C312F303E2020202D206915
:100450006E7665727420726565642073656E736F65
:10046000722072656164696E670A6C6564203C3154
:100470002F303E2020202D20626C696E6B206C6531
:1004800064206F6E206E6F74696669636174696F52
:100490006E0A65696E74203C312F303E20202D207D
:1004A000656E61626C652065787465726E616C2042
:1004B000696E746572727570740A6964203C6E7539
:1004C0006D6265723E202D2073657420313662693D
:1004D0007420696E74656765722049440A7265709C
:1004E0006F203C6D756C3E20202D2073657420704C
:1004F0006572696F646963207265706F7274203D04
:1005000020382A6D756C207365636F6E64732E28B6
:10051000303D64697361626C6564290A61636320BC
:100520003C6E3E20202020202D20736574206163C6
:1005300063757261637920627974650A2074706CE6
:1005400020203C74656D706C6174653E202D2073B5
:100550006574207061796C6F61642074656D706C76
:100560006174650A6D6F6465203C302D333E202D2B
:100570002073657420726164696F206D6F646520FB
:10058000303D706C61696E2C313D6D6573682C3245
:100590003D6C6F726177616E0A526164696F3A0AED
:1005A0003D3D3D3D3D3D0A74787020203C302D346A
:1005B0003E2020202D2073657420545820706F77C2
:1005C0006572206C6576656C0A63686120203C3139
:1005D0002D3132363E202D2073657420726164699E
:1005E0006F206368616E6E656C0A72617465203C91
:1005F000302F312F323E202D2073657420726164BC
:10060000696F2064617461207261746520303D31CE
:100610004D4250532C313D324D4250532C333D32DC
:1006200035304B4250530A506C61696E206D6F64D7
:10063000653A0A3D3D3D3D3D3D3D3D3D3D3D0A70F8
:10064000737A20203C332F342F353E202D207365C4
:1006500074207069706520616464726573732073BF
:10066000697A650A70697065203C6865783E20206B
:10067000202D207365742068657820646573746923
:10068000616E74696F6E207069706520284C5342EA
:10069000290A64737A20203C302D33323E20202DED
:1006A0002073657420646174612F7061796C6F616F
:1006B000642073697A650A63726320203C302F31AD
:1006C0002F323E202D207365742063726320303DED
:1006D00064697361626C65642C313D386269742CA5
:1006E000323D31366269740A61636B20203C302FE1
:1006F000313E2020202D20557365206175746F6177
:10070000636B0A72657472203C302D31353E2020B7
:100710002D20736574206E756D626572206F662082
:10072000747820726574726965730A7265746420E6
:100730003C302D31353E20202D20736574207265AC
:1007400074726965732064656C617920286E2B3141
:10075000292A32353075730A4D657368206D6F64D0
:10076000653A0A3D3D3D3D3D3D3D3D3D3D0A6D6E99
:100770006964203C312D3235353E202D207365745F
:10078000206D657368206E6F64652049440A6D664C
:100790006964203C302D3235353E202D2073657440
:1007A000206D657368206672616D6520747970656F
:1007B0000A6D647374203C302D3235353E202D2077
:1007C000736574206D657368206E6F646520646561
:1007D0007374696E6174696F6E2069640A6D666F07
:1007E00072203C302F313E2020202D20666F726316
:1007F00065206D6573682072656E657720636F6E26
:100800006E656374696F6E00455252524F52004DCF
:100810006F6465206368616E6765640000000000B6
:10082000250028002B0000000000240027002A00DB
:100830000404040404040404020202020202030386
:10084000030303030102040810204080010204088E
:1008500010200102040810200001020304051112F7
:10086000131415160A0B0C0D0E0F5B5643435D282F
:100870006D56293A005B564241545D286D56293A1F
:100880000068656C70000076657200000073686F28
:1008900077000073656E0000007265626F0000668D
:1008A0006163000000696E760000006C6564000002
:1008B0000065696E74000069640000000072657074
:1008C0006F000061636300000074706C0000006DD5
:1008D0006F64650000747870000000636861000058
:1008E0000072617465000070737A000000706970B6
:1008F00065000064737A00000063726300000061A9
:10090000636B0000007265747200007265746400AD
:10091000006D6E696400006D66696400006D64734B
:100920007400006D666F720000CAAB000000010029
:100930000000002549642C2552642C2542642C2596
:1009400041422C2556640000000000000000000019
:100950000000000000000000000000000000000097
:100960000000000000000000000000000000000087
:100970000000000000000000000000000000000077
:100980000000000000000000000000000000000067
:100990000000000000000000000000000000000057
:1009A0000000000000000000000000000000000047
:1009B00000000000000000024C0005314E6F64652D
:1009C00020020108060A440000000000080002019D
:1009D00000000304070000000000000000007B216D
:1009E00011241FBECFEFD8E0DEBFCDBF11E0A0E0E5
:1009F000B1E0E4E1FFE402C005900D92AC33B10731
:100A0000D9F724E0ACE3B1E001C01D92A937B207E9
:100A1000E1F714E0C0EFD4E004C02197FE010E948A
:100A20009A25CF3ED107C9F70E9462180C948827F7
:100A30000C940000CF92DF92EF92FF920F931F93DE
:100A4000CF93DF936C017A018B01C0E0D0E0CE152B
:100A5000DF0581F0D8016D918D01D601ED91FC91FA
:100A60000190F081E02DC6010995892B11F02196A6
:100A7000EECF7E01C701DF91CF911F910F91FF90C3
:100A8000EF90DF90CF900895089580E090E0089572
:100A9000FC01538D448D252F30E0842F90E0821B84
:100AA000930B541710F0CF96089501970895FC0109
:100AB000918D828D981761F0828DDF01A80FB11D95
:100AC0005D968C91928D9F5F9F73928F90E00895B9
:100AD0008FEF9FEF0895FC01918D828D981731F073
:100AE000828DE80FF11D858D90E008958FEF9FEFC7
:100AF0000895FC01918D228D892F90E0805C9F4F9D
:100B0000821B91098F739927089587E491E00E94D1
:100B1000790521E0892B09F420E0822F0895FC015A
:100B2000848DDF01A80FB11DA35ABF4F2C91848D76
:100B300090E001968F739927848FA689B7892C93AB
:100B4000A089B1898C91837080648C93938D848DFE
:100B5000981306C00288F389E02D80818F7D808301
:100B60000895EF92FF920F931F93CF93DF93EC01C1
:100B700081E0888F9B8D8C8D981305C0E889F98959
:100B8000808185FD26C0F62E0B8D10E00F5F1F4F74
:100B90000F731127E02E8C8DE8120CC00FB607FCE6
:100BA000FACFE889F989808185FFF5CFCE010E94CF
:100BB0008F05F1CF8B8DFE01E80FF11DE35AFF4F3A
:100BC000F0829FB7F8940B8FEA89FB89808180625D
:100BD0000AC09FB7F894EE89FF896083E889F98994
:100BE00080818370806480839FBF81E090E0DF918B
:100BF000CF911F910F91FF90EF900895CF93DF93C6
:100C0000EC01888D8823C9F0EA89FB89808185FD04
:100C100005C0A889B9898C9186FD0FC00FB607FC65
:100C2000F5CF808185FFF2CFA889B9898C9185FFA6
:100C3000EDCFCE010E948F05E7CFDF91CF910895D0
:100C400080E090E0892B21F00E94850581110DC084
:100C500080E090E0892B71F080E090E0892B51F0EA
:100C60000E940000811104C008950E940000F0CF8E
:100C70000C9400000895CF93DF93FB0122815081F3
:100C80004181223030F0252F342F81E0838380E0B2
:100C90002EC0252F342FDC01A059BE4F4D915C9101
:100CA000D901A423B523EC016AA97BA9A617B7072C
:100CB00049F0DC01A359BE4F2D913C91119712963A
:100CC0008C9115C0CA018095909563E0880F991F9B
:100CD0006A95E1F782239323892B41F083E0440F47
:100CE000551F8A95E1F747602423352385E031833A
:100CF0002083828381E0DF91CF9108950E9437277E
:100D00008F929F92AF92BF92CF92DF92EF92FF921B
:100D10000F931F93CF93DF93EC017B01CCA8D12CD1
:100D2000860108501109DB0116969C918CE6890F0B
:100D3000833020F0983C09F0CFC003C0943909F407
:100D4000E4C08BE6890F823018F0983C09F08EC021
:100D50006E0159EDC50ED11CD6012D913C91A80113
:100D6000420F531F4139510520F0C852DF4F1882FE
:100D7000B1C05E01B8EDAB0EB11CF50180818823D6
:100D800009F415C1963929F0D70117969C9189135A
:100D9000A1C0FE01EB52FF4F40815181F7018481D8
:100DA00095814817590709F095C04E01FBED8F0E4C
:100DB000911CD4018D919C91A801BE01615F7F4F70
:100DC000820F931F0E944427F60180819181080FB2
:100DD000191F11830083D70116968C91863929F04B
:100DE000F50180818150808373C0D5011C92F70189
:100DF0008781FE01E952FF4F8083833809F483C065
:100E00007E01FFECEF0EF11CF701A081B181CE0154
:100E10008A1B9B0B8B539F4F80179107F8F03296DC
:100E20008AE001900D928A95E1F7D7018D919C910E
:100E3000F40160817181D6014D915C910A960E9406
:100E40004427F601808191810A96D7012D913C912A
:100E50001197820F931F8D939C933AC08FA598A9E9
:100E60000E9437138AA581608AA734C07E01BFEC37
:100E7000EB0EF11CF701A081B181CE01C5969D0159
:100E8000281B390BC901800F911F8B39910510F573
:100E9000E85CF10988E001900D928A95E1F7D701AD
:100EA000ED91FC911197118700878D919C91BE0166
:100EB000615F7F4FA8010A960E944427B2E0CB0EE3
:100EC000D11CF70180819181C80ED91ED182C082C8
:100ED00081E06DC080E06BC0933841F6DE01AF5217
:100EE000BF4FFE01379688E001900D928A95E1F799
:100EF000FE01E552FF4FCE010F9691838083C752CA
:100F0000DF4F1983088382E052C0F7018781873061
:100F100008F02BCFFE01EB52FF4F40815181D701EA
:100F200014962D913C91159734976F0142175307F2
:100F300039F4408151812D913C914217530741F280
:100F4000F8E18F9FC0011124FE01E153FF4F208182
:100F50003181AE01421B530B9A012B533F4F28178F
:100F600039073CF48AA581608AA78FA598A90E94B9
:100F70003713FE01379688E0D60101900D928A95CD
:100F8000E1F7FE01E552FF4FBE01615F7F4FA8010F
:100F9000808191810E944427FE01E752FF4F118317
:100FA0000083C852DF4F88818150888391CFDF91C1
:100FB000CF911F910F91FF90EF90DF90CF90BF9056
:100FC000AF909F908F9008951F920F920FB60F923F
:100FD00011242F933F934F935F936F937F938F933E
:100FE0009F93AF93BF93EF93FF9387E491E00E94A9
:100FF0008F05FF91EF91BF91AF919F918F917F915D
:101000006F915F914F913F912F910F900FBE0F9075
:101010001F9018951F920F920FB60F9211242F93C5
:101020008F939F93EF93FF93E0915701F0915801B5
:101030008081E0915D01F0915E0182FD12C090819E
:10104000809160018F5F8F7320916101821751F051
:10105000E0916001F0E0E95BFE4F958F80936001C5
:1010600001C08081FF91EF919F918F912F910F90FF
:101070000FBE0F901F901895CF93DF93CDB7DEB7BB
:1010800028970FB6F894DEBF0FBECDBFAC019CEC25
:1010900099839A839B839C839D831E821F821886DB
:1010A0009A01E1E021153105C9F0611103C0411534
:1010B000510569F4D901A770BB27A85FBE4F8C9179
:1010C000A1E0B0E0AC0FBD1FAE0FB11D8C9383E06B
:1010D000369527958A95E1F7EF5FE4CF611102C05D
:1010E000452B39F4E62FF0E0E85FFE4F80818983DD
:1010F00005C0F0E0E95FFE4F80818A8329813A8153
:101100004B815C816D817E818F81988528960FB699
:10111000F894DEBF0FBECDBFDF91CF9108956F92DF
:101120007F928F929F92AF92BF92CF92DF92EF9277
:10113000FF920F931F93CF93DF93CDB7DEB728971E
:101140000FB6F894DEBF0FBECDBF8C01CB01F22EDF
:10115000642F0E943C0839014A015B016C01F801CF
:1011600082A582FD04C087A590A90E943713F801CB
:1011700087A590A9FF2011F060E001C061E00E9406
:10118000CD0EF801E7A4F0A869827A828B829C8256
:10119000AD82BE82CF82D886F7012685AE014F5F31
:1011A0005F4F6AE0C7010E94DC12F7012685AE019D
:1011B0004F5F5F4F60E1C7010E94DC12F70147817A
:1011C00061E1C7010E94C112F801D4A8E7A4F0A808
:1011D0006FEFC7010E946A1280FF0DC06FEFC70159
:1011E0000E946A1284FFF4CF40E167E0C7010E94C9
:1011F000C112F12C0EC020EA4D2DB801695F7F4F5E
:10120000C7010E94801261E0C7010E945712FF24AB
:10121000F394F80182A582FD0FC041815281638160
:10122000748187A590A90E94F80FF82E60E0F8015C
:1012300087A590A90E94CD0E8F2D28960FB6F89401
:10124000DEBF0FBECDBFDF91CF911F910F91FF90F9
:10125000EF90DF90CF90BF90AF909F908F907F9056
:101260006F9008952F923F924F925F926F927F926C
:101270008F929F92AF92BF92CF92DF92EF92FF92A6
:101280000F931F93CF93DF9300D01F92CDB7DEB79C
:101290009B838A83FC0192A5892F827091FD19C0DE
:1012A000E153FF4F4A815B814B5C5F4F90FD07C06C
:1012B00020813181241B350B2937310554F02081E1
:1012C00031814217530708F477C19E7FEA81FB8181
:1012D00092A7712CEA80FB80F7E0EF0EF11CF8E595
:1012E0002F2EF2E03F2E44244394512CCA80DB8001
:1012F00021E9C21A2EEFD20AB4E2AB2EB9E0BB2E1E
:10130000EA81FB8107A510A9F801808191818F3FB7
:10131000910509F450C1828193818F3F910509F4B1
:101320004AC167E1C8010E940713F82FF1709F2E90
:1013300080FD41C16FEFC8010E946A12EA81FB8102
:1013400007A510A9C8010E94541280E60E946312EA
:101350008FEF0E946312882EC8010E945112F0E2A2
:10136000F81558F462EEC8010E946A1262E070E05B
:1013700080E090E00E94D21701C0982CEA81FB81A6
:1013800094AAF7E0F91538F06AE070E080E090E0A8
:101390000E94D217B5CFEA81FB8107A510A9F801F9
:1013A0008781682E981608F4692CF80190859111B0
:1013B00003C08619898301C01982C8010E94541292
:1013C00081E60E94631247016A94FFEF6F1202C028
:1013D000998007C08FEF0E946312F40181934F013F
:1013E000F3CF992029F08FEF0E9463129A94F9CFDE
:1013F000C8010E94511240E767E0C8010E94C11273
:10140000EA81FB8161857285CB01009759F0282F15
:101410002770263008F074CFE3E096958795EA951B
:10142000E1F7F3CFEA81FB81758482A993A968175C
:10143000790709F048C0F2E87F1609F461CF20E887
:10144000721212C064327940F9F0EA81FB81B286EF
:10145000A18642E064E279E0CF010E94F20A6AE0EC
:1014600070E080E090E04DC0F3EC7F120DC061159C
:10147000710551F0EA81FB817087678312861186BE
:1014800040E060E070E044C0EA81FB8181A58823F0
:1014900019F077FE0EC003C0F1EC7F120AC08CE693
:1014A000870D833030F028EC721619F033E8731290
:1014B00082C0B7018A819B810E948006823009F038
:1014C0001FCF83E879C06034710509F06EC0E2EC8B
:1014D0007E1220C0EA81FB8122A523FD11CF843238
:1014E000F9E09F0709F40CCFEA81FB812781308561
:1014F0003287218790878783F601608170E080E0E2
:1015000090E00E94D217EA81FB816185728542E0FA
:10151000CF014EC0B7018A819B810E948006182F9F
:10152000EA81FB8180818823E1F182A993A953E0BC
:10153000969587955A95E1F7892B21F080E699E0F9
:101540000E94C717EA81FB8182A993A9837099271A
:101550009C01229DC001239D900D329D900D112470
:101560000E94C717EA81FB8181A9882371F090E06E
:1015700001979C01220F331F820F931FB20102C0FB
:10158000660F771F8A95E2F702C060E070E083E0A3
:10159000660F771F8A95E1F744E08A819B810E945C
:1015A000F20A123009F0ACCE8CCF41E08A819B81E7
:1015B0000E94F20AA5CE872D0F900F900F90DF9119
:1015C000CF911F910F91FF90EF90DF90CF90BF9040
:1015D000AF909F908F907F906F905F904F903F90D3
:1015E0002F900895CF92DF92EF92FF920F931F9367
:1015F000CF93DF9300D000D01F92CDB7DEB79B0111
:101600002115310561F0522F5770563030F453E0F8
:10161000369527955A95E1F7F3CF80E097C0F42EE1
:101620006B018C01FC01858581548D8319821A829E
:101630001B821C827A8369834B83BE016F5F7F4F5D
:10164000C8010E943B0669817A812C814B81C801C7
:101650000E948F08F1E0FF1228C0811102C0F12C16
:1016600032C089819A81C816D90609F58D818F37D4
:10167000F0F481ECF80185878781908592878187D6
:101680009A838983FB821C82BE016F5F7F4FC801F2
:101690000E943B0688E0F80184AB69817A812C8145
:1016A0004B81C8010E948F0802C08823C1F2898142
:1016B0009A81C816D90629F0FF2079F0F3E0FF16C9
:1016C00061F0FF24F394F80182A582FD04C087A590
:1016D00090A90E946C138F2D39C08D818F3788F7A8
:1016E000F80182A582FF11C041815281638174811A
:1016F00087A590A90E94F80FF80182A58B7F82A789
:1017000060E087A590A90E94CD0EF80187A590A959
:101710000E946C130E940C186B017C01C8010E948E
:101720003209813C71F20E940C18AB01BC014C19CA
:101730005D096E097F09F80185819681A0E0B0E01E
:1017400084179507A607B70748F789CF0F900F9022
:101750000F900F900F90DF91CF911F910F91FF90FD
:10176000EF90DF90CF900895EF92FF920F931F9329
:10177000CF93DF93EC017B01BA018AA99BA9F70102
:1017800091838083DE01179688E001900D928A95FF
:10179000E1F72115310529F0A901CE010F960E942C
:1017A0004427F701628173810833110561F06034C9
:1017B000710511F444E001C043E00617170709F46E
:1017C00042E0B80101C040E0CE01DF91CF911F910E
:1017D0000F91FF90EF900C94F20A2F923F924F924C
:1017E0005F926F927F928F929F92AF92BF92CF92B1
:1017F000DF92EF92FF920F931F93CF93DF93EC0151
:101800007B015A01690148010E940C184BA45CA499
:101810006DA47EA4DC01CB0184199509A609B70942
:101820004997A105B10548F088EC90E00E94C717E0
:1018300089E1C816D104E8F406C0CE010E9432093D
:1018400087FFE2CFF1CF88E08C0D8CAB840196014D
:10185000A501B701CE010E94B40B182F882311F007
:1018600011E092C00E940C186BA77CA78DA79EA7C1
:101870008BC0E1E9CE16D10408F085C0C60168E14D
:1018800070E00E94312521E0892B09F420E0C60197
:1018900068E170E00E943125722E760EF701828198
:1018A00093818034910539F08AA584608AA78FA539
:1018B00098A90E943713F7014680512C612C84E9C6
:1018C000282E96E9392EF7017782F1E07F1204C0C5
:1018D000F7013682478208C0611003C0F7012682F3
:1018E00003C085E9F7018683E8E16E9EA00111241B
:1018F0009601241B350B2931310510F028E130E029
:1019000088E0820F8CAB4A0D5B1D8401B701CE01CC
:101910000E94B40B182F81110BC062E070E080E0D0
:1019200090E00E94D2175394F2E0F51560F606C0DD
:101930007A946394772011F0512CC5CFF701468239
:101940008AA582FF12C049815A816B817C818FA553
:1019500098A90E94F80F182F8FA598A90E946C13C0
:1019600060E08FA598A90E94CD0E8AA58B7F8AA7DB
:10197000112349F0772009F473CF0E940C186BA74C
:101980007CA78DA79EA710E0812FDF91CF911F919B
:101990000F91FF90EF90DF90CF90BF90AF909F900E
:1019A0008F907F906F905F904F903F902F90089511
:1019B0000F931F93CF93DF938C01D62F66E00E9485
:1019C0000713C82FC77DD23031F4C0628BE990E095
:1019D000A0E0B0E00CC0D13029F085E590E0A0E0B7
:1019E000B0E005C0C86081E490E0A0E0B0E0F8019C
:1019F000808B918BA28BB38B4C2F66E0C8010E9429
:101A0000C11266E0C8010E94071391E0C81390E07C
:101A1000892FDF91CF911F910F910895CF93DF937D
:101A2000EC016DE10E940713482F44606DE1CE0187
:101A30000E94C1126CE1CE010E940713482F4F6330
:101A40006CE1CE010E94C11281E08887DF91CF91C5
:101A500008950F931F93CF93DF93C4E6D0E098814E
:101A60009E7F9883862B80937C000AE710E0F80124
:101A70008081886880836AE070E080E090E00E9466
:101A8000D21782E00E94671684E00E946716F80170
:101A900080818777808388818160888380914501F8
:101AA00090914601969587959695879590934601D6
:101AB00080934501DF91CF911F910F910895009779
:101AC00069F0FC0101900020E9F73197AF01481B54
:101AD000590BBC0187E491E00C941A0580E090E07A
:101AE00008958F929F92AF92BF920F931F93CF93BF
:101AF000DF93CDB7DEB7A1970FB6F894DEBF0FBE68
:101B0000CDBF19A2423008F44AE08E010F5D1F4F8D
:101B1000842E912CA12CB12CA50194010E94592551
:101B2000E62FB901CA0101501109EA3014F4E05D51
:101B300001C0E95CD801EC93232B242B252B61F702
:101B4000C8010E945F0DA1960FB6F894DEBF0FBECC
:101B5000CDBFDF91CF911F910F91BF90AF909F901C
:101B60008F90089589E391E00C945F0D0F931F937C
:101B7000CF93DF938C01C0E0D0E0F801EC0FFD1FA4
:101B80006491662341F087E491E00E94B105892BBE
:101B900011F02196F2CFCE01DF91CF911F910F91DD
:101BA0000895CF93DF930E94B60DEC010E94B20D11
:101BB0008C0F9D1FDF91CF910895CF93DF93682FF6
:101BC00070E080E090E04AE00E94710DEC010E941C
:101BD000B20D8C0F9D1FDF91CF910895CF93DF93AE
:101BE000BC0180E090E04AE00E94710DEC010E948F
:101BF000B20D8C0F9D1FDF91CF910895CF93DF938E
:101C0000419865E070E080E090E00E94D21760ECBF
:101C100086E00E94290D609145017091460180E0A7
:101C200090E00E943C262EEC3DE84BE450E40E94FC
:101C3000CA2620E030E040E05FE30E94A1250E9438
:101C40000D26709346016093450180914501909166
:101C50004601C4EAD2E09983888385E798E00E9430
:101C6000B60D888199810E94EE0D87E491E00E9473
:101C7000FE05419A60E48EE00E94290D2091450105
:101C800030914601C6EAD2E040E050E064EB7BE2EE
:101C900081E190E00E947B25398328838AE698E0E1
:101CA0000E94B60D888199810E94EE0D87E491E033
:101CB000DF91CF910C94FE05682F87E491E00C949E
:101CC000B10586B169E170E080E090E00E94D21732
:101CD00086B181700895E7E4F1E0A089B18982E0DE
:101CE0008C93A485B5851C92A685B7858CE08C93D2
:101CF000108EA489B58986E08C93A289B3898C91D2
:101D000080618C93A289B3898C9188608C93A2891D
:101D1000B3898C9180688C930288F389E02D80814F
:101D20008F7D80830895CF92DF92EF92FF92CF93C1
:101D3000DF936C01990FEE08FF08F7FE17C08DE2E4
:101D40000E945C0EEC0166277727CB016C197D0998
:101D50008E099F094AE00E94710D8C0F9D1FDF9133
:101D6000CF91FF90EF90DF90CF9008954AE0C701A8
:101D7000B601DF91CF91FF90EF90DF90CF900C9460
:101D8000710DCF93DF930E94930EEC010E94B20D70
:101D90008C0F9D1FDF91CF9108951F93CF93DF93F9
:101DA000EC01162F61E00E940713482F112311F058
:101DB000416001C04E7F61E0CE01DF91CF911F9164
:101DC0000C94C1127F928F929F92AF92BF92CF924A
:101DD000DF92EF92FF920F931F93CF93DF93CDB7D4
:101DE000DEB728970FB6F894DEBF0FBECDBFFC015B
:101DF0009B012115310559F0822F8770863008F03C
:101E0000E3C0A3E036952795AA95E1F7F2CF62AB40
:101E100073AB87A590A9DC012D913C912F3F310533
:101E200009F4D2C0DC0112962D913C9113972F3FFB
:101E3000310509F4C9C0E72EF62E8F0160E00E943B
:101E4000CD0EF80187A590A90E940E0DD801D2965B
:101E50008D919C91D39766E070E00E943125482FC8
:101E6000440F4B5FB0E14B9FA0011124456064E03B
:101E7000F80187A590A90E94C11289E190E0A0E035
:101E8000B0E0F80181839283A383B4838BE490E074
:101E90009683858322A933A940E08FEF9FEFB90194
:101EA00068237923672B39F073E0880F991F7A959F
:101EB000E1F74F5FF4CFF80141AB80959095E05981
:101EC000FE4F9183808363E0969587956A95E1F74D
:101ED0003397A9014823592351834083009759F030
:101EE00043E0369527954A95E1F753E09695879517
:101EF0005A95E1F7F3CFF801E159FE4F208386E0D0
:101F0000782E88248394912C7A94FFEF7F1609F41D
:101F100054C0672D8F2D9E2D0E943C08D8019F969E
:101F2000CD90DC90D09729833A834B835C836D837B
:101F30007E838F839887A72CB12C71100BC0F6017C
:101F4000468550E0BE016F5F7F4FC60109960E9433
:101F5000442703C0F1E07F1208C0F501EC59F74FA8
:101F60006491D6011E962C9105C0F501EC59F74FEE
:101F7000649121E0AE014F5F5F4FC6010E94DC1209
:101F8000F501E25AF74F6491F6014781C6010E94BC
:101F9000C11262E0C6010E940713F501E85AF74F2B
:101FA000E491940101C0220FEA95EAF7482F422BF1
:101FB00062E0C6010E94C112A7CFD8019F968D9101
:101FC0009C91D0970E946C1328960FB6F894DEBFB0
:101FD0000FBECDBFDF91CF911F910F91FF90EF907A
:101FE000DF90CF90BF90AF909F908F907F9008959B
:101FF0008F929F92AF92BF92CF92DF92EF92FF9219
:10200000CF93DF93EC016A017B010E940C184B0116
:102010005C0167E1CE010E94071384FD29C06FEFC8
:10202000CE010E946A1284FFF4CF40E167E0CE0146
:102030000E94C11260E0CE010E94571261E0CE0101
:102040000E9457120E940C18DC01CB0188199909D3
:10205000AA09BB098C159D05AE05BF05D0F260E04D
:10206000CE010E945712CE010E947D1280E005C071
:1020700060E0CE010E94571281E0DF91CF91FF9086
:10208000EF90DF90CF90BF90AF909F908F9008958A
:102090002F923F924F925F926F927F928F929F9278
:1020A000AF92BF92CF92DF92EF92FF920F931F9366
:1020B000CF93DF93CDB7DEB761970FB6F894DEBF4D
:1020C0000FBECDBF67E18091EA019091EB010E94C4
:1020D000071380FD03C080E090E06CC18091EA01AD
:1020E0009091EB010E943713E091EC01F091ED012A
:1020F00082A5826082A76AE070E080E090E00E94A2
:10210000D21764E279E08091EC019091ED010E9498
:10211000E20E84E299E09093E5018093E4010E944D
:102120000C182B013C01C12CE12C90E4292E312C00
:102130003C862B8680910001909101019C012F5FCC
:102140003F4F30930101209300019E878D8722EC41
:102150002F878091EC019091ED01FC0122A933A918
:102160003A872987EE2089F02E2D30E02150310961
:10217000A901440F551F240F351F01E010E002C0D4
:10218000000F111F2A95E2F702C000E010E020E0E6
:1021900030E040E050E0BE01675F7F4F0E94ED0BF2
:1021A0000E940C184B015C01F12C8091EC01909184
:1021B000ED010E943209823C89F4FE013196EF0D57
:1021C000F11DEF0DF11DA091EC01B091ED011796FD
:1021D0008D919C91189791838083F3940E940C18A1
:1021E000DC01CB0188199909AA09BB09C897A10587
:1021F000B10508F0B0C0F3E0FF15B8F6198AD12C8C
:1022000023EC2F878091E601888BFE013196ED0D3E
:10221000F11DED0DF11D008111811C870B8720E060
:1022200030E040E050E0BE01675F7F4F8091EC01FD
:102230009091ED010E94ED0B0E940C184B015C0186
:102240000E940C18DC01CB0188199909AA09BB0965
:10225000813E9105A105B10550F48091EC0190916A
:10226000ED010E943209898B803851F7DF2C65E03F
:1022700070E080E090E00E94D217D394DF1408F45D
:10228000BFCF89898038B1F5E091EC01F091ED0183
:1022900087859089009771F136852091E601321388
:1022A00029C05CC063E070E080E090E00E94D2173B
:1022B00008E310E020E030E040E050E0BE01675F5E
:1022C0007F4F8091EC019091ED010E94ED0B811107
:1022D00066C0FA94F110E6CF64E279E08091EC01F7
:1022E0009091ED010E94E20E84E299E09093E50165
:1022F0008093E4010E940C18DC01CB01841995093C
:10230000A609B70981339547A105B10508F0E3CEC9
:102310002C2D30E02F5F3F4F8E2D90E00196289FAF
:10232000B001299F700D389F700D1124675E7F4F9B
:10233000660F771F072E000C880B990B0E94D2178F
:1023400081E08E0D8370E82E81E08C0D6AE00E94A2
:102350002525C92EEDCEFF2069F250CF9093E501DF
:102360008093E4018091EA019091EB010E94371380
:102370006AE070E080E090E00E94D2176091E40192
:102380007091E5018091EC019091ED010E94E20EC7
:102390001C861B86F1E8FF8787E0F82E89CFE09145
:1023A000EC01F091ED0182A58D7F82A78091E4017F
:1023B0009091E50161960FB6F894DEBF0FBECDBFD8
:1023C000DF91CF911F910F91FF90EF90DF90CF9011
:1023D000BF90AF909F908F907F906F905F904F9045
:1023E0003F902F90089560E08CEF91E00E9457128B
:1023F00060E08CEF91E00E940713482F4D7F60E072
:102400008CEF91E00C94C112CF93C82F66E08CEF53
:1024100091E00E940713887FC43018F4CC0FCF5F7F
:1024200001C0C7E0482F4C2B66E08CEF91E0CF91C4
:102430000C94C11290E0FC01EC5BF74F2491FC017D
:10244000E05DF74F8491882399F090E0880F991F01
:10245000FC01EA5DF74FA591B491FC01E45EF74FF2
:10246000859194918FB7F894EC91E22BEC938FBF08
:102470000895CF93DF93EC018CB58F7D8CBD8CB527
:10248000837F8CBD8CB58C7F8CBD8DB581608DBDFF
:102490008A810E9467178C899D89DF91CF910C9466
:1024A000C71761E00C94391260E00C943912FC01FA
:1024B00020813181828193812817390719F0822F79
:1024C0000C94671708958EBD00000DB407FEFDCF74
:1024D0008EB508951F93CF93DF93EC01162F0E94C2
:1024E0005412812F0E946312182FCE010E945112A4
:1024F000812FDF91CF911F91089561EE0C946A12A4
:10250000BF92CF92DF92EF92FF920F931F93CF93E0
:10251000DF938C01B62EC72EF22EFC01C781DC2F73
:102520004C1708F4D42FF8018085811102C0CD1B0F
:1025300001C0C0E0C8010E9454128F2D0E94631296
:10254000D82EEB2CFC2CDD2339F0F70181917F0193
:102550000E946312D150F7CFCC2329F080E00E9473
:102560006312C150F9CFC8010E9451128D2DDF9125
:10257000CF911F910F91FF90EF90DF90CF90BF9080
:1025800008950F931F93CF93DF938C01C62FD42F01
:102590000E9454128C2F8F7180620E946312C82F88
:1025A0008D2F0E946312C8010E9451128C2FDF915F
:1025B000CF911F910F910895CF92DF92EF92FF92EA
:1025C0000F931F93CF93DF937C01162F6A01C22FC5
:1025D0000E945412812F8F7180620E946312D82F43
:1025E0008601CC2339F0F80181918F010E9463129A
:1025F000C150F7CFC7010E9451128D2FDF91CF91AB
:102600001F910F91FF90EF90DF90CF9008951F934F
:10261000CF93DF93EC01162F0E945412812F8F71FC
:102620000E9463128FEF0E946312182FCE010E9446
:102630005112812FDF91CF911F910895CF93DF9396
:10264000EC0160E00E94071381FD0EC0482F42603C
:1026500060E0CE010E94C11265E070E080E090E091
:10266000DF91CF910C94D217DF91CF910895CF9342
:10267000DF93EC0160E00E945712888999890E94DB
:10268000C7176DE1CE010E94071381FF07C088893B
:1026900099890E94C717CE010E947D1260E0CE0189
:1026A0000E940713482F4E7F60E0CE010E94C112A6
:1026B00062E0CE010E940713E8E5F8E0E49141E012
:1026C00050E001C0440FEA95EAF7482B62E0CE01E2
:1026D000DF91CF910C94C112CF93DF93EC010E9454
:1026E0001E1360E0CE010E940713482F416060E096
:1026F000CE010E94C11240E767E0CE010E94C112E4
:1027000061E0CE010E9457128985882349F02E8509
:10271000AE01475F5F4F6AE0CE010E94DC1214C039
:1027200062E0CE010E940713E8E5F8E0E49121E0C1
:1027300030E001C0220FEA95EAF72095422F4823A6
:1027400062E0CE010E94C1126DE1CE010E9407132A
:1027500081FF05C0CE01DF91CF910C947D12DF91F6
:10276000CF9108951F93CF93DF93EC0188819981D6
:102770002A813B818217930711F00E941A128A81E5
:102780009B81288139812817390711F00E941A127C
:102790001FB7F89480916F04811124C0EAE3F8E038
:1027A0008491EEE4F8E09491E82FF0E0EE0FFF1F43
:1027B000EA5DF74FA591B491EC91E92321F461E032
:1027C0008AE00E9467178AE00E941A128CB5806125
:1027D0008CBD8CB580648CBD8DE00E941A128BE09C
:1027E0000E941A1280916F048F5F80936F041FBF45
:1027F00060E0CE010E94571261E0CE010E943912C2
:1028000065E070E080E090E00E94D2174CE060E06C
:10281000CE010E94C1124FE564E0CE010E94C112B8
:1028200062E0CE010E94D80C882311F081E08E83F3
:1028300066E0CE010E940713182F60E0CE010E94CF
:10284000D80CCE010E94541280E50E94631283E7E7
:102850000E946312CE010E94511240E06DE1CE0150
:102860000E94C11240E06CE1CE010E94C1121886A4
:1028700040E767E0CE010E94C1124CE465E0CE0162
:102880000E94C11262EECE010E946A12CE010E9425
:102890007D12CE010E941E1360E0CE010E9407133C
:1028A000482F4E7F60E0CE010E94C112115081E09E
:1028B0001E3F08F080E0DF91CF911F910895CF92E5
:1028C000DF92EF92FF920F931F93CF93DF93EB0171
:1028D0007B01E40EF51E182FCE15DF0571F009916E
:1028E000C12ED12CC6010E94D824081721F0602FD8
:1028F000C6010E94E0241F5FEFCFDF91CF911F91AF
:102900000F91FF90EF90DF90CF900895EF92FF929C
:102910001F93CF93DF93EB017B01E40EF51E182F7D
:10292000CE15DF0539F0812F90E00E94D8248993DD
:102930001F5FF6CFDF91CF911F91FF90EF90089529
:10294000CF93DF9300D0CDB7DEB71A82198242E071
:1029500050E0BE016F5F7F4F0E94861489819A818B
:102960000F900F90DF91CF910895EF92FF920F9308
:102970001F93CF93DF93CDB7DEB728970FB6F894A8
:10298000DEBF0FBECDBF80911B02811105C08CEF51
:1029900091E00E947D125CC08130E9F48091A20236
:1029A000811114C084E0F82E92E8E92EFA94FF20F9
:1029B00039F08091E4019091E5018432994069F405
:1029C0008091EA019091EB010E9437130E94481018
:1029D00021E0892BF1F520E03CC08091EC01909141
:1029E000ED010E94320967E18091EA019091EB01CB
:1029F0000E94071381FD2CC08091EC019091ED01A4
:102A0000FC0122A520FD24C01C821B822091000114
:102A100030910101A9014F5F5F4F50930101409335
:102A200000013E832D83EF8208E310E020E030E0D8
:102A300040E050E0BE016F5F7F4F0E94ED0B8111BF
:102A400007C067E670E080E090E00E94D217AECF4A
:102A500021E0822F28960FB6F894DEBF0FBECDBFBF
:102A6000DF91CF911F910F91FF90EF9008952091EA
:102A70003D019F938F93822F90E021E430E0281B4B
:102A8000390B3F932F9381559D4F9F938F930E94B6
:102A90005827E0913D018E0F80933D010F900F90DC
:102AA0000F900F900F900F90823438F081E4809354
:102AB0003D011092F00280E00895E82FF0E0E1552A
:102AC000FD4F108281E008950FB6F894A89590917B
:102AD0006000986190936000109260000FBE8A3091
:102AE000A9F083FD02C098E001C098E28770892BAD
:102AF00098E10FB6F894A895909360000FBE80936C
:102B000060008091600080648093600083B7817F63
:102B1000682B63BFF89483B7816083BF85B78066F5
:102B200085BF8F7D85BF7894889583B78E7F83BF5F
:102B3000789408950FB6F894A895909160009861E4
:102B400090936000109260000FBE8A3049F191E0CE
:102B500090936E0483FD02C098E001C098E28770F4
:102B6000892B98E10FB6F894A895909360000FBE5A
:102B7000809360008091600080648093600083B7E0
:102B8000817F83BFF89483B7816083BF78948895F1
:102B900083B78E7F83BF789480916E048111EFCFCD
:102BA00008951F920F920FB60F9211248F930FB6B4
:102BB000F894A895809160008861809360001092DD
:102BC00060000FBE10926E048F910F900FBE0F9099
:102BD0001F901895F8949BE088E10FB6F894A8959B
:102BE000809360000FBE90936000FFCF811102C000
:102BF00089E001C08AE010923C0190916D04992314
:102C000011F0E99A01C0E998909168009260909360
:102C1000680090916C00996090936C0064E00E9451
:102C2000641580913C01E998909168009D7F909394
:102C3000680090916C00967F90936C0008951F92AD
:102C40000F920FB60F9211248F93F89483B78E7F53
:102C500083BFE89884E080933C0178948F910F9033
:102C60000FBE0F901F9018951F920F920FB60F92E4
:102C700011248F93F89483B78E7F83BF309B02C05B
:102C800082E001C081E080933C0178948F910F90A5
:102C90000FBE0F901F9018951F920F920FB60F92B4
:102CA00011248F93F89483B78E7F83BFE99883E0D4
:102CB00080933C0178948F910F900FBE0F901F90DE
:102CC0001895882311F05C9A08955C9808951092E5
:102CD00046011092450180936C0462E08AE00E94F4
:102CE000641580916C048111F8CF08951F920F92A2
:102CF0000FB60F9211242F933F934F938F939F936F
:102D000090917800409179002091450130914601E1
:102D1000892F90E0942B820F931F9093460180930C
:102D2000450180916C04882329F080916C048150C6
:102D300080936C049F918F914F913F912F910F90B1
:102D40000FBE0F901F901895CF93DF931F92CDB7B2
:102D5000DEB7198241E050E0BE016F5F7F4F0E94F5
:102D6000861489810F90DF91CF9108951F93CF939F
:102D7000DF93C82F80E00E94A014C1115EC08A3C7E
:102D80009B4A09F05AC082E00E94A41691E081118A
:102D900001C090E09093140283E00E94A41691E099
:102DA000811101C090E09093150284E00E94A41666
:102DB00091E0811101C090E09093160285E00E949D
:102DC000A014909318028093170287E00E94A01429
:102DD00090931A028093190289E00E94A4168093AE
:102DE000AE0242E850E06CE172E08AE00E94861494
:102DF0008DE80E94A41680931B0289E90E94A41604
:102E000091E0811101C090E090939F028DE90E94B2
:102E1000A4168093A0028EE90E94A4168093A102BA
:102E20008FE90E94A41691E0811101C090E0909377
:102E3000A202DF91CF911F910895C0E0D0E0FE0182
:102E4000E75DF64F1491CE010E94D824181721F0A7
:102E5000612FCE010E94E0242196C03AD10579F776
:102E600092CFCF93DF931F92CDB7DEB7698341E056
:102E700050E0BE016F5F7F4F0E945F140F90DF91A3
:102E8000CF9108953FB7F89480917504909176049E
:102E9000A0917704B091780426B5A89B05C02F3F78
:102EA00019F00196A11DB11D3FBFBA2FA92F982F70
:102EB0008827820F911DA11DB11DBC01CD0146E0E7
:102EC000660F771F881F991F4A95D1F70895362FEF
:102ED00090E0FC01E753F64F4491FC01EC5BF74FA7
:102EE0002491FC01E05DF74F8491882309F44EC0E2
:102EF0004423C1F150E0FA013197ED30F10590F52E
:102F0000E059FF4F0C949A25909180009F7703C061
:102F1000909180009F7D9093800024C094B59F770E
:102F200002C094B59F7D94BD1DC09091B0009F7765
:102F300003C09091B0009F7D9093B00013C090911A
:102F400090009F7703C0909190009F7D9093900098
:102F500009C09091A0009F7703C09091A0009F7D31
:102F60009093A000E82FF0E0EE0FFF1FE45EF74F14
:102F7000A591B4919FB7F894311104C08C9120951C
:102F8000282302C0EC912E2B2C939FBF08958A31E9
:102F9000910538F046979695879596958795019770
:102FA000F1F708958F929F92AF92BF92CF92DF92E6
:102FB000EF92FF926B017C010E9442174B015C0172
:102FC000C114D104E104F104F1F00E944217DC01C4
:102FD000CB0188199909AA09BB09883E9340A1052C
:102FE000B10570F321E0C21AD108E108F10888EEBA
:102FF000880E83E0981EA11CB11CC114D104E10409
:10300000F10419F7DDCFFF90EF90DF90CF90BF90E4
:10301000AF909F908F9008952FB7F89460917104AE
:103020007091720480917304909174042FBF08957D
:103030001F920F920FB60F9211242F933F938F93ED
:103040009F93AF93BF938091710490917204A0916C
:103050007304B09174043091700420E3230F2D3772
:1030600020F44096A11DB11D05C023EB230F41960E
:10307000A11DB11D2093700480937104909372047C
:10308000A0937304B09374048091750490917604B6
:10309000A0917704B09178040196A11DB11D809391
:1030A000750490937604A0937704B0937804BF914D
:1030B000AF919F918F913F912F910F900FBE0F90E5
:1030C0001F901895CF93DF93CDB7DEB768970FB6F3
:1030D000F894DEBF0FBECDBF789484B5826084BD06
:1030E00084B5816084BD85B5826085BD85B581600C
:1030F00085BD80916E00816080936E00109281008A
:103100008091810082608093810080918000816045
:10311000809380008091B10084608093B1008091A1
:10312000B00081608093B0008091910082608093B4
:103130009100809191008160809391008091900036
:103140008160809390008091A10082608093A100B3
:103150008091A10081608093A1008091A000816096
:103160008093A00080917A008B7F80937A00809179
:103170007A00826080937A0080917A0081608093E7
:103180007A0080917A00806880937A001092C10062
:103190008FEE84B984E085B986E087B982E088B98A
:1031A00082EF8AB91BB81DB81EB80FB6F894A8955F
:1031B00080916000886180936000109260000FBE73
:1031C00010927A0080916400816080936400809105
:1031D0006400826080936400809164008F7D80939E
:1031E0006400809164008860809364008091640032
:1031F00080648093640080916500816080936500A5
:103200008091650088608093650080916400806192
:103210008093640080916500806180936500809157
:103220006500806280936500809165008460809372
:103230006500809164008B7F8093640080916400BE
:1032400080688093640080EC80937E0080917A0097
:10325000816080937A001DBA1092680010926B0012
:1032600010926C0010926D001092690083E08CBB8C
:103270000E94610EE82E809164008D7F809364002F
:1032800083E00E949A150E946B0E80E00E94B616A1
:1032900080911B02811111C08CEF91E00E94B2134A
:1032A000882309F4D2C763E08CEF91E00E940713F2
:1032B0008150833008F0C9C7F6C6813009F0C5C710
:1032C0008CE90E94A416882309F444C08093E60187
:1032D00080E90E94A416082F8FE80E94A416182FD8
:1032E0008091EA019091EB010E94B2131093F701D3
:1032F0008091EA019091EB011D3708F01DE7412F05
:1033000065E00E94C112602F8091EA019091EB016B
:103310000E94D80C8091EC019091ED0121E0FC011C
:1033200021A72091E601222361F084E299E09093A5
:10333000E5018093E4010E944810892B09F485C7B8
:1033400088C71092E5011092E40160E070E00E94ED
:10335000E20E7FC710E0EE2019F18FE291E00E94AB
:10336000D10D8AE291E00E94B60D81E090E00E94CA
:10337000C10E85E291E00E94B60D812F90E00E947F
:10338000C10E81E08093440180E891E00E94D10D5C
:1033900087E491E00E94FE0581E00E94611628C04A
:1033A00082E191E00E94D10D8DE091E00E94B60D86
:1033B00081E090E00E94C10E8FEF90E00E94D10D5D
:1033C000112319F00E94B514182F8AEF90E00E9483
:1033D000B60D812F90E00E94C10E87E491E00E941B
:1033E000FE05112311F080E001C082E080934401CA
:1033F00096B1987080911402811104C081E09111FE
:1034000004C002C081E0911180E08093A3027E019C
:10341000F9E0EF0EF11CEAE02E2E312C1091440160
:1034200011111EC3809115020E94611685E691E07C
:103430000E94D10D87E491E00E94FE050E94FE0DDE
:103440008CE591E00E94B60D87E491E00E94FE05B4
:1034500010923D0181E080933E01ECE1F2E00190A9
:103460000020E9F79F012250310929014CE1A42EE7
:1034700042E0B42EAE014F5F5F4F4A0156E0C52EC9
:1034800062E3662E712C76E6D72EF50180818823C3
:1034900009F430C14A145B0408F42CC165E270E001
:1034A000C5010E944D278C01009709F420C1A81680
:1034B000B90671F0FC011082C5010E943715811117
:1034C00004C085E2F801808315C125E2F80120835C
:1034D000F8018181853249F481E291E00E9437153B
:1034E0005801F2E0AF0EB11CD0CF882309F402C11D
:1034F000F8019281992309F4FDC0893651F0823593
:1035000009F4CBC631E0813481F030E0893411F028
:103510001BC031E040911702509118025A8B498B21
:103520002FEF1BC0813409F0C0C641E050E060912C
:10353000A4027091A502613D774010F040E050E098
:103540005A8B498B20E009C0823461F74091A40274
:103550005091A5025A8B498B22E086E0E2E0F1E02F
:10356000D40101900D928A95E1F7943619F49A836B
:103570001B8227C0983729F4332319F182E38B8308
:1035800020C0923611F419821CC0933611F499832D
:1035900018C09234B1F489899A89892B49F084E75B
:1035A000898382E78A8385E78B8385E68C8309C0DC
:1035B000D98281E68A838CE68B8383E78C8385E6D8
:1035C0008D838981811127C0332311F0E1E001C08F
:1035D000E2E080913D01282F30E0A9014E0F511DFE
:1035E000423451050CF07EC0D901A155BD4F9989D7
:1035F0009C93A1E0A80FE13029F0B0E0A155BD4FA8
:103600009A899C938E0F80933D01E82FF0E0E1555D
:10361000FD4F108267C0833609F050C089899A89AE
:10362000222389F0263679F0283629F4B3010E9446
:103630003125CB0108C0223041F0273631F0233745
:1036400009F050C002C053E001C054E040913D0178
:10365000642F70E0FB01E50FF11DE234F1050CF081
:1036600041C030913E01E1E0E30FE0933E01FB01F8
:10367000E155FD4F3083E1E0E40FF0E0E155FD4F0F
:103680002083E3E0E40F22E0240F30E0533039F4EC
:10369000E0933D01F901E155FD4F808323C0B10165
:1036A0000E943125D901A155BD4F7C934C5F4093B9
:1036B0003D01F0E0E155FD4F608314C08A898F938E
:1036C00089898F939F928F921F92CF92FF92EF9250
:1036D0000E945827C7010E9437150FB6F894DEBF25
:1036E0000FBECDBF580133E0A30EB11CCECEC50135
:1036F0000E94371510913D01E12FF0E0E155FD4F9B
:10370000108285E591E00E94B60D812F0E94DD0DAB
:1037100087E491E00E94FE05D0903D01DD2009F490
:1037200028C18CEF91E00E941E130E94B514809175
:103730001B02811127C08091A202811102C020EBDF
:1037400001C020EA4D2D6FEA72E08CEF91E00E94FB
:10375000801261E08CEF91E00E94571260E08CEFE4
:1037600091E00E945712E89A64E082E00E9464159A
:1037700080913C01E89840E767E08CEF91E00E947F
:10378000C112B1C0813009F0F4C08091E401909180
:10379000E5018432994009F4B1C0C090A102509172
:1037A000A0025C8B0E940C18CC2009F473C032E399
:1037B000832E912CA12CB12C9B01AC012854344FA9
:1037C0004F4F5F4F2D8B3E8B4F8B588FCB8A809105
:1037D000E4019091E5018432994019F40FEF1FEF55
:1037E00047C01C821B8280910001909101019C01C5
:1037F0002F5F3F4F30930101209300019E838D8303
:1038000044EC4F8308E310E022E030E0AE014D5E6F
:103810005F4FBE016F5F7F4F8091EC019091ED0192
:103820000E94ED0B8823D1F20E940C182B013C0161
:103830008091EC019091ED010E943209843C71F07D
:103840000E940C18DC01CB0184199509A609B7095F
:1038500087399105A105B10558F3C0CFE091EC017E
:10386000F091ED010785108917FF02C00EEF1FEFE1
:1038700017FF12C00E940C182D893E894F89588D60
:10388000261737074807590770F10E3F1F4F09F0F9
:10389000EEC429C000E010E08091E4019091E501C0
:1038A0008432994001F11C830B8380910001909137
:1038B00001019C012F5F3F4F3093010120930001D4
:1038C0009E838D835C895F832D2D30E008E310E0BB
:1038D0004FEA52E0BE016F5F7F4F8091EC01909103
:1038E000ED010E94ED0B80911B02811105C08CEF50
:1038F00091E00E947D123DC08130D9F58091A202F5
:103900008823B9F18091E4019091E50184329940D6
:1039100081F11C821B8280910001909101019C0128
:103920002F5F3F4F30930101209300019E838D83D1
:1039300085EC8F8308E310E020E030E040E050E0C9
:10394000BE016F5F7F4F8091EC019091ED010E946D
:10395000ED0B882371F064E279E08091EC019091A5
:10396000ED010E94E20E84E299E09093E5018093DC
:10397000E4010E94F31180911502882319F080E080
:103980000E94611686B188709091140211E0911125
:1039900003C0811103C001C0811110E08091A30216
:1039A000811751F0809115020E9461161093A302B5
:1039B00088E00E949A1574C38DE491E00E94D10DB5
:1039C00087E491E00E94FE058091190290911A020D
:1039D000009719F0282F892F02C021E080E0209362
:1039E0003F018093400181E02091190230911A0239
:1039F000232B09F080E00E94F615182F80913F01DB
:103A00009091400101979093400180933F011111E3
:103A100003C0181619063CF396B1987080911402F1
:103A2000811104C081E0911104C002C081E09111B4
:103A300080E08093A30283E491E00E94B60D809120
:103A4000A30290E00E94930E812F90E00E94C10E8D
:103A500087E491E00E94FE05123009F021C30AC3F9
:103A6000113009F009C38091F80281110AC08091D8
:103A7000F7020E945C0E1093F8021092410110921E
:103A8000F90287E491E00E947905892B09F4E6C2E6
:103A900087E491E00E945705082F9091F9028091E8
:103AA000F602981728F084E291E00E945F0D78C03A
:103AB0000D3021F00A3011F020E017C066E970E007
:103AC00080E090E00E94D21787E491E00E9479059F
:103AD000892B51F087E491E00E946B058D3009F449
:103AE000D0C38A3009F4CDC321E08091F80281303F
:103AF00009F059C03091F9028091F4029091F502D9
:103B0000211103C0003209F06EC0FC01E30FF11D6A
:103B100010829090F302C090F402D090F502A09031
:103B2000F102B090F20210E09116B1F1B501C601B8
:103B30000E942922F6E0AF0EB11C1F5F892BA1F76E
:103B4000111654F5003221F480E20E945C0E02C08E
:103B50000E94B20D1093410182E08093F80210920E
:103B6000F902133009F453C058F4113009F447C076
:103B7000123009F073C20E94B20D80E891E041C09A
:103B8000153009F43DC108F43FC0163009F066C293
:103B900081E00E94B61634C18FE691E00E94D10DFB
:103BA0001092F8025BC2823009F058C23091F902DB
:103BB0008091F4029091F5022223A9F0FC01E30F19
:103BC000F11D1082C090F402D090F502D092430112
:103BD000C09242011092F802C114D10409F014C13C
:103BE00000E010E01BC121E0230F2093F902FC014B
:103BF000E30FF11D0083802F0E945C0E2FC280E630
:103C000093E00E94D10DFAC00E94FE0DF7C00E9401
:103C1000B20D87E393E00E94B60D82E00E94A416E5
:103C20000E94DD0D8DE293E00E94B60D83E00E94BC
:103C3000A4160E94DD0D89E193E00E94B60D84E098
:103C40000E94A4160E94DD0D8BE093E00E94B60D49
:103C500085E00E94A0140E94EE0D88EF92E00E9481
:103C6000B60D87E00E94A0140E94EE0D89EE92E04E
:103C70000E94B60D89E00E94A4160E94DD0D8BED16
:103C800092E00E94B60D8DE80E94A4160E94DD0D00
:103C900081E90E94A416182F8BEC92E00E94B60DC9
:103CA000812F0E94DD0D88EB92E00E94B60D412F1E
:103CB00050E0BE016F5F7F4F82E90E9486149E0133
:103CC0002F5F3F4F690103E01123C9F0F601819195
:103CD0006F011F928F9324E331E03F932F931F9244
:103CE0000F93FF92EF920E945827C7010E945F0D29
:103CF00011500FB6F894DEBF0FBECDBFE5CF0E94C6
:103D0000B20D85EA92E00E94B60D87E90E94A416E2
:103D10000E94DD0D87E992E00E94B60D89E90E94BC
:103D2000A4160E94DD0D8DE892E00E94B60D88E990
:103D30000E94A4160E94DD0D8AE792E00E94B60D53
:103D40008AE90E94A4160E94DD0D87E692E00E9497
:103D5000B60D8BE90E94A4160E94DD0D82E592E06B
:103D60000E94B60D8CE90E94A4160E94DD0D8BE323
:103D700092E00E94B60D8DE90E94A4160E94DD0D0E
:103D800081E292E00E94B60D8EE90E94A4160E9484
:103D9000DD0D89E092E00E94B60D8FE90E94A41625
:103DA0000E94DD0D8AEF91E00E94B60D8EE80E9420
:103DB000A4160E94DD0D89EE91E00E94B60D80E907
:103DC0000E94A4160E94DD0D8BED91E00E94B60DBD
:103DD0008FE80E94A4160E94DD0D84EC91E00E9401
:103DE000B60D42E850E06CE172E08AE00E94861471
:103DF0008CE192E00E945F0D0E94B20D10E001C0C4
:103E000011E01092F80219C101E0F60180818033BF
:103E100009F400E0C6010E940222162FE091410140
:103E20008E2F90E0FC013797E631F10508F0FFC0D6
:103E3000E65AFF4F0C949A25602F82E0F4C0602F61
:103E400083E0F1C0602F84E0EEC0C114D10421F002
:103E5000C6010E94022203C060E070E0CB01788BB3
:103E60006F8742E050E0BE01615F7F4F85E012C284
:103E7000C114D10421F0C6010E94022201C060E0F9
:103E800087E0D1C0612F89E0CEC0F601019000200B
:103E9000E9F73197EC19FD09CF01019781389105B8
:103EA00008F0C5C0AF014F5F5F4FB6018AE0F2C1B5
:103EB000123008F0BCC0612F8DE8B5C0153008F095
:103EC000B6C0612F8EE8AFC08FEF810F8E3708F03C
:103ED000AEC0612F8FE8A7C0133008F0A8C0612FD3
:103EE00080E9A1C08DEF810F833008F0A0C0612F61
:103EF00081E999C081E90E94A416882E6090420150
:103F0000709043016114710409F491C0F3010190B0
:103F10000020E9F731975F01A618B70809F487C0B8
:103F2000C50162E070E00E944525019709F47FC059
:103F3000912CC401880F991FA816B90609F077C003
:103F4000C12C8E010F5F1F4F0C8B1D8B4C2C512CE5
:103F50004A145B040CF09AC1460C571CF201808194
:103F6000082E000C990B0E943C2790ED980F9A3078
:103F700040F09FEB980F963030F499ECD92ED80E84
:103F800004C0D92E02C0DD24DA94F2018181082E0A
:103F9000000C990B0E943C2790ED980F9A3030F05E
:103FA0009FEB980F963020F4875303C0892F01C0F0
:103FB0008FEFFD2D40E1F40290011124D82ED22A7A
:103FC000F801D1928F01C394C394C0CF8FEF810FBA
:103FD000803268F5612F87E926C0133040F5612FE4
:103FE00088E921C0602F89E91EC0103100F5612FDA
:103FF0008AE919C01031D8F4612F8BE914C011235C
:10400000B1F0612F8CE90FC011168CF4612F8DE98E
:104010000AC08CE90E94A416181749F0612F8EE996
:1040200002C0602F8FE90E94311781E001C080E05B
:104030001092F802882351F010E089E593E00E9485
:10404000D10D112339F087E493E00EC08FE493E0A3
:104050000E94D10D87E491E00E94FE050E94610E4E
:1040600081111EC08FE098E00E94D10D87E491E09D
:104070000E94FE050E94EA1588E098E00E94D10D9A
:1040800081E00E94611681E00E94F61580E00E94A6
:10409000611681E00E94F6150E94610E8111EACF3F
:1040A0000E942006BBC980E90E94A416682F8CEFED
:1040B00091E00E94D80C882309F4C7C060E08CEF1F
:1040C00091E00E940713482F4F7860E08CEF91E059
:1040D0000E94C11243E063E08CEF91E00E94C112A4
:1040E00085E080930A0280E28093030288E90E94BF
:1040F000A416182F60E08CEF91E0112351F00E947C
:104100000713837F482F113011F4486006C04C60BC
:1041100004C00E940713482F477F60E08CEF91E0B6
:104120000E94C1128EE80E94A4160E9404128FE819
:104130000E94A4168D3708F08DE7482F65E08CEFBC
:1041400091E00E94C11287E90E94A416811105C066
:104150008CEF91E00E940E0D03C080E28093030279
:1041600081E90E94A416F82E1EEF180F59F0137063
:10417000412F63E08CEF91E00E94C1121E5F10930B
:104180000A0209C040E063E08CEF91E00E94C11296
:1041900082E080930A028E010F5F1F4F85E0F801D5
:1041A00011928A95E9F74F2D50E0B80182E90E94FB
:1041B000861489E90E94A416882311F04FE301C0F8
:1041C00040E061E08CEF91E00E94C1128AE90E9418
:1041D000A416F82E8BE90E94A416F0E18F9FC0016F
:1041E00011244F2D4F70482B64E08CEF91E00E941A
:1041F000C11220910A02A8016AE08CEF91E00E94AE
:10420000DC1220910A02A80160E18CEF91E00E948B
:10421000DC124091030261E18CEF91E00E94C11237
:1042200010920C0210920D0210920E0210920F02C8
:104230008CEF91E00E946C138CEF91E00E94371399
:104240008CEF91E00E947D1210C010E00E94F311EB
:1042500082C8E091EC01F091ED0182A5886082A70F
:104260008EE80E94A4160E94041211E0EFCFF2E340
:104270008F0E911CA11CB11CC501B4010E94D21764
:10428000A5CA87E491E00E9457052ECCA4016C8951
:104290007D8982E90E945F14C8CE2091A30230E09C
:1042A0003A8B298B31E026E658C9863529F44091AE
:1042B000A6025091A7024EC9843541F44091A8024C
:1042C0005091A9025A8B498B27E647C9883441F49B
:1042D0004091AA025091AB025A8B498B28E63DC906
:1042E000803509F0FFC94091AC025091AD025A8B64
:1042F000498B23E732C9CF93DF93E7E4F1E01382E0
:10430000128288EE93E0A0E0B0E084839583A683D8
:10431000B78383E191E09183808385EC90E095877A
:10432000848784EC90E09787868780EC90E0918B7F
:10433000808B81EC90E0938B828B82EC90E0958B6C
:10434000848B86EC90E0978B868B118E128E138E69
:10435000148EECEFF1E089E090E0918380838AE0B5
:1043600090E093838283168280E28783108685E0C3
:10437000868785E090E0A0E0B0E0848B958BA68BEB
:10438000B78B1186AAEFB2E0D096FC93EE939F977D
:104390008FE293E09093CA038093C90387ED93E083
:1043A0009093D6038093D5038BEC93E098969C93DF
:1043B0008E9397979B961D921D921D921C929E978D
:1043C0009A961C929A9799961C9299971C92C4EE71
:1043D000D1E0FF83EE83B987A887E1EFF2E081E8BF
:1043E00098E0918380838CE182838FEA92E09483CA
:1043F000838381E485838EE3868317821086DF9131
:10440000CF9108951F93FC0199278827BC01E89458
:1044100011911032E9F3193010F01E30C8F31B323D
:1044200051F01D3249F4689406C00E943222610F97
:10443000711D811D911D119110531A30B0F33EF47E
:1044400090958095709561957F4F8F4F9F4F1F91ED
:104450000895FB01DC018D91059080190110D9F3BD
:10446000990B0895592F482F372F262F660F771F46
:10447000881F991F660F771F881F991F620F731F70
:10448000841F951F660F771F881F991F0895ABE043
:10449000B0E0EDE4F2E20C94EE246C017B018A01C1
:1044A000FC0117821682838181FFCCC1CE01019667
:1044B0003C01F6019381F70193FD859193FF819172
:1044C0007F01882309F4BAC1853239F493FD8591BF
:1044D00093FF81917F01853229F4B60190E00E941B
:1044E0003E24E7CF912C212C312CFFE1F315D8F09D
:1044F0008B3279F038F4803279F08332A1F4232DB5
:1045000020611DC08D3261F0803369F4232D21605C
:1045100016C0832D8260382EE32DE4603E2E2AC023
:10452000F32DF8601DC037FC2DC020ED280F2A3078
:1045300040F08E32B9F436FC81C1232D2064322E36
:1045400019C036FE06C08AE0989E200D1124922ED6
:1045500011C0EAE02E9E200D1124222EF32DF062D0
:104560003F2E08C08C3621F4832D8068382E02C07F
:10457000883641F4F70193FD859193FF81917F0186
:104580008111B3CF982F9F7D9554933028F40C5F01
:104590001F4F9FE399830DC0833631F0833771F04D
:1045A000833509F059C021C0F801808189830E5FED
:1045B0001F4F88248394912C530113C02801F2E0EB
:1045C0004F0E511CF801A080B18036FE03C0692D4A
:1045D00070E002C06FEF7FEFC5010E9433244C01F1
:1045E0008201F32DFF773F2E16C0280122E0420EF4
:1045F000511CF801A080B18036FE03C0692D70E027
:1046000002C06FEF7FEFC5010E9428244C01F32DFB
:10461000F0683F2E820133FC1BC0822D90E088168B
:104620009906B0F4B60180E290E00E943E242A94FC
:10463000F4CFF50137FC859137FE81915F01B6011A
:1046400090E00E943E2421102A9421E0821A9108D1
:104650008114910471F7E8C0843611F0893641F570
:10466000F80137FE07C060817181828193810C5F00
:104670001F4F08C060817181072E000C880B990BB9
:104680000E5F1F4FF32DFF763F2E97FF09C09095C9
:104690008095709561957F4F8F4F9F4FF0683F2EAB
:1046A0002AE030E0A3010E947A24882E861845C0B3
:1046B000853731F4232D2F7EB22E2AE030E025C03D
:1046C000932D997FB92E8F36C1F018F4883579F083
:1046D000B5C0803719F0883721F0B0C0E92FE0610C
:1046E000BE2EB4FE0DC0FB2DF460BF2E09C034FEFB
:1046F0000AC0292F2660B22E06C028E030E005C08F
:1047000020E130E002C020E132E0F801B7FE07C04E
:1047100060817181828193810C5F1F4F06C060812F
:10472000718180E090E00E5F1F4FA3010E947A2408
:10473000882E8618FB2DFF773F2E36FE0DC0232DC9
:104740002E7FA22E891458F434FE0BC032FC09C00F
:10475000832D8E7EA82E05C0B82CA32C03C0B82CA8
:1047600001C0B92CA4FE0FC0FE01E80DF11D80812F
:10477000803321F49A2D997EA92E09C0A2FE06C08D
:10478000B394B39404C08A2D867809F0B394A3FC43
:1047900011C0A0FE06C0B21488F4280C922C9B18FD
:1047A0000EC0B21460F4B60180E290E00E943E2494
:1047B000B394F7CFB21418F42B1802C0982C212C04
:1047C000A4FE10C0B60180E390E00E943E24A2FE49
:1047D00017C0A1FC03C088E790E002C088E590E024
:1047E000B6010CC08A2D867859F0A1FE02C08BE27A
:1047F00001C080E2A7FC8DE2B60190E00E943E2459
:10480000891438F4B60180E390E00E943E249A9423
:10481000F7CF8A94F301E80DF11D8081B60190E095
:104820000E943E248110F5CF222009F442CEB60129
:1048300080E290E00E943E242A94F6CFF601868121
:10484000978102C08FEF9FEF2B96E2E10C940A252F
:10485000FC010590615070400110D8F7809590954B
:104860008E0F9F1F0895FC01615070400190011050
:10487000D8F7809590958E0F9F1F08950F931F93E3
:10488000CF93DF93FB01238121FD03C08FEF9FEFC7
:104890002CC022FF16C046815781248135814217E2
:1048A000530744F4A081B1819D012F5F3F4F3183B5
:1048B00020838C93268137812F5F3F4F3783268358
:1048C00014C08B01EC01FB010084F185E02D0995FA
:1048D000892BE1F6D80116968D919C911797019638
:1048E00017969C938E931697CE01DF91CF911F91CF
:1048F0000F910895FA01AA27283051F1203181F152
:10490000E8946F936E7F6E5F7F4F8F4F9F4FAF4FD7
:10491000B1E03ED0B4E03CD0670F781F891F9A1FEA
:10492000A11D680F791F8A1F911DA11D6A0F711D9E
:10493000811D911DA11D20D009F468943F912AE0AA
:10494000269F11243019305D3193DEF6CF01089592
:10495000462F4770405D4193B3E00FD0C9F7F6CFC3
:10496000462F4F70405D4A3318F0495D31FD40528B
:10497000419302D0A9F7EACFB4E0A6959795879521
:1049800077956795BA95C9F7009761057105089500
:104990009B01AC010A2E06945795479537952795AC
:1049A000BA95C9F7620F731F841F951FA01D089544
:1049B000F999FECF92BD81BDF89A992780B50895E7
:1049C000262FF999FECF1FBA92BD81BD20BD0FB62B
:1049D000F894FA9AF99A0FBE019608952F923F9291
:1049E0004F925F926F927F928F929F92AF92BF92FF
:1049F000CF92DF92EF92FF920F931F93CF93DF93AB
:104A0000CDB7DEB7CA1BDB0B0FB6F894DEBF0FBE07
:104A1000CDBF09942A88398848885F846E847D8454
:104A20008C849B84AA84B984C884DF80EE80FD8056
:104A30000C811B81AA81B981CE0FD11D0FB6F894CC
:104A4000DEBF0FBECDBFED010895991B79E004C014
:104A5000991F961708F0961B881F7A95C9F78095BD
:104A60000895AA1BBB1B51E107C0AA1FBB1FA617B5
:104A7000B70710F0A61BB70B881F991F5A95A9F707
:104A800080959095BC01CD01089597FB072E16F4F3
:104A9000009407D077FD09D00E94312507FC05D08E
:104AA0003EF4909581959F4F0895709561957F4F45
:104AB0000895A1E21A2EAA1BBB1BFD010DC0AA1F5F
:104AC000BB1FEE1FFF1FA217B307E407F50720F077
:104AD000A21BB30BE40BF50B661F771F881F991FF2
:104AE0001A9469F760957095809590959B01AC013B
:104AF000BD01CF010895052E97FB1EF400940E947E
:104B0000922557FD07D00E94592507FC03D04EF48B
:104B10000C94922550954095309521953F4F4F4FDD
:104B20005F4F089590958095709561957F4F8F4F59
:104B30009F4F0895EE0FFF1F0590F491E02D09940B
:104B40005058BB27AA270E94B8250C9490260E9493
:104B5000822638F00E94892620F039F49F3F19F40C
:104B600026F40C947F260EF4E095E7FB0C9479264E
:104B7000E92F0E94A12658F3BA176207730784072A
:104B8000950720F079F4A6F50C94C3260EF4E09571
:104B90000B2EBA2FA02D0B01B90190010C01CA01F7
:104BA000A0011124FF27591B99F0593F50F4503EA2
:104BB00068F11A16F040A22F232F342F4427585F94
:104BC000F3CF469537952795A795F0405395C9F7AC
:104BD0007EF41F16BA0B620B730B840BBAF0915064
:104BE000A1F0FF0FBB1F661F771F881FC2F70EC003
:104BF000BA0F621F731F841F48F4879577956795D6
:104C0000B795F7959E3F08F0B0CF9395880F08F0C1
:104C10009927EE0F9795879508950E94A92688F009
:104C20009F5798F0B92F9927B751B0F0E1F0660F70
:104C3000771F881F991F1AF0BA95C9F714C0B130B1
:104C400091F00E94C326B1E008950C94C326672F0B
:104C5000782F8827B85F39F0B93FCCF386957795E0
:104C60006795B395D9F73EF49095809570956195C9
:104C70007F4F8F4F9F4F0895E89409C097FB3EF4F4
:104C800090958095709561957F4F8F4F9F4F992399
:104C9000A9F0F92F96E9BB279395F6958795779517
:104CA0006795B795F111F8CFFAF4BB0F11F460FFD7
:104CB0001BC06F5F7F4F8F4F9F4F16C0882311F02F
:104CC00096E911C0772321F09EE8872F762F05C043
:104CD000662371F096E8862F70E060E02AF09A95DE
:104CE000660F771F881FDAF7880F9695879597F9D3
:104CF000089597F99F6780E870E060E008959FEF5E
:104D000080EC089500240A94161617061806090662
:104D1000089500240A941216130614060506089531
:104D2000092E0394000C11F4882352F0BB0F40F4B9
:104D3000BF2B11F460FF04C06F5F7F4F8F4F9F4FF9
:104D4000089557FD9058440F551F59F05F3F71F07B
:104D50004795880F97FB991F61F09F3F79F08795E2
:104D60000895121613061406551FF2CF4695F1DF6B
:104D700008C0161617061806991FF1CF86957105FB
:104D8000610508940895E894BB2766277727CB012F
:104D900097F908950E94DD260C9490260E948226A1
:104DA00038F00E94892620F0952311F00C94792682
:104DB0000C947F2611240C94C4260E94A12670F323
:104DC000959FC1F3950F50E0551F629FF001729FB0
:104DD000BB27F00DB11D639FAA27F00DB11DAA1FBF
:104DE000649F6627B00DA11D661F829F2227B00D0C
:104DF000A11D621F739FB00DA11D621F839FA00D97
:104E0000611D221F749F3327A00D611D231F849FE6
:104E1000600D211D822F762F6A2F11249F5750403D
:104E20009AF0F1F088234AF0EE0FFF1FBB1F661FB8
:104E3000771F881F91505040A9F79E3F510580F081
:104E40000C9479260C94C4265F3FE4F3983ED4F387
:104E5000869577956795B795F795E7959F5FC1F725
:104E6000FE2B880F911D9695879597F9089581E0FF
:104E700090E0F8940C9488279111089581568A51F6
:104E800008F4805285580895FB01DC0102C00190AE
:104E90000D9241505040D8F70895FC01819186173A
:104EA00021F08823D9F7992708953197CF010895E4
:104EB000AEE0B0E0EEE5F7E20C94FC240D891E892B
:104EC0008F89988D26E02C831A83098397FF02C06F
:104ED00080E090E801979E838D83AE01455E5F4F31
:104EE000698D7A8DCE0101960E9447224D815E81A7
:104EF00057FD0AC02F813885421753070CF49A01D9
:104F0000F801E20FF31F10822E96E4E00C941825AE
:044F1000F894FFCF43
:104F14000100253034580000C33C33CE3EE3EC009E
:104F2400000000B1051A054805FE05790557056B13
:104F3400052525000A456E74727920746F6F206C04
:0C4F44006F6E670025303258000D0A0027
:00000001FF
