:100000000C94E5030C94280F0C94550F0C940D04DC
:100010000C943D0F0C940D040C94DA0E0C940D040A
:100020000C940D040C940D040C940D040C940D040C
:100030000C940D040C940D040C940D040C940D04FC
:100040000C94C6220C940D040C945E050C94380597
:100050000C940D040C9401100C940D040C940D04DC
:100060000C940D040C940D040C940D040C940D04CC
:100070000C940D040C940D040C940D040C940D04BC
:100080000C940D040C940D040C940D040C940D04AC
:100090000C940D040C940D040C940D040C940D049C
:1000A0000C940D040C940D040C940D040C940D048C
:1000B0000C940D04622A652A682A6B2A7E2A882AF3
:1000C0008A2A9F2AA32AA32AB52AC52AC32AC92A6B
:1000D000C92AAE0BB00B310C2F0C160C520C570C5E
:1000E000500C570C570C570C520C570C570C570C04
:1000F0004E0C4E0C1F1F221F151F191F431F431F9D
:10010000261F2A1F301F341F431F3A1F3E1F524F06
:100110004B3A00534F4B3A000A436F6E666967755E
:10012000726174696F6E206D6F6465000A496E7646
:10013000616C696420636F6D6D616E6400426F7203
:100140006F7352656564323420636F6E6669672031
:10015000636F6E736F6C65205B42523C54544E3E2D
:1001600056335D2054797065202768656C702720B0
:10017000746F2073686F7720636F6D6D616E647349
:10018000005B74706C5D5061796C6F6164207465A4
:100190006D706C6174653A005B6A73665D4A6F6985
:1001A0006E2053463A005B73665D53463A005B70BF
:1001B0006F725D506F72743A000A5B6368615D43F1
:1001C00068616E6E656C3A000A5B61706B5D4170D0
:1001D000704B65793A000A5B6175695D41707045E5
:1001E00055493A005B6475695D4465764555493A01
:1001F000005B6D6F645D5266204D6F64653A005B15
:100200006163635D41636375726163793A005B7238
:1002100065706F5D5265706F7274286D756C293AE8
:10022000005B69645D44657669636549443A005BD7
:1002300065696E745D45496E7420656E61626C65BA
:10024000643A005B6C65645D4C65643A005B696EA2
:10025000765D496E762E20726565643A005265625D
:100260006F6F7421000A5B4552524F525D0A000ABB
:100270005B4F4B5D0A002D2D2D434F4D4D414E449C
:10028000532D2D2D3A0A4D6973633A0A3D3D3D3D8C
:100290003D0A68656C70202D2073686F7773207439
:1002A000686973206D73670A76657220202D20734C
:1002B000686F77732076657273696F6E2062616E06
:1002C0006E65720A73686F77202D2073686F77737D
:1002D0002063757272656E7420636F6E66696775F0
:1002E000726174696F6E0A73656E20202D207368C9
:1002F0006F77732073656E736F727320737461749C
:1003000075730A7265626F202D207265626F6F745B
:10031000206465766963650A66616320202D206F1D
:100320007665727269646520636F6E6669672077AF
:1003300069746820666163746F72792064656661B0
:10034000756C74730A47656E6572616C3A0A3D3D5F
:100350003D3D3D3D3D3D0A696E76203C312F303EAE
:100360002020202D20696E76657274207265656488
:100370002073656E736F722072656164696E670ABF
:100380006C6564203C312F303E2020202D20626C93
:10039000696E6B206C6564206F6E206E6F74696689
:1003A00069636174696F6E0A65696E74203C312FF0
:1003B000303E20202D20656E61626C65206578746A
:1003C00065726E616C20696E746572727570740A04
:1003D0006964203C6E756D6265723E202D207365E8
:1003E0007420313662697420696E746567657220A5
:1003F00049440A7265706F203C6D756C3E20202D5B
:100400002073657420706572696F6469632072651A
:10041000706F7274203D20382A6D756C207365638F
:100420006F6E64732E28303D64697361626C65641D
:10043000290A616363203C6E3E20202020202D206D
:100440007365742061636375726163792062797486
:10045000650A2074706C20203C74656D706C61744A
:10046000653E202D20736574207061796C6F616426
:100470002074656D706C6174650A6D6F6465203CF5
:10048000302D333E202D2073657420726164696FB6
:10049000206D6F646520303D706C61696E2C313D5C
:1004A0006D6573682C323D6C6F726177616E0A0006
:1004B0004D6F6465206368616E67656400C04000CD
:1004C0000000000023002600290000000000670053
:1004D000CC00B80154039D070504030201005B56DC
:1004E00043435D286D56293A005B564241545D28CE
:1004F0006D56293A0021AB000000010000000025E4
:1005000052632542632541632556630000000000C5
:1005100000000000000000000000000000000000DB
:1005200000000000000000000000000000000000CB
:1005300000000000000000000000000000000000BB
:1005400000000000000000000000000000000000AB
:10055000000000000000000000000000000000009B
:100560000000000002000000000000000000000089
:10057000000000000000000000000000000000007B
:10058000000000000001FFFFFF140E0B0805020031
:100590000000000000000000000004000000020055
:1005A000000001000080000000400000002000006A
:1005B0000010000000050000002020200E11140C87
:1005C0000F12090C0F06090C0306090003060000B0
:1005D00000010001000100000000000024002700CD
:1005E0002A0000000000250028002B000404040459
:1005F00004040404020202020202030303030303CD
:1006000001020408102040800102040810200102A9
:100610000408102000000008000201000003040785
:100620000000000000000000637C777BF26B6FC568
:100630003001672BFED7AB76CA82C97DFA5947F0E5
:10064000ADD4A2AF9CA472C0B7FD9326363FF7CCC1
:1006500034A5E5F171D8311504C723C31896059A5E
:10066000071280E2EB27B27509832C1A1B6E5AA081
:10067000523BD6B329E32F8453D100ED20FCB15B6C
:100680006ACBBE394A4C58CFD0EFAAFB434D3385D5
:1006900045F9027F503C9FA851A3408F929D38F5A9
:1006A000BCB6DA2110FFF3D2CD0C13EC5F974417E0
:1006B000C4A77E3D645D197360814FDC222A908857
:1006C00046EEB814DE5E0BDBE0323A0A4906245CE3
:1006D000C2D3AC629195E479E7C8376D8DD54EA948
:1006E0006C56F4EA657AAE08BA78252E1CA6B4C614
:1006F000E8DD741F4BBD8B8A703EB5664803F60E6D
:10070000613557B986C11D9EE1F8981169D98E945B
:100710009B1E87E9CE5528DF8CA1890DBFE6426874
:1007200041992D0FB054BB1668656C70000076655A
:100730007200000073686F77000073656E00000040
:100740007265626F0000666163000000696E76008A
:1007500000006C656400000065696E7400006964E7
:10076000000000007265706F0000616363000000AC
:1007700074706C0000006D6F646500006475690042
:10078000000061756900000061706B000000706F0F
:1007900072000000636861000000736600000000E2
:1007A0006A7366000000A027BE33E034C1332042E4
:1007B000C433A127BE33E134C1332142C433FF0621
:1007C00005040302010900FF442B11241FBECFEFD3
:1007D000D8E0DEBFCDBF12E0A0E0B1E0ECE5F4E68A
:1007E00002C005900D92A630B107D9F725E0A6E02A
:1007F000B2E001C01D92AD3DB207E1F713E0C5EED6
:10080000D3E004C02197FE010E94692CC43ED107A9
:10081000C9F70E9410230C942C320C940000CF9244
:10082000DF92EF92FF920F931F93CF93DF936C01B0
:100830007A018B01C0E0D0E0CE15DF0581F0D80150
:100840006D918D01D601ED91FC910190F081E02D2B
:10085000C6010995892B11F02196EECF7E01C701C3
:10086000DF91CF911F910F91FF90EF90DF90CF908C
:100870000895089580E090E00895FC01538D448D23
:10088000252F30E0842F90E0821B930B541710F03B
:10089000CF96089501970895FC01918D828D981748
:1008A00061F0828DDF01A80FB11D5D968C91928D54
:1008B0009F5F9F73928F90E008958FEF9FEF089551
:1008C000FC01918D828D981731F0828DE80FF11D1A
:1008D000858D90E008958FEF9FEF0895FC01918D35
:1008E000228D892F90E0805C9F4F821B91098F732E
:1008F000992708958CE794E00E946E0421E0892BEB
:1009000009F420E0822F0895FC01848DDF01A80FF7
:10091000B11DA35ABF4F2C91848D90E001968F7327
:100920009927848FA689B7892C93A089B1898C9146
:10093000837080648C93938D848D981306C0028895
:10094000F389E02D80818F7D80830895EF92FF925F
:100950000F931F93CF93DF93EC0181E0888F9B8DE2
:100960008C8D981305C0E889F989808185FD26C0A2
:10097000F62E0B8D10E00F5F1F4F0F731127E02E27
:100980008C8DE8120CC00FB607FCFACFE889F98904
:10099000808185FFF5CFCE010E948404F1CF8B8D3D
:1009A000FE01E80FF11DE35AFF4FF0829FB7F89464
:1009B0000B8FEA89FB89808180620AC09FB7F89417
:1009C000EE89FF896083E889F9898081837080647A
:1009D00080839FBF81E090E0DF91CF911F910F91C5
:1009E000FF90EF900895CF93DF93EC01888D8823DB
:1009F000C9F0EA89FB89808185FD05C0A889B9898C
:100A00008C9186FD0FC00FB607FCF5CF808185FF66
:100A1000F2CFA889B9898C9185FFEDCFCE010E94D4
:100A20008404E7CFDF91CF91089580E090E0892B97
:100A300021F00E947A0481110DC080E090E0892BA2
:100A400071F080E090E0892B51F00E94000081114C
:100A500004C008950E940000F0CF0C940000089597
:100A600080E0089560E070E0CB0108950E94132FAC
:100A70001F920F920FB60F9211242F933F934F9313
:100A80005F936F937F938F939F93AF93BF93EF93F6
:100A9000FF938CE794E00E948404FF91EF91BF9153
:100AA000AF919F918F917F916F915F914F913F9106
:100AB0002F910F900FBE0F901F9018951F920F92BD
:100AC0000FB60F9211242F938F939F93EF93FF9361
:100AD000E0918C04F0918D048081E0919204F0917A
:100AE000930482FD12C09081809195048F5F8F7373
:100AF00020919604821751F0E0919504F0E0E458BB
:100B0000FB4F958F8093950401C08081FF91EF91F9
:100B10009F918F912F910F900FBE0F901F9018955E
:100B2000CF93DF9300D000D0CDB7DEB7FB013C966A
:100B30009B01205F3F4FDE01119691919D932E17EF
:100B40003F07D9F799812A8129832B812A832C8118
:100B50002B839C839E012B5F3F4FDE0111969C915E
:100B6000E92FE295EF7040E1E49FF0011124E85D88
:100B7000F94F9F70E90FF11DE491ED93A217B307B0
:100B800071F791E04BE1813041F0592F5078990F86
:100B9000503809F494278150F6CF8981982799839A
:100BA00094E0FE013196DB014C91808184278D9386
:100BB00081932E173F07C1F791506C5F7F4F9111C2
:100BC000F0CF0F900F900F900F90DF91CF9108957D
:100BD000E3EFF2E0848195819483968195839781F8
:100BE0009683878380859285908782878185938588
:100BF000918783878785968597879585968794853E
:100C0000958784870895CF9323EF32E0BC01605F1E
:100C10007F4FDC01F90140E05D91C0815C2750838A
:100C20004F5F34964430C1F72F5F3F4F04966817EB
:100C3000790779F7CF910895F89480913A028F5F00
:100C400080933A0208958C01EB0189E891E00E94BB
:100C5000ED1B0E94401CC8010E94ED1B8AE30E940C
:100C6000411DCE010E94311D8CE794E00E94F304E7
:100C70000E941C06FFCF0E949522DC01CB0124E0DC
:100C8000B695A795979587952A95D1F73091360215
:100C9000232F2B272870230F20933602BC01CD0170
:100CA000922B0895CF92DF92EF92FF926B017C011D
:100CB0000E943B06C61AD70AE80AF90A89EEC81646
:100CC00083E0D806E104F1046CF060E170E080E0BC
:100CD00090E00E94AF1F88EEC81A83E0D80AE108AE
:100CE000F108ECCF1C141D041E041F049CF434E016
:100CF000CC0CDD1C3A95E1F78AE1C816D10450F01E
:100D000086E1C81AD108C60196958795969587956C
:100D10000197F1F7FF90EF90DF90CF9008958F92B9
:100D20009F92AF92BF92DF92EF92FF920F931F9329
:100D3000CF93DF93D82EEB018A01E22EE0911802C7
:100D4000F0911902F08080849184A284B38481148C
:100D50009104A104B10439F490E4892E92E4992E0F
:100D60009FE0A92EB12C40E251EA67E070E090E0EC
:100D700084169506A606B70640F4769567955795AE
:100D800047959F5F9630A1F797E081E08927982FDC
:100D9000906A969581709CBD8DBD60E08F2D0E94FC
:100DA000441FDEBC00000DB407FEFDCF8EB50C0F56
:100DB0001D1FC017D10779F0E11002C0888101C062
:100DC00080E08EBD00000DB407FEFDCF8EB5E110B2
:100DD00088832196EECF61E08F2DDF91CF911F9117
:100DE0000F91FF90EF90DF90BF90AF909F908F900A
:100DF0000C94441FAF92BF92CF92DF92EF92FF927A
:100E00000F931F93CF93DF9380913A028150809389
:100E10003A028111FFC0789407E312E0C0E0D0E00D
:100E2000BB24B394E0911802F0911902EC0FFD1F5E
:100E300023812F3F09F4E7C0F801D080ED2CF12C7D
:100E400030E0F901EC5EF94F8491F901E050FA4F7E
:100E5000C490F901E451FA4FA490AA20A1F08111A5
:100E60000E940B1FEA2DF0E0EE0FFF1FE054FB4F36
:100E7000A591B491EC91CE2231E020E009F430E06C
:100E8000832F922F02C080E090E0E816F90609F463
:100E9000BAC0DB24F801D082DD2009F4B4C00E947E
:100EA0003B066B017C0181E00E94542087FF69C0F2
:100EB00082E10E94542083FF0EC0F2E0CF1AD108D5
:100EC000E108F108C0920703D0920803E0920903F9
:100ED000F0920A034DC086FF48C0E0911A03F091DA
:100EE0001B03CF0123E0969587952A95E1F7837040
:100EF00061F4E770F0E0EE0FFF1FE653FB4F8591C2
:100F00009491C81AD90AE108F108C0920B03D09253
:100F10000C03E0920D03F0920E038DE10E94542029
:100F200082FF02C082E201C083E10E9454208093CC
:100F3000350480E10E945420682F8DE00E946720D4
:100F40004091350450E021E066E374E080E00E94C7
:100F50008F0689E10E945420809319038AE10E9440
:100F600054208D538093180303C087FD10923504DD
:100F70006FEF81E10E9467206FEF82E10E9467209E
:100F800039C08EE30E945420A82E8FE30E94542083
:100F900083FF09C0C0920703D0920803E0920903BF
:100FA000F0920A0327C082FF1AC0C0920B03D092AE
:100FB0000C03E0920D03F0920E0382E30E94542092
:100FC00080933504482F50E021E066E374E080E030
:100FD0000E948F0610921903109218030BC0A2FEF4
:100FE00003C01092350406C068EF73E082E991E017
:100FF0000E94230680E00E94582180912503909151
:1010000026030E945F1D21960F5F1F4FC330D1053D
:1010100009F008CFDF91CF911F910F91FF90EF90D2
:10102000DF90CF90BF90AF900895982FE091180275
:10103000F091190281818F3F39F061E026812913F7
:1010400001C060E00C94441F08958F929F92AF926C
:10105000BF92CF92DF92EF92FF920F931F93CF93A5
:10106000DF93CDB7DEB760970FB6F894DEBF0FBE43
:10107000CDBF7B018A01282F30E0277F2230310548
:1010800049F02430310509F49CC0232B09F0B0C08D
:10109000D12C79C083FD0CC086E292E00E94851DB0
:1010A00030E1832ECE0101966C0147E8942E45C0B5
:1010B00080E1E6E2F2E0DF011D928A95E9F7F0CFE8
:1010C000FC012191CF013C9123272D934F5F7F019C
:1010D000015011094031E1F10115110589F7E42FA3
:1010E000F0E0EA5DFD4F80818058808301E0D60109
:1010F000E82D1D92EA95E9F7C6010E94851D198128
:101100001078C6010E947D1E112319F08889892557
:10111000888B011122C0F6018191D5019C9189270C
:101120008D935D01B6E3AB16B2E0BB06A9F700E014
:1011300010E086E292E00E94851D01151105C1F0C4
:10114000C70126E2A22E22E0B22ED50140E0B8CFA0
:101150000115110571F700E0CACF19811078C60199
:101160000E947D1E1123B9F288898925888BD3CFEF
:1011700060912602709127028091280290912902A5
:101180000E946F2C38C08D2D90E08017910780F55C
:101190008E0D9F1D0E94851DE0E1DE0EF4CF01152E
:1011A000110551F08D91908189278193015011098A
:1011B0007F01E217F30799F7809135028F5F8093E3
:1011C000350201151105A1F080E1E6E2F2E0DE0151
:1011D000119601900D928A95E1F7CE0101960E9439
:1011E000851DDE011196F7019701205F3F4FDACF91
:1011F00060E070E0CB0160960FB6F894DEBF0FBEE2
:10120000CDBFDF91CF911F910F91FF90EF90DF90B5
:10121000CF90BF90AF909F908F90089590910602CD
:10122000911106C06EE373E082E991E00E9423060B
:10123000903141F440E150E066E072E080E00E94CD
:10124000250890E0E92FF0E0EA5FFD4F80819F5F85
:10125000909306020895CF93C82F88E80E944121F9
:1012600081E00E94542087FD06C06DE672E082E9AD
:1012700091E00E94230681E00E945821C23049F487
:101280006AE08DE10E94672060E78EE10E9467209E
:1012900004C00E94E0200E94902061E28CE00E9445
:1012A000672060E483E20E946720809176048823AF
:1012B00031F083E30E945420682F6F7B05C083E3E5
:1012C0000E945420682F606483E30E94672060912D
:1012D0001C038FE10E94672064E389E30E9467207A
:1012E00060EC80E40E9467206FEF82E10E9467203B
:1012F000EC2FF0E0E354FB4F6491609581E10E9494
:10130000672080E00E941508C1110CC060910B039A
:1013100070910C0380910D0390910E030E94520670
:1013200086E001C085E0CF910C945821CF93C82F5F
:1013300081E00E945420877019F06AEE72E009C0C3
:1013400080911A03877009F06DC0CC2331F068EBEF
:1013500072E082E991E00E94230688E00E94412128
:1013600081E00E94542087FF03C06CEB72E0F1CF54
:1013700081E00E9458210E94902061E28CE00E944E
:1013800067206EE18DE00E9467206BE082E10E94A1
:10139000672062E183E10E9467206AEA8FE10E9490
:1013A000672062E187E20E94672068ED80E30E9487
:1013B000672060E481E30E94672061EC88E20E947C
:1013C000672064E989E20E94672061EC8AE20E945A
:1013D00067206FEF81E20E94672062E082E00E9456
:1013E000672060E883E00E94672061E084E00E945B
:1013F000672069E985E00E94672068E380E40E9435
:10140000672080E00E94150860910B0370910C0327
:1014100080910D0390910E030E94520685E0CF91BA
:101420000C9458218C2FCF910C942B090FB6F89463
:10143000A895909160009861909360001092600070
:101440000FBE8A30A9F083FD02C098E001C098E287
:101450008770892B98E10FB6F894A8959093600057
:101460000FBE809360008091600080648093600074
:1014700083B7817F682B63BFF89483B7816083BF94
:1014800085B7806685BF8F7D85BF7894889583B743
:101490008E7F83BF789408950F931F93CF93DF932C
:1014A0001092230490E89093220493E090932D04EB
:1014B000893080F089EF860F8630C0F5E62FF0E0A6
:1014C000EF52FB4F849164E1DF91CF911F910F9117
:1014D0000C9437224091A7035091A803A7E4B3E0EE
:1014E000E7E8F3E020E030E001E010E0821791F05F
:1014F0001D921D921D921C92139711821082E80179
:10150000022E02C0CC0FDD1F0A94E2F7C095D095E1
:101510004C235D232F5F3F4F1496329629303105BF
:1015200029F75093A8034093A703C4CFDF91CF912D
:101530001F910F9108950C9425164F925F926F9210
:101540007F928F929F92AF92BF92CF92DF92EF9253
:10155000FF920F931F93CF93DF936B017C01EA01FE
:1015600034E0239FF0011124E756FA4F85909590BF
:10157000A590B49085E080931C036091BA037091AC
:10158000BB036115710509F447C080E090E0A70135
:1015900096010E94972C722E032F142FB52FF62F31
:1015A000E72F582E692EA0E00E94672D84F4215069
:1015B00031094F4F5F4F6F4F7F4F8F4F9F4F722EAD
:1015C000032F142FB52FF62FE72F582E692E272D16
:1015D000302F412F5B2F6F2F7E2F852D962D00E111
:1015E0000E94492D29013A01AAEFB0E0A50194011A
:1015F0000E948C2C641575058605970524F48FEFE1
:1016000080931C0309C0C301B201A50194010E948B
:101610004A2C2B5F20931C038091070390910803B1
:10162000A0910903B0910A03C80ED91EEA1EFB1E41
:10163000D501C40123E0880F991FAA1FBB1F2A955B
:10164000D1F7C80ED91EEA1EFB1EA0911C03B0E004
:10165000A50194010E948C2CA7019601261B370B33
:10166000480B590B20930B0330930C0340930D034D
:1016700050930E03CA01B9016D577109810991098F
:10168000AE01DF91CF911F910F91FF90EF90DF900E
:10169000CF90BF90AF909F908F907F906F905F9012
:1016A0004F900C94BA1EA7E0B3E082E0809333041D
:1016B000E0912D04F0E0E154F84FE491F0E0EF7791
:1016C000E0685496FC93EE93539740912E0450910A
:1016D0002F0460913004709131041D964D935D93F9
:1016E0006D937C935097109235040E941C0680E005
:1016F0000E9496090C94FA062F923F924F925F92A5
:101700007F928F929F92AF92BF92CF92DF92EF9291
:10171000FF920F931F93CF93DF938C017B01C0E067
:10172000D0E0BB24B39437E8A32E46E8942ECC2413
:10173000C394D12CCE15DF050CF0B9C0D801AC0F85
:10174000BD1FEC914E2F50E0FA013297E131F105C7
:1017500008F0ADC0E759FF4F0C94692C2396EACFEF
:1017600011968C90119712962D913C911397149687
:101770007C902596A0922604872D807F09F094C046
:101780002115310509F490C08091A7039091A80319
:101790008095909582239323009709F085C0A7E454
:1017A000B3E0A601082E02C0440F551F0A94E2F7C9
:1017B000BA0162237323672B69F02D903D904D9001
:1017C0005C90139723282428252821F440955095D0
:1017D00024233523019614968031910511F7309317
:1017E000A8032093A703882D82958F70E82FF0E03F
:1017F000E154F84FE491EF3F29F4909126049D7F46
:1018000090932604909126049F77973061F4972D4A
:101810009F709093B503E82DEF70F0E0E757FA4F13
:1018200064910E943722B092230484CFB09227049F
:1018300020911903022E000C330BC901029697FD6B
:10184000039695958795959587958F31910514F415
:101850008F7301C08FE18093280421966BCF25966A
:1018600069CF11968C918F3F49F42091B303309149
:10187000B40320643093B4032093B3038F70809338
:10188000AA030E943B066093AB037093AC03809362
:10189000AD039093AE03B0922B0402C024964ACFBE
:1018A000229648CF269646CF909226049CCFCE0112
:1018B000DF91CF911F910F91FF90EF90DF90CF902C
:1018C000BF90AF909F908F907F905F904F903F9090
:1018D0002F900895CF93C82F0E94BA22CA3011F4D6
:1018E00082E007C0C13189F420911A02233021F42B
:1018F00081E080931B0221C060933F0270934002FD
:10190000809341029093420218C0C53039F460912F
:101910008A058FEF0E944C0A81E00DC0C63041F469
:1019200060918905809188050E944C0A83E003C07C
:10193000C83019F482E080931A02CF910C942516D6
:101940000E944B220E94B4158CE00C946A0CCF923A
:10195000DF92EF92FF92CF93DF93D82F0E940E0970
:10196000C82F0E940E092C2F30E0322F2227A90108
:10197000482BCA016C01853254EF950720F024E210
:10198000C21A24EFD20AE12CF12CDD2371F0992741
:101990006D2F70E00E94142C24E234EFDC010E94D1
:1019A000852CC60ED71EE81EF91EC701B601DF91B1
:1019B000CF91FF90EF90DF90CF900895AF92BF92BC
:1019C000CF92DF92EF92FF920F931F93CF93DF930B
:1019D000FC011A141B04BCF580E1A6E2B2E0ED01A3
:1019E00019928A95E9F791E0909335029093260237
:1019F000EF2809F490E090932B0240932C0250932F
:101A00002D0260932E0270932F02009330021093E8
:101A10003102209332023093330290E1A3E4B2E02A
:101A200001900D929A95E1F7A501B60184E0DF914E
:101A3000CF911F910F91FF90EF90DF90CF90BF90CB
:101A4000AF900C942508DF91CF911F910F91FF90DB
:101A5000EF90DF90CF90BF90AF900895FC01608130
:101A60007181828193810895CF92DF92EF92FF92EC
:101A70000F931F93CF93DF93EB017B01E40EF51ED1
:101A8000182FCE15DF0571F00991C12ED12CC6019A
:101A90000E94CE2B081721F0602FC6010E94D62B82
:101AA0001F5FEFCFDF91CF911F910F91FF90EF90CC
:101AB000DF90CF900895EF92FF921F93CF93DF9323
:101AC000EB017B01E40EF51E182FCE15DF0539F072
:101AD000812F90E00E94CE2B89931F5FF6CFDF917C
:101AE000CF911F91FF90EF900895CF93DF9300D097
:101AF000CDB7DEB71A82198242E050E0BE016F5FB7
:101B00007F4F0E945B0D89819A810F900F90DF912A
:101B1000CF910895CF93DF931F92CDB7DEB719828F
:101B200041E050E0BE016F5F7F4F0E945B0D8981F5
:101B30000F90DF91CF9108951F93CF93DF93C82F1C
:101B400080E00E94750DC11156C081329B4A09F098
:101B500052C082E00E948A0D91E0811101C090E0A4
:101B600090931B0583E00E948A0D91E0811101C0D2
:101B700090E090931C0584E00E948A0D91E0811111
:101B800001C090E090931D0585E00E94750D909333
:101B90001F0580931E0587E00E94750D9093210517
:101BA0008093200589E00E948A0D8093970544E682
:101BB00050E063E275E08AE00E945B0D8FE60E94D0
:101BC0008A0D8093220581E90E948A0D8093880501
:101BD00082E90E948A0D8093890583E90E948A0D1B
:101BE00080938A0580E90E948A0D80938B05DF919E
:101BF000CF911F910895C0E0D0E0FE01EB50FB4F64
:101C00001491CE010E94CE2B181721F0612FCE0126
:101C10000E94D62B2196C439D10579F79ACFCF935C
:101C2000C82F419865E070E080E090E00E94AF1F0F
:101C300060EC86E00E94E91F60917704709178045F
:101C400080E090E00E94182E2EEC3DE84BE450E43A
:101C50000E94A62E20E030E040E05FE30E947D2D50
:101C60000E94E92D70937804609377048091770443
:101C70009091780490938E0580938D05CC2371F01C
:101C800089EE94E00E94441C80918D0590918E0510
:101C90000E94311D8CE794E00E94F304419A60E4B5
:101CA0008EE00E94E91F209177043091780440E093
:101CB00050E064EB7BE281E190E00E944A2C30939B
:101CC000900520938F05CC2379F08EED94E00E944F
:101CD000441C80918F05909190050E94311D8CE7E6
:101CE00094E0CF910C94F304CF91089520911C02BD
:101CF0009F938F93822F90E022E330E0281B390BD3
:101D00003F932F9388569A4F9F938F930E94342F1F
:101D1000E0911C028E0F80931C020F900F900F9089
:101D20000F900F900F90833338F082E380931C0262
:101D30001092CA0580E00895E82FF0E0E856FA4FC7
:101D4000108281E008950FB6F894A89590916000F4
:101D5000986190936000109260000FBE8A3049F144
:101D600091E090933E0283FD02C098E001C098E2AA
:101D70008770892B98E10FB6F894A895909360002E
:101D80000FBE80936000809160008064809360004B
:101D900083B7817F83BFF89483B7816083BF7894D2
:101DA000889583B78E7F83BF789480913E0281119E
:101DB000EFCF08951F920F920FB60F9211248F93B9
:101DC0000FB6F894A89580916000886180936000B8
:101DD000109260000FBE10923E028F910F900FBEC6
:101DE0000F901F901895F8949BE088E10FB6F89437
:101DF000A895809360000FBE90936000FFCF811183
:101E000002C089E001C08AE010923D0290913C023C
:101E1000992311F0E99A01C0E998909168009260C5
:101E20009093680090916C00996090936C0064E0CE
:101E30000E94160A80913D02E998909168009D7F6A
:101E40009093680090916C00967F90936C00089539
:101E50001F920F920FB60F9211248F93F89483B7AD
:101E60008E7F83BFE89884E080933D0278948F91C1
:101E70000F900FBE0F901F9018951F920F920FB6E4
:101E80000F9211248F93F89483B78E7F83BF309B7A
:101E900002C082E001C081E080933D0278948F917E
:101EA0000F900FBE0F901F9018951F920F920FB6B4
:101EB0000F9211248F93F89483B78E7F83BFE99894
:101EC00083E080933D0278948F910F900FBE0F9026
:101ED0001F901895882311F05C9A08955C980895D6
:101EE0008F929F92AF92BF92CF92DF92EF92FF922A
:101EF0000F931F9380911A02833009F467C08111F8
:101F000025C081E00E946A0F10923F0210924002A9
:101F100010924102109242020E94B41580918805ED
:101F2000893010F48093A90380913F029091400280
:101F3000A0914102B0914202892B8A2B8B2B19F47C
:101F40000E946221F1CF80E00E946A0F0E9462210C
:101F50000E94BA226B017C0188EE882E83E0982EC5
:101F6000A12CB12C80911A028230F0F40E946221DF
:101F70000E94BA228B019C010C191D092E093F09F0
:101F8000013C17422940310578F4A50194010E94D3
:101F9000282C653F71408105910510F081E001C05A
:101FA00080E00E946A0FDECF80E00E946A0F83E823
:101FB00090E09093BB038093BA030E94622181E07A
:101FC00090911A02933019F080E001C081E01F91D6
:101FD0000F91FF90EF90DF90CF90BF90AF909F90C8
:101FE0008F900895109278041092770480933B02AA
:101FF00062E08AE00E94160A80913B028111F8CFCC
:1020000008951F920F920FB60F9211242F933F93B2
:102010004F938F939F9390917800409179002091F6
:10202000770430917804892F90E0942B820F931FCE
:10203000909378048093770480913B02882329F061
:1020400080913B02815080933B029F918F914F91F1
:102050003F912F910F900FBE0F901F901895CF9327
:10206000DF931F92CDB7DEB7698341E050E0BE0138
:102070006F5F7F4F0E94340D0F90DF91CF910895D5
:1020800085E00C946A0C88E00C946A0C2F923F92C5
:102090004F925F926F927F928F929F92AF92BF9278
:1020A000CF92DF92EF92FF920F931F93CF93DF9324
:1020B000CDB7DEB727970FB6F894DEBF0FBECDBF02
:1020C0008091B30387FD06C066E476E084EB91E07F
:1020D0000E942306209035042110ACC0E091320408
:1020E000EE2309F460C0E83008F05BC0EF5FE093D6
:1020F0003204F0E0E253FA4F249129838091B70330
:102100004981442331F00E94AB2139813150398318
:10211000F7CF60E80E94372240900B0350900C03E9
:1021200060900D0370900E0383E00E94A70CDC0109
:10213000CB01840D951DA61DB71D2091AA03222356
:1021400099F00091AB031091AC032091AD03309155
:10215000AE03AC01BD01401B510B620B730B141697
:102160001506160617068CF48093AB039093AC0308
:10217000A093AD03B093AE038091B3039091B403E9
:1021800091609093B4038093B3038091B3039091D3
:10219000B4038F779093B4038093B3030E94251602
:1021A000D0C180E601C080E2809333048091220494
:1021B000803819F08F5F80932204109235041092BA
:1021C00034048091B3039091B4039C01277730933A
:1021D000B4032093B30320913304277059F094FF84
:1021E00009C087779F7E9093B4038093B3038FE0F9
:1021F0000E946A0C8AE00E946A0C80912204893154
:102200000CF49FC18091B7030E94AB2160E80E944B
:1022100037228CE0809322048091B3039091B40321
:10222000806290619093B4038093B3038EE00E9428
:102230006A0C87C1312C5CE02516310444F41092FD
:1022400035048091330480FF49CF80E07BC18091C9
:102250003604682F6370F62E91F7807E898380366E
:1022600011F0803A61F787E394E00E942E0D00910F
:10227000150410911604209117043091180460176A
:10228000710782079307D9F6A0913B04AB830A2F0D
:102290000F7010E0F8013896FF83EE83F4E02F1AF8
:1022A00031082E813F81221633064CF22215330568
:1022B0005CF42A5C3B4FD9012C91822E912CF801C1
:1022C0003996FF83EE8303C088248A94982C40902B
:1022D000190450901A0460901B0470901C04209103
:1022E0003C0430913D0424193509420E531E611CF3
:1022F000711C20E1E6E2F2E0DF01322F1D923A95F7
:10230000E9F739E43093260231E030932B02209232
:10231000350260932C0270932D0280932E029093CD
:102320002F0240923002509231026092320270923B
:102330003302E5EFF3E0A3E4B2E001900D922A95B9
:10234000E1F7A10166E374E082E00E9425089B01A9
:10235000AC01F101EA5CFB4F608171818281938164
:102360000E946F2C261737074807590709F067CFD7
:102370008091190490911A04A0911B04B0911C043F
:10238000481659066A067B06E0F484159505A605ED
:10239000B7050CF454CF0197A109B10948165906A5
:1023A0006A067B0609F04BCF80912104882309F44B
:1023B00046CF4981403A09F042CFCC24C394D12C76
:1023C00017C0D301C2010196A11DB11D809319044C
:1023D00090931A04A0931B04B0931C045981503AA3
:1023E00011F480E201C080E080932104C12CD12C43
:1023F00080912104811103C06B8164FF09C0809129
:10240000B3039091B40380619093B4038093B303BA
:102410001092B9031092230480912204803819F09D
:1024200084EF8093220420911A0330911B03822FA2
:10243000877090E0FC01EE0FFF1FE80FF91FE754D3
:10244000FA4F53E0369527955A95E1F72370E20F3E
:10245000F11DE49180911803082E000C990B8E1B3E
:102460009109835B9F4F97FD06C08F3F910514F044
:102470008EEF90E0F82EF0922504B8018EE394E000
:102480000E947C0BCD28B1F57FEF8716970691F15E
:10249000C101AE81BF818A1B9B0B9A838983181669
:1024A000190644F5AA5CBB4FBD83AC83409115046B
:1024B00050911604609117047091180481149104CE
:1024C00019F485EF93E002C085E094E0A980BA801A
:1024D000CC80DD80EE24E394F12C930182010E94F4
:1024E000DE0C8114910431F469817A818C819D81A3
:1024F0000E947C0B80913204882359F0BB81B5FF88
:1025000002C080E801C080E490913304892B80935D
:10251000330480913304181419044CF080628093C2
:102520003304EE81E0933404109235044ACE806186
:1025300080933304FE81F09334042F1A20923504E3
:1025400040CE81E027960FB6F894DEBF0FBECDBF18
:10255000DF91CF911F910F91FF90EF90DF90CF907F
:10256000BF90AF909F908F907F906F905F904F90B3
:102570003F902F9008950C94461080911C03873053
:1025800069F02091240430E0A4E2B4EF0E94762C9C
:1025900020911D034CEA55E10C949D0A0895809109
:1025A000350481110EC0A0912404B0E0119624E2FC
:1025B00034EF0E94852C20912D0445EF52E10C94BC
:1025C0009D0A0E944610882371F3089580911C0390
:1025D000873051F020911D0340EB55E164EB74EC22
:1025E00084E090E00C949D0A089585E093E1909337
:1025F0002603809325030C94530B8FE895E1909369
:102600002603809325030C94530BCF92DF92EF9215
:10261000FF928091350481111CC0109233040E94F6
:102620003B066B017C0182E00E94A70C2CE6C20EE7
:102630002CEDD21E22E0E21EF11C6C0D7D1D8E1DC4
:102640009F1D4BEB52E1FF90EF90DF90CF900C94E9
:10265000BA1EFF90EF90DF90CF900C9446104F92EF
:102660005F926F927F928F929F92AF92BF92CF9222
:10267000DF92EF92FF920F931F93CF93DF9380919E
:10268000330410913504813029F4111103C06BE13A
:1026900074E006C08091B30387FD06C06CE174E06E
:1026A00084EB91E00E94230611118AC08091B3034C
:1026B0009091B40382FD13C085FD03C061E274E014
:1026C000EFCF8F759093B4038093B3038091B903D8
:1026D0008A3018F48F5F8093B90389E0D3C18F7774
:1026E0009093B4038093B3038091A9038F5F8330E9
:1026F00019F08093A90302C01092A90380913204BB
:102700008F5F8093320463E00E94F42B911108C024
:102710008091B703882331F00E94AB218093B703E7
:10272000C0E001C0C1E08091B3039091B403977FF2
:102730009093B4038093B3030E943B066B017C012A
:1027400080912B0390912C03A0912D03B0912E0327
:10275000B701A601481B590B6A0B7B0B77FF02C020
:102760006C017D018FEF90E00090B70302C095955A
:1027700087950A94E2F70E94A70CDC01CB018459EB
:102780009342AD4FBF4FC80ED91EEA1EFB1EC0922A
:102790000703D0920803E0920903F0920A03CC23C6
:1027A00019F003E410E102C00BE91AE00E943B06B5
:1027B0006C0F711D811D911DA8010E94BA1E64C17C
:1027C000113141F0113231F08091330480FF6ECF2E
:1027D00080E081C180913604837E8032A9F7C12FC9
:1027E000D0E00E94041FAE014150510967E374E03C
:1027F00080E00E9425080E94041F2497AE0166E332
:1028000074E08AE00E9425086B017C01CA5CDB4F02
:10281000688179818A819B810E946F2CC616D706B8
:10282000E806F90689F68DE394E00E942E0D609388
:1028300015047093160480931704909318048AE388
:1028400094E00E942E0DDC01CB01BB278093AF03E7
:102850009093B003A093B103B093B20380E00E94C1
:10286000B421123108F047C08091F3039091F40332
:10287000019720E1E5EFF3E0DF01322F1D923A9559
:10288000E9F731E03093F50336E0E7E3F4E0A6EF53
:10289000B3E001900D923A95E1F78093FC03909399
:1028A000FD03E5EFF3E0A5E0B4E001900D922A9579
:1028B000E1F782E0809305040E94041F40E150E0AC
:1028C00065EF73E080E00E9425080E94041F40E14C
:1028D00050E065E074E080E00E9425088091B30339
:1028E0009091B4039C0124723327232B09F06EC00E
:1028F00066E874E0D5CE32E4C32E34E0D32E43E54F
:10290000E42E43E0F42E0DE813E0C3E0D0E05FE3F3
:10291000A52EB12C88248394912CC6010E942E0DE3
:10292000272F382F492F5527A4E6B0E00E948C2C82
:102930002B013C0140EC441A45E5540A40E7640A87
:1029400043E3740AA1EC4A16AFEC5A06AAE66A06FB
:10295000710470F52B013C0140EC441A4DEF540A10
:1029600041ED640A43E3740AA1E94A16A0ED5A0650
:10297000A3E06A06710408F089C06260D7016D9314
:102980007D938D939C931397F801B182A08220913F
:10299000A7033091A803C4010C2E02C0880F991F11
:1029A0000A94E2F7822B932B9093A8038093A703BA
:1029B00023E0C20ED11C34E0E30EF11C0E5F1F4F6A
:1029C0002196C830D10509F0A8CF4ECF85FF0CC0A5
:1029D0008091B703C091B903CC2321F00E94AB21B1
:1029E000C150FACF8093B7038091B3039091B403A1
:1029F00089759D7F98609093B4038093B303109280
:102A0000320410921D0410921E0410921F041092A2
:102A100020041092190410921A0410921B041092B0
:102A20001C041092B90310922704109226041092ED
:102A300023041092210410922A0410922B04109265
:102A4000B50384EF8093220488E096EEA3EDB3E310
:102A500080932E0490932F04A0933004B0933104FC
:102A600080914104982F9F7090932D0482958770D8
:102A700080932C0480914204811101C081E08093F5
:102A8000240486E00E946A0C81E025C02B013C01F1
:102A9000B1EA5B1ABCEB6B0AB3E37B0AE1EC4E16BE
:102AA000E7E25E06E9E06E06710498F02B013C0156
:102AB000F0EA4F1AF1E95F0AF6ED6F0AF3E37F0AD5
:102AC00021EE421623E9520624E06206710408F062
:102AD00055CF616053CFDF91CF911F910F91FF9040
:102AE000EF90DF90CF90BF90AF909F908F907F90AE
:102AF0006F905F904F9008958091350481110AC0C6
:102B000020912D044DEF52E168ED78EB85E090E0E7
:102B10000C949D0A0E942F13882391F308958091AD
:102B20003504811102C0109233040C942F13E7E096
:102B3000F3E021E020933304238934892068348B27
:102B4000238B10923504978F868F0E941C0680E09D
:102B50000E9496090C94FA068FEC92E10C9497155A
:102B60008CE795E10C949715CF92DF92EF92FF924C
:102B70008091150490911604A0911704B091180447
:102B8000892B8A2B8B2B09F05AC08091B30390912B
:102B9000B4039C0120793327232B29F06CE176E0E4
:102BA00084EB91E026C01092AA038E7D977E9093CD
:102BB000B4038093B303109232041092B9030E94BD
:102BC0000E0963E00E94F42B9093A90380E18093A7
:102BD000B60385E08093B70381E00E94B421809121
:102BE000B3039091B40393FF06C06EE470E085EDEB
:102BF00091E00E9423060E943B066B017C0188E065
:102C00000E94A70CDC01CB018C0D9D1DAE1DBF1DCC
:102C10008093070390930803A0930903B0930A03DA
:102C20008091B3039091B40384609093B403809334
:102C3000B30380E490E10E945F1D81E001C080E069
:102C4000FF90EF90DF90CF9008952F923F924F9298
:102C50005F926F927F928F929F92AF92BF92CF922C
:102C6000DF92EF92FF920F931F93CF93DF93CDB735
:102C7000DEB72C970FB6F894DEBF0FBECDBF8091A4
:102C8000B3039091B4039C01217C3327232B09F0DB
:102C90008BC54091150450911604609117047091F2
:102CA0001804452B462B472BE1F482FD1AC02C96C5
:102CB0000FB6F894DEBF0FBECDBFDF91CF911F914D
:102CC0000F91FF90EF90DF90CF90BF90AF909F90CB
:102CD0008F907F906F905F904F903F902F900C94CB
:102CE000B4150E943B062B013C012091B3033091A7
:102CF000B403C9018C739927892B09F430C533FFBC
:102D0000BFC08090A7039090A8039C828B82809183
:102D1000B7038F7041E050E05A0102C0AA0CBB1CFF
:102D20008A95E2F7BE82AD821FE0B301A2015E5236
:102D3000664B74494F83588769877A872224239486
:102D4000312C6F81788589859A85E7E0F3E040E052
:102D500050E000E0A12FB0E04D01042E02C0959498
:102D600087940A94E2F79A82898280FE12C084A036
:102D700095A0A6A0B7A06B017C01C818D908EA08E5
:102D8000FB081C141D041E041F041CF4042FC501A1
:102D9000B4014F5F5F4F389644305105E9F6A02EDD
:102DA000B12CBA82A98243E0AA0CBB1C4A95E1F778
:102DB000BC86AB86F501E95FFC4FE3A150E1C02E74
:102DC000D12CE12CF12C41E04E0F403110F041EFBD
:102DD0004E0FE42FF0E0D101042E02C0AA0FBB1F5A
:102DE0000A94E2F78B809C80A821B921AB2B51F18A
:102DF000DF01AA0FBB1FA957BC4F0D90BC91A02D9E
:102E0000AD80BE80AA21BB21AB2BE1F0EE0FFF1FEE
:102E1000EE0FFF1FE95BFC4F80809180A280B380A2
:102E2000A3E08A229924AA24BB24C814D904EA0462
:102E3000FB0441F4EB85FC85E95FFC4F43A3409321
:102E4000A9030FC0515011F0E42FBDCFA10109809B
:102E500002C0440F551F0A94E2F74095142309F06D
:102E600070CF6093070370930803809309039093D6
:102E70000A03A901577F5093B4034093B30308C0DA
:102E800060910703709108038091090390910A03F0
:102E90004091AA03411106C04091B3035091B4037D
:102EA00050FF12C0C090AB03D090AC03E090AD03D4
:102EB000F090AE034B015C018C189D08AE08BF0872
:102EC000B7FE02C0C701B60173016201FDE7CF0E74
:102ED000D11CE11CF11C4B015C018C189D08AE0853
:102EE000BF08B7FE2EC49090B70324723327232B5C
:102EF00009F44DC08091B30385FF10C0A090B903C1
:102F0000A9828980882041F0892D0E94AB21982ECA
:102F1000298121502983F5CF80EC01C080E0809386
:102F2000360448E050E067E374E088E70E945B0DF8
:102F300048E050E06FE374E080E70E945B0D909101
:102F4000F3038091F40390934704809348040E9414
:102F5000041F43E150E066E374E08AE00E94250824
:102F600060934C0470934B0480934A0490934904FB
:102F700087E1809335048091F3039091F4030196E7
:102F80009093F4038093F30386EE92E181C18091E4
:102F9000190490911A04A0911B04B0911C0480386C
:102FA0009F4FAF4FBF4FE0F080EA9CE02C960FB6EA
:102FB000F894DEBF0FBECDBFDF91CF911F910F916F
:102FC000FF90EF90DF90CF90BF90AF909F908F9049
:102FD0007F906F905F904F903F902F900C945F1D6B
:102FE0007091320471110DC080911D0490911E04E6
:102FF000A0911F04B09120048F3F9F4FAF4FBF4F50
:1030000099F24091B3035091B40348715527403170
:10301000510519F06091BE0301C060E080912B045E
:10302000882341F084E080933E0410922B0489E0D1
:1030300090E002C088E090E0209127042223A1F0D4
:103040009C01295F3C4FF901E15DFE4FA6E0A083A2
:103050003196AFEFA083D901AF5CBE4FE091280459
:10306000EC93039610922704E0912604EE2371F06E
:103070009C01295F3C4FD901A15DBE4FF3E0FC9359
:103080001196E770EC930296109226042091230487
:10309000222339F02091220427FD1092220410925D
:1030A00023044031510521F0A5E0A60FA98302C0F9
:1030B000B4E0B983F82F8980880EE0E4E81528F0A1
:1030C000E1E04031510529F403C0E4E08E2E880E82
:1030D000E0E020E42093360430912104409129045B
:1030E000432B309122043095232F221F2227221FA9
:1030F0002295220F220F207C38EF3F0F342B232BF9
:1031000020933B045091150440911604309117040C
:1031100020911804509337044093380430933904B5
:1031200020933A04711114C000911D0410911E04E3
:1031300020911F04309120040F5F1F4F2F4F3F4FEE
:1031400000931D0410931E0420931F043093200449
:1031500020911D0430911E042150310920933C041C
:1031600030933D0410922104EE2309F43FC02091D6
:10317000BD03222341F020E820933604711103C0DF
:1031800021E020933204FC01EA5CFB4F2091BC0358
:1031900020839C01295C3B4F6901A62EB12CA5011F
:1031A0006FEB73E0C9010E94202F00911D04109164
:1031B0001E0420911F04309120040150110921099F
:1031C00031094091150450911604609117047091D3
:1031D00018048091BC03882319F085E094E002C0B4
:1031E00085EF93E0E12CF12C0E94DE0CE82DF0E05D
:1031F0008F010450110980911D0490911E04A0912B
:103200001F04B09120040197A109B1096091150430
:1032100050911604409117043091180420E176E291
:10322000E72E72E0F72EF701A22E1192AA94E9F789
:1032300079E47093260210922B020093350260937A
:103240002C0250932D0240932E0230932F02809334
:10325000300290933102A0933202B0933302E5EF33
:10326000F3E0A3E4B2E001900D922A95E1F7A80102
:1032700066E374E082E00E942508F801EA5CFB4FF7
:103280006383728381839083809235048DEB92E116
:103290009093260380932503E92DF0E0E154F84F45
:1032A0008491E091B80320E2E29FF00111248F792C
:1032B000E82BF0931B03E0931A0390921D03809177
:1032C000B3039091B4038F76967F80689860909353
:1032D000B4038093B303A091A90334E0A39FD0016A
:1032E0001124A95BBC4FCD90DD90ED90FC90A09196
:1032F00035043E2F3770B0E079F41B9683E0AA0FB7
:10330000BB1F8A95E1F724E234EF0E94852C20E56B
:1033100033EC40E050E086C0632F660F660F685EB6
:10332000353010F490E001C098E003E0AA0FBB1F15
:103330000A95E1F7A61BB1095C96E7FD03C040E1E1
:1033400050E002C040E050E0A40FB51F4F2F5527BA
:10335000452B19F440E050E002C044E150E0A41BCA
:10336000B50B1A161B06DCF4691B70E0A60FB71F1D
:10337000CD0101970E94142CAF01A5E05695479509
:10338000AA95E1F7437050E04B5F5F4F469FC00145
:10339000479F900D569F900D1124089602C088E01B
:1033A00090E0880F991F880F991FC1963F5F63E0D7
:1033B000F695E7956A95E1F7E3703E1B353050F0DE
:1033C0003450E9E0FDE302C0F595E7953A95E2F760
:1033D00034E002C0E9E0FDE3092E000CAA0BBB0BB0
:1033E0004C015D0104C0880C991CAA1CBB1C3A95B9
:1033F000D2F7A5019401A4E2B4EF0E948C2C9F01A6
:10340000F7FF02C02F5F3F4F359527958901330F96
:10341000220B330B600F711F821F931F9F01FF0F41
:10342000440B550B0E944A2C49015A01D701C60191
:1034300083709927AA27BB272CEFC222C0921403BE
:10344000D0921503E0921603F0921703FC0123E0DB
:10345000EE0FFF1F2A95E1F7E95FFC4F22A12093B1
:103460001E03049633E0880F991F3A95E1F7DC01BB
:10347000A95FBC4F0D90BC91A02DA50194010E94A5
:103480008C2CDC01CB01840D951DA61DB71D84A3DA
:1034900095A3A6A3B7A38091AA03882399F004C09B
:1034A000880C991CAA1CBB1C8A95D2F7480C591C85
:1034B0006A1C7B1C4092AB035092AC036092AD033C
:1034C0007092AE0381E10E946A0C0E941C0681E0AA
:1034D0000E945420877059F080E00E9458210E9479
:1034E0003B06625C7F4F8F4F9F4F0E945206C090F9
:1034F0000F03D0901003E0901103F09012031C14FE
:103500001D041E041F040CF061C081E00E942B0901
:103510008091140390911503A0911603B0911703A5
:1035200081349D4DAA44BF4128F44CE55FEF5A8396
:10353000498304C063E67FEF7A836983E0911802D0
:10354000F0911902878189809A80880E911C87FDED
:103550009A949A8289820E943B06615E7F4F8F4FC8
:103560009F4F0E9452060E943B0610E04601570101
:10357000860E971EA81EB91E8BE10E9454201817B4
:1035800008F4182F0E94FA060E943B066B017C018A
:103590000E941C06C818D908EA08FB08F7FCECCF03
:1035A00080E00E94582180911303082E000C990B93
:1035B000A980BA80A10EB11CA816B9063CF0809172
:1035C0002503909126030E945F1DA1C080911A03DC
:1035D000877009F050C080E10E94412181E00E9483
:1035E0005420803119F06FED71E04FC081E00E94EE
:1035F000582162E082E00E94672060E883E00E9438
:10360000672061E084E00E94672069E985E00E940C
:10361000672060E085E20E94672065E086E20E9404
:10362000672062E187E20E94672060ED80E30E94EC
:10363000672060E481E30E94672061EC88E20E94D9
:10364000672064E989E20E94672061EC8AE20E94B7
:1036500067200E9490200E947A2064E380E40E9408
:103660006720609135046F5F82E30E94672060915C
:10367000350480E03BC088E80E94412181E00E943F
:10368000542087FD06C06BE072E082E991E00E9461
:10369000230681E00E9458210E94E0200E94902091
:1036A0008AE00E945420807F682F68608AE00E9430
:1036B00067200E947A2064E389E30E94672060EF1C
:1036C00080E40E9467206FEF82E10E94672067EF2D
:1036D00081E10E94672060E08EE00E94672060E048
:1036E0008DE00E9467206091350482E20E9467208D
:1036F0004091350450E020E066E374E080E80E94E9
:103700008F0681E00E94150883E00E9458212C96C4
:103710000FB6F894DEBF0FBECDBFDF91CF911F91E2
:103720000F91FF90EF90DF90CF90BF90AF909F9060
:103730008F907F906F905F904F903F902F900C9460
:10374000FA062091B30321FF0FC0611571058105B1
:10375000910551F461E070E080E090E005C021FF48
:1037600023C060E070E0CB016D57710981099109B8
:103770004BE95AE02C960FB6F894DEBF0FBECDBFD2
:10378000DF91CF911F910F91FF90EF90DF90CF903D
:10379000BF90AF909F908F907F906F905F904F9071
:1037A0003F902F900C94BA1E2C960FB6F894DEBF63
:1037B0000FBECDBFDF91CF911F910F91FF90EF9082
:1037C000DF90CF90BF90AF909F908F907F906F9041
:1037D0005F904F903F902F900895009769F0FC0103
:1037E00001900020E9F73197AF01481B590BBC014C
:1037F0008CE794E00C940F0480E090E008958F92A1
:103800009F92AF92BF920F931F93CF93DF93CDB749
:10381000DEB7A1970FB6F894DEBF0FBECDBF19A2D9
:10382000423008F44AE08E010F5D1F4F842E912C28
:10383000A12CB12CA50194010E94282CE62FB901DE
:10384000CA0101501109EA3014F4E05D01C0E95CDD
:10385000D801EC93232B242B252B61F7C8010E9460
:10386000ED1BA1960FB6F894DEBF0FBECDBFDF9162
:10387000CF911F910F91BF90AF909F908F9008951F
:103880008EEF91E00C94ED1B0F931F93CF93DF937A
:103890008C01C0E0D0E0F801EC0FFD1F64916623BD
:1038A00041F08CE794E00E94A604892B11F0219648
:1038B000F2CFCE01DF91CF911F910F910895CF9359
:1038C000DF930E94441CEC010E94401C8C0F9D1F42
:1038D000DF91CF910895CF92DF92EF92FF920F93F5
:1038E0001F93CF93DF937C01262FE0917A04F09110
:1038F0007B04309709F459C0DF010D900020E9F7EF
:1039000011978D010E1B1F0B09F44FC0C80162E017
:1039100070E00E94142C019709F447C0622F70E0F8
:10392000660F771F0617170709F03FC0D0E08D2FED
:1039300090E080179107DCF5C0907A04D0907B046A
:10394000C80ED91EF6018081082E000C990B0E942A
:10395000182F90ED980F9A3038F09FEB980F963013
:1039600028F4C9ECC80F03C0C92F01C0CFEFF6017E
:103970008181082E000C990B0E94182F90ED980F52
:103980009A3030F09FEB980F963020F4875303C0A5
:10399000892F01C08FEFF0E1CF0290011124282B75
:1039A000F70121937F01DE5FC2CF80E001C081E09B
:1039B000DF91CF911F910F91FF90EF90DF90CF900B
:1039C0000895CF93DF93682F70E080E090E04AE0A5
:1039D0000E94FF1BEC010E94401C8C0F9D1FDF9179
:1039E000CF910895AF92BF92CF92DF92EF92FF9264
:1039F0000F931F93CF93DF9300D01F92CDB7DEB705
:103A00005C01162F81E0C82E82E0D82E03E0CE01A3
:103A100001967C011123B9F0F50181915F011F929C
:103A20008F93DF92CF921F920F93FF92EF920E949B
:103A3000342FC7010E94ED1B11500FB6F894DEBF62
:103A40000FBECDBFE7CF0F900F900F90DF91CF91BA
:103A50001F910F91FF90EF90DF90CF90BF90AF90AC
:103A60000895CF93DF93BC0180E090E04AE00E948C
:103A7000FF1BEC010E94401C8C0F9D1FDF91CF911A
:103A80000895682F8CE794E00C94A604FC01208133
:103A900031812115310581F043E02F31340751F494
:103AA00020911F0330912003FC013183208381E0AA
:103AB00090E00895C901EACF80E090E00895CF93A7
:103AC000DF93EC010E941C0685E093E00E94461DF6
:103AD000D0932603C09325031092200310921F0356
:103AE000E0910503F0910603A5E0B3E0309729F0DB
:103AF000DF010190F081E02DF9CF8FE193E08D930C
:103B00009C93DF91CF910C94FA066F927F928F92E3
:103B10009F92AF92BF92CF92DF92EF92FF920F935C
:103B20001F93CF93DF93CDB7DEB768970FB6F894A6
:103B3000DEBF0FBECDBF8C0123EFE22E22E0F22EBE
:103B4000970180E090E0D801A80FB91FF90140E08B
:103B50005D9150834F5F34964430D1F704962F5FC8
:103B60003F4F8031910579F7A3E4B2E0FE01319631
:103B700083E592E04F012D9121938A179B07D9F796
:103B8000C4010E9403067724739487EFC82E82E055
:103B9000D82E5E0159E1A50EB11C9BE1692E83EF81
:103BA00092E034E0DC0140E02C91E22FE295EF70EE
:103BB00050E1E59FF0011124E85DF94F2F70E20F0D
:103BC000F11DE491EC934F5F1496443069F7315046
:103BD00001963111E7CF0E94E805E3EFF2E0CE0154
:103BE0004596BE016F5E7F4F9F01D9015C91DC015C
:103BF0005D93CD01452F440F57FD4625DB014C93C6
:103C00002C5F3F4F6F5F7F4FA816B90671F76E8923
:103C1000498946275F89288D8A8985278227942F9D
:103C2000982791933D899B898327892783838C8952
:103C30002627232792279827978335273827432736
:103C40004387CE16DF0659F6B401872D0E949005F2
:103C5000C4010E9403067394BAE07B12A0CF83EFE5
:103C600092E034E0DC0140E02C91E22FE295EF702D
:103C700050E1E59FF0011124E85DF94F2F70E20F4C
:103C8000F11DE491EC934F5F1496443069F7315085
:103C900001963111E7CF0E94E805B4018AE00E9445
:103CA0009005C4010E9403069801205F3F4FD80190
:103CB000F70180E090819D938F5F34968430D1F737
:103CC0008FEFE81AF80A0C5F1F4F2017310779F7BA
:103CD00068960FB6F894DEBF0FBECDBFDF91CF91CF
:103CE0001F910F91FF90EF90DF90CF90BF90AF901A
:103CF0009F908F907F906F900895FC0120E121505C
:103D000050F011F0818101C080E09081990F87FD12
:103D100091609193F4CF0895CF92DF92EF92FF924A
:103D2000CF93DF936C01990FEE08FF08F7FE11C0E7
:103D30008DE20E94411DEC0166277727CB016C19AB
:103D40007D098E099F094AE00E94FF1BC80FD91FF9
:103D500006C04AE0C701B6010E94FF1BEC010E94A9
:103D6000401C8C0F9D1FDF91CF91FF90EF90DF9053
:103D7000CF900895CF92DF92EF92FF92CF93DF938F
:103D80006B017C01EA010E941C0683E093E00E9423
:103D9000461DC0922103D0922203E0922303F092A9
:103DA0002403D0932603C09325031092200310927E
:103DB0001F03E0910303F0910403C3E0D3E03097C5
:103DC000B9F082819381A481B5818C199D09AE09D6
:103DD000BF09181619061A061B062CF4F0932003C7
:103DE000E0931F0305C0EF010190F081E02DE7CFC4
:103DF0008FE193E099838883DF91CF91FF90EF90DB
:103E0000DF90CF900C94FA0640E150E063E472E05A
:103E100080E80C945B0D90E0FC013197ED30F105EA
:103E200090F5E658FF4F0C94692C809180008F77B5
:103E300003C0809180008F7D80938000089584B5B9
:103E40008F7702C084B58F7D84BD08958091B000C6
:103E50008F7703C08091B0008F7D8093B00008956C
:103E6000809190008F7703C0809190008F7D809328
:103E7000900008958091A0008F7703C08091A000EA
:103E80008F7D8093A00008951F93CF93DF93282FF9
:103E900030E0F901EC5EF94F8491F901E050FA4FFE
:103EA000D491F901E451FA4FC491CC23C1F0162FFB
:103EB00081110E940B1FEC2FF0E0EE0FFF1FEE515F
:103EC000FA4FA591B4919FB7F894111104C08C9149
:103ED000D095D82302C0EC91DE2BDC939FBFDF91FD
:103EE000CF911F910895CF93DF9390E0FC01E050B4
:103EF000FA4F2491FC01E451FA4F8491882361F137
:103F000090E0880F991FFC01E852FA4FC591D491B7
:103F1000FC01EE51FA4FA591B491611109C09FB710
:103F2000F8948881209582238883EC912E230BC0FE
:103F3000623061F49FB7F8948881322F30958323E3
:103F40008883EC912E2B2C939FBF06C08FB7F894DB
:103F5000E8812E2B28838FBFDF91CF9108958F9218
:103F60009F92AF92BF92CF92DF92EF92FF926B013E
:103F70007C010E9495224B015C01C114D104E10433
:103F8000F104F1F00E949522DC01CB018819990916
:103F9000AA09BB09883E9340A105B10570F321E051
:103FA000C21AD108E108F10888EE880E83E0981E55
:103FB000A11CB11CC114D104E104F10419F7DDCF37
:103FC000FF90EF90DF90CF90BF90AF909F908F9039
:103FD00008950F931F93CF93DF93C4E6D0E09881A9
:103FE0009E7F9883862B80937C000AE710E0F8017F
:103FF0008081886880836AE070E080E090E00E94C1
:10400000AF1F82E00E94F20F84E00E94F20FF801DD
:10401000808187778083888181608883809177041D
:1040200090917804969587959695879590937804C6
:1040300080937704DF91CF911F910F91089586B1FE
:1040400069E170E080E090E00E94AF1F86B181706E
:104050000895CF92DF92EF92FF92A0911602B09155
:10406000170261E0811101C060E0ED91FC911197B0
:104070000190F081E02DCD0109956B017C01672B4A
:10408000682B692B61F00E943B066C0D7D1D8E1D17
:104090009F1DFF90EF90DF90CF900C945206FF9001
:1040A000EF90DF90CF900895CF93DF931F92CDB71D
:1040B000DEB721E041E050E0BE016F5F7F4F8F77B8
:1040C0000E948F0689810F90DF91CF910895CF9341
:1040D000DF931F92CDB7DEB7698320E041E050E067
:1040E000BE016F5F7F4F80680E948F060F90DF9147
:1040F000CF91089560911E03623124F462301CF464
:1041000062E001C061E16250606889E00E9467205E
:104110008DE40E945420682F64608DE40C94672025
:10412000AF92BF92CF92DF92EF92FF920F931F93C5
:10413000CF93DF938091140390911503A091160300
:10414000B09117039C01AD0160E070E080E090E069
:1041500003E10E94302DA12CE8E4BE2EF8EECF2E14
:10416000DD24D394E12CF12C00E010E00E94D32C4C
:10417000C22FB32E6A017B01182FD92F00E10E94B4
:104180004B2D622F86E00E9467202C2F3B2DA6012D
:10419000B701812F9D2F08E00E944B2D622F87E0F1
:1041A0000E9467206C2F88E0DF91CF911F910F91C3
:1041B000FF90EF90DF90CF90BF90AF900C9467206E
:1041C000CF93DF9360911A0370911B03D62FD770A2
:1041D000CB0153E0969587955A95E1F7837081302E
:1041E00049F050F0823051F06FE671E082E991E0E1
:1041F0000E942306C0E803C0C0E701C0C0E9CB01AC
:1042000045E0969587954A95E1F78370823041F0B5
:10421000833041F0813011F0C26005C0C46003C03A
:10422000C66001C0C860672F77276115710521F04E
:10423000C16082E20E9467206C2F8DE10E9467209E
:104240006D2F6295607F605A80911A0387FF6460CA
:104250008EE10E946720D550D23068F480911A0315
:1042600090911B0323E0969587952A95E1F783703B
:1042700011F46CE001C064E086E2DF91CF910C9410
:104280006720CF93DF93D82FC82FC77019F081E034
:104290000E9429206D2F81E00E946720C11105C076
:1042A00080E0DF91CF910C942920DF91CF91089588
:1042B000CF93C82F81E00E945420887F8C2BCF9110
:1042C0000C944121CF92DF92EF92FF92CF93DF9334
:1042D0000E941C06C0910503D0910603209739F077
:1042E0008881998190930603809305031FC0E09114
:1042F0000303F09104033097C9F0C280D380E480B7
:10430000F5800E943B06C61AD70AE80AF90A1C146F
:104310001D041E041F0454F0C0910303D091040334
:104320008881998190930403809303030E94FA0685
:10433000209751F0EE81FF81CE01DF91CF91FF9068
:10434000EF90DF90CF900994DF91CF91FF90EF90A5
:10435000DF90CF900895E82FF0E0E254F84FE49119
:10436000EF3F09F081500895CF93DF9390E4E7E4A5
:10437000F3E0DF011D929A95E9F790E2E7E8F3E0B8
:10438000DF01292F1D922A95E9F7E7E2F3E0DF012B
:104390001D929A95E9F727E030E03093A803209327
:1043A000A703811102C083E001C080E0C7E4D3E02D
:1043B000A7E8B3E093E0980F2FE330E044E0849F58
:1043C000F0011124EA55F84F45915591659174918A
:1043D00049935993699379932D933D938F5F8913F3
:1043E000EDCF88EE93E09093280380932703CEE0EF
:1043F000C09329030E940E098F7080932A0384E6DC
:1044000090E09093300380932F03C09331030E9478
:104410000E098F70809332038AE090E09093380306
:10442000809337038BE1809339030E940E098F70CC
:1044300080933A030E943B0660933B0370933C03D6
:1044400080933D0390933E03609333037093340352
:10445000809335039093360360932B0370932C0362
:1044600080932D0390932E03DF91CF9108956038B0
:1044700011F06093B6039091B703981759F08093A9
:10448000B7038091B3039091B40398609093B40301
:104490008093B3030895CF930E941C0680E00E948E
:1044A00058210E94FA060E941C0683E093E00E94B5
:1044B000461D892B21F485E093E00E94461D0E9451
:1044C000FA0680E791E0E7E0F3E0DF019C011D924E
:1044D00021503040E1F70E940E09C82F0E940E09BA
:1044E0002C2F30E0322F2227282B3093F4032093F7
:1044F000F3031092B4031092B3031092B80380E850
:104500008093290410922D0488E096EEA3EDB3E386
:1045100080932E0490932F04A0933004B093310421
:1045200081E080932404CF9108953FB7F89480915F
:10453000D8059091D905A091DA05B091DB0526B593
:10454000A89B05C02F3F19F00196A11DB11D3FBFCB
:10455000BA2FA92F982F8827820F911DA11DB11D59
:10456000BC01CD0146E0660F771F881F991F4A9551
:10457000D1F708952FB7F8946091D4057091D505BF
:104580008091D6059091D7052FBF08951F920F9265
:104590000FB60F9211242F933F938F939F93AF9356
:1045A000BF938091D4059091D505A091D605B09187
:1045B000D7053091DC0520E3230F2D3720F44096FA
:1045C000A11DB11D05C023EB230F4196A11DB11DF7
:1045D0002093DC058093D4059093D505A093D60550
:1045E000B093D7058091D8059091D905A091DA05AF
:1045F000B091DB050196A11DB11D8093D805909364
:10460000D905A093DA05B093DB05BF91AF919F91D7
:104610008F913F912F910F900FBE0F901F90189583
:10462000CF93DF93CDB7DEB76A970FB6F894DEBFAE
:104630000FBECDBF789484B5826084BD84B581609F
:1046400084BD85B5826085BD85B5816085BD80915D
:104650006E00816080936E001092810080918100D5
:1046600082608093810080918000816080938000CF
:104670008091B10084608093B1008091B00081602E
:104680008093B0008091910082608093910080912E
:10469000910081608093910080919000816080936F
:1046A00090008091A10082608093A1008091A10080
:1046B00081608093A1008091A00081608093A00020
:1046C00080917A008B7F80937A0080917A0082605B
:1046D00080937A0080917A00816080937A00809143
:1046E0007A00806880937A001092C1008FEE84B9BE
:1046F00084E085B916E0F12EF7B802E0E02EE8B8C4
:1047000082EF8AB91BB81DB81EB80FB6F894A895E9
:1047100080916000886180936000109260000FBEFD
:1047200010927A008091640081608093640080918F
:104730006400826080936400809164008F7D809328
:1047400064008091640088608093640080916400BC
:10475000806480936400809165008160809365002F
:10476000809165008860809365008091640080611D
:1047700080936400809165008061809365008091E2
:1047800065008062809365008091650084608093FD
:104790006500809164008B7F809364008091640049
:1047A00080688093640080EC80937E0080917A0022
:1047B000816080937A001DBA1092680010926B009D
:1047C00010926C0010926D001092690083E08CBB17
:1047D0000E941F20D82E8823D9F1809164008D7FFC
:1047E0008093640083E00E94A30EE0918C04F0911A
:1047F0008D04E082E0918804F09189041082E091B8
:104800008A04F0918B048CE0808310929404E091F0
:104810009004F0919104F082E0918E04F0918F0465
:10482000808180618083E0918E04F0918F0480818B
:1048300088608083E0918E04F0918F04808180688D
:104840008083E0918E04F0918F0480818F7D80833E
:1048500080E00E949C0D84E0E3E0F3E0DF011D9224
:104860008A95E9F786E091E0909319028093180207
:1048700089E195E09093170280931602E091190563
:10488000F0911A050280F381E02D0995E09018025D
:10489000F0901902F70180818F3F19F461E270E016
:1048A00005C093819F3F31F462E270E082E391E0C2
:1048B0000E942306F70194819F3F31F495819F3F29
:1048C00019F463E270E0F2CF61E00E94441F61E0FE
:1048D000D7018C910E94731FF70181818F3F69F08E
:1048E00061E09681911101C060E00E94441F61E087
:1048F000D70111968C910E94731FF70182818F3F1F
:1049000019F060E00E94731F60E0D70113968C914C
:104910000E94731FF70184818F3F19F060E00E94AD
:10492000731FD70115968C918F3F19F060E00E949C
:10493000731FFFB6F89480911D02811127C0E6EF26
:10494000F5E08491EAE0F6E09491E82FF0E0EE0FD4
:10495000FF1FE852FA4FA591B491EC91E92321F49D
:1049600061E08AE00E94441F61E08AE00E94731FB8
:104970008CB580618CBD8CB580648CBD61E08DE0B0
:104980000E94731F61E08BE00E94731F80911D02E3
:104990008F5F80931D02FFBE0E941C0681E00E9473
:1049A0002920E0901802F0901902F70182818F3FD0
:1049B00049F060E00E94441F61E0D70112968C919B
:1049C0000E94731F0E943B06625C7F4F8F4F9F4F78
:1049D0000E945206F70182818F3F19F060E00E9429
:1049E000731F0E943B06685C7E4F8F4F9F4F0E9453
:1049F000520680E00E94582182E40E9454208231B5
:104A000009F027C18091160290911702DC01ED9107
:104A1000FC910680F781E02D0995882341F08BE415
:104A20000E945420682F60618BE40E94672082E01E
:104A30000E942B0981E00E94542087708530D1F7B5
:104A4000A6E0EA2EA2E0FA2EF8E0AF2EB12C8CE21E
:104A50000E9454208170C82E8CE20E9454202C2D7C
:104A600030E0082F017010E02017310781F3F701C3
:104A70008181880FC82AC182F1E0AF1AB10839F7E5
:104A80002FEFE21AF20A85E1E81682E0F806E1F675
:104A900080E18093060280E00E9458210E94FA067D
:104AA00080E490E09093B4038093B3030E944B2280
:104AB0008CEC9CE49093BB038093BA0381EA97E269
:104AC000AEEBB3E38093470390934803A09349036D
:104AD000B0934A038FE390E0909388038093870319
:104AE0002091A7033091A80341EE54E361EC73E3F6
:104AF00040934B0350934C0360934D0370934E03CC
:104B00004FE750E050938A034093890341E252E417
:104B100064EC73E340934F0350935003609351034D
:104B20007093520390938C0380938B0341E655EE70
:104B30006EEA73E340935303509354036093550319
:104B40007093560390938E0380938D0341EA52EF46
:104B500061EB73E3409357035093580360935903F9
:104B600070935A039093900380938F0341EE5FEF0D
:104B700064EB73E340935B0350935C0360935D03CA
:104B800070935E03909392038093910341E25DE002
:104B900068EB73E340935F0350936003609361039A
:104BA00070936203909394038093930341E65AE1D8
:104BB0006BEB73E34093630350936403609365036B
:104BC00070936603909396038093950380E096ED2F
:104BD000A8ECB3E38093670390936803A093690301
:104BE000B0936A0380E890E09093980380939703D2
:104BF000C9018F6F91609093A8038093A70383E00E
:104C000080932D0410921A02DD2041F188E191E099
:104C10000E945F1C83E191E00E94441C81E090E0CF
:104C20000E948C1E8EE091E00E94441C81E090E086
:104C30000E948C1E81E0809325028DE391E00E940A
:104C40005F1C8CE794E00E94F30481E00E946A0FED
:104C500011C065E370E083E591E02ACE0E94700FF9
:104C6000811102C082E001C080E08093250288E0CB
:104C70000E94A30E96B1987080911B05811104C00B
:104C800081E0911104C002C081E0911180E0809325
:104C90008C058E010F5F1F4F5E0191E1A90EB11CC3
:104CA0007AE0672E712CE2E38E2E912CF090250293
:104CB000F11069C280911C050E946A0F80E00E9479
:104CC0000F0E10921C0281E080931E02E3E2F5E0D9
:104CD00001900020E9F7DF0112972D0143E2C42E75
:104CE00045E0D42E56E0352E66E6262EF60180816C
:104CF000882309F42FC14C145D0408F42BC165E22C
:104D000070E0C6010E94292F7C01009709F41FC1A1
:104D1000C816D90671F0DC011C92C6010E94760EFD
:104D2000811104C085E2F701808314C1E5E2D70157
:104D3000EC93D70111968C91853249F486E791E086
:104D40000E94760E6701B2E0CB0ED11CCFCF882334
:104D500009F400C1F7019281992309F4FBC0893657
:104D600051F0823509F462C431E0813481F030E0E1
:104D7000893411F01BC031E040911E0550911F0590
:104D80005A8F498F2FEF1BC0813409F057C441E07F
:104D900050E060918D0570918E05613D774010F077
:104DA00040E050E05A8F498F20E009C0823461F71B
:104DB00040918D0550918E055A8F498F22E086E0F3
:104DC000E0E0F1E0D80101900D928A95E1F7943688
:104DD00019F49A831B8227C0983729F4332319F1D9
:104DE00082E38B8320C0923611F419821CC0933663
:104DF00011F4998318C09234B1F4898D9A8D892B5E
:104E000049F084E7898382E78A8385E78B8385E697
:104E10008C8309C0298281E68A838CE68B8383E7B1
:104E20008C8385E68D838981811127C0332311F01E
:104E3000E1E001C0E2E080911C02282F30E0A901EE
:104E40004E0F511D433351050CF07CC0D901A856BB
:104E5000BA4F998D9C93A1E0A80FE13029F0B0E002
:104E6000A856BA4F9A8D9C938E0F80931C02E82F00
:104E7000F0E0E856FA4F108265C0833609F04EC064
:104E8000898D9A8D222389F0263679F0283629F4E7
:104E9000B4010E94002CCB0108C0223041F027361B
:104EA00031F0233709F04EC002C053E001C054E096
:104EB00040911C02E42FF0E0DF01A50FB11DD39754
:104EC0000CF040C030911E0261E0630F60931E023F
:104ED000E856FA4F3083E1E0E40FF0E0E856FA4F8D
:104EE0002083E3E0E40F22E0240F30E0533039F474
:104EF000E0931C02F901E856FA4F808323C0B30106
:104F00000E94002CD901A856BA4F7C934C5F409365
:104F10001C02F0E0E856FA4F608314C08A8D8F932C
:104F2000898D8F931F930F931F923F92BF92AF92E1
:104F30000E94342FC5010E94760E0FB6F894DEBF92
:104F40000FBECDBF670193E0C90ED11CCFCEC60105
:104F50000E94760E80911C02882309F44BC00E94A7
:104F600062210E94700FF0901C0210921B0280912F
:104F7000B30387FD3DC00E946221A4E3AF1508F191
:104F800088E995E0009739F04F2D50E0BC018FEB98
:104F900093E00E94202F1092BD0381E08093BC0318
:104FA000F092BE038091B3039091B4039C012860FA
:104FB0003093B4032093B30382FF109232040E9413
:104FC00025160E94BA226B017C0180911B0282305F
:104FD00078F40E9462210E94BA22DC01CB018C1974
:104FE0009D09AE09BF0981319742A105B10568F35A
:104FF0000E9462210E94622180911C05882319F081
:1050000080E00E946A0F96B1987080911B05811113
:1050100006C081E0911101C080E0F82E04C0FF2499
:10502000F3949111F12C80918C058F1551F08091A2
:105030001C050E946A0FF0928C0588E00E94A30E66
:10504000EDC28091200590912105009719F0282F3D
:10505000892F02C021E080E0209323028093240264
:1050600010921F021092200210922102109222022E
:1050700032E0E32EF12C80E00E94FF0E40911F02EF
:105080005091200260912102709122021A012B019D
:10509000FFEF2F1A3F0A4F0A5F0A20921F02309239
:1050A000200240922102509222022091200530914C
:1050B0002105232B21F4F0922402E0922302209177
:1050C000230230912402215031093093240220938D
:1050D0002302811103C0121613066CF226B1287048
:1050E00090911B05911104C091E0211104C002C0F0
:1050F00091E0211190E090938C05823009F47CC2FC
:10510000ADE3B5E2A20191010E948C2CEFB7F894B7
:10511000C090D405D090D505E090D605F090D70585
:10512000DC01CB018C0D9D1DAE1DBF1D8093D405F0
:105130009093D505A093D605B093D705C090D80518
:10514000D090D905E090DA05F090DB0568E476E7C9
:1051500081E990E00E94E42BDC01CB012EE0B695C2
:10516000A795979587952A95D1F7C80ED91EEA1E5F
:10517000FB1EC092D805D092D905E092DA05F092D4
:10518000DB05EFBF4BC221E0F21238C28091D2059D
:1051900081110AC08091D1050E94411DF092D20573
:1051A000109279041092D3058CE794E00E946E046B
:1051B000892B09F415C28CE794E00E944C04482E18
:1051C0009091D3058091D005981728F089E791E058
:1051D0000E94ED1B7FC08DE0481629F09AE0491629
:1051E00011F020E017C066E970E080E090E00E94D6
:1051F000AF1F8CE794E00E946E04892B51F08CE77E
:1052000094E00E9460048D3009F40BC28A3009F4E6
:1052100008C221E08091D205813009F05EC0309152
:10522000D3058091CE059091CF05211103C0A0E256
:105230004A1273C0FC01E30FF11D10823090CD05BE
:10524000C090CE05D090CF05E090CB05F090CC0576
:10525000512C3514D9F1B701C6010E94B02BB6E02C
:10526000EB0EF11C5394892BA1F715147CF5E0E2A9
:105270004E1204C080E20E94411D02C00E94401CE8
:105280005092790482E08093D2051092D305F3E026
:105290005F1609F457C0F51558F021E0521609F4CD
:1052A00048C058129DC10E94401C8DE391E043C04C
:1052B00085E0581609F4E8C0581608F43FC096E097
:1052C00059128EC181E00E949C0DDEC08CE291E0FB
:1052D0000E945F1C1092D20583C1823009F080C108
:1052E0003091D3058091CE059091CF052223A9F06E
:1052F000FC01E30FF11D1082E090CE05F090CF0588
:10530000F0927B04E0927A041092D205E114F10449
:1053100009F0BFC0D12C60E0C6C021E0230F20936C
:10532000D305FC01E30FF11D4082842D0E94411D35
:1053300057C186E792E00E945F1CA4C081E00E94F2
:105340000F0EA0C00E94401C8DE492E00E94441CFD
:1053500082E00E948A0D0E94E11C83E492E00E9498
:10536000441C83E00E948A0D0E94E11C8FE292E0BF
:105370000E94441C84E00E948A0D0E94E11C81E28C
:1053800092E00E94441C85E00E94750D0E94311D30
:105390008EE092E00E94441C87E00E94750D0E94FE
:1053A000311D8FEF91E00E94441C89E00E948A0D1C
:1053B0000E94E11C81EF91E00E94441C8FE60E9454
:1053C0008A0D0E94E11C48E050E0B80180E70E948D
:1053D0005B0D84EE91E00E94441C68E0C8010E94CD
:1053E000F21C48E050E0B80188E70E945B0D86EDB2
:1053F00091E00E94441C68E0C8010E94F21C40E158
:1054000050E0B80180E80E945B0D88EC91E00E94BA
:10541000441C60E1C8010E94F21C89EB91E00E94EB
:10542000441C81E90E948A0D0E94E11C8EEA91E0F1
:105430000E94441C80E90E948A0D0E94E11C86EAB9
:1054400091E00E94441C82E90E948A0D0E94E11CA6
:1054500088E991E00E94441C83E90E948A0D0E9421
:10546000E11C81E891E00E94441C44E650E063E2C4
:1054700075E08AE00E945B0D83E295E00E94ED1BDF
:105480000E94401CF12C02C0FF24F3941092D2051C
:1054900096C0DD24D394D7018C91803309F4D12CAC
:1054A000C7010E94892B262F30917904832F90E029
:1054B000FC013797EF30F10508F07BC0E65AFF4F4B
:1054C0000C94692C6D2D82E06FC06D2D83E06CC053
:1054D0006D2D84E069C0E114F10421F0C7010E9440
:1054E000892B03C060E070E0CB01788F6F8B42E0C6
:1054F00050E0BE01695E7F4F85E01EC0E114F104FB
:1055000021F0C7010E94892B01C060E087E04CC0F8
:1055100089E04AC0F70101900020E9F73197EE19C0
:10552000FF09CF0101978336910508F042C0AF0112
:105530004F5F5F4FB7018AE00E94340D37C0623081
:10554000C1F58FE631C068E0C8010E946B1CF82EDF
:10555000882379F18091790448E050E0B8018F30D8
:1055600011F480E70DC088E70BC060E1C8010E941C
:105570006B1CF82E8823E9F040E150E0B80180E888
:105580000E94340D17C081E90FC0662391F080E9B5
:105590000BC089EF860F863008F02FEF622F343171
:1055A00011F482E901C083E90E942F10FF24F394D3
:1055B00001C0F12C1092D205FF2051F0F12C8FE6A2
:1055C00092E00E945F1CFF2039F08DE592E00EC052
:1055D00085E692E00E945F1C8CE794E00E94F30451
:1055E0000E941F2081111AC080EB94E00E945F1C72
:1055F0008CE794E00E94F3040E94F30E81E00E9485
:105600006A0F81E00E94FF0E80E00E946A0F81E035
:105610000E94FF0E0E941F208111EECF0E941505EF
:1056200045CB8CE794E00E944C04F3CD20918C058F
:1056300030E03A8F298F31E026E6C1CB863529F458
:1056400040918F0550919005B7CB843541F440913E
:105650009105509192055A8F498F27E6B0CB883437
:1056600041F440919305509194055A8F498F28E653
:10567000A6CB803509F066CC4091950550919605F2
:105680005A8F498F23E79BCBECE7F4E01382128219
:1056900088EE93E0A0E0B0E084839583A683B7838F
:1056A00088E191E09183808385EC90E09587848701
:1056B00084EC90E09787868780EC90E0918B808BDC
:1056C00081EC90E0938B828B82EC90E0958B848BC5
:1056D00086EC90E0978B868B118E128E138E148E33
:1056E0008AE291E090931A0580931905EBECF5E0BE
:1056F00088E297E09183808385E1828388E995E061
:105700009483838382E385838EE386831782108666
:1057100008951F93FC0199278827BC01E8941191F3
:105720001032E9F3193010F01E30C8F31B3251F07B
:105730001D3249F4689406C00E94B92B610F711D97
:10574000811D911D119110531A30B0F33EF49095C4
:105750008095709561957F4F8F4F9F4F1F91089552
:10576000FB01DC018D91059080190110D9F3990B93
:105770000895592F482F372F262F660F771F881F20
:10578000991F660F771F881F991F620F731F841F51
:10579000951F660F771F881F991F0895F999FECFEF
:1057A00092BD81BDF89A992780B50895262FF99961
:1057B000FECF1FBA92BD81BD20BD0FB6F894FA9AF4
:1057C000F99A0FBE01960895DB018F939F930E9473
:1057D0008C2CBF91AF91A29F800D911DA39F900D26
:1057E000B29F900D11240895991B79E004C0991F70
:1057F000961708F0961B881F7A95C9F7809508952B
:10580000AA1BBB1B51E107C0AA1FBB1FA617B707E6
:1058100010F0A61BB70B881F991F5A95A9F7809502
:105820009095BC01CD01089597FB072E16F40094C6
:1058300007D077FD09D00E94002C07FC05D03EF46C
:10584000909581959F4F0895709561957F4F08952C
:10585000A1E21A2EAA1BBB1BFD010DC0AA1FBB1F74
:10586000EE1FFF1FA217B307E407F50720F0A21BE6
:10587000B30BE40BF50B661F771F881F991F1A9453
:1058800069F760957095809590959B01AC01BD017D
:10589000CF010895052E97FB1EF400940E94612C01
:1058A00057FD07D00E94282C07FC03D04EF40C941F
:1058B000612C50954095309521953F4F4F4F5F4F4C
:1058C000089590958095709561957F4F8F4F9F4F6C
:1058D0000895EE0FFF1F0590F491E02D09946927BC
:1058E000962769277827872778270895A29FB001F0
:1058F000B39FC001A39F700D811D1124911DB29F04
:10590000700D811D1124911D08950E94762CB7FF02
:105910000895821B930B08950E94762CA59F900DED
:10592000B49F900DA49F800D911D1124089597FBA5
:1059300057FF0C94A72C9F938F930E94A72C6E1B4C
:105940007F0BAF91BF918A0B9B0B0895E894DF9377
:10595000CF93FC01DB010E94762C7F936F93E901CA
:105960009A01AC01BF93AF933F932F93DF010E9445
:10597000762C26F46C1B7D0B820B930B9E01EB01A6
:10598000FC010E94732DAF91BF912F913F910E9416
:10599000732DBE01CF01F9012F913F91CF91DF917E
:1059A0000895689401C0E8948F929F92CF93DF93FB
:1059B0000E94DF2CDF91CF919F908F9008958824D3
:1059C0009924F401E401B0E49F93AA279A158B046B
:1059D0009C04ED05FE05CF05D007A10798F4AD2F77
:1059E000DC2FCF2FFE2FE92D982C892E982F872F73
:1059F000762F652F542F432F322F2227B85031F79F
:105A0000BF9127C01B2EBF91BB27220F331F441FFE
:105A1000551F661F771F881F991F881C991CEE1F32
:105A2000FF1FCC1FDD1FAA1FBB1F8A149B04EC05A0
:105A3000FD05CE05DF05A007B10748F08A189B08D1
:105A4000EC09FD09CE09DF09A00BB10B21601A9406
:105A5000E1F62EF49401AF01BE01CD01000C0895D2
:105A60000F93083090F0982F872F762F652F542FA3
:105A7000432F322F22270850F4CF220F331F441F09
:105A8000551F661F771F881F991F0A95B2F70F9140
:105A9000089597FB10F8169400080F93083098F0BB
:105AA0000850232F342F452F562F672F782F892FFB
:105AB000902DF4CF05949795879577956795579591
:105AC0004795379527950A95AAF70F9108950024D1
:105AD000A7FD00942A1730054005500560057005A4
